{"abi":[{"inputs":[],"stateMutability":"nonpayable","type":"constructor"},{"anonymous":false,"inputs":[{"indexed":true,"internalType":"address","name":"_certifyingAuthority","type":"address"},{"indexed":false,"internalType":"bool","name":"_newStatus","type":"bool"}],"name":"Authorization","type":"event"},{"anonymous":false,"inputs":[{"indexed":false,"internalType":"bytes32","name":"_certificateHash","type":"bytes32"},{"indexed":false,"internalType":"address","name":"_certifyingAuthority","type":"address"}],"name":"Certified","type":"event"},{"inputs":[],"name":"PERSONAL_PREFIX","outputs":[{"internalType":"bytes","name":"","type":"bytes"}],"stateMutability":"view","type":"function"},{"inputs":[{"internalType":"address","name":"_authorityAddress","type":"address"},{"internalType":"bytes32","name":"_name","type":"bytes32"}],"name":"addCertifyingAuthority","outputs":[],"stateMutability":"nonpayable","type":"function"},{"inputs":[{"internalType":"bytes32","name":"","type":"bytes32"}],"name":"certificates","outputs":[{"internalType":"bytes32","name":"name","type":"bytes32"},{"internalType":"bytes32","name":"qualification","type":"bytes32"},{"internalType":"bytes32","name":"extraData","type":"bytes32"},{"internalType":"bytes","name":"signers","type":"bytes"}],"stateMutability":"view","type":"function"},{"inputs":[{"internalType":"address","name":"","type":"address"}],"name":"certifyingAuthorities","outputs":[{"internalType":"bytes32","name":"name","type":"bytes32"},{"internalType":"bool","name":"isAuthorised","type":"bool"}],"stateMutability":"view","type":"function"},{"inputs":[],"name":"manager","outputs":[{"internalType":"address","name":"","type":"address"}],"stateMutability":"view","type":"function"},{"inputs":[{"internalType":"address","name":"_newManagerAddress","type":"address"}],"name":"newManager","outputs":[],"stateMutability":"nonpayable","type":"function"},{"inputs":[{"internalType":"bytes","name":"_signedCertificate","type":"bytes"},{"internalType":"bool","name":"_allowedSignersOnly","type":"bool"}],"name":"parseSignedCertificate","outputs":[{"components":[{"internalType":"bytes32","name":"name","type":"bytes32"},{"internalType":"bytes32","name":"qualification","type":"bytes32"},{"internalType":"bytes32","name":"extraData","type":"bytes32"},{"internalType":"bytes","name":"signers","type":"bytes"}],"internalType":"struct CertificateStorage.Certificate","name":"_certificateObj","type":"tuple"},{"internalType":"bytes32","name":"_certificateHash","type":"bytes32"}],"stateMutability":"view","type":"function"},{"inputs":[{"internalType":"bytes","name":"_signedCertificate","type":"bytes"}],"name":"registerCertificate","outputs":[{"internalType":"bytes32","name":"","type":"bytes32"}],"stateMutability":"nonpayable","type":"function"},{"inputs":[{"internalType":"bytes32","name":"_name","type":"bytes32"}],"name":"updateCertifyingAuthority","outputs":[],"stateMutability":"nonpayable","type":"function"},{"inputs":[{"internalType":"address","name":"_authorityAddress","type":"address"},{"internalType":"bool","name":"_newStatus","type":"bool"}],"name":"updateCertifyingAuthorityAuthorization","outputs":[],"stateMutability":"nonpayable","type":"function"}],"devdoc":{"methods":{}},"evm":{"assembly":"    /* \"CertificateStorage.sol\":187:5574  contract CertificateStorage {... */\n  mstore(0x40, 0x80)\n    /* \"CertificateStorage.sol\":1017:1069  constructor() public {... */\n  callvalue\n    /* \"--CODEGEN--\":8:17   */\n  dup1\n    /* \"--CODEGEN--\":5:7   */\n  iszero\n  tag_1\n  jumpi\n    /* \"--CODEGEN--\":30:31   */\n  0x00\n    /* \"--CODEGEN--\":27:28   */\n  dup1\n    /* \"--CODEGEN--\":20:32   */\n  revert\n    /* \"--CODEGEN--\":5:7   */\ntag_1:\n    /* \"CertificateStorage.sol\":1017:1069  constructor() public {... */\n  pop\n    /* \"CertificateStorage.sol\":1054:1064  msg.sender */\n  caller\n    /* \"CertificateStorage.sol\":1044:1051  manager */\n  0x02\n  0x00\n    /* \"CertificateStorage.sol\":1044:1064  manager = msg.sender */\n  0x0100\n  exp\n  dup2\n  sload\n  dup2\n  0xffffffffffffffffffffffffffffffffffffffff\n  mul\n  not\n  and\n  swap1\n  dup4\n  0xffffffffffffffffffffffffffffffffffffffff\n  and\n  mul\n  or\n  swap1\n  sstore\n  pop\n    /* \"CertificateStorage.sol\":187:5574  contract CertificateStorage {... */\n  dataSize(sub_0)\n  dup1\n  dataOffset(sub_0)\n  0x00\n  codecopy\n  0x00\n  return\nstop\n\nsub_0: assembly {\n        /* \"CertificateStorage.sol\":187:5574  contract CertificateStorage {... */\n      mstore(0x40, 0x80)\n      callvalue\n        /* \"--CODEGEN--\":8:17   */\n      dup1\n        /* \"--CODEGEN--\":5:7   */\n      iszero\n      tag_1\n      jumpi\n        /* \"--CODEGEN--\":30:31   */\n      0x00\n        /* \"--CODEGEN--\":27:28   */\n      dup1\n        /* \"--CODEGEN--\":20:32   */\n      revert\n        /* \"--CODEGEN--\":5:7   */\n    tag_1:\n        /* \"CertificateStorage.sol\":187:5574  contract CertificateStorage {... */\n      pop\n      jumpi(tag_2, lt(calldatasize, 0x04))\n      shr(0xe0, calldataload(0x00))\n      dup1\n      0x841f8eed\n      gt\n      tag_13\n      jumpi\n      dup1\n      0x841f8eed\n      eq\n      tag_8\n      jumpi\n      dup1\n      0x906e9400\n      eq\n      tag_9\n      jumpi\n      dup1\n      0xc189f3b3\n      eq\n      tag_10\n      jumpi\n      dup1\n      0xe02dab0d\n      eq\n      tag_11\n      jumpi\n      dup1\n      0xe987ef02\n      eq\n      tag_12\n      jumpi\n      jump(tag_2)\n    tag_13:\n      dup1\n      0x0b9962b1\n      eq\n      tag_3\n      jumpi\n      dup1\n      0x481c6a75\n      eq\n      tag_4\n      jumpi\n      dup1\n      0x6a40856a\n      eq\n      tag_5\n      jumpi\n      dup1\n      0x742f0688\n      eq\n      tag_6\n      jumpi\n      dup1\n      0x756ca62e\n      eq\n      tag_7\n      jumpi\n    tag_2:\n      0x00\n      dup1\n      revert\n        /* \"CertificateStorage.sol\":3452:5084  function parseSignedCertificate(... */\n    tag_3:\n      tag_14\n      0x04\n      dup1\n      calldatasize\n      sub\n      tag_15\n      swap2\n      swap1\n      dup2\n      add\n      swap1\n      jump(tag_16)\n    tag_15:\n      tag_17\n      jump\t// in\n    tag_14:\n      mload(0x40)\n      tag_18\n      swap3\n      swap2\n      swap1\n      jump(tag_19)\n    tag_18:\n      mload(0x40)\n      dup1\n      swap2\n      sub\n      swap1\n      return\n        /* \"CertificateStorage.sol\":539:561  address public manager */\n    tag_4:\n      tag_20\n      tag_21\n      jump\t// in\n    tag_20:\n      mload(0x40)\n      tag_22\n      swap2\n      swap1\n      jump(tag_23)\n    tag_22:\n      mload(0x40)\n      dup1\n      swap2\n      sub\n      swap1\n      return\n        /* \"CertificateStorage.sol\":466:534  mapping(address => CertifyingAuthority) public certifyingAuthorities */\n    tag_5:\n      tag_24\n      0x04\n      dup1\n      calldatasize\n      sub\n      tag_25\n      swap2\n      swap1\n      dup2\n      add\n      swap1\n      jump(tag_26)\n    tag_25:\n      tag_27\n      jump\t// in\n    tag_24:\n      mload(0x40)\n      tag_28\n      swap3\n      swap2\n      swap1\n      jump(tag_29)\n    tag_28:\n      mload(0x40)\n      dup1\n      swap2\n      sub\n      swap1\n      return\n        /* \"CertificateStorage.sol\":411:462  mapping(bytes32 => Certificate) public certificates */\n    tag_6:\n      tag_30\n      0x04\n      dup1\n      calldatasize\n      sub\n      tag_31\n      swap2\n      swap1\n      dup2\n      add\n      swap1\n      jump(tag_32)\n    tag_31:\n      tag_33\n      jump\t// in\n    tag_30:\n      mload(0x40)\n      tag_34\n      swap5\n      swap4\n      swap3\n      swap2\n      swap1\n      jump(tag_35)\n    tag_34:\n      mload(0x40)\n      dup1\n      swap2\n      sub\n      swap1\n      return\n        /* \"CertificateStorage.sol\":1073:1341  function addCertifyingAuthority(address _authorityAddress, bytes32 _name) public onlyManager {... */\n    tag_7:\n      tag_36\n      0x04\n      dup1\n      calldatasize\n      sub\n      tag_37\n      swap2\n      swap1\n      dup2\n      add\n      swap1\n      jump(tag_38)\n    tag_37:\n      tag_39\n      jump\t// in\n    tag_36:\n      stop\n        /* \"CertificateStorage.sol\":1659:1879  function updateCertifyingAuthority(... */\n    tag_8:\n      tag_40\n      0x04\n      dup1\n      calldatasize\n      sub\n      tag_41\n      swap2\n      swap1\n      dup2\n      add\n      swap1\n      jump(tag_32)\n    tag_41:\n      tag_42\n      jump\t// in\n    tag_40:\n      stop\n        /* \"CertificateStorage.sol\":1345:1451  function newManager(address _newManagerAddress) public onlyManager {... */\n    tag_9:\n      tag_43\n      0x04\n      dup1\n      calldatasize\n      sub\n      tag_44\n      swap2\n      swap1\n      dup2\n      add\n      swap1\n      jump(tag_26)\n    tag_44:\n      tag_45\n      jump\t// in\n    tag_43:\n      stop\n        /* \"CertificateStorage.sol\":565:639  bytes constant public PERSONAL_PREFIX = \"\\x19Ethereum Signed Message:\\n96\" */\n    tag_10:\n      tag_46\n      tag_47\n      jump\t// in\n    tag_46:\n      mload(0x40)\n      tag_48\n      swap2\n      swap1\n      jump(tag_49)\n    tag_48:\n      mload(0x40)\n      dup1\n      swap2\n      sub\n      swap1\n      return\n        /* \"CertificateStorage.sol\":1883:3448  function registerCertificate(... */\n    tag_11:\n      tag_50\n      0x04\n      dup1\n      calldatasize\n      sub\n      tag_51\n      swap2\n      swap1\n      dup2\n      add\n      swap1\n      jump(tag_52)\n    tag_51:\n      tag_53\n      jump\t// in\n    tag_50:\n      mload(0x40)\n      tag_54\n      swap2\n      swap1\n      jump(tag_55)\n    tag_54:\n      mload(0x40)\n      dup1\n      swap2\n      sub\n      swap1\n      return\n        /* \"CertificateStorage.sol\":1455:1655  function updateCertifyingAuthorityAuthorization(... */\n    tag_12:\n      tag_56\n      0x04\n      dup1\n      calldatasize\n      sub\n      tag_57\n      swap2\n      swap1\n      dup2\n      add\n      swap1\n      jump(tag_58)\n    tag_57:\n      tag_59\n      jump\t// in\n    tag_56:\n      stop\n        /* \"CertificateStorage.sol\":3452:5084  function parseSignedCertificate(... */\n    tag_17:\n        /* \"CertificateStorage.sol\":3581:3615  Certificate memory _certificateObj */\n      tag_60\n      tag_61\n      jump\t// in\n    tag_60:\n        /* \"CertificateStorage.sol\":3621:3645  bytes32 _certificateHash */\n      0x00\n        /* \"CertificateStorage.sol\":3656:3669  bytes32 _name */\n      dup1\n        /* \"CertificateStorage.sol\":3675:3697  bytes32 _qualification */\n      0x00\n        /* \"CertificateStorage.sol\":3703:3721  bytes32 _extraData */\n      dup1\n        /* \"CertificateStorage.sol\":3727:3748  bytes memory _signers */\n      0x60\n        /* \"CertificateStorage.sol\":3812:3816  0x20 */\n      0x20\n        /* \"CertificateStorage.sol\":3792:3810  _signedCertificate */\n      dup9\n        /* \"CertificateStorage.sol\":3788:3817  add(_signedCertificate, 0x20) */\n      add\n        /* \"CertificateStorage.sol\":3839:3847  _pointer */\n      dup1\n        /* \"CertificateStorage.sol\":3833:3848  mload(_pointer) */\n      mload\n        /* \"CertificateStorage.sol\":3824:3848  _name := mload(_pointer) */\n      swap5\n      pop\n        /* \"CertificateStorage.sol\":3893:3897  0x20 */\n      0x20\n        /* \"CertificateStorage.sol\":3883:3891  _pointer */\n      dup2\n        /* \"CertificateStorage.sol\":3879:3898  add(_pointer, 0x20) */\n      add\n        /* \"CertificateStorage.sol\":3873:3899  mload(add(_pointer, 0x20)) */\n      mload\n        /* \"CertificateStorage.sol\":3855:3899  _qualification := mload(add(_pointer, 0x20)) */\n      swap4\n      pop\n        /* \"CertificateStorage.sol\":3940:3944  0x40 */\n      0x40\n        /* \"CertificateStorage.sol\":3930:3938  _pointer */\n      dup2\n        /* \"CertificateStorage.sol\":3926:3945  add(_pointer, 0x40) */\n      add\n        /* \"CertificateStorage.sol\":3920:3946  mload(add(_pointer, 0x40)) */\n      mload\n        /* \"CertificateStorage.sol\":3906:3946  _extraData := mload(add(_pointer, 0x40)) */\n      swap3\n      pop\n        /* \"CertificateStorage.sol\":3764:3952  {... */\n      pop\n        /* \"CertificateStorage.sol\":4011:4026  PERSONAL_PREFIX */\n      mload(0x40)\n      dup1\n      0x40\n      add\n      0x40\n      mstore\n      dup1\n      0x1c\n      dup2\n      mstore\n      0x20\n      add\n      0x19457468657265756d205369676e6564204d6573736167653a0a393600000000\n      dup2\n      mstore\n      pop\n        /* \"CertificateStorage.sol\":4034:4039  _name */\n      dup5\n        /* \"CertificateStorage.sol\":4047:4061  _qualification */\n      dup5\n        /* \"CertificateStorage.sol\":4069:4079  _extraData */\n      dup5\n        /* \"CertificateStorage.sol\":3987:4085  abi.encodePacked(... */\n      add(0x20, mload(0x40))\n      tag_63\n      swap5\n      swap4\n      swap3\n      swap2\n      swap1\n      jump(tag_64)\n    tag_63:\n      mload(0x40)\n        /* \"--CODEGEN--\":49:53   */\n      0x20\n        /* \"--CODEGEN--\":39:46   */\n      dup2\n        /* \"--CODEGEN--\":30:37   */\n      dup4\n        /* \"--CODEGEN--\":26:47   */\n      sub\n        /* \"--CODEGEN--\":22:54   */\n      sub\n        /* \"--CODEGEN--\":13:20   */\n      dup2\n        /* \"--CODEGEN--\":6:55   */\n      mstore\n        /* \"CertificateStorage.sol\":3987:4085  abi.encodePacked(... */\n      swap1\n      0x40\n      mstore\n        /* \"CertificateStorage.sol\":3977:4086  keccak256(abi.encodePacked(... */\n      dup1\n      mload\n      swap1\n      0x20\n      add\n      keccak256\n        /* \"CertificateStorage.sol\":3958:4086  _certificateHash = keccak256(abi.encodePacked(... */\n      swap5\n      pop\n        /* \"CertificateStorage.sol\":4097:4107  uint256 _i */\n      0x00\n        /* \"CertificateStorage.sol\":689:691  96 */\n      0x60\n        /* \"CertificateStorage.sol\":4097:4136  uint256 _i = CERTIFICATE_DETAILS_LENGTH */\n      swap1\n      pop\n        /* \"CertificateStorage.sol\":4093:4909  for(uint256 _i = CERTIFICATE_DETAILS_LENGTH; _i < _signedCertificate.length; _i += SIGNATURE_LENGTH) {... */\n    tag_65:\n        /* \"CertificateStorage.sol\":4143:4161  _signedCertificate */\n      dup9\n        /* \"CertificateStorage.sol\":4143:4168  _signedCertificate.length */\n      mload\n        /* \"CertificateStorage.sol\":4138:4140  _i */\n      dup2\n        /* \"CertificateStorage.sol\":4138:4168  _i < _signedCertificate.length */\n      lt\n        /* \"CertificateStorage.sol\":4093:4909  for(uint256 _i = CERTIFICATE_DETAILS_LENGTH; _i < _signedCertificate.length; _i += SIGNATURE_LENGTH) {... */\n      iszero\n      tag_66\n      jumpi\n        /* \"CertificateStorage.sol\":4202:4212  bytes32 _r */\n      0x00\n        /* \"CertificateStorage.sol\":4220:4230  bytes32 _s */\n      dup1\n        /* \"CertificateStorage.sol\":4238:4246  uint8 _v */\n      0x00\n        /* \"CertificateStorage.sol\":4324:4326  _i */\n      dup4\n        /* \"CertificateStorage.sol\":4318:4322  0x20 */\n      0x20\n        /* \"CertificateStorage.sol\":4314:4327  add(0x20, _i) */\n      add\n        /* \"CertificateStorage.sol\":4294:4312  _signedCertificate */\n      dup13\n        /* \"CertificateStorage.sol\":4290:4328  add(_signedCertificate, add(0x20, _i)) */\n      add\n        /* \"CertificateStorage.sol\":4349:4357  _pointer */\n      dup1\n        /* \"CertificateStorage.sol\":4343:4358  mload(_pointer) */\n      mload\n        /* \"CertificateStorage.sol\":4337:4358  _r := mload(_pointer) */\n      swap4\n      pop\n        /* \"CertificateStorage.sol\":4393:4397  0x20 */\n      0x20\n        /* \"CertificateStorage.sol\":4383:4391  _pointer */\n      dup2\n        /* \"CertificateStorage.sol\":4379:4398  add(_pointer, 0x20) */\n      add\n        /* \"CertificateStorage.sol\":4373:4399  mload(add(_pointer, 0x20)) */\n      mload\n        /* \"CertificateStorage.sol\":4367:4399  _s := mload(add(_pointer, 0x20)) */\n      swap3\n      pop\n        /* \"CertificateStorage.sol\":4442:4446  0x40 */\n      0x40\n        /* \"CertificateStorage.sol\":4432:4440  _pointer */\n      dup2\n        /* \"CertificateStorage.sol\":4428:4447  add(_pointer, 0x40) */\n      add\n        /* \"CertificateStorage.sol\":4422:4448  mload(add(_pointer, 0x40)) */\n      mload\n        /* \"CertificateStorage.sol\":4419:4420  0 */\n      0x00\n        /* \"CertificateStorage.sol\":4414:4449  byte(0, mload(add(_pointer, 0x40))) */\n      byte\n        /* \"CertificateStorage.sol\":4408:4449  _v := byte(0, mload(add(_pointer, 0x40))) */\n      swap2\n      pop\n        /* \"CertificateStorage.sol\":4468:4470  27 */\n      0x1b\n        /* \"CertificateStorage.sol\":4464:4466  _v */\n      dup3\n        /* \"CertificateStorage.sol\":4461:4471  lt(_v, 27) */\n      lt\n        /* \"CertificateStorage.sol\":4458:4460  if */\n      iszero\n      tag_68\n      jumpi\n        /* \"CertificateStorage.sol\":4488:4490  27 */\n      0x1b\n        /* \"CertificateStorage.sol\":4484:4486  _v */\n      dup3\n        /* \"CertificateStorage.sol\":4480:4491  add(_v, 27) */\n      add\n        /* \"CertificateStorage.sol\":4474:4491  _v := add(_v, 27) */\n      swap2\n      pop\n        /* \"CertificateStorage.sol\":4458:4460  if */\n    tag_68:\n        /* \"CertificateStorage.sol\":4264:4501  {... */\n      pop\n        /* \"CertificateStorage.sol\":4523:4525  27 */\n      0x1b\n        /* \"CertificateStorage.sol\":4517:4519  _v */\n      dup2\n        /* \"CertificateStorage.sol\":4517:4525  _v == 27 */\n      0xff\n      and\n      eq\n        /* \"CertificateStorage.sol\":4517:4537  _v == 27 || _v == 28 */\n      dup1\n      tag_69\n      jumpi\n      pop\n        /* \"CertificateStorage.sol\":4535:4537  28 */\n      0x1c\n        /* \"CertificateStorage.sol\":4529:4531  _v */\n      dup2\n        /* \"CertificateStorage.sol\":4529:4537  _v == 28 */\n      0xff\n      and\n      eq\n        /* \"CertificateStorage.sol\":4517:4537  _v == 27 || _v == 28 */\n    tag_69:\n        /* \"CertificateStorage.sol\":4509:4564  require(_v == 27 || _v == 28, 'invalid recovery value') */\n      tag_70\n      jumpi\n      mload(0x40)\n      0x08c379a000000000000000000000000000000000000000000000000000000000\n      dup2\n      mstore\n      0x04\n      add\n      tag_71\n      swap1\n      jump(tag_72)\n    tag_71:\n      mload(0x40)\n      dup1\n      swap2\n      sub\n      swap1\n      revert\n    tag_70:\n        /* \"CertificateStorage.sol\":4573:4588  address _signer */\n      0x00\n        /* \"CertificateStorage.sol\":4591:4630  ecrecover(_certificateHash, _v, _r, _s) */\n      0x01\n        /* \"CertificateStorage.sol\":4601:4617  _certificateHash */\n      dup11\n        /* \"CertificateStorage.sol\":4619:4621  _v */\n      dup4\n        /* \"CertificateStorage.sol\":4623:4625  _r */\n      dup7\n        /* \"CertificateStorage.sol\":4627:4629  _s */\n      dup7\n        /* \"CertificateStorage.sol\":4591:4630  ecrecover(_certificateHash, _v, _r, _s) */\n      mload(0x40)\n      0x00\n      dup2\n      mstore\n      0x20\n      add\n      0x40\n      mstore\n      mload(0x40)\n      tag_73\n      swap5\n      swap4\n      swap3\n      swap2\n      swap1\n      jump(tag_74)\n    tag_73:\n      0x20\n      mload(0x40)\n      0x20\n      dup2\n      sub\n      swap1\n      dup1\n      dup5\n      sub\n      swap1\n      dup6\n      gas\n      staticcall\n      iszero\n        /* \"--CODEGEN--\":8:17   */\n      dup1\n        /* \"--CODEGEN--\":5:7   */\n      iszero\n      tag_76\n      jumpi\n        /* \"--CODEGEN--\":45:61   */\n      returndatasize\n        /* \"--CODEGEN--\":42:43   */\n      0x00\n        /* \"--CODEGEN--\":39:40   */\n      dup1\n        /* \"--CODEGEN--\":24:62   */\n      returndatacopy\n        /* \"--CODEGEN--\":77:93   */\n      returndatasize\n        /* \"--CODEGEN--\":74:75   */\n      0x00\n        /* \"--CODEGEN--\":67:94   */\n      revert\n        /* \"--CODEGEN--\":5:7   */\n    tag_76:\n        /* \"CertificateStorage.sol\":4591:4630  ecrecover(_certificateHash, _v, _r, _s) */\n      pop\n      pop\n      pop\n      mload(sub(mload(0x40), 0x20))\n        /* \"CertificateStorage.sol\":4573:4630  address _signer = ecrecover(_certificateHash, _v, _r, _s) */\n      swap1\n      pop\n        /* \"CertificateStorage.sol\":4647:4683  checkUniqueSigner(_signer, _signers) */\n      tag_77\n        /* \"CertificateStorage.sol\":4665:4672  _signer */\n      dup2\n        /* \"CertificateStorage.sol\":4674:4682  _signers */\n      dup8\n        /* \"CertificateStorage.sol\":4647:4664  checkUniqueSigner */\n      tag_78\n        /* \"CertificateStorage.sol\":4647:4683  checkUniqueSigner(_signer, _signers) */\n      jump\t// in\n    tag_77:\n        /* \"CertificateStorage.sol\":4639:4716  require(checkUniqueSigner(_signer, _signers), 'each signer should be unique') */\n      tag_79\n      jumpi\n      mload(0x40)\n      0x08c379a000000000000000000000000000000000000000000000000000000000\n      dup2\n      mstore\n      0x04\n      add\n      tag_80\n      swap1\n      jump(tag_81)\n    tag_80:\n      mload(0x40)\n      dup1\n      swap2\n      sub\n      swap1\n      revert\n    tag_79:\n        /* \"CertificateStorage.sol\":4728:4747  _allowedSignersOnly */\n      dup12\n        /* \"CertificateStorage.sol\":4725:4848  if(_allowedSignersOnly) {... */\n      iszero\n      tag_82\n      jumpi\n        /* \"CertificateStorage.sol\":4767:4788  certifyingAuthorities */\n      0x01\n        /* \"CertificateStorage.sol\":4767:4797  certifyingAuthorities[_signer] */\n      0x00\n        /* \"CertificateStorage.sol\":4789:4796  _signer */\n      dup3\n        /* \"CertificateStorage.sol\":4767:4797  certifyingAuthorities[_signer] */\n      0xffffffffffffffffffffffffffffffffffffffff\n      and\n      0xffffffffffffffffffffffffffffffffffffffff\n      and\n      dup2\n      mstore\n      0x20\n      add\n      swap1\n      dup2\n      mstore\n      0x20\n      add\n      0x00\n      keccak256\n        /* \"CertificateStorage.sol\":4767:4810  certifyingAuthorities[_signer].isAuthorised */\n      0x01\n      add\n      0x00\n      swap1\n      sload\n      swap1\n      0x0100\n      exp\n      swap1\n      div\n      0xff\n      and\n        /* \"CertificateStorage.sol\":4759:4839  require(certifyingAuthorities[_signer].isAuthorised, 'certifier not authorised') */\n      tag_83\n      jumpi\n      mload(0x40)\n      0x08c379a000000000000000000000000000000000000000000000000000000000\n      dup2\n      mstore\n      0x04\n      add\n      tag_84\n      swap1\n      jump(tag_85)\n    tag_84:\n      mload(0x40)\n      dup1\n      swap2\n      sub\n      swap1\n      revert\n    tag_83:\n        /* \"CertificateStorage.sol\":4725:4848  if(_allowedSignersOnly) {... */\n    tag_82:\n        /* \"CertificateStorage.sol\":4884:4892  _signers */\n      dup6\n        /* \"CertificateStorage.sol\":4894:4901  _signer */\n      dup2\n        /* \"CertificateStorage.sol\":4867:4902  abi.encodePacked(_signers, _signer) */\n      add(0x20, mload(0x40))\n      tag_86\n      swap3\n      swap2\n      swap1\n      jump(tag_87)\n    tag_86:\n      mload(0x40)\n        /* \"--CODEGEN--\":49:53   */\n      0x20\n        /* \"--CODEGEN--\":39:46   */\n      dup2\n        /* \"--CODEGEN--\":30:37   */\n      dup4\n        /* \"--CODEGEN--\":26:47   */\n      sub\n        /* \"--CODEGEN--\":22:54   */\n      sub\n        /* \"--CODEGEN--\":13:20   */\n      dup2\n        /* \"--CODEGEN--\":6:55   */\n      mstore\n        /* \"CertificateStorage.sol\":4867:4902  abi.encodePacked(_signers, _signer) */\n      swap1\n      0x40\n      mstore\n        /* \"CertificateStorage.sol\":4856:4902  _signers = abi.encodePacked(_signers, _signer) */\n      swap6\n      pop\n        /* \"CertificateStorage.sol\":4093:4909  for(uint256 _i = CERTIFICATE_DETAILS_LENGTH; _i < _signedCertificate.length; _i += SIGNATURE_LENGTH) {... */\n      pop\n      pop\n      pop\n      pop\n        /* \"CertificateStorage.sol\":731:733  65 */\n      0x41\n        /* \"CertificateStorage.sol\":4170:4192  _i += SIGNATURE_LENGTH */\n      dup2\n      add\n      swap1\n      pop\n        /* \"CertificateStorage.sol\":4093:4909  for(uint256 _i = CERTIFICATE_DETAILS_LENGTH; _i < _signedCertificate.length; _i += SIGNATURE_LENGTH) {... */\n      jump(tag_65)\n    tag_66:\n      pop\n        /* \"CertificateStorage.sol\":4938:4943  _name */\n      dup4\n        /* \"CertificateStorage.sol\":4915:4930  _certificateObj */\n      dup7\n        /* \"CertificateStorage.sol\":4915:4935  _certificateObj.name */\n      0x00\n      add\n        /* \"CertificateStorage.sol\":4915:4943  _certificateObj.name = _name */\n      dup2\n      dup2\n      mstore\n      pop\n      pop\n        /* \"CertificateStorage.sol\":4981:4995  _qualification */\n      dup3\n        /* \"CertificateStorage.sol\":4949:4964  _certificateObj */\n      dup7\n        /* \"CertificateStorage.sol\":4949:4978  _certificateObj.qualification */\n      0x20\n      add\n        /* \"CertificateStorage.sol\":4949:4995  _certificateObj.qualification = _qualification */\n      dup2\n      dup2\n      mstore\n      pop\n      pop\n        /* \"CertificateStorage.sol\":5029:5039  _extraData */\n      dup2\n        /* \"CertificateStorage.sol\":5001:5016  _certificateObj */\n      dup7\n        /* \"CertificateStorage.sol\":5001:5026  _certificateObj.extraData */\n      0x40\n      add\n        /* \"CertificateStorage.sol\":5001:5039  _certificateObj.extraData = _extraData */\n      dup2\n      dup2\n      mstore\n      pop\n      pop\n        /* \"CertificateStorage.sol\":5071:5079  _signers */\n      dup1\n        /* \"CertificateStorage.sol\":5045:5060  _certificateObj */\n      dup7\n        /* \"CertificateStorage.sol\":5045:5068  _certificateObj.signers */\n      0x60\n      add\n        /* \"CertificateStorage.sol\":5045:5079  _certificateObj.signers = _signers */\n      dup2\n      swap1\n      mstore\n      pop\n        /* \"CertificateStorage.sol\":3452:5084  function parseSignedCertificate(... */\n      pop\n      pop\n      pop\n      pop\n      swap3\n      pop\n      swap3\n      swap1\n      pop\n      jump\t// out\n        /* \"CertificateStorage.sol\":539:561  address public manager */\n    tag_21:\n      0x02\n      0x00\n      swap1\n      sload\n      swap1\n      0x0100\n      exp\n      swap1\n      div\n      0xffffffffffffffffffffffffffffffffffffffff\n      and\n      dup2\n      jump\t// out\n        /* \"CertificateStorage.sol\":466:534  mapping(address => CertifyingAuthority) public certifyingAuthorities */\n    tag_27:\n      mstore(0x20, 0x01)\n      dup1\n      0x00\n      mstore\n      keccak256(0x00, 0x40)\n      0x00\n      swap2\n      pop\n      swap1\n      pop\n      dup1\n      0x00\n      add\n      sload\n      swap1\n      dup1\n      0x01\n      add\n      0x00\n      swap1\n      sload\n      swap1\n      0x0100\n      exp\n      swap1\n      div\n      0xff\n      and\n      swap1\n      pop\n      dup3\n      jump\t// out\n        /* \"CertificateStorage.sol\":411:462  mapping(bytes32 => Certificate) public certificates */\n    tag_33:\n      mstore(0x20, 0x00)\n      dup1\n      0x00\n      mstore\n      keccak256(0x00, 0x40)\n      0x00\n      swap2\n      pop\n      swap1\n      pop\n      dup1\n      0x00\n      add\n      sload\n      swap1\n      dup1\n      0x01\n      add\n      sload\n      swap1\n      dup1\n      0x02\n      add\n      sload\n      swap1\n      dup1\n      0x03\n      add\n      dup1\n      sload\n      0x01\n      dup2\n      0x01\n      and\n      iszero\n      0x0100\n      mul\n      sub\n      and\n      0x02\n      swap1\n      div\n      dup1\n      0x1f\n      add\n      0x20\n      dup1\n      swap2\n      div\n      mul\n      0x20\n      add\n      mload(0x40)\n      swap1\n      dup2\n      add\n      0x40\n      mstore\n      dup1\n      swap3\n      swap2\n      swap1\n      dup2\n      dup2\n      mstore\n      0x20\n      add\n      dup3\n      dup1\n      sload\n      0x01\n      dup2\n      0x01\n      and\n      iszero\n      0x0100\n      mul\n      sub\n      and\n      0x02\n      swap1\n      div\n      dup1\n      iszero\n      tag_88\n      jumpi\n      dup1\n      0x1f\n      lt\n      tag_89\n      jumpi\n      0x0100\n      dup1\n      dup4\n      sload\n      div\n      mul\n      dup4\n      mstore\n      swap2\n      0x20\n      add\n      swap2\n      jump(tag_88)\n    tag_89:\n      dup3\n      add\n      swap2\n      swap1\n      0x00\n      mstore\n      keccak256(0x00, 0x20)\n      swap1\n    tag_90:\n      dup2\n      sload\n      dup2\n      mstore\n      swap1\n      0x01\n      add\n      swap1\n      0x20\n      add\n      dup1\n      dup4\n      gt\n      tag_90\n      jumpi\n      dup3\n      swap1\n      sub\n      0x1f\n      and\n      dup3\n      add\n      swap2\n    tag_88:\n      pop\n      pop\n      pop\n      pop\n      pop\n      swap1\n      pop\n      dup5\n      jump\t// out\n        /* \"CertificateStorage.sol\":1073:1341  function addCertifyingAuthority(address _authorityAddress, bytes32 _name) public onlyManager {... */\n    tag_39:\n        /* \"CertificateStorage.sol\":968:975  manager */\n      0x02\n      0x00\n      swap1\n      sload\n      swap1\n      0x0100\n      exp\n      swap1\n      div\n      0xffffffffffffffffffffffffffffffffffffffff\n      and\n        /* \"CertificateStorage.sol\":954:975  msg.sender == manager */\n      0xffffffffffffffffffffffffffffffffffffffff\n      and\n        /* \"CertificateStorage.sol\":954:964  msg.sender */\n      caller\n        /* \"CertificateStorage.sol\":954:975  msg.sender == manager */\n      0xffffffffffffffffffffffffffffffffffffffff\n      and\n      eq\n        /* \"CertificateStorage.sol\":946:1001  require(msg.sender == manager, 'only manager can call') */\n      tag_92\n      jumpi\n      mload(0x40)\n      0x08c379a000000000000000000000000000000000000000000000000000000000\n      dup2\n      mstore\n      0x04\n      add\n      tag_93\n      swap1\n      jump(tag_94)\n    tag_93:\n      mload(0x40)\n      dup1\n      swap2\n      sub\n      swap1\n      revert\n    tag_92:\n        /* \"CertificateStorage.sol\":1215:1287  CertifyingAuthority({... */\n      mload(0x40)\n      dup1\n      0x40\n      add\n      0x40\n      mstore\n      dup1\n        /* \"CertificateStorage.sol\":1249:1254  _name */\n      dup3\n        /* \"CertificateStorage.sol\":1215:1287  CertifyingAuthority({... */\n      dup2\n      mstore\n      0x20\n      add\n        /* \"CertificateStorage.sol\":1276:1280  true */\n      0x01\n        /* \"CertificateStorage.sol\":1215:1287  CertifyingAuthority({... */\n      iszero\n      iszero\n      dup2\n      mstore\n      pop\n        /* \"CertificateStorage.sol\":1172:1193  certifyingAuthorities */\n      0x01\n        /* \"CertificateStorage.sol\":1172:1212  certifyingAuthorities[_authorityAddress] */\n      0x00\n        /* \"CertificateStorage.sol\":1194:1211  _authorityAddress */\n      dup5\n        /* \"CertificateStorage.sol\":1172:1212  certifyingAuthorities[_authorityAddress] */\n      0xffffffffffffffffffffffffffffffffffffffff\n      and\n      0xffffffffffffffffffffffffffffffffffffffff\n      and\n      dup2\n      mstore\n      0x20\n      add\n      swap1\n      dup2\n      mstore\n      0x20\n      add\n      0x00\n      keccak256\n        /* \"CertificateStorage.sol\":1172:1287  certifyingAuthorities[_authorityAddress] = CertifyingAuthority({... */\n      0x00\n      dup3\n      add\n      mload\n      dup2\n      0x00\n      add\n      sstore\n      0x20\n      dup3\n      add\n      mload\n      dup2\n      0x01\n      add\n      exp(0x0100, 0x00)\n      dup2\n      sload\n      dup2\n      0xff\n      mul\n      not\n      and\n      swap1\n      dup4\n      iszero\n      iszero\n      mul\n      or\n      swap1\n      sstore\n      pop\n      swap1\n      pop\n      pop\n        /* \"CertificateStorage.sol\":1312:1329  _authorityAddress */\n      dup2\n        /* \"CertificateStorage.sol\":1298:1336  Authorization(_authorityAddress, true) */\n      0xffffffffffffffffffffffffffffffffffffffff\n      and\n      0x71b03471b324bbcc7546b2626d0407dbb70a61e5e77c56214352d9c12893933f\n        /* \"CertificateStorage.sol\":1331:1335  true */\n      0x01\n        /* \"CertificateStorage.sol\":1298:1336  Authorization(_authorityAddress, true) */\n      mload(0x40)\n      tag_96\n      swap2\n      swap1\n      jump(tag_97)\n    tag_96:\n      mload(0x40)\n      dup1\n      swap2\n      sub\n      swap1\n      log2\n        /* \"CertificateStorage.sol\":1073:1341  function addCertifyingAuthority(address _authorityAddress, bytes32 _name) public onlyManager {... */\n      pop\n      pop\n      jump\t// out\n        /* \"CertificateStorage.sol\":1659:1879  function updateCertifyingAuthority(... */\n    tag_42:\n        /* \"CertificateStorage.sol\":1745:1766  certifyingAuthorities */\n      0x01\n        /* \"CertificateStorage.sol\":1745:1778  certifyingAuthorities[msg.sender] */\n      0x00\n        /* \"CertificateStorage.sol\":1767:1777  msg.sender */\n      caller\n        /* \"CertificateStorage.sol\":1745:1778  certifyingAuthorities[msg.sender] */\n      0xffffffffffffffffffffffffffffffffffffffff\n      and\n      0xffffffffffffffffffffffffffffffffffffffff\n      and\n      dup2\n      mstore\n      0x20\n      add\n      swap1\n      dup2\n      mstore\n      0x20\n      add\n      0x00\n      keccak256\n        /* \"CertificateStorage.sol\":1745:1791  certifyingAuthorities[msg.sender].isAuthorised */\n      0x01\n      add\n      0x00\n      swap1\n      sload\n      swap1\n      0x0100\n      exp\n      swap1\n      div\n      0xff\n      and\n        /* \"CertificateStorage.sol\":1730:1822  require(... */\n      tag_99\n      jumpi\n      mload(0x40)\n      0x08c379a000000000000000000000000000000000000000000000000000000000\n      dup2\n      mstore\n      0x04\n      add\n      tag_100\n      swap1\n      jump(tag_101)\n    tag_100:\n      mload(0x40)\n      dup1\n      swap2\n      sub\n      swap1\n      revert\n    tag_99:\n        /* \"CertificateStorage.sol\":1869:1874  _name */\n      dup1\n        /* \"CertificateStorage.sol\":1828:1849  certifyingAuthorities */\n      0x01\n        /* \"CertificateStorage.sol\":1828:1861  certifyingAuthorities[msg.sender] */\n      0x00\n        /* \"CertificateStorage.sol\":1850:1860  msg.sender */\n      caller\n        /* \"CertificateStorage.sol\":1828:1861  certifyingAuthorities[msg.sender] */\n      0xffffffffffffffffffffffffffffffffffffffff\n      and\n      0xffffffffffffffffffffffffffffffffffffffff\n      and\n      dup2\n      mstore\n      0x20\n      add\n      swap1\n      dup2\n      mstore\n      0x20\n      add\n      0x00\n      keccak256\n        /* \"CertificateStorage.sol\":1828:1866  certifyingAuthorities[msg.sender].name */\n      0x00\n      add\n        /* \"CertificateStorage.sol\":1828:1874  certifyingAuthorities[msg.sender].name = _name */\n      dup2\n      swap1\n      sstore\n      pop\n        /* \"CertificateStorage.sol\":1659:1879  function updateCertifyingAuthority(... */\n      pop\n      jump\t// out\n        /* \"CertificateStorage.sol\":1345:1451  function newManager(address _newManagerAddress) public onlyManager {... */\n    tag_45:\n        /* \"CertificateStorage.sol\":968:975  manager */\n      0x02\n      0x00\n      swap1\n      sload\n      swap1\n      0x0100\n      exp\n      swap1\n      div\n      0xffffffffffffffffffffffffffffffffffffffff\n      and\n        /* \"CertificateStorage.sol\":954:975  msg.sender == manager */\n      0xffffffffffffffffffffffffffffffffffffffff\n      and\n        /* \"CertificateStorage.sol\":954:964  msg.sender */\n      caller\n        /* \"CertificateStorage.sol\":954:975  msg.sender == manager */\n      0xffffffffffffffffffffffffffffffffffffffff\n      and\n      eq\n        /* \"CertificateStorage.sol\":946:1001  require(msg.sender == manager, 'only manager can call') */\n      tag_103\n      jumpi\n      mload(0x40)\n      0x08c379a000000000000000000000000000000000000000000000000000000000\n      dup2\n      mstore\n      0x04\n      add\n      tag_104\n      swap1\n      jump(tag_94)\n    tag_104:\n      mload(0x40)\n      dup1\n      swap2\n      sub\n      swap1\n      revert\n    tag_103:\n        /* \"CertificateStorage.sol\":1428:1446  _newManagerAddress */\n      dup1\n        /* \"CertificateStorage.sol\":1418:1425  manager */\n      0x02\n      0x00\n        /* \"CertificateStorage.sol\":1418:1446  manager = _newManagerAddress */\n      0x0100\n      exp\n      dup2\n      sload\n      dup2\n      0xffffffffffffffffffffffffffffffffffffffff\n      mul\n      not\n      and\n      swap1\n      dup4\n      0xffffffffffffffffffffffffffffffffffffffff\n      and\n      mul\n      or\n      swap1\n      sstore\n      pop\n        /* \"CertificateStorage.sol\":1345:1451  function newManager(address _newManagerAddress) public onlyManager {... */\n      pop\n      jump\t// out\n        /* \"CertificateStorage.sol\":565:639  bytes constant public PERSONAL_PREFIX = \"\\x19Ethereum Signed Message:\\n96\" */\n    tag_47:\n      mload(0x40)\n      dup1\n      0x40\n      add\n      0x40\n      mstore\n      dup1\n      0x1c\n      dup2\n      mstore\n      0x20\n      add\n      0x19457468657265756d205369676e6564204d6573736167653a0a393600000000\n      dup2\n      mstore\n      pop\n      dup2\n      jump\t// out\n        /* \"CertificateStorage.sol\":1883:3448  function registerCertificate(... */\n    tag_53:\n        /* \"CertificateStorage.sol\":1974:1981  bytes32 */\n      0x00\n        /* \"CertificateStorage.sol\":689:691  96 */\n      0x60\n        /* \"CertificateStorage.sol\":2007:2025  _signedCertificate */\n      dup3\n        /* \"CertificateStorage.sol\":2007:2032  _signedCertificate.length */\n      mload\n        /* \"CertificateStorage.sol\":2007:2061  _signedCertificate.length > CERTIFICATE_DETAILS_LENGTH */\n      gt\n        /* \"CertificateStorage.sol\":2007:2151  _signedCertificate.length > CERTIFICATE_DETAILS_LENGTH... */\n      dup1\n      iszero\n      tag_107\n      jumpi\n      pop\n        /* \"CertificateStorage.sol\":2150:2151  0 */\n      0x00\n        /* \"CertificateStorage.sol\":731:733  65 */\n      0x41\n        /* \"CertificateStorage.sol\":689:691  96 */\n      0x60\n        /* \"CertificateStorage.sol\":2072:2090  _signedCertificate */\n      dup5\n        /* \"CertificateStorage.sol\":2072:2097  _signedCertificate.length */\n      mload\n        /* \"CertificateStorage.sol\":2072:2126  _signedCertificate.length - CERTIFICATE_DETAILS_LENGTH */\n      sub\n        /* \"CertificateStorage.sol\":2071:2146  (_signedCertificate.length - CERTIFICATE_DETAILS_LENGTH) % SIGNATURE_LENGTH */\n      dup2\n      tag_108\n      jumpi\n      invalid\n    tag_108:\n      mod\n        /* \"CertificateStorage.sol\":2071:2151  (_signedCertificate.length - CERTIFICATE_DETAILS_LENGTH) % SIGNATURE_LENGTH == 0 */\n      eq\n        /* \"CertificateStorage.sol\":2007:2151  _signedCertificate.length > CERTIFICATE_DETAILS_LENGTH... */\n    tag_107:\n        /* \"CertificateStorage.sol\":1992:2194  require(... */\n      tag_109\n      jumpi\n      mload(0x40)\n      0x08c379a000000000000000000000000000000000000000000000000000000000\n      dup2\n      mstore\n      0x04\n      add\n      tag_110\n      swap1\n      jump(tag_111)\n    tag_110:\n      mload(0x40)\n      dup1\n      swap2\n      sub\n      swap1\n      revert\n    tag_109:\n        /* \"CertificateStorage.sol\":2202:2236  Certificate memory _certificateObj */\n      tag_112\n      tag_61\n      jump\t// in\n    tag_112:\n        /* \"CertificateStorage.sol\":2238:2262  bytes32 _certificateHash */\n      0x00\n        /* \"CertificateStorage.sol\":2266:2314  parseSignedCertificate(_signedCertificate, true) */\n      tag_113\n        /* \"CertificateStorage.sol\":2289:2307  _signedCertificate */\n      dup5\n        /* \"CertificateStorage.sol\":2309:2313  true */\n      0x01\n        /* \"CertificateStorage.sol\":2266:2288  parseSignedCertificate */\n      tag_17\n        /* \"CertificateStorage.sol\":2266:2314  parseSignedCertificate(_signedCertificate, true) */\n      jump\t// in\n    tag_113:\n        /* \"CertificateStorage.sol\":2201:2314  (Certificate memory _certificateObj, bytes32 _certificateHash) = parseSignedCertificate(_signedCertificate, true) */\n      swap2\n      pop\n      swap2\n      pop\n        /* \"CertificateStorage.sol\":2493:2517  bytes memory _newSigners */\n      0x60\n        /* \"CertificateStorage.sol\":2520:2535  _certificateObj */\n      dup3\n        /* \"CertificateStorage.sol\":2520:2543  _certificateObj.signers */\n      0x60\n      add\n      mload\n        /* \"CertificateStorage.sol\":2493:2543  bytes memory _newSigners = _certificateObj.signers */\n      swap1\n      pop\n        /* \"CertificateStorage.sol\":2625:2653  bytes memory _updatedSigners */\n      0x60\n        /* \"CertificateStorage.sol\":2656:2668  certificates */\n      0x00\n        /* \"CertificateStorage.sol\":2656:2686  certificates[_certificateHash] */\n      dup1\n        /* \"CertificateStorage.sol\":2669:2685  _certificateHash */\n      dup5\n        /* \"CertificateStorage.sol\":2656:2686  certificates[_certificateHash] */\n      dup2\n      mstore\n      0x20\n      add\n      swap1\n      dup2\n      mstore\n      0x20\n      add\n      0x00\n      keccak256\n        /* \"CertificateStorage.sol\":2656:2694  certificates[_certificateHash].signers */\n      0x03\n      add\n        /* \"CertificateStorage.sol\":2625:2694  bytes memory _updatedSigners = certificates[_certificateHash].signers */\n      dup1\n      sload\n      0x01\n      dup2\n      0x01\n      and\n      iszero\n      0x0100\n      mul\n      sub\n      and\n      0x02\n      swap1\n      div\n      dup1\n      0x1f\n      add\n      0x20\n      dup1\n      swap2\n      div\n      mul\n      0x20\n      add\n      mload(0x40)\n      swap1\n      dup2\n      add\n      0x40\n      mstore\n      dup1\n      swap3\n      swap2\n      swap1\n      dup2\n      dup2\n      mstore\n      0x20\n      add\n      dup3\n      dup1\n      sload\n      0x01\n      dup2\n      0x01\n      and\n      iszero\n      0x0100\n      mul\n      sub\n      and\n      0x02\n      swap1\n      div\n      dup1\n      iszero\n      tag_114\n      jumpi\n      dup1\n      0x1f\n      lt\n      tag_115\n      jumpi\n      0x0100\n      dup1\n      dup4\n      sload\n      div\n      mul\n      dup4\n      mstore\n      swap2\n      0x20\n      add\n      swap2\n      jump(tag_114)\n    tag_115:\n      dup3\n      add\n      swap2\n      swap1\n      0x00\n      mstore\n      keccak256(0x00, 0x20)\n      swap1\n    tag_116:\n      dup2\n      sload\n      dup2\n      mstore\n      swap1\n      0x01\n      add\n      swap1\n      0x20\n      add\n      dup1\n      dup4\n      gt\n      tag_116\n      jumpi\n      dup3\n      swap1\n      sub\n      0x1f\n      and\n      dup3\n      add\n      swap2\n    tag_114:\n      pop\n      pop\n      pop\n      pop\n      pop\n      swap1\n      pop\n        /* \"CertificateStorage.sol\":2705:2715  uint256 _i */\n      0x00\n        /* \"CertificateStorage.sol\":2718:2719  0 */\n      dup1\n        /* \"CertificateStorage.sol\":2705:2719  uint256 _i = 0 */\n      swap1\n      pop\n        /* \"CertificateStorage.sol\":2701:3107  for(uint256 _i = 0; _i < _newSigners.length; _i += 20) {... */\n    tag_117:\n        /* \"CertificateStorage.sol\":2726:2737  _newSigners */\n      dup3\n        /* \"CertificateStorage.sol\":2726:2744  _newSigners.length */\n      mload\n        /* \"CertificateStorage.sol\":2721:2723  _i */\n      dup2\n        /* \"CertificateStorage.sol\":2721:2744  _i < _newSigners.length */\n      lt\n        /* \"CertificateStorage.sol\":2701:3107  for(uint256 _i = 0; _i < _newSigners.length; _i += 20) {... */\n      iszero\n      tag_118\n      jumpi\n        /* \"CertificateStorage.sol\":2764:2779  address _signer */\n      0x00\n        /* \"CertificateStorage.sol\":2850:2852  _i */\n      dup2\n        /* \"CertificateStorage.sol\":2844:2848  0x14 */\n      0x14\n        /* \"CertificateStorage.sol\":2840:2853  add(0x14, _i) */\n      add\n        /* \"CertificateStorage.sol\":2827:2838  _newSigners */\n      dup5\n        /* \"CertificateStorage.sol\":2823:2854  add(_newSigners, add(0x14, _i)) */\n      add\n        /* \"CertificateStorage.sol\":2817:2855  mload(add(_newSigners, add(0x14, _i))) */\n      mload\n        /* \"CertificateStorage.sol\":2806:2855  _signer := mload(add(_newSigners, add(0x14, _i))) */\n      swap1\n      pop\n        /* \"CertificateStorage.sol\":2873:2939  checkUniqueSigner(_signer, certificates[_certificateHash].signers) */\n      tag_120\n        /* \"CertificateStorage.sol\":2891:2898  _signer */\n      dup2\n        /* \"CertificateStorage.sol\":2900:2912  certificates */\n      0x00\n        /* \"CertificateStorage.sol\":2900:2930  certificates[_certificateHash] */\n      dup1\n        /* \"CertificateStorage.sol\":2913:2929  _certificateHash */\n      dup9\n        /* \"CertificateStorage.sol\":2900:2930  certificates[_certificateHash] */\n      dup2\n      mstore\n      0x20\n      add\n      swap1\n      dup2\n      mstore\n      0x20\n      add\n      0x00\n      keccak256\n        /* \"CertificateStorage.sol\":2900:2938  certificates[_certificateHash].signers */\n      0x03\n      add\n        /* \"CertificateStorage.sol\":2873:2939  checkUniqueSigner(_signer, certificates[_certificateHash].signers) */\n      dup1\n      sload\n      0x01\n      dup2\n      0x01\n      and\n      iszero\n      0x0100\n      mul\n      sub\n      and\n      0x02\n      swap1\n      div\n      dup1\n      0x1f\n      add\n      0x20\n      dup1\n      swap2\n      div\n      mul\n      0x20\n      add\n      mload(0x40)\n      swap1\n      dup2\n      add\n      0x40\n      mstore\n      dup1\n      swap3\n      swap2\n      swap1\n      dup2\n      dup2\n      mstore\n      0x20\n      add\n      dup3\n      dup1\n      sload\n      0x01\n      dup2\n      0x01\n      and\n      iszero\n      0x0100\n      mul\n      sub\n      and\n      0x02\n      swap1\n      div\n      dup1\n      iszero\n      tag_121\n      jumpi\n      dup1\n      0x1f\n      lt\n      tag_122\n      jumpi\n      0x0100\n      dup1\n      dup4\n      sload\n      div\n      mul\n      dup4\n      mstore\n      swap2\n      0x20\n      add\n      swap2\n      jump(tag_121)\n    tag_122:\n      dup3\n      add\n      swap2\n      swap1\n      0x00\n      mstore\n      keccak256(0x00, 0x20)\n      swap1\n    tag_123:\n      dup2\n      sload\n      dup2\n      mstore\n      swap1\n      0x01\n      add\n      swap1\n      0x20\n      add\n      dup1\n      dup4\n      gt\n      tag_123\n      jumpi\n      dup3\n      swap1\n      sub\n      0x1f\n      and\n      dup3\n      add\n      swap2\n    tag_121:\n      pop\n      pop\n      pop\n      pop\n      pop\n        /* \"CertificateStorage.sol\":2873:2890  checkUniqueSigner */\n      tag_78\n        /* \"CertificateStorage.sol\":2873:2939  checkUniqueSigner(_signer, certificates[_certificateHash].signers) */\n      jump\t// in\n    tag_120:\n        /* \"CertificateStorage.sol\":2870:3101  if(checkUniqueSigner(_signer, certificates[_certificateHash].signers)) {... */\n      iszero\n      tag_124\n      jumpi\n        /* \"CertificateStorage.sol\":2986:3001  _updatedSigners */\n      dup3\n        /* \"CertificateStorage.sol\":3003:3010  _signer */\n      dup2\n        /* \"CertificateStorage.sol\":2969:3011  abi.encodePacked(_updatedSigners, _signer) */\n      add(0x20, mload(0x40))\n      tag_125\n      swap3\n      swap2\n      swap1\n      jump(tag_87)\n    tag_125:\n      mload(0x40)\n        /* \"--CODEGEN--\":49:53   */\n      0x20\n        /* \"--CODEGEN--\":39:46   */\n      dup2\n        /* \"--CODEGEN--\":30:37   */\n      dup4\n        /* \"--CODEGEN--\":26:47   */\n      sub\n        /* \"--CODEGEN--\":22:54   */\n      sub\n        /* \"--CODEGEN--\":13:20   */\n      dup2\n        /* \"--CODEGEN--\":6:55   */\n      mstore\n        /* \"CertificateStorage.sol\":2969:3011  abi.encodePacked(_updatedSigners, _signer) */\n      swap1\n      0x40\n      mstore\n        /* \"CertificateStorage.sol\":2951:3011  _updatedSigners = abi.encodePacked(_updatedSigners, _signer) */\n      swap3\n      pop\n        /* \"CertificateStorage.sol\":3026:3092  Certified(... */\n      0x4007dee9068a7e16aba143c1861d9cb75f2be4b83ef76ae2c602a2c301398cf7\n        /* \"CertificateStorage.sol\":3047:3063  _certificateHash */\n      dup6\n        /* \"CertificateStorage.sol\":3075:3082  _signer */\n      dup3\n        /* \"CertificateStorage.sol\":3026:3092  Certified(... */\n      mload(0x40)\n      tag_126\n      swap3\n      swap2\n      swap1\n      jump(tag_127)\n    tag_126:\n      mload(0x40)\n      dup1\n      swap2\n      sub\n      swap1\n      log1\n        /* \"CertificateStorage.sol\":2870:3101  if(checkUniqueSigner(_signer, certificates[_certificateHash].signers)) {... */\n    tag_124:\n        /* \"CertificateStorage.sol\":2701:3107  for(uint256 _i = 0; _i < _newSigners.length; _i += 20) {... */\n      pop\n        /* \"CertificateStorage.sol\":2752:2754  20 */\n      0x14\n        /* \"CertificateStorage.sol\":2746:2754  _i += 20 */\n      dup2\n      add\n      swap1\n      pop\n        /* \"CertificateStorage.sol\":2701:3107  for(uint256 _i = 0; _i < _newSigners.length; _i += 20) {... */\n      jump(tag_117)\n    tag_118:\n      pop\n        /* \"CertificateStorage.sol\":3164:3165  0 */\n      0x00\n        /* \"CertificateStorage.sol\":3116:3128  certificates */\n      dup1\n        /* \"CertificateStorage.sol\":3116:3146  certificates[_certificateHash] */\n      0x00\n        /* \"CertificateStorage.sol\":3129:3145  _certificateHash */\n      dup6\n        /* \"CertificateStorage.sol\":3116:3146  certificates[_certificateHash] */\n      dup2\n      mstore\n      0x20\n      add\n      swap1\n      dup2\n      mstore\n      0x20\n      add\n      0x00\n      keccak256\n        /* \"CertificateStorage.sol\":3116:3154  certificates[_certificateHash].signers */\n      0x03\n      add\n        /* \"CertificateStorage.sol\":3116:3161  certificates[_certificateHash].signers.length */\n      dup1\n      sload\n      0x01\n      dup2\n      0x01\n      and\n      iszero\n      0x0100\n      mul\n      sub\n      and\n      0x02\n      swap1\n      div\n      swap1\n      pop\n        /* \"CertificateStorage.sol\":3116:3165  certificates[_certificateHash].signers.length > 0 */\n      gt\n        /* \"CertificateStorage.sol\":3113:3414  if(certificates[_certificateHash].signers.length > 0) {... */\n      iszero\n      tag_128\n      jumpi\n        /* \"CertificateStorage.sol\":3208:3220  certificates */\n      0x00\n        /* \"CertificateStorage.sol\":3208:3238  certificates[_certificateHash] */\n      dup1\n        /* \"CertificateStorage.sol\":3221:3237  _certificateHash */\n      dup5\n        /* \"CertificateStorage.sol\":3208:3238  certificates[_certificateHash] */\n      dup2\n      mstore\n      0x20\n      add\n      swap1\n      dup2\n      mstore\n      0x20\n      add\n      0x00\n      keccak256\n        /* \"CertificateStorage.sol\":3208:3246  certificates[_certificateHash].signers */\n      0x03\n      add\n        /* \"CertificateStorage.sol\":3208:3253  certificates[_certificateHash].signers.length */\n      dup1\n      sload\n      0x01\n      dup2\n      0x01\n      and\n      iszero\n      0x0100\n      mul\n      sub\n      and\n      0x02\n      swap1\n      div\n      swap1\n      pop\n        /* \"CertificateStorage.sol\":3183:3198  _updatedSigners */\n      dup2\n        /* \"CertificateStorage.sol\":3183:3205  _updatedSigners.length */\n      mload\n        /* \"CertificateStorage.sol\":3183:3253  _updatedSigners.length > certificates[_certificateHash].signers.length */\n      gt\n        /* \"CertificateStorage.sol\":3175:3274  require(_updatedSigners.length > certificates[_certificateHash].signers.length, 'need new signers') */\n      tag_129\n      jumpi\n      mload(0x40)\n      0x08c379a000000000000000000000000000000000000000000000000000000000\n      dup2\n      mstore\n      0x04\n      add\n      tag_130\n      swap1\n      jump(tag_131)\n    tag_130:\n      mload(0x40)\n      dup1\n      swap2\n      sub\n      swap1\n      revert\n    tag_129:\n        /* \"CertificateStorage.sol\":3323:3338  _updatedSigners */\n      dup1\n        /* \"CertificateStorage.sol\":3282:3294  certificates */\n      0x00\n        /* \"CertificateStorage.sol\":3282:3312  certificates[_certificateHash] */\n      dup1\n        /* \"CertificateStorage.sol\":3295:3311  _certificateHash */\n      dup6\n        /* \"CertificateStorage.sol\":3282:3312  certificates[_certificateHash] */\n      dup2\n      mstore\n      0x20\n      add\n      swap1\n      dup2\n      mstore\n      0x20\n      add\n      0x00\n      keccak256\n        /* \"CertificateStorage.sol\":3282:3320  certificates[_certificateHash].signers */\n      0x03\n      add\n        /* \"CertificateStorage.sol\":3282:3338  certificates[_certificateHash].signers = _updatedSigners */\n      swap1\n      dup1\n      mload\n      swap1\n      0x20\n      add\n      swap1\n      tag_132\n      swap3\n      swap2\n      swap1\n      tag_133\n      jump\t// in\n    tag_132:\n      pop\n        /* \"CertificateStorage.sol\":3113:3414  if(certificates[_certificateHash].signers.length > 0) {... */\n      jump(tag_134)\n    tag_128:\n        /* \"CertificateStorage.sol\":3392:3407  _certificateObj */\n      dup4\n        /* \"CertificateStorage.sol\":3359:3371  certificates */\n      0x00\n        /* \"CertificateStorage.sol\":3359:3389  certificates[_certificateHash] */\n      dup1\n        /* \"CertificateStorage.sol\":3372:3388  _certificateHash */\n      dup6\n        /* \"CertificateStorage.sol\":3359:3389  certificates[_certificateHash] */\n      dup2\n      mstore\n      0x20\n      add\n      swap1\n      dup2\n      mstore\n      0x20\n      add\n      0x00\n      keccak256\n        /* \"CertificateStorage.sol\":3359:3407  certificates[_certificateHash] = _certificateObj */\n      0x00\n      dup3\n      add\n      mload\n      dup2\n      0x00\n      add\n      sstore\n      0x20\n      dup3\n      add\n      mload\n      dup2\n      0x01\n      add\n      sstore\n      0x40\n      dup3\n      add\n      mload\n      dup2\n      0x02\n      add\n      sstore\n      0x60\n      dup3\n      add\n      mload\n      dup2\n      0x03\n      add\n      swap1\n      dup1\n      mload\n      swap1\n      0x20\n      add\n      swap1\n      tag_135\n      swap3\n      swap2\n      swap1\n      tag_136\n      jump\t// in\n    tag_135:\n      pop\n      swap1\n      pop\n      pop\n        /* \"CertificateStorage.sol\":3113:3414  if(certificates[_certificateHash].signers.length > 0) {... */\n    tag_134:\n        /* \"CertificateStorage.sol\":3427:3443  _certificateHash */\n      dup3\n        /* \"CertificateStorage.sol\":3420:3443  return _certificateHash */\n      swap5\n      pop\n      pop\n      pop\n      pop\n      pop\n        /* \"CertificateStorage.sol\":1883:3448  function registerCertificate(... */\n      swap2\n      swap1\n      pop\n      jump\t// out\n        /* \"CertificateStorage.sol\":1455:1655  function updateCertifyingAuthorityAuthorization(... */\n    tag_59:\n        /* \"CertificateStorage.sol\":968:975  manager */\n      0x02\n      0x00\n      swap1\n      sload\n      swap1\n      0x0100\n      exp\n      swap1\n      div\n      0xffffffffffffffffffffffffffffffffffffffff\n      and\n        /* \"CertificateStorage.sol\":954:975  msg.sender == manager */\n      0xffffffffffffffffffffffffffffffffffffffff\n      and\n        /* \"CertificateStorage.sol\":954:964  msg.sender */\n      caller\n        /* \"CertificateStorage.sol\":954:975  msg.sender == manager */\n      0xffffffffffffffffffffffffffffffffffffffff\n      and\n      eq\n        /* \"CertificateStorage.sol\":946:1001  require(msg.sender == manager, 'only manager can call') */\n      tag_138\n      jumpi\n      mload(0x40)\n      0x08c379a000000000000000000000000000000000000000000000000000000000\n      dup2\n      mstore\n      0x04\n      add\n      tag_139\n      swap1\n      jump(tag_94)\n    tag_139:\n      mload(0x40)\n      dup1\n      swap2\n      sub\n      swap1\n      revert\n    tag_138:\n        /* \"CertificateStorage.sol\":1640:1650  _newStatus */\n      dup1\n        /* \"CertificateStorage.sol\":1584:1605  certifyingAuthorities */\n      0x01\n        /* \"CertificateStorage.sol\":1584:1624  certifyingAuthorities[_authorityAddress] */\n      0x00\n        /* \"CertificateStorage.sol\":1606:1623  _authorityAddress */\n      dup5\n        /* \"CertificateStorage.sol\":1584:1624  certifyingAuthorities[_authorityAddress] */\n      0xffffffffffffffffffffffffffffffffffffffff\n      and\n      0xffffffffffffffffffffffffffffffffffffffff\n      and\n      dup2\n      mstore\n      0x20\n      add\n      swap1\n      dup2\n      mstore\n      0x20\n      add\n      0x00\n      keccak256\n        /* \"CertificateStorage.sol\":1584:1637  certifyingAuthorities[_authorityAddress].isAuthorised */\n      0x01\n      add\n      0x00\n        /* \"CertificateStorage.sol\":1584:1650  certifyingAuthorities[_authorityAddress].isAuthorised = _newStatus */\n      0x0100\n      exp\n      dup2\n      sload\n      dup2\n      0xff\n      mul\n      not\n      and\n      swap1\n      dup4\n      iszero\n      iszero\n      mul\n      or\n      swap1\n      sstore\n      pop\n        /* \"CertificateStorage.sol\":1455:1655  function updateCertifyingAuthorityAuthorization(... */\n      pop\n      pop\n      jump\t// out\n        /* \"CertificateStorage.sol\":5088:5572  function checkUniqueSigner(address _signer, bytes memory _packedSigners) private pure returns (bool){... */\n    tag_78:\n        /* \"CertificateStorage.sol\":5183:5187  bool */\n      0x00\n        /* \"CertificateStorage.sol\":5222:5223  0 */\n      dup1\n        /* \"CertificateStorage.sol\":5197:5211  _packedSigners */\n      dup3\n        /* \"CertificateStorage.sol\":5197:5218  _packedSigners.length */\n      mload\n        /* \"CertificateStorage.sol\":5197:5223  _packedSigners.length == 0 */\n      eq\n        /* \"CertificateStorage.sol\":5194:5236  if(_packedSigners.length == 0) return true */\n      iszero\n      tag_142\n      jumpi\n        /* \"CertificateStorage.sol\":5232:5236  true */\n      0x01\n        /* \"CertificateStorage.sol\":5225:5236  return true */\n      swap1\n      pop\n      jump(tag_141)\n        /* \"CertificateStorage.sol\":5194:5236  if(_packedSigners.length == 0) return true */\n    tag_142:\n        /* \"CertificateStorage.sol\":5281:5282  0 */\n      0x00\n        /* \"CertificateStorage.sol\":5275:5277  20 */\n      0x14\n        /* \"CertificateStorage.sol\":5251:5265  _packedSigners */\n      dup4\n        /* \"CertificateStorage.sol\":5251:5272  _packedSigners.length */\n      mload\n        /* \"CertificateStorage.sol\":5251:5277  _packedSigners.length % 20 */\n      dup2\n      tag_143\n      jumpi\n      invalid\n    tag_143:\n      mod\n        /* \"CertificateStorage.sol\":5251:5282  _packedSigners.length % 20 == 0 */\n      eq\n        /* \"CertificateStorage.sol\":5243:5316  require(_packedSigners.length % 20 == 0, 'invalid packed signers length') */\n      tag_144\n      jumpi\n      mload(0x40)\n      0x08c379a000000000000000000000000000000000000000000000000000000000\n      dup2\n      mstore\n      0x04\n      add\n      tag_145\n      swap1\n      jump(tag_146)\n    tag_145:\n      mload(0x40)\n      dup1\n      swap2\n      sub\n      swap1\n      revert\n    tag_144:\n        /* \"CertificateStorage.sol\":5323:5342  address _tempSigner */\n      0x00\n        /* \"CertificateStorage.sol\":5352:5362  uint256 _i */\n      dup1\n        /* \"CertificateStorage.sol\":5365:5366  0 */\n      0x00\n        /* \"CertificateStorage.sol\":5352:5366  uint256 _i = 0 */\n      swap1\n      pop\n        /* \"CertificateStorage.sol\":5348:5550  for(uint256 _i = 0; _i < _packedSigners.length; _i += 20) {... */\n    tag_147:\n        /* \"CertificateStorage.sol\":5373:5387  _packedSigners */\n      dup4\n        /* \"CertificateStorage.sol\":5373:5394  _packedSigners.length */\n      mload\n        /* \"CertificateStorage.sol\":5368:5370  _i */\n      dup2\n        /* \"CertificateStorage.sol\":5368:5394  _i < _packedSigners.length */\n      lt\n        /* \"CertificateStorage.sol\":5348:5550  for(uint256 _i = 0; _i < _packedSigners.length; _i += 20) {... */\n      iszero\n      tag_148\n      jumpi\n        /* \"CertificateStorage.sol\":5484:5486  _i */\n      dup1\n        /* \"CertificateStorage.sol\":5478:5482  0x14 */\n      0x14\n        /* \"CertificateStorage.sol\":5474:5487  add(0x14, _i) */\n      add\n        /* \"CertificateStorage.sol\":5458:5472  _packedSigners */\n      dup5\n        /* \"CertificateStorage.sol\":5454:5488  add(_packedSigners, add(0x14, _i)) */\n      add\n        /* \"CertificateStorage.sol\":5448:5489  mload(add(_packedSigners, add(0x14, _i))) */\n      mload\n        /* \"CertificateStorage.sol\":5433:5489  _tempSigner := mload(add(_packedSigners, add(0x14, _i))) */\n      swap2\n      pop\n        /* \"CertificateStorage.sol\":5522:5529  _signer */\n      dup5\n        /* \"CertificateStorage.sol\":5507:5529  _tempSigner == _signer */\n      0xffffffffffffffffffffffffffffffffffffffff\n      and\n        /* \"CertificateStorage.sol\":5507:5518  _tempSigner */\n      dup3\n        /* \"CertificateStorage.sol\":5507:5529  _tempSigner == _signer */\n      0xffffffffffffffffffffffffffffffffffffffff\n      and\n      eq\n        /* \"CertificateStorage.sol\":5504:5543  if(_tempSigner == _signer) return false */\n      iszero\n      tag_150\n      jumpi\n        /* \"CertificateStorage.sol\":5538:5543  false */\n      0x00\n        /* \"CertificateStorage.sol\":5531:5543  return false */\n      swap3\n      pop\n      pop\n      pop\n      jump(tag_141)\n        /* \"CertificateStorage.sol\":5504:5543  if(_tempSigner == _signer) return false */\n    tag_150:\n        /* \"CertificateStorage.sol\":5402:5404  20 */\n      0x14\n        /* \"CertificateStorage.sol\":5396:5404  _i += 20 */\n      dup2\n      add\n      swap1\n      pop\n        /* \"CertificateStorage.sol\":5348:5550  for(uint256 _i = 0; _i < _packedSigners.length; _i += 20) {... */\n      jump(tag_147)\n    tag_148:\n      pop\n        /* \"CertificateStorage.sol\":5563:5567  true */\n      0x01\n        /* \"CertificateStorage.sol\":5556:5567  return true */\n      swap2\n      pop\n      pop\n        /* \"CertificateStorage.sol\":5088:5572  function checkUniqueSigner(address _signer, bytes memory _packedSigners) private pure returns (bool){... */\n    tag_141:\n      swap3\n      swap2\n      pop\n      pop\n      jump\t// out\n        /* \"CertificateStorage.sol\":187:5574  contract CertificateStorage {... */\n    tag_61:\n      mload(0x40)\n      dup1\n      0x80\n      add\n      0x40\n      mstore\n      dup1\n      0x00\n      dup1\n      not\n      and\n      dup2\n      mstore\n      0x20\n      add\n      0x00\n      dup1\n      not\n      and\n      dup2\n      mstore\n      0x20\n      add\n      0x00\n      dup1\n      not\n      and\n      dup2\n      mstore\n      0x20\n      add\n      0x60\n      dup2\n      mstore\n      pop\n      swap1\n      jump\t// out\n    tag_133:\n      dup3\n      dup1\n      sload\n      0x01\n      dup2\n      0x01\n      and\n      iszero\n      0x0100\n      mul\n      sub\n      and\n      0x02\n      swap1\n      div\n      swap1\n      0x00\n      mstore\n      keccak256(0x00, 0x20)\n      swap1\n      0x1f\n      add\n      0x20\n      swap1\n      div\n      dup2\n      add\n      swap3\n      dup3\n      0x1f\n      lt\n      tag_152\n      jumpi\n      dup1\n      mload\n      not(0xff)\n      and\n      dup4\n      dup1\n      add\n      or\n      dup6\n      sstore\n      jump(tag_151)\n    tag_152:\n      dup3\n      dup1\n      add\n      0x01\n      add\n      dup6\n      sstore\n      dup3\n      iszero\n      tag_151\n      jumpi\n      swap2\n      dup3\n      add\n    tag_153:\n      dup3\n      dup2\n      gt\n      iszero\n      tag_154\n      jumpi\n      dup3\n      mload\n      dup3\n      sstore\n      swap2\n      0x20\n      add\n      swap2\n      swap1\n      0x01\n      add\n      swap1\n      jump(tag_153)\n    tag_154:\n    tag_151:\n      pop\n      swap1\n      pop\n      tag_155\n      swap2\n      swap1\n      tag_156\n      jump\t// in\n    tag_155:\n      pop\n      swap1\n      jump\t// out\n    tag_136:\n      dup3\n      dup1\n      sload\n      0x01\n      dup2\n      0x01\n      and\n      iszero\n      0x0100\n      mul\n      sub\n      and\n      0x02\n      swap1\n      div\n      swap1\n      0x00\n      mstore\n      keccak256(0x00, 0x20)\n      swap1\n      0x1f\n      add\n      0x20\n      swap1\n      div\n      dup2\n      add\n      swap3\n      dup3\n      0x1f\n      lt\n      tag_158\n      jumpi\n      dup1\n      mload\n      not(0xff)\n      and\n      dup4\n      dup1\n      add\n      or\n      dup6\n      sstore\n      jump(tag_157)\n    tag_158:\n      dup3\n      dup1\n      add\n      0x01\n      add\n      dup6\n      sstore\n      dup3\n      iszero\n      tag_157\n      jumpi\n      swap2\n      dup3\n      add\n    tag_159:\n      dup3\n      dup2\n      gt\n      iszero\n      tag_160\n      jumpi\n      dup3\n      mload\n      dup3\n      sstore\n      swap2\n      0x20\n      add\n      swap2\n      swap1\n      0x01\n      add\n      swap1\n      jump(tag_159)\n    tag_160:\n    tag_157:\n      pop\n      swap1\n      pop\n      tag_161\n      swap2\n      swap1\n      tag_156\n      jump\t// in\n    tag_161:\n      pop\n      swap1\n      jump\t// out\n    tag_156:\n      tag_162\n      swap2\n      swap1\n    tag_163:\n      dup1\n      dup3\n      gt\n      iszero\n      tag_164\n      jumpi\n      0x00\n      dup2\n      0x00\n      swap1\n      sstore\n      pop\n      0x01\n      add\n      jump(tag_163)\n    tag_164:\n      pop\n      swap1\n      jump\n    tag_162:\n      swap1\n      jump\t// out\n        /* \"--CODEGEN--\":5:135   */\n    tag_166:\n      0x00\n        /* \"--CODEGEN--\":85:91   */\n      dup2\n        /* \"--CODEGEN--\":72:92   */\n      calldataload\n        /* \"--CODEGEN--\":63:92   */\n      swap1\n      pop\n        /* \"--CODEGEN--\":97:130   */\n      tag_168\n        /* \"--CODEGEN--\":124:129   */\n      dup2\n        /* \"--CODEGEN--\":97:130   */\n      jump(tag_169)\n    tag_168:\n        /* \"--CODEGEN--\":57:135   */\n      swap3\n      swap2\n      pop\n      pop\n      jump\n        /* \"--CODEGEN--\":142:266   */\n    tag_170:\n      0x00\n        /* \"--CODEGEN--\":219:225   */\n      dup2\n        /* \"--CODEGEN--\":206:226   */\n      calldataload\n        /* \"--CODEGEN--\":197:226   */\n      swap1\n      pop\n        /* \"--CODEGEN--\":231:261   */\n      tag_172\n        /* \"--CODEGEN--\":255:260   */\n      dup2\n        /* \"--CODEGEN--\":231:261   */\n      jump(tag_173)\n    tag_172:\n        /* \"--CODEGEN--\":191:266   */\n      swap3\n      swap2\n      pop\n      pop\n      jump\n        /* \"--CODEGEN--\":273:403   */\n    tag_174:\n      0x00\n        /* \"--CODEGEN--\":353:359   */\n      dup2\n        /* \"--CODEGEN--\":340:360   */\n      calldataload\n        /* \"--CODEGEN--\":331:360   */\n      swap1\n      pop\n        /* \"--CODEGEN--\":365:398   */\n      tag_176\n        /* \"--CODEGEN--\":392:397   */\n      dup2\n        /* \"--CODEGEN--\":365:398   */\n      jump(tag_177)\n    tag_176:\n        /* \"--CODEGEN--\":325:403   */\n      swap3\n      swap2\n      pop\n      pop\n      jump\n        /* \"--CODEGEN--\":411:851   */\n    tag_178:\n      0x00\n        /* \"--CODEGEN--\":512:515   */\n      dup3\n        /* \"--CODEGEN--\":505:509   */\n      0x1f\n        /* \"--CODEGEN--\":497:503   */\n      dup4\n        /* \"--CODEGEN--\":493:510   */\n      add\n        /* \"--CODEGEN--\":489:516   */\n      slt\n        /* \"--CODEGEN--\":479:481   */\n      tag_180\n      jumpi\n        /* \"--CODEGEN--\":530:531   */\n      0x00\n        /* \"--CODEGEN--\":527:528   */\n      dup1\n        /* \"--CODEGEN--\":520:532   */\n      revert\n        /* \"--CODEGEN--\":479:481   */\n    tag_180:\n        /* \"--CODEGEN--\":567:573   */\n      dup2\n        /* \"--CODEGEN--\":554:574   */\n      calldataload\n        /* \"--CODEGEN--\":589:653   */\n      tag_181\n        /* \"--CODEGEN--\":604:652   */\n      tag_182\n        /* \"--CODEGEN--\":645:651   */\n      dup3\n        /* \"--CODEGEN--\":604:652   */\n      jump(tag_183)\n    tag_182:\n        /* \"--CODEGEN--\":589:653   */\n      jump(tag_184)\n    tag_181:\n        /* \"--CODEGEN--\":580:653   */\n      swap2\n      pop\n        /* \"--CODEGEN--\":673:679   */\n      dup1\n        /* \"--CODEGEN--\":666:671   */\n      dup3\n        /* \"--CODEGEN--\":659:680   */\n      mstore\n        /* \"--CODEGEN--\":709:713   */\n      0x20\n        /* \"--CODEGEN--\":701:707   */\n      dup4\n        /* \"--CODEGEN--\":697:714   */\n      add\n        /* \"--CODEGEN--\":742:746   */\n      0x20\n        /* \"--CODEGEN--\":735:740   */\n      dup4\n        /* \"--CODEGEN--\":731:747   */\n      add\n        /* \"--CODEGEN--\":777:780   */\n      dup6\n        /* \"--CODEGEN--\":768:774   */\n      dup4\n        /* \"--CODEGEN--\":763:766   */\n      dup4\n        /* \"--CODEGEN--\":759:775   */\n      add\n        /* \"--CODEGEN--\":756:781   */\n      gt\n        /* \"--CODEGEN--\":753:755   */\n      iszero\n      tag_185\n      jumpi\n        /* \"--CODEGEN--\":794:795   */\n      0x00\n        /* \"--CODEGEN--\":791:792   */\n      dup1\n        /* \"--CODEGEN--\":784:796   */\n      revert\n        /* \"--CODEGEN--\":753:755   */\n    tag_185:\n        /* \"--CODEGEN--\":804:845   */\n      tag_186\n        /* \"--CODEGEN--\":838:844   */\n      dup4\n        /* \"--CODEGEN--\":833:836   */\n      dup3\n        /* \"--CODEGEN--\":828:831   */\n      dup5\n        /* \"--CODEGEN--\":804:845   */\n      jump(tag_187)\n    tag_186:\n        /* \"--CODEGEN--\":472:851   */\n      pop\n      pop\n      pop\n      swap3\n      swap2\n      pop\n      pop\n      jump\n        /* \"--CODEGEN--\":859:1100   */\n    tag_26:\n      0x00\n        /* \"--CODEGEN--\":963:965   */\n      0x20\n        /* \"--CODEGEN--\":951:960   */\n      dup3\n        /* \"--CODEGEN--\":942:949   */\n      dup5\n        /* \"--CODEGEN--\":938:961   */\n      sub\n        /* \"--CODEGEN--\":934:966   */\n      slt\n        /* \"--CODEGEN--\":931:933   */\n      iszero\n      tag_189\n      jumpi\n        /* \"--CODEGEN--\":979:980   */\n      0x00\n        /* \"--CODEGEN--\":976:977   */\n      dup1\n        /* \"--CODEGEN--\":969:981   */\n      revert\n        /* \"--CODEGEN--\":931:933   */\n    tag_189:\n        /* \"--CODEGEN--\":1014:1015   */\n      0x00\n        /* \"--CODEGEN--\":1031:1084   */\n      tag_190\n        /* \"--CODEGEN--\":1076:1083   */\n      dup5\n        /* \"--CODEGEN--\":1067:1073   */\n      dup3\n        /* \"--CODEGEN--\":1056:1065   */\n      dup6\n        /* \"--CODEGEN--\":1052:1074   */\n      add\n        /* \"--CODEGEN--\":1031:1084   */\n      jump(tag_166)\n    tag_190:\n        /* \"--CODEGEN--\":1021:1084   */\n      swap2\n      pop\n        /* \"--CODEGEN--\":993:1090   */\n      pop\n        /* \"--CODEGEN--\":925:1100   */\n      swap3\n      swap2\n      pop\n      pop\n      jump\n        /* \"--CODEGEN--\":1107:1467   */\n    tag_58:\n      0x00\n      dup1\n        /* \"--CODEGEN--\":1225:1227   */\n      0x40\n        /* \"--CODEGEN--\":1213:1222   */\n      dup4\n        /* \"--CODEGEN--\":1204:1211   */\n      dup6\n        /* \"--CODEGEN--\":1200:1223   */\n      sub\n        /* \"--CODEGEN--\":1196:1228   */\n      slt\n        /* \"--CODEGEN--\":1193:1195   */\n      iszero\n      tag_192\n      jumpi\n        /* \"--CODEGEN--\":1241:1242   */\n      0x00\n        /* \"--CODEGEN--\":1238:1239   */\n      dup1\n        /* \"--CODEGEN--\":1231:1243   */\n      revert\n        /* \"--CODEGEN--\":1193:1195   */\n    tag_192:\n        /* \"--CODEGEN--\":1276:1277   */\n      0x00\n        /* \"--CODEGEN--\":1293:1346   */\n      tag_193\n        /* \"--CODEGEN--\":1338:1345   */\n      dup6\n        /* \"--CODEGEN--\":1329:1335   */\n      dup3\n        /* \"--CODEGEN--\":1318:1327   */\n      dup7\n        /* \"--CODEGEN--\":1314:1336   */\n      add\n        /* \"--CODEGEN--\":1293:1346   */\n      jump(tag_166)\n    tag_193:\n        /* \"--CODEGEN--\":1283:1346   */\n      swap3\n      pop\n        /* \"--CODEGEN--\":1255:1352   */\n      pop\n        /* \"--CODEGEN--\":1383:1385   */\n      0x20\n        /* \"--CODEGEN--\":1401:1451   */\n      tag_194\n        /* \"--CODEGEN--\":1443:1450   */\n      dup6\n        /* \"--CODEGEN--\":1434:1440   */\n      dup3\n        /* \"--CODEGEN--\":1423:1432   */\n      dup7\n        /* \"--CODEGEN--\":1419:1441   */\n      add\n        /* \"--CODEGEN--\":1401:1451   */\n      jump(tag_170)\n    tag_194:\n        /* \"--CODEGEN--\":1391:1451   */\n      swap2\n      pop\n        /* \"--CODEGEN--\":1362:1457   */\n      pop\n        /* \"--CODEGEN--\":1187:1467   */\n      swap3\n      pop\n      swap3\n      swap1\n      pop\n      jump\n        /* \"--CODEGEN--\":1474:1840   */\n    tag_38:\n      0x00\n      dup1\n        /* \"--CODEGEN--\":1595:1597   */\n      0x40\n        /* \"--CODEGEN--\":1583:1592   */\n      dup4\n        /* \"--CODEGEN--\":1574:1581   */\n      dup6\n        /* \"--CODEGEN--\":1570:1593   */\n      sub\n        /* \"--CODEGEN--\":1566:1598   */\n      slt\n        /* \"--CODEGEN--\":1563:1565   */\n      iszero\n      tag_196\n      jumpi\n        /* \"--CODEGEN--\":1611:1612   */\n      0x00\n        /* \"--CODEGEN--\":1608:1609   */\n      dup1\n        /* \"--CODEGEN--\":1601:1613   */\n      revert\n        /* \"--CODEGEN--\":1563:1565   */\n    tag_196:\n        /* \"--CODEGEN--\":1646:1647   */\n      0x00\n        /* \"--CODEGEN--\":1663:1716   */\n      tag_197\n        /* \"--CODEGEN--\":1708:1715   */\n      dup6\n        /* \"--CODEGEN--\":1699:1705   */\n      dup3\n        /* \"--CODEGEN--\":1688:1697   */\n      dup7\n        /* \"--CODEGEN--\":1684:1706   */\n      add\n        /* \"--CODEGEN--\":1663:1716   */\n      jump(tag_166)\n    tag_197:\n        /* \"--CODEGEN--\":1653:1716   */\n      swap3\n      pop\n        /* \"--CODEGEN--\":1625:1722   */\n      pop\n        /* \"--CODEGEN--\":1753:1755   */\n      0x20\n        /* \"--CODEGEN--\":1771:1824   */\n      tag_198\n        /* \"--CODEGEN--\":1816:1823   */\n      dup6\n        /* \"--CODEGEN--\":1807:1813   */\n      dup3\n        /* \"--CODEGEN--\":1796:1805   */\n      dup7\n        /* \"--CODEGEN--\":1792:1814   */\n      add\n        /* \"--CODEGEN--\":1771:1824   */\n      jump(tag_174)\n    tag_198:\n        /* \"--CODEGEN--\":1761:1824   */\n      swap2\n      pop\n        /* \"--CODEGEN--\":1732:1830   */\n      pop\n        /* \"--CODEGEN--\":1557:1840   */\n      swap3\n      pop\n      swap3\n      swap1\n      pop\n      jump\n        /* \"--CODEGEN--\":1847:2088   */\n    tag_32:\n      0x00\n        /* \"--CODEGEN--\":1951:1953   */\n      0x20\n        /* \"--CODEGEN--\":1939:1948   */\n      dup3\n        /* \"--CODEGEN--\":1930:1937   */\n      dup5\n        /* \"--CODEGEN--\":1926:1949   */\n      sub\n        /* \"--CODEGEN--\":1922:1954   */\n      slt\n        /* \"--CODEGEN--\":1919:1921   */\n      iszero\n      tag_200\n      jumpi\n        /* \"--CODEGEN--\":1967:1968   */\n      0x00\n        /* \"--CODEGEN--\":1964:1965   */\n      dup1\n        /* \"--CODEGEN--\":1957:1969   */\n      revert\n        /* \"--CODEGEN--\":1919:1921   */\n    tag_200:\n        /* \"--CODEGEN--\":2002:2003   */\n      0x00\n        /* \"--CODEGEN--\":2019:2072   */\n      tag_201\n        /* \"--CODEGEN--\":2064:2071   */\n      dup5\n        /* \"--CODEGEN--\":2055:2061   */\n      dup3\n        /* \"--CODEGEN--\":2044:2053   */\n      dup6\n        /* \"--CODEGEN--\":2040:2062   */\n      add\n        /* \"--CODEGEN--\":2019:2072   */\n      jump(tag_174)\n    tag_201:\n        /* \"--CODEGEN--\":2009:2072   */\n      swap2\n      pop\n        /* \"--CODEGEN--\":1981:2078   */\n      pop\n        /* \"--CODEGEN--\":1913:2088   */\n      swap3\n      swap2\n      pop\n      pop\n      jump\n        /* \"--CODEGEN--\":2095:2440   */\n    tag_52:\n      0x00\n        /* \"--CODEGEN--\":2208:2210   */\n      0x20\n        /* \"--CODEGEN--\":2196:2205   */\n      dup3\n        /* \"--CODEGEN--\":2187:2194   */\n      dup5\n        /* \"--CODEGEN--\":2183:2206   */\n      sub\n        /* \"--CODEGEN--\":2179:2211   */\n      slt\n        /* \"--CODEGEN--\":2176:2178   */\n      iszero\n      tag_203\n      jumpi\n        /* \"--CODEGEN--\":2224:2225   */\n      0x00\n        /* \"--CODEGEN--\":2221:2222   */\n      dup1\n        /* \"--CODEGEN--\":2214:2226   */\n      revert\n        /* \"--CODEGEN--\":2176:2178   */\n    tag_203:\n        /* \"--CODEGEN--\":2287:2288   */\n      0x00\n        /* \"--CODEGEN--\":2276:2285   */\n      dup3\n        /* \"--CODEGEN--\":2272:2289   */\n      add\n        /* \"--CODEGEN--\":2259:2290   */\n      calldataload\n        /* \"--CODEGEN--\":2310:2328   */\n      0xffffffffffffffff\n        /* \"--CODEGEN--\":2302:2308   */\n      dup2\n        /* \"--CODEGEN--\":2299:2329   */\n      gt\n        /* \"--CODEGEN--\":2296:2298   */\n      iszero\n      tag_204\n      jumpi\n        /* \"--CODEGEN--\":2342:2343   */\n      0x00\n        /* \"--CODEGEN--\":2339:2340   */\n      dup1\n        /* \"--CODEGEN--\":2332:2344   */\n      revert\n        /* \"--CODEGEN--\":2296:2298   */\n    tag_204:\n        /* \"--CODEGEN--\":2362:2424   */\n      tag_205\n        /* \"--CODEGEN--\":2416:2423   */\n      dup5\n        /* \"--CODEGEN--\":2407:2413   */\n      dup3\n        /* \"--CODEGEN--\":2396:2405   */\n      dup6\n        /* \"--CODEGEN--\":2392:2414   */\n      add\n        /* \"--CODEGEN--\":2362:2424   */\n      jump(tag_178)\n    tag_205:\n        /* \"--CODEGEN--\":2352:2424   */\n      swap2\n      pop\n        /* \"--CODEGEN--\":2238:2430   */\n      pop\n        /* \"--CODEGEN--\":2170:2440   */\n      swap3\n      swap2\n      pop\n      pop\n      jump\n        /* \"--CODEGEN--\":2447:2911   */\n    tag_16:\n      0x00\n      dup1\n        /* \"--CODEGEN--\":2574:2576   */\n      0x40\n        /* \"--CODEGEN--\":2562:2571   */\n      dup4\n        /* \"--CODEGEN--\":2553:2560   */\n      dup6\n        /* \"--CODEGEN--\":2549:2572   */\n      sub\n        /* \"--CODEGEN--\":2545:2577   */\n      slt\n        /* \"--CODEGEN--\":2542:2544   */\n      iszero\n      tag_207\n      jumpi\n        /* \"--CODEGEN--\":2590:2591   */\n      0x00\n        /* \"--CODEGEN--\":2587:2588   */\n      dup1\n        /* \"--CODEGEN--\":2580:2592   */\n      revert\n        /* \"--CODEGEN--\":2542:2544   */\n    tag_207:\n        /* \"--CODEGEN--\":2653:2654   */\n      0x00\n        /* \"--CODEGEN--\":2642:2651   */\n      dup4\n        /* \"--CODEGEN--\":2638:2655   */\n      add\n        /* \"--CODEGEN--\":2625:2656   */\n      calldataload\n        /* \"--CODEGEN--\":2676:2694   */\n      0xffffffffffffffff\n        /* \"--CODEGEN--\":2668:2674   */\n      dup2\n        /* \"--CODEGEN--\":2665:2695   */\n      gt\n        /* \"--CODEGEN--\":2662:2664   */\n      iszero\n      tag_208\n      jumpi\n        /* \"--CODEGEN--\":2708:2709   */\n      0x00\n        /* \"--CODEGEN--\":2705:2706   */\n      dup1\n        /* \"--CODEGEN--\":2698:2710   */\n      revert\n        /* \"--CODEGEN--\":2662:2664   */\n    tag_208:\n        /* \"--CODEGEN--\":2728:2790   */\n      tag_209\n        /* \"--CODEGEN--\":2782:2789   */\n      dup6\n        /* \"--CODEGEN--\":2773:2779   */\n      dup3\n        /* \"--CODEGEN--\":2762:2771   */\n      dup7\n        /* \"--CODEGEN--\":2758:2780   */\n      add\n        /* \"--CODEGEN--\":2728:2790   */\n      jump(tag_178)\n    tag_209:\n        /* \"--CODEGEN--\":2718:2790   */\n      swap3\n      pop\n        /* \"--CODEGEN--\":2604:2796   */\n      pop\n        /* \"--CODEGEN--\":2827:2829   */\n      0x20\n        /* \"--CODEGEN--\":2845:2895   */\n      tag_210\n        /* \"--CODEGEN--\":2887:2894   */\n      dup6\n        /* \"--CODEGEN--\":2878:2884   */\n      dup3\n        /* \"--CODEGEN--\":2867:2876   */\n      dup7\n        /* \"--CODEGEN--\":2863:2885   */\n      add\n        /* \"--CODEGEN--\":2845:2895   */\n      jump(tag_170)\n    tag_210:\n        /* \"--CODEGEN--\":2835:2895   */\n      swap2\n      pop\n        /* \"--CODEGEN--\":2806:2901   */\n      pop\n        /* \"--CODEGEN--\":2536:2911   */\n      swap3\n      pop\n      swap3\n      swap1\n      pop\n      jump\n        /* \"--CODEGEN--\":2918:3031   */\n    tag_211:\n        /* \"--CODEGEN--\":3001:3025   */\n      tag_213\n        /* \"--CODEGEN--\":3019:3024   */\n      dup2\n        /* \"--CODEGEN--\":3001:3025   */\n      jump(tag_214)\n    tag_213:\n        /* \"--CODEGEN--\":2996:2999   */\n      dup3\n        /* \"--CODEGEN--\":2989:3026   */\n      mstore\n        /* \"--CODEGEN--\":2983:3031   */\n      pop\n      pop\n      jump\n        /* \"--CODEGEN--\":3038:3190   */\n    tag_215:\n        /* \"--CODEGEN--\":3139:3184   */\n      tag_217\n        /* \"--CODEGEN--\":3159:3183   */\n      tag_218\n        /* \"--CODEGEN--\":3177:3182   */\n      dup3\n        /* \"--CODEGEN--\":3159:3183   */\n      jump(tag_214)\n    tag_218:\n        /* \"--CODEGEN--\":3139:3184   */\n      jump(tag_219)\n    tag_217:\n        /* \"--CODEGEN--\":3134:3137   */\n      dup3\n        /* \"--CODEGEN--\":3127:3185   */\n      mstore\n        /* \"--CODEGEN--\":3121:3190   */\n      pop\n      pop\n      jump\n        /* \"--CODEGEN--\":3197:3301   */\n    tag_220:\n        /* \"--CODEGEN--\":3274:3295   */\n      tag_222\n        /* \"--CODEGEN--\":3289:3294   */\n      dup2\n        /* \"--CODEGEN--\":3274:3295   */\n      jump(tag_223)\n    tag_222:\n        /* \"--CODEGEN--\":3269:3272   */\n      dup3\n        /* \"--CODEGEN--\":3262:3296   */\n      mstore\n        /* \"--CODEGEN--\":3256:3301   */\n      pop\n      pop\n      jump\n        /* \"--CODEGEN--\":3308:3411   */\n    tag_224:\n        /* \"--CODEGEN--\":3381:3405   */\n      tag_226\n        /* \"--CODEGEN--\":3399:3404   */\n      dup2\n        /* \"--CODEGEN--\":3381:3405   */\n      jump(tag_227)\n    tag_226:\n        /* \"--CODEGEN--\":3376:3379   */\n      dup3\n        /* \"--CODEGEN--\":3369:3406   */\n      mstore\n        /* \"--CODEGEN--\":3363:3411   */\n      pop\n      pop\n      jump\n        /* \"--CODEGEN--\":3418:3531   */\n    tag_228:\n        /* \"--CODEGEN--\":3501:3525   */\n      tag_230\n        /* \"--CODEGEN--\":3519:3524   */\n      dup2\n        /* \"--CODEGEN--\":3501:3525   */\n      jump(tag_227)\n    tag_230:\n        /* \"--CODEGEN--\":3496:3499   */\n      dup3\n        /* \"--CODEGEN--\":3489:3526   */\n      mstore\n        /* \"--CODEGEN--\":3483:3531   */\n      pop\n      pop\n      jump\n        /* \"--CODEGEN--\":3538:3690   */\n    tag_231:\n        /* \"--CODEGEN--\":3639:3684   */\n      tag_233\n        /* \"--CODEGEN--\":3659:3683   */\n      tag_234\n        /* \"--CODEGEN--\":3677:3682   */\n      dup3\n        /* \"--CODEGEN--\":3659:3683   */\n      jump(tag_227)\n    tag_234:\n        /* \"--CODEGEN--\":3639:3684   */\n      jump(tag_235)\n    tag_233:\n        /* \"--CODEGEN--\":3634:3637   */\n      dup3\n        /* \"--CODEGEN--\":3627:3685   */\n      mstore\n        /* \"--CODEGEN--\":3621:3690   */\n      pop\n      pop\n      jump\n        /* \"--CODEGEN--\":3697:4053   */\n    tag_236:\n      0x00\n        /* \"--CODEGEN--\":3825:3863   */\n      tag_238\n        /* \"--CODEGEN--\":3857:3862   */\n      dup3\n        /* \"--CODEGEN--\":3825:3863   */\n      jump(tag_239)\n    tag_238:\n        /* \"--CODEGEN--\":3875:3963   */\n      tag_240\n        /* \"--CODEGEN--\":3956:3962   */\n      dup2\n        /* \"--CODEGEN--\":3951:3954   */\n      dup6\n        /* \"--CODEGEN--\":3875:3963   */\n      jump(tag_241)\n    tag_240:\n        /* \"--CODEGEN--\":3868:3963   */\n      swap4\n      pop\n        /* \"--CODEGEN--\":3968:4020   */\n      tag_242\n        /* \"--CODEGEN--\":4013:4019   */\n      dup2\n        /* \"--CODEGEN--\":4008:4011   */\n      dup6\n        /* \"--CODEGEN--\":4001:4005   */\n      0x20\n        /* \"--CODEGEN--\":3994:3999   */\n      dup7\n        /* \"--CODEGEN--\":3990:4006   */\n      add\n        /* \"--CODEGEN--\":3968:4020   */\n      jump(tag_243)\n    tag_242:\n        /* \"--CODEGEN--\":4041:4047   */\n      dup1\n        /* \"--CODEGEN--\":4036:4039   */\n      dup5\n        /* \"--CODEGEN--\":4032:4048   */\n      add\n        /* \"--CODEGEN--\":4025:4048   */\n      swap2\n      pop\n        /* \"--CODEGEN--\":3805:4053   */\n      pop\n      swap3\n      swap2\n      pop\n      pop\n      jump\n        /* \"--CODEGEN--\":4060:4375   */\n    tag_244:\n      0x00\n        /* \"--CODEGEN--\":4156:4190   */\n      tag_246\n        /* \"--CODEGEN--\":4184:4189   */\n      dup3\n        /* \"--CODEGEN--\":4156:4190   */\n      jump(tag_247)\n    tag_246:\n        /* \"--CODEGEN--\":4202:4262   */\n      tag_248\n        /* \"--CODEGEN--\":4255:4261   */\n      dup2\n        /* \"--CODEGEN--\":4250:4253   */\n      dup6\n        /* \"--CODEGEN--\":4202:4262   */\n      jump(tag_249)\n    tag_248:\n        /* \"--CODEGEN--\":4195:4262   */\n      swap4\n      pop\n        /* \"--CODEGEN--\":4267:4319   */\n      tag_250\n        /* \"--CODEGEN--\":4312:4318   */\n      dup2\n        /* \"--CODEGEN--\":4307:4310   */\n      dup6\n        /* \"--CODEGEN--\":4300:4304   */\n      0x20\n        /* \"--CODEGEN--\":4293:4298   */\n      dup7\n        /* \"--CODEGEN--\":4289:4305   */\n      add\n        /* \"--CODEGEN--\":4267:4319   */\n      jump(tag_243)\n    tag_250:\n        /* \"--CODEGEN--\":4340:4369   */\n      tag_251\n        /* \"--CODEGEN--\":4362:4368   */\n      dup2\n        /* \"--CODEGEN--\":4340:4369   */\n      jump(tag_252)\n    tag_251:\n        /* \"--CODEGEN--\":4335:4338   */\n      dup5\n        /* \"--CODEGEN--\":4331:4370   */\n      add\n        /* \"--CODEGEN--\":4324:4370   */\n      swap2\n      pop\n        /* \"--CODEGEN--\":4136:4375   */\n      pop\n      swap3\n      swap2\n      pop\n      pop\n      jump\n        /* \"--CODEGEN--\":4382:4717   */\n    tag_253:\n      0x00\n        /* \"--CODEGEN--\":4488:4522   */\n      tag_255\n        /* \"--CODEGEN--\":4516:4521   */\n      dup3\n        /* \"--CODEGEN--\":4488:4522   */\n      jump(tag_247)\n    tag_255:\n        /* \"--CODEGEN--\":4534:4604   */\n      tag_256\n        /* \"--CODEGEN--\":4597:4603   */\n      dup2\n        /* \"--CODEGEN--\":4592:4595   */\n      dup6\n        /* \"--CODEGEN--\":4534:4604   */\n      jump(tag_257)\n    tag_256:\n        /* \"--CODEGEN--\":4527:4604   */\n      swap4\n      pop\n        /* \"--CODEGEN--\":4609:4661   */\n      tag_258\n        /* \"--CODEGEN--\":4654:4660   */\n      dup2\n        /* \"--CODEGEN--\":4649:4652   */\n      dup6\n        /* \"--CODEGEN--\":4642:4646   */\n      0x20\n        /* \"--CODEGEN--\":4635:4640   */\n      dup7\n        /* \"--CODEGEN--\":4631:4647   */\n      add\n        /* \"--CODEGEN--\":4609:4661   */\n      jump(tag_243)\n    tag_258:\n        /* \"--CODEGEN--\":4682:4711   */\n      tag_259\n        /* \"--CODEGEN--\":4704:4710   */\n      dup2\n        /* \"--CODEGEN--\":4682:4711   */\n      jump(tag_252)\n    tag_259:\n        /* \"--CODEGEN--\":4677:4680   */\n      dup5\n        /* \"--CODEGEN--\":4673:4712   */\n      add\n        /* \"--CODEGEN--\":4666:4712   */\n      swap2\n      pop\n        /* \"--CODEGEN--\":4468:4717   */\n      pop\n      swap3\n      swap2\n      pop\n      pop\n      jump\n        /* \"--CODEGEN--\":4724:5072   */\n    tag_260:\n      0x00\n        /* \"--CODEGEN--\":4848:4882   */\n      tag_262\n        /* \"--CODEGEN--\":4876:4881   */\n      dup3\n        /* \"--CODEGEN--\":4848:4882   */\n      jump(tag_247)\n    tag_262:\n        /* \"--CODEGEN--\":4894:4982   */\n      tag_263\n        /* \"--CODEGEN--\":4975:4981   */\n      dup2\n        /* \"--CODEGEN--\":4970:4973   */\n      dup6\n        /* \"--CODEGEN--\":4894:4982   */\n      jump(tag_241)\n    tag_263:\n        /* \"--CODEGEN--\":4887:4982   */\n      swap4\n      pop\n        /* \"--CODEGEN--\":4987:5039   */\n      tag_264\n        /* \"--CODEGEN--\":5032:5038   */\n      dup2\n        /* \"--CODEGEN--\":5027:5030   */\n      dup6\n        /* \"--CODEGEN--\":5020:5024   */\n      0x20\n        /* \"--CODEGEN--\":5013:5018   */\n      dup7\n        /* \"--CODEGEN--\":5009:5025   */\n      add\n        /* \"--CODEGEN--\":4987:5039   */\n      jump(tag_243)\n    tag_264:\n        /* \"--CODEGEN--\":5060:5066   */\n      dup1\n        /* \"--CODEGEN--\":5055:5058   */\n      dup5\n        /* \"--CODEGEN--\":5051:5067   */\n      add\n        /* \"--CODEGEN--\":5044:5067   */\n      swap2\n      pop\n        /* \"--CODEGEN--\":4828:5072   */\n      pop\n      swap3\n      swap2\n      pop\n      pop\n      jump\n        /* \"--CODEGEN--\":5080:5406   */\n    tag_265:\n      0x00\n        /* \"--CODEGEN--\":5240:5307   */\n      tag_267\n        /* \"--CODEGEN--\":5304:5306   */\n      0x1a\n        /* \"--CODEGEN--\":5299:5302   */\n      dup4\n        /* \"--CODEGEN--\":5240:5307   */\n      jump(tag_268)\n    tag_267:\n        /* \"--CODEGEN--\":5233:5307   */\n      swap2\n      pop\n        /* \"--CODEGEN--\":5340:5368   */\n      0x696e76616c6964206365727469666963617465206c656e677468000000000000\n        /* \"--CODEGEN--\":5336:5337   */\n      0x00\n        /* \"--CODEGEN--\":5331:5334   */\n      dup4\n        /* \"--CODEGEN--\":5327:5338   */\n      add\n        /* \"--CODEGEN--\":5320:5369   */\n      mstore\n        /* \"--CODEGEN--\":5397:5399   */\n      0x20\n        /* \"--CODEGEN--\":5392:5395   */\n      dup3\n        /* \"--CODEGEN--\":5388:5400   */\n      add\n        /* \"--CODEGEN--\":5381:5400   */\n      swap1\n      pop\n        /* \"--CODEGEN--\":5226:5406   */\n      swap2\n      swap1\n      pop\n      jump\n        /* \"--CODEGEN--\":5415:5739   */\n    tag_269:\n      0x00\n        /* \"--CODEGEN--\":5575:5642   */\n      tag_271\n        /* \"--CODEGEN--\":5639:5641   */\n      0x18\n        /* \"--CODEGEN--\":5634:5637   */\n      dup4\n        /* \"--CODEGEN--\":5575:5642   */\n      jump(tag_268)\n    tag_271:\n        /* \"--CODEGEN--\":5568:5642   */\n      swap2\n      pop\n        /* \"--CODEGEN--\":5675:5701   */\n      0x636572746966696572206e6f7420617574686f72697365640000000000000000\n        /* \"--CODEGEN--\":5671:5672   */\n      0x00\n        /* \"--CODEGEN--\":5666:5669   */\n      dup4\n        /* \"--CODEGEN--\":5662:5673   */\n      add\n        /* \"--CODEGEN--\":5655:5702   */\n      mstore\n        /* \"--CODEGEN--\":5730:5732   */\n      0x20\n        /* \"--CODEGEN--\":5725:5728   */\n      dup3\n        /* \"--CODEGEN--\":5721:5733   */\n      add\n        /* \"--CODEGEN--\":5714:5733   */\n      swap1\n      pop\n        /* \"--CODEGEN--\":5561:5739   */\n      swap2\n      swap1\n      pop\n      jump\n        /* \"--CODEGEN--\":5748:6070   */\n    tag_272:\n      0x00\n        /* \"--CODEGEN--\":5908:5975   */\n      tag_274\n        /* \"--CODEGEN--\":5972:5974   */\n      0x16\n        /* \"--CODEGEN--\":5967:5970   */\n      dup4\n        /* \"--CODEGEN--\":5908:5975   */\n      jump(tag_268)\n    tag_274:\n        /* \"--CODEGEN--\":5901:5975   */\n      swap2\n      pop\n        /* \"--CODEGEN--\":6008:6032   */\n      0x696e76616c6964207265636f766572792076616c756500000000000000000000\n        /* \"--CODEGEN--\":6004:6005   */\n      0x00\n        /* \"--CODEGEN--\":5999:6002   */\n      dup4\n        /* \"--CODEGEN--\":5995:6006   */\n      add\n        /* \"--CODEGEN--\":5988:6033   */\n      mstore\n        /* \"--CODEGEN--\":6061:6063   */\n      0x20\n        /* \"--CODEGEN--\":6056:6059   */\n      dup3\n        /* \"--CODEGEN--\":6052:6064   */\n      add\n        /* \"--CODEGEN--\":6045:6064   */\n      swap1\n      pop\n        /* \"--CODEGEN--\":5894:6070   */\n      swap2\n      swap1\n      pop\n      jump\n        /* \"--CODEGEN--\":6079:6395   */\n    tag_275:\n      0x00\n        /* \"--CODEGEN--\":6239:6306   */\n      tag_277\n        /* \"--CODEGEN--\":6303:6305   */\n      0x10\n        /* \"--CODEGEN--\":6298:6301   */\n      dup4\n        /* \"--CODEGEN--\":6239:6306   */\n      jump(tag_268)\n    tag_277:\n        /* \"--CODEGEN--\":6232:6306   */\n      swap2\n      pop\n        /* \"--CODEGEN--\":6339:6357   */\n      0x6e656564206e6577207369676e65727300000000000000000000000000000000\n        /* \"--CODEGEN--\":6335:6336   */\n      0x00\n        /* \"--CODEGEN--\":6330:6333   */\n      dup4\n        /* \"--CODEGEN--\":6326:6337   */\n      add\n        /* \"--CODEGEN--\":6319:6358   */\n      mstore\n        /* \"--CODEGEN--\":6386:6388   */\n      0x20\n        /* \"--CODEGEN--\":6381:6384   */\n      dup3\n        /* \"--CODEGEN--\":6377:6389   */\n      add\n        /* \"--CODEGEN--\":6370:6389   */\n      swap1\n      pop\n        /* \"--CODEGEN--\":6225:6395   */\n      swap2\n      swap1\n      pop\n      jump\n        /* \"--CODEGEN--\":6404:6718   */\n    tag_278:\n      0x00\n        /* \"--CODEGEN--\":6564:6631   */\n      tag_280\n        /* \"--CODEGEN--\":6628:6630   */\n      0x0e\n        /* \"--CODEGEN--\":6623:6626   */\n      dup4\n        /* \"--CODEGEN--\":6564:6631   */\n      jump(tag_268)\n    tag_280:\n        /* \"--CODEGEN--\":6557:6631   */\n      swap2\n      pop\n        /* \"--CODEGEN--\":6664:6680   */\n      0x6e6f7420617574686f7269736564000000000000000000000000000000000000\n        /* \"--CODEGEN--\":6660:6661   */\n      0x00\n        /* \"--CODEGEN--\":6655:6658   */\n      dup4\n        /* \"--CODEGEN--\":6651:6662   */\n      add\n        /* \"--CODEGEN--\":6644:6681   */\n      mstore\n        /* \"--CODEGEN--\":6709:6711   */\n      0x20\n        /* \"--CODEGEN--\":6704:6707   */\n      dup3\n        /* \"--CODEGEN--\":6700:6712   */\n      add\n        /* \"--CODEGEN--\":6693:6712   */\n      swap1\n      pop\n        /* \"--CODEGEN--\":6550:6718   */\n      swap2\n      swap1\n      pop\n      jump\n        /* \"--CODEGEN--\":6727:7056   */\n    tag_281:\n      0x00\n        /* \"--CODEGEN--\":6887:6954   */\n      tag_283\n        /* \"--CODEGEN--\":6951:6953   */\n      0x1d\n        /* \"--CODEGEN--\":6946:6949   */\n      dup4\n        /* \"--CODEGEN--\":6887:6954   */\n      jump(tag_268)\n    tag_283:\n        /* \"--CODEGEN--\":6880:6954   */\n      swap2\n      pop\n        /* \"--CODEGEN--\":6987:7018   */\n      0x696e76616c6964207061636b6564207369676e657273206c656e677468000000\n        /* \"--CODEGEN--\":6983:6984   */\n      0x00\n        /* \"--CODEGEN--\":6978:6981   */\n      dup4\n        /* \"--CODEGEN--\":6974:6985   */\n      add\n        /* \"--CODEGEN--\":6967:7019   */\n      mstore\n        /* \"--CODEGEN--\":7047:7049   */\n      0x20\n        /* \"--CODEGEN--\":7042:7045   */\n      dup3\n        /* \"--CODEGEN--\":7038:7050   */\n      add\n        /* \"--CODEGEN--\":7031:7050   */\n      swap1\n      pop\n        /* \"--CODEGEN--\":6873:7056   */\n      swap2\n      swap1\n      pop\n      jump\n        /* \"--CODEGEN--\":7065:7393   */\n    tag_284:\n      0x00\n        /* \"--CODEGEN--\":7225:7292   */\n      tag_286\n        /* \"--CODEGEN--\":7289:7291   */\n      0x1c\n        /* \"--CODEGEN--\":7284:7287   */\n      dup4\n        /* \"--CODEGEN--\":7225:7292   */\n      jump(tag_268)\n    tag_286:\n        /* \"--CODEGEN--\":7218:7292   */\n      swap2\n      pop\n        /* \"--CODEGEN--\":7325:7355   */\n      0x65616368207369676e65722073686f756c6420626520756e6971756500000000\n        /* \"--CODEGEN--\":7321:7322   */\n      0x00\n        /* \"--CODEGEN--\":7316:7319   */\n      dup4\n        /* \"--CODEGEN--\":7312:7323   */\n      add\n        /* \"--CODEGEN--\":7305:7356   */\n      mstore\n        /* \"--CODEGEN--\":7384:7386   */\n      0x20\n        /* \"--CODEGEN--\":7379:7382   */\n      dup3\n        /* \"--CODEGEN--\":7375:7387   */\n      add\n        /* \"--CODEGEN--\":7368:7387   */\n      swap1\n      pop\n        /* \"--CODEGEN--\":7211:7393   */\n      swap2\n      swap1\n      pop\n      jump\n        /* \"--CODEGEN--\":7402:7723   */\n    tag_287:\n      0x00\n        /* \"--CODEGEN--\":7562:7629   */\n      tag_289\n        /* \"--CODEGEN--\":7626:7628   */\n      0x15\n        /* \"--CODEGEN--\":7621:7624   */\n      dup4\n        /* \"--CODEGEN--\":7562:7629   */\n      jump(tag_268)\n    tag_289:\n        /* \"--CODEGEN--\":7555:7629   */\n      swap2\n      pop\n        /* \"--CODEGEN--\":7662:7685   */\n      0x6f6e6c79206d616e616765722063616e2063616c6c0000000000000000000000\n        /* \"--CODEGEN--\":7658:7659   */\n      0x00\n        /* \"--CODEGEN--\":7653:7656   */\n      dup4\n        /* \"--CODEGEN--\":7649:7660   */\n      add\n        /* \"--CODEGEN--\":7642:7686   */\n      mstore\n        /* \"--CODEGEN--\":7714:7716   */\n      0x20\n        /* \"--CODEGEN--\":7709:7712   */\n      dup3\n        /* \"--CODEGEN--\":7705:7717   */\n      add\n        /* \"--CODEGEN--\":7698:7717   */\n      swap1\n      pop\n        /* \"--CODEGEN--\":7548:7723   */\n      swap2\n      swap1\n      pop\n      jump\n        /* \"--CODEGEN--\":7816:8710   */\n    tag_290:\n      0x00\n        /* \"--CODEGEN--\":7971:7975   */\n      0x80\n        /* \"--CODEGEN--\":7966:7969   */\n      dup4\n        /* \"--CODEGEN--\":7962:7976   */\n      add\n        /* \"--CODEGEN--\":8054:8058   */\n      0x00\n        /* \"--CODEGEN--\":8047:8052   */\n      dup4\n        /* \"--CODEGEN--\":8043:8059   */\n      add\n        /* \"--CODEGEN--\":8037:8060   */\n      mload\n        /* \"--CODEGEN--\":8066:8129   */\n      tag_292\n        /* \"--CODEGEN--\":8123:8127   */\n      0x00\n        /* \"--CODEGEN--\":8118:8121   */\n      dup7\n        /* \"--CODEGEN--\":8114:8128   */\n      add\n        /* \"--CODEGEN--\":8100:8112   */\n      dup3\n        /* \"--CODEGEN--\":8066:8129   */\n      jump(tag_224)\n    tag_292:\n        /* \"--CODEGEN--\":7991:8135   */\n      pop\n        /* \"--CODEGEN--\":8217:8221   */\n      0x20\n        /* \"--CODEGEN--\":8210:8215   */\n      dup4\n        /* \"--CODEGEN--\":8206:8222   */\n      add\n        /* \"--CODEGEN--\":8200:8223   */\n      mload\n        /* \"--CODEGEN--\":8229:8292   */\n      tag_293\n        /* \"--CODEGEN--\":8286:8290   */\n      0x20\n        /* \"--CODEGEN--\":8281:8284   */\n      dup7\n        /* \"--CODEGEN--\":8277:8291   */\n      add\n        /* \"--CODEGEN--\":8263:8275   */\n      dup3\n        /* \"--CODEGEN--\":8229:8292   */\n      jump(tag_224)\n    tag_293:\n        /* \"--CODEGEN--\":8145:8298   */\n      pop\n        /* \"--CODEGEN--\":8376:8380   */\n      0x40\n        /* \"--CODEGEN--\":8369:8374   */\n      dup4\n        /* \"--CODEGEN--\":8365:8381   */\n      add\n        /* \"--CODEGEN--\":8359:8382   */\n      mload\n        /* \"--CODEGEN--\":8388:8451   */\n      tag_294\n        /* \"--CODEGEN--\":8445:8449   */\n      0x40\n        /* \"--CODEGEN--\":8440:8443   */\n      dup7\n        /* \"--CODEGEN--\":8436:8450   */\n      add\n        /* \"--CODEGEN--\":8422:8434   */\n      dup3\n        /* \"--CODEGEN--\":8388:8451   */\n      jump(tag_224)\n    tag_294:\n        /* \"--CODEGEN--\":8308:8457   */\n      pop\n        /* \"--CODEGEN--\":8533:8537   */\n      0x60\n        /* \"--CODEGEN--\":8526:8531   */\n      dup4\n        /* \"--CODEGEN--\":8522:8538   */\n      add\n        /* \"--CODEGEN--\":8516:8539   */\n      mload\n        /* \"--CODEGEN--\":8585:8588   */\n      dup5\n        /* \"--CODEGEN--\":8579:8583   */\n      dup3\n        /* \"--CODEGEN--\":8575:8589   */\n      sub\n        /* \"--CODEGEN--\":8568:8572   */\n      0x60\n        /* \"--CODEGEN--\":8563:8566   */\n      dup7\n        /* \"--CODEGEN--\":8559:8573   */\n      add\n        /* \"--CODEGEN--\":8552:8590   */\n      mstore\n        /* \"--CODEGEN--\":8605:8672   */\n      tag_295\n        /* \"--CODEGEN--\":8667:8671   */\n      dup3\n        /* \"--CODEGEN--\":8653:8665   */\n      dup3\n        /* \"--CODEGEN--\":8605:8672   */\n      jump(tag_244)\n    tag_295:\n        /* \"--CODEGEN--\":8597:8672   */\n      swap2\n      pop\n        /* \"--CODEGEN--\":8467:8684   */\n      pop\n        /* \"--CODEGEN--\":8701:8705   */\n      dup1\n        /* \"--CODEGEN--\":8694:8705   */\n      swap2\n      pop\n        /* \"--CODEGEN--\":7944:8710   */\n      pop\n      swap3\n      swap2\n      pop\n      pop\n      jump\n        /* \"--CODEGEN--\":8717:8824   */\n    tag_296:\n        /* \"--CODEGEN--\":8796:8818   */\n      tag_298\n        /* \"--CODEGEN--\":8812:8817   */\n      dup2\n        /* \"--CODEGEN--\":8796:8818   */\n      jump(tag_299)\n    tag_298:\n        /* \"--CODEGEN--\":8791:8794   */\n      dup3\n        /* \"--CODEGEN--\":8784:8819   */\n      mstore\n        /* \"--CODEGEN--\":8778:8824   */\n      pop\n      pop\n      jump\n        /* \"--CODEGEN--\":8831:9232   */\n    tag_87:\n      0x00\n        /* \"--CODEGEN--\":9003:9096   */\n      tag_301\n        /* \"--CODEGEN--\":9092:9095   */\n      dup3\n        /* \"--CODEGEN--\":9083:9089   */\n      dup6\n        /* \"--CODEGEN--\":9003:9096   */\n      jump(tag_236)\n    tag_301:\n        /* \"--CODEGEN--\":8996:9096   */\n      swap2\n      pop\n        /* \"--CODEGEN--\":9107:9182   */\n      tag_302\n        /* \"--CODEGEN--\":9178:9181   */\n      dup3\n        /* \"--CODEGEN--\":9169:9175   */\n      dup5\n        /* \"--CODEGEN--\":9107:9182   */\n      jump(tag_215)\n    tag_302:\n        /* \"--CODEGEN--\":9204:9206   */\n      0x14\n        /* \"--CODEGEN--\":9199:9202   */\n      dup3\n        /* \"--CODEGEN--\":9195:9207   */\n      add\n        /* \"--CODEGEN--\":9188:9207   */\n      swap2\n      pop\n        /* \"--CODEGEN--\":9224:9227   */\n      dup2\n        /* \"--CODEGEN--\":9217:9227   */\n      swap1\n      pop\n        /* \"--CODEGEN--\":8984:9232   */\n      swap4\n      swap3\n      pop\n      pop\n      pop\n      jump\n        /* \"--CODEGEN--\":9239:9910   */\n    tag_64:\n      0x00\n        /* \"--CODEGEN--\":9463:9552   */\n      tag_304\n        /* \"--CODEGEN--\":9548:9551   */\n      dup3\n        /* \"--CODEGEN--\":9539:9545   */\n      dup8\n        /* \"--CODEGEN--\":9463:9552   */\n      jump(tag_260)\n    tag_304:\n        /* \"--CODEGEN--\":9456:9552   */\n      swap2\n      pop\n        /* \"--CODEGEN--\":9563:9638   */\n      tag_305\n        /* \"--CODEGEN--\":9634:9637   */\n      dup3\n        /* \"--CODEGEN--\":9625:9631   */\n      dup7\n        /* \"--CODEGEN--\":9563:9638   */\n      jump(tag_231)\n    tag_305:\n        /* \"--CODEGEN--\":9660:9662   */\n      0x20\n        /* \"--CODEGEN--\":9655:9658   */\n      dup3\n        /* \"--CODEGEN--\":9651:9663   */\n      add\n        /* \"--CODEGEN--\":9644:9663   */\n      swap2\n      pop\n        /* \"--CODEGEN--\":9674:9749   */\n      tag_306\n        /* \"--CODEGEN--\":9745:9748   */\n      dup3\n        /* \"--CODEGEN--\":9736:9742   */\n      dup6\n        /* \"--CODEGEN--\":9674:9749   */\n      jump(tag_231)\n    tag_306:\n        /* \"--CODEGEN--\":9771:9773   */\n      0x20\n        /* \"--CODEGEN--\":9766:9769   */\n      dup3\n        /* \"--CODEGEN--\":9762:9774   */\n      add\n        /* \"--CODEGEN--\":9755:9774   */\n      swap2\n      pop\n        /* \"--CODEGEN--\":9785:9860   */\n      tag_307\n        /* \"--CODEGEN--\":9856:9859   */\n      dup3\n        /* \"--CODEGEN--\":9847:9853   */\n      dup5\n        /* \"--CODEGEN--\":9785:9860   */\n      jump(tag_231)\n    tag_307:\n        /* \"--CODEGEN--\":9882:9884   */\n      0x20\n        /* \"--CODEGEN--\":9877:9880   */\n      dup3\n        /* \"--CODEGEN--\":9873:9885   */\n      add\n        /* \"--CODEGEN--\":9866:9885   */\n      swap2\n      pop\n        /* \"--CODEGEN--\":9902:9905   */\n      dup2\n        /* \"--CODEGEN--\":9895:9905   */\n      swap1\n      pop\n        /* \"--CODEGEN--\":9444:9910   */\n      swap6\n      swap5\n      pop\n      pop\n      pop\n      pop\n      pop\n      jump\n        /* \"--CODEGEN--\":9917:10130   */\n    tag_23:\n      0x00\n        /* \"--CODEGEN--\":10035:10037   */\n      0x20\n        /* \"--CODEGEN--\":10024:10033   */\n      dup3\n        /* \"--CODEGEN--\":10020:10038   */\n      add\n        /* \"--CODEGEN--\":10012:10038   */\n      swap1\n      pop\n        /* \"--CODEGEN--\":10049:10120   */\n      tag_309\n        /* \"--CODEGEN--\":10117:10118   */\n      0x00\n        /* \"--CODEGEN--\":10106:10115   */\n      dup4\n        /* \"--CODEGEN--\":10102:10119   */\n      add\n        /* \"--CODEGEN--\":10093:10099   */\n      dup5\n        /* \"--CODEGEN--\":10049:10120   */\n      jump(tag_211)\n    tag_309:\n        /* \"--CODEGEN--\":10006:10130   */\n      swap3\n      swap2\n      pop\n      pop\n      jump\n        /* \"--CODEGEN--\":10137:10338   */\n    tag_97:\n      0x00\n        /* \"--CODEGEN--\":10249:10251   */\n      0x20\n        /* \"--CODEGEN--\":10238:10247   */\n      dup3\n        /* \"--CODEGEN--\":10234:10252   */\n      add\n        /* \"--CODEGEN--\":10226:10252   */\n      swap1\n      pop\n        /* \"--CODEGEN--\":10263:10328   */\n      tag_311\n        /* \"--CODEGEN--\":10325:10326   */\n      0x00\n        /* \"--CODEGEN--\":10314:10323   */\n      dup4\n        /* \"--CODEGEN--\":10310:10327   */\n      add\n        /* \"--CODEGEN--\":10301:10307   */\n      dup5\n        /* \"--CODEGEN--\":10263:10328   */\n      jump(tag_220)\n    tag_311:\n        /* \"--CODEGEN--\":10220:10338   */\n      swap3\n      swap2\n      pop\n      pop\n      jump\n        /* \"--CODEGEN--\":10345:10558   */\n    tag_55:\n      0x00\n        /* \"--CODEGEN--\":10463:10465   */\n      0x20\n        /* \"--CODEGEN--\":10452:10461   */\n      dup3\n        /* \"--CODEGEN--\":10448:10466   */\n      add\n        /* \"--CODEGEN--\":10440:10466   */\n      swap1\n      pop\n        /* \"--CODEGEN--\":10477:10548   */\n      tag_313\n        /* \"--CODEGEN--\":10545:10546   */\n      0x00\n        /* \"--CODEGEN--\":10534:10543   */\n      dup4\n        /* \"--CODEGEN--\":10530:10547   */\n      add\n        /* \"--CODEGEN--\":10521:10527   */\n      dup5\n        /* \"--CODEGEN--\":10477:10548   */\n      jump(tag_228)\n    tag_313:\n        /* \"--CODEGEN--\":10434:10558   */\n      swap3\n      swap2\n      pop\n      pop\n      jump\n        /* \"--CODEGEN--\":10565:10889   */\n    tag_127:\n      0x00\n        /* \"--CODEGEN--\":10711:10713   */\n      0x40\n        /* \"--CODEGEN--\":10700:10709   */\n      dup3\n        /* \"--CODEGEN--\":10696:10714   */\n      add\n        /* \"--CODEGEN--\":10688:10714   */\n      swap1\n      pop\n        /* \"--CODEGEN--\":10725:10796   */\n      tag_315\n        /* \"--CODEGEN--\":10793:10794   */\n      0x00\n        /* \"--CODEGEN--\":10782:10791   */\n      dup4\n        /* \"--CODEGEN--\":10778:10795   */\n      add\n        /* \"--CODEGEN--\":10769:10775   */\n      dup6\n        /* \"--CODEGEN--\":10725:10796   */\n      jump(tag_228)\n    tag_315:\n        /* \"--CODEGEN--\":10807:10879   */\n      tag_316\n        /* \"--CODEGEN--\":10875:10877   */\n      0x20\n        /* \"--CODEGEN--\":10864:10873   */\n      dup4\n        /* \"--CODEGEN--\":10860:10878   */\n      add\n        /* \"--CODEGEN--\":10851:10857   */\n      dup5\n        /* \"--CODEGEN--\":10807:10879   */\n      jump(tag_211)\n    tag_316:\n        /* \"--CODEGEN--\":10682:10889   */\n      swap4\n      swap3\n      pop\n      pop\n      pop\n      jump\n        /* \"--CODEGEN--\":10896:11208   */\n    tag_29:\n      0x00\n        /* \"--CODEGEN--\":11036:11038   */\n      0x40\n        /* \"--CODEGEN--\":11025:11034   */\n      dup3\n        /* \"--CODEGEN--\":11021:11039   */\n      add\n        /* \"--CODEGEN--\":11013:11039   */\n      swap1\n      pop\n        /* \"--CODEGEN--\":11050:11121   */\n      tag_318\n        /* \"--CODEGEN--\":11118:11119   */\n      0x00\n        /* \"--CODEGEN--\":11107:11116   */\n      dup4\n        /* \"--CODEGEN--\":11103:11120   */\n      add\n        /* \"--CODEGEN--\":11094:11100   */\n      dup6\n        /* \"--CODEGEN--\":11050:11121   */\n      jump(tag_228)\n    tag_318:\n        /* \"--CODEGEN--\":11132:11198   */\n      tag_319\n        /* \"--CODEGEN--\":11194:11196   */\n      0x20\n        /* \"--CODEGEN--\":11183:11192   */\n      dup4\n        /* \"--CODEGEN--\":11179:11197   */\n      add\n        /* \"--CODEGEN--\":11170:11176   */\n      dup5\n        /* \"--CODEGEN--\":11132:11198   */\n      jump(tag_220)\n    tag_319:\n        /* \"--CODEGEN--\":11007:11208   */\n      swap4\n      swap3\n      pop\n      pop\n      pop\n      jump\n        /* \"--CODEGEN--\":11215:11838   */\n    tag_35:\n      0x00\n        /* \"--CODEGEN--\":11431:11434   */\n      0x80\n        /* \"--CODEGEN--\":11420:11429   */\n      dup3\n        /* \"--CODEGEN--\":11416:11435   */\n      add\n        /* \"--CODEGEN--\":11408:11435   */\n      swap1\n      pop\n        /* \"--CODEGEN--\":11446:11517   */\n      tag_321\n        /* \"--CODEGEN--\":11514:11515   */\n      0x00\n        /* \"--CODEGEN--\":11503:11512   */\n      dup4\n        /* \"--CODEGEN--\":11499:11516   */\n      add\n        /* \"--CODEGEN--\":11490:11496   */\n      dup8\n        /* \"--CODEGEN--\":11446:11517   */\n      jump(tag_228)\n    tag_321:\n        /* \"--CODEGEN--\":11528:11600   */\n      tag_322\n        /* \"--CODEGEN--\":11596:11598   */\n      0x20\n        /* \"--CODEGEN--\":11585:11594   */\n      dup4\n        /* \"--CODEGEN--\":11581:11599   */\n      add\n        /* \"--CODEGEN--\":11572:11578   */\n      dup7\n        /* \"--CODEGEN--\":11528:11600   */\n      jump(tag_228)\n    tag_322:\n        /* \"--CODEGEN--\":11611:11683   */\n      tag_323\n        /* \"--CODEGEN--\":11679:11681   */\n      0x40\n        /* \"--CODEGEN--\":11668:11677   */\n      dup4\n        /* \"--CODEGEN--\":11664:11682   */\n      add\n        /* \"--CODEGEN--\":11655:11661   */\n      dup6\n        /* \"--CODEGEN--\":11611:11683   */\n      jump(tag_228)\n    tag_323:\n        /* \"--CODEGEN--\":11731:11740   */\n      dup2\n        /* \"--CODEGEN--\":11725:11729   */\n      dup2\n        /* \"--CODEGEN--\":11721:11741   */\n      sub\n        /* \"--CODEGEN--\":11716:11718   */\n      0x60\n        /* \"--CODEGEN--\":11705:11714   */\n      dup4\n        /* \"--CODEGEN--\":11701:11719   */\n      add\n        /* \"--CODEGEN--\":11694:11742   */\n      mstore\n        /* \"--CODEGEN--\":11756:11828   */\n      tag_324\n        /* \"--CODEGEN--\":11823:11827   */\n      dup2\n        /* \"--CODEGEN--\":11814:11820   */\n      dup5\n        /* \"--CODEGEN--\":11756:11828   */\n      jump(tag_253)\n    tag_324:\n        /* \"--CODEGEN--\":11748:11828   */\n      swap1\n      pop\n        /* \"--CODEGEN--\":11402:11838   */\n      swap6\n      swap5\n      pop\n      pop\n      pop\n      pop\n      pop\n      jump\n        /* \"--CODEGEN--\":11845:12384   */\n    tag_74:\n      0x00\n        /* \"--CODEGEN--\":12043:12046   */\n      0x80\n        /* \"--CODEGEN--\":12032:12041   */\n      dup3\n        /* \"--CODEGEN--\":12028:12047   */\n      add\n        /* \"--CODEGEN--\":12020:12047   */\n      swap1\n      pop\n        /* \"--CODEGEN--\":12058:12129   */\n      tag_326\n        /* \"--CODEGEN--\":12126:12127   */\n      0x00\n        /* \"--CODEGEN--\":12115:12124   */\n      dup4\n        /* \"--CODEGEN--\":12111:12128   */\n      add\n        /* \"--CODEGEN--\":12102:12108   */\n      dup8\n        /* \"--CODEGEN--\":12058:12129   */\n      jump(tag_228)\n    tag_326:\n        /* \"--CODEGEN--\":12140:12208   */\n      tag_327\n        /* \"--CODEGEN--\":12204:12206   */\n      0x20\n        /* \"--CODEGEN--\":12193:12202   */\n      dup4\n        /* \"--CODEGEN--\":12189:12207   */\n      add\n        /* \"--CODEGEN--\":12180:12186   */\n      dup7\n        /* \"--CODEGEN--\":12140:12208   */\n      jump(tag_296)\n    tag_327:\n        /* \"--CODEGEN--\":12219:12291   */\n      tag_328\n        /* \"--CODEGEN--\":12287:12289   */\n      0x40\n        /* \"--CODEGEN--\":12276:12285   */\n      dup4\n        /* \"--CODEGEN--\":12272:12290   */\n      add\n        /* \"--CODEGEN--\":12263:12269   */\n      dup6\n        /* \"--CODEGEN--\":12219:12291   */\n      jump(tag_228)\n    tag_328:\n        /* \"--CODEGEN--\":12302:12374   */\n      tag_329\n        /* \"--CODEGEN--\":12370:12372   */\n      0x60\n        /* \"--CODEGEN--\":12359:12368   */\n      dup4\n        /* \"--CODEGEN--\":12355:12373   */\n      add\n        /* \"--CODEGEN--\":12346:12352   */\n      dup5\n        /* \"--CODEGEN--\":12302:12374   */\n      jump(tag_228)\n    tag_329:\n        /* \"--CODEGEN--\":12014:12384   */\n      swap6\n      swap5\n      pop\n      pop\n      pop\n      pop\n      pop\n      jump\n        /* \"--CODEGEN--\":12391:12680   */\n    tag_49:\n      0x00\n        /* \"--CODEGEN--\":12523:12525   */\n      0x20\n        /* \"--CODEGEN--\":12512:12521   */\n      dup3\n        /* \"--CODEGEN--\":12508:12526   */\n      add\n        /* \"--CODEGEN--\":12500:12526   */\n      swap1\n      pop\n        /* \"--CODEGEN--\":12573:12582   */\n      dup2\n        /* \"--CODEGEN--\":12567:12571   */\n      dup2\n        /* \"--CODEGEN--\":12563:12583   */\n      sub\n        /* \"--CODEGEN--\":12559:12560   */\n      0x00\n        /* \"--CODEGEN--\":12548:12557   */\n      dup4\n        /* \"--CODEGEN--\":12544:12561   */\n      add\n        /* \"--CODEGEN--\":12537:12584   */\n      mstore\n        /* \"--CODEGEN--\":12598:12670   */\n      tag_331\n        /* \"--CODEGEN--\":12665:12669   */\n      dup2\n        /* \"--CODEGEN--\":12656:12662   */\n      dup5\n        /* \"--CODEGEN--\":12598:12670   */\n      jump(tag_253)\n    tag_331:\n        /* \"--CODEGEN--\":12590:12670   */\n      swap1\n      pop\n        /* \"--CODEGEN--\":12494:12680   */\n      swap3\n      swap2\n      pop\n      pop\n      jump\n        /* \"--CODEGEN--\":12687:13094   */\n    tag_111:\n      0x00\n        /* \"--CODEGEN--\":12878:12880   */\n      0x20\n        /* \"--CODEGEN--\":12867:12876   */\n      dup3\n        /* \"--CODEGEN--\":12863:12881   */\n      add\n        /* \"--CODEGEN--\":12855:12881   */\n      swap1\n      pop\n        /* \"--CODEGEN--\":12928:12937   */\n      dup2\n        /* \"--CODEGEN--\":12922:12926   */\n      dup2\n        /* \"--CODEGEN--\":12918:12938   */\n      sub\n        /* \"--CODEGEN--\":12914:12915   */\n      0x00\n        /* \"--CODEGEN--\":12903:12912   */\n      dup4\n        /* \"--CODEGEN--\":12899:12916   */\n      add\n        /* \"--CODEGEN--\":12892:12939   */\n      mstore\n        /* \"--CODEGEN--\":12953:13084   */\n      tag_333\n        /* \"--CODEGEN--\":13079:13083   */\n      dup2\n        /* \"--CODEGEN--\":12953:13084   */\n      jump(tag_265)\n    tag_333:\n        /* \"--CODEGEN--\":12945:13084   */\n      swap1\n      pop\n        /* \"--CODEGEN--\":12849:13094   */\n      swap2\n      swap1\n      pop\n      jump\n        /* \"--CODEGEN--\":13101:13508   */\n    tag_85:\n      0x00\n        /* \"--CODEGEN--\":13292:13294   */\n      0x20\n        /* \"--CODEGEN--\":13281:13290   */\n      dup3\n        /* \"--CODEGEN--\":13277:13295   */\n      add\n        /* \"--CODEGEN--\":13269:13295   */\n      swap1\n      pop\n        /* \"--CODEGEN--\":13342:13351   */\n      dup2\n        /* \"--CODEGEN--\":13336:13340   */\n      dup2\n        /* \"--CODEGEN--\":13332:13352   */\n      sub\n        /* \"--CODEGEN--\":13328:13329   */\n      0x00\n        /* \"--CODEGEN--\":13317:13326   */\n      dup4\n        /* \"--CODEGEN--\":13313:13330   */\n      add\n        /* \"--CODEGEN--\":13306:13353   */\n      mstore\n        /* \"--CODEGEN--\":13367:13498   */\n      tag_335\n        /* \"--CODEGEN--\":13493:13497   */\n      dup2\n        /* \"--CODEGEN--\":13367:13498   */\n      jump(tag_269)\n    tag_335:\n        /* \"--CODEGEN--\":13359:13498   */\n      swap1\n      pop\n        /* \"--CODEGEN--\":13263:13508   */\n      swap2\n      swap1\n      pop\n      jump\n        /* \"--CODEGEN--\":13515:13922   */\n    tag_72:\n      0x00\n        /* \"--CODEGEN--\":13706:13708   */\n      0x20\n        /* \"--CODEGEN--\":13695:13704   */\n      dup3\n        /* \"--CODEGEN--\":13691:13709   */\n      add\n        /* \"--CODEGEN--\":13683:13709   */\n      swap1\n      pop\n        /* \"--CODEGEN--\":13756:13765   */\n      dup2\n        /* \"--CODEGEN--\":13750:13754   */\n      dup2\n        /* \"--CODEGEN--\":13746:13766   */\n      sub\n        /* \"--CODEGEN--\":13742:13743   */\n      0x00\n        /* \"--CODEGEN--\":13731:13740   */\n      dup4\n        /* \"--CODEGEN--\":13727:13744   */\n      add\n        /* \"--CODEGEN--\":13720:13767   */\n      mstore\n        /* \"--CODEGEN--\":13781:13912   */\n      tag_337\n        /* \"--CODEGEN--\":13907:13911   */\n      dup2\n        /* \"--CODEGEN--\":13781:13912   */\n      jump(tag_272)\n    tag_337:\n        /* \"--CODEGEN--\":13773:13912   */\n      swap1\n      pop\n        /* \"--CODEGEN--\":13677:13922   */\n      swap2\n      swap1\n      pop\n      jump\n        /* \"--CODEGEN--\":13929:14336   */\n    tag_131:\n      0x00\n        /* \"--CODEGEN--\":14120:14122   */\n      0x20\n        /* \"--CODEGEN--\":14109:14118   */\n      dup3\n        /* \"--CODEGEN--\":14105:14123   */\n      add\n        /* \"--CODEGEN--\":14097:14123   */\n      swap1\n      pop\n        /* \"--CODEGEN--\":14170:14179   */\n      dup2\n        /* \"--CODEGEN--\":14164:14168   */\n      dup2\n        /* \"--CODEGEN--\":14160:14180   */\n      sub\n        /* \"--CODEGEN--\":14156:14157   */\n      0x00\n        /* \"--CODEGEN--\":14145:14154   */\n      dup4\n        /* \"--CODEGEN--\":14141:14158   */\n      add\n        /* \"--CODEGEN--\":14134:14181   */\n      mstore\n        /* \"--CODEGEN--\":14195:14326   */\n      tag_339\n        /* \"--CODEGEN--\":14321:14325   */\n      dup2\n        /* \"--CODEGEN--\":14195:14326   */\n      jump(tag_275)\n    tag_339:\n        /* \"--CODEGEN--\":14187:14326   */\n      swap1\n      pop\n        /* \"--CODEGEN--\":14091:14336   */\n      swap2\n      swap1\n      pop\n      jump\n        /* \"--CODEGEN--\":14343:14750   */\n    tag_101:\n      0x00\n        /* \"--CODEGEN--\":14534:14536   */\n      0x20\n        /* \"--CODEGEN--\":14523:14532   */\n      dup3\n        /* \"--CODEGEN--\":14519:14537   */\n      add\n        /* \"--CODEGEN--\":14511:14537   */\n      swap1\n      pop\n        /* \"--CODEGEN--\":14584:14593   */\n      dup2\n        /* \"--CODEGEN--\":14578:14582   */\n      dup2\n        /* \"--CODEGEN--\":14574:14594   */\n      sub\n        /* \"--CODEGEN--\":14570:14571   */\n      0x00\n        /* \"--CODEGEN--\":14559:14568   */\n      dup4\n        /* \"--CODEGEN--\":14555:14572   */\n      add\n        /* \"--CODEGEN--\":14548:14595   */\n      mstore\n        /* \"--CODEGEN--\":14609:14740   */\n      tag_341\n        /* \"--CODEGEN--\":14735:14739   */\n      dup2\n        /* \"--CODEGEN--\":14609:14740   */\n      jump(tag_278)\n    tag_341:\n        /* \"--CODEGEN--\":14601:14740   */\n      swap1\n      pop\n        /* \"--CODEGEN--\":14505:14750   */\n      swap2\n      swap1\n      pop\n      jump\n        /* \"--CODEGEN--\":14757:15164   */\n    tag_146:\n      0x00\n        /* \"--CODEGEN--\":14948:14950   */\n      0x20\n        /* \"--CODEGEN--\":14937:14946   */\n      dup3\n        /* \"--CODEGEN--\":14933:14951   */\n      add\n        /* \"--CODEGEN--\":14925:14951   */\n      swap1\n      pop\n        /* \"--CODEGEN--\":14998:15007   */\n      dup2\n        /* \"--CODEGEN--\":14992:14996   */\n      dup2\n        /* \"--CODEGEN--\":14988:15008   */\n      sub\n        /* \"--CODEGEN--\":14984:14985   */\n      0x00\n        /* \"--CODEGEN--\":14973:14982   */\n      dup4\n        /* \"--CODEGEN--\":14969:14986   */\n      add\n        /* \"--CODEGEN--\":14962:15009   */\n      mstore\n        /* \"--CODEGEN--\":15023:15154   */\n      tag_343\n        /* \"--CODEGEN--\":15149:15153   */\n      dup2\n        /* \"--CODEGEN--\":15023:15154   */\n      jump(tag_281)\n    tag_343:\n        /* \"--CODEGEN--\":15015:15154   */\n      swap1\n      pop\n        /* \"--CODEGEN--\":14919:15164   */\n      swap2\n      swap1\n      pop\n      jump\n        /* \"--CODEGEN--\":15171:15578   */\n    tag_81:\n      0x00\n        /* \"--CODEGEN--\":15362:15364   */\n      0x20\n        /* \"--CODEGEN--\":15351:15360   */\n      dup3\n        /* \"--CODEGEN--\":15347:15365   */\n      add\n        /* \"--CODEGEN--\":15339:15365   */\n      swap1\n      pop\n        /* \"--CODEGEN--\":15412:15421   */\n      dup2\n        /* \"--CODEGEN--\":15406:15410   */\n      dup2\n        /* \"--CODEGEN--\":15402:15422   */\n      sub\n        /* \"--CODEGEN--\":15398:15399   */\n      0x00\n        /* \"--CODEGEN--\":15387:15396   */\n      dup4\n        /* \"--CODEGEN--\":15383:15400   */\n      add\n        /* \"--CODEGEN--\":15376:15423   */\n      mstore\n        /* \"--CODEGEN--\":15437:15568   */\n      tag_345\n        /* \"--CODEGEN--\":15563:15567   */\n      dup2\n        /* \"--CODEGEN--\":15437:15568   */\n      jump(tag_284)\n    tag_345:\n        /* \"--CODEGEN--\":15429:15568   */\n      swap1\n      pop\n        /* \"--CODEGEN--\":15333:15578   */\n      swap2\n      swap1\n      pop\n      jump\n        /* \"--CODEGEN--\":15585:15992   */\n    tag_94:\n      0x00\n        /* \"--CODEGEN--\":15776:15778   */\n      0x20\n        /* \"--CODEGEN--\":15765:15774   */\n      dup3\n        /* \"--CODEGEN--\":15761:15779   */\n      add\n        /* \"--CODEGEN--\":15753:15779   */\n      swap1\n      pop\n        /* \"--CODEGEN--\":15826:15835   */\n      dup2\n        /* \"--CODEGEN--\":15820:15824   */\n      dup2\n        /* \"--CODEGEN--\":15816:15836   */\n      sub\n        /* \"--CODEGEN--\":15812:15813   */\n      0x00\n        /* \"--CODEGEN--\":15801:15810   */\n      dup4\n        /* \"--CODEGEN--\":15797:15814   */\n      add\n        /* \"--CODEGEN--\":15790:15837   */\n      mstore\n        /* \"--CODEGEN--\":15851:15982   */\n      tag_347\n        /* \"--CODEGEN--\":15977:15981   */\n      dup2\n        /* \"--CODEGEN--\":15851:15982   */\n      jump(tag_287)\n    tag_347:\n        /* \"--CODEGEN--\":15843:15982   */\n      swap1\n      pop\n        /* \"--CODEGEN--\":15747:15992   */\n      swap2\n      swap1\n      pop\n      jump\n        /* \"--CODEGEN--\":15999:16479   */\n    tag_19:\n      0x00\n        /* \"--CODEGEN--\":16199:16201   */\n      0x40\n        /* \"--CODEGEN--\":16188:16197   */\n      dup3\n        /* \"--CODEGEN--\":16184:16202   */\n      add\n        /* \"--CODEGEN--\":16176:16202   */\n      swap1\n      pop\n        /* \"--CODEGEN--\":16249:16258   */\n      dup2\n        /* \"--CODEGEN--\":16243:16247   */\n      dup2\n        /* \"--CODEGEN--\":16239:16259   */\n      sub\n        /* \"--CODEGEN--\":16235:16236   */\n      0x00\n        /* \"--CODEGEN--\":16224:16233   */\n      dup4\n        /* \"--CODEGEN--\":16220:16237   */\n      add\n        /* \"--CODEGEN--\":16213:16260   */\n      mstore\n        /* \"--CODEGEN--\":16274:16386   */\n      tag_349\n        /* \"--CODEGEN--\":16381:16385   */\n      dup2\n        /* \"--CODEGEN--\":16372:16378   */\n      dup6\n        /* \"--CODEGEN--\":16274:16386   */\n      jump(tag_290)\n    tag_349:\n        /* \"--CODEGEN--\":16266:16386   */\n      swap1\n      pop\n        /* \"--CODEGEN--\":16397:16469   */\n      tag_350\n        /* \"--CODEGEN--\":16465:16467   */\n      0x20\n        /* \"--CODEGEN--\":16454:16463   */\n      dup4\n        /* \"--CODEGEN--\":16450:16468   */\n      add\n        /* \"--CODEGEN--\":16441:16447   */\n      dup5\n        /* \"--CODEGEN--\":16397:16469   */\n      jump(tag_228)\n    tag_350:\n        /* \"--CODEGEN--\":16170:16479   */\n      swap4\n      swap3\n      pop\n      pop\n      pop\n      jump\n        /* \"--CODEGEN--\":16486:16742   */\n    tag_184:\n      0x00\n        /* \"--CODEGEN--\":16548:16550   */\n      0x40\n        /* \"--CODEGEN--\":16542:16551   */\n      mload\n        /* \"--CODEGEN--\":16532:16551   */\n      swap1\n      pop\n        /* \"--CODEGEN--\":16586:16590   */\n      dup2\n        /* \"--CODEGEN--\":16578:16584   */\n      dup2\n        /* \"--CODEGEN--\":16574:16591   */\n      add\n        /* \"--CODEGEN--\":16685:16691   */\n      dup2\n        /* \"--CODEGEN--\":16673:16683   */\n      dup2\n        /* \"--CODEGEN--\":16670:16692   */\n      lt\n        /* \"--CODEGEN--\":16649:16667   */\n      0xffffffffffffffff\n        /* \"--CODEGEN--\":16637:16647   */\n      dup3\n        /* \"--CODEGEN--\":16634:16668   */\n      gt\n        /* \"--CODEGEN--\":16631:16693   */\n      or\n        /* \"--CODEGEN--\":16628:16630   */\n      iszero\n      tag_352\n      jumpi\n        /* \"--CODEGEN--\":16706:16707   */\n      0x00\n        /* \"--CODEGEN--\":16703:16704   */\n      dup1\n        /* \"--CODEGEN--\":16696:16708   */\n      revert\n        /* \"--CODEGEN--\":16628:16630   */\n    tag_352:\n        /* \"--CODEGEN--\":16726:16736   */\n      dup1\n        /* \"--CODEGEN--\":16722:16724   */\n      0x40\n        /* \"--CODEGEN--\":16715:16737   */\n      mstore\n        /* \"--CODEGEN--\":16526:16742   */\n      pop\n      swap2\n      swap1\n      pop\n      jump\n        /* \"--CODEGEN--\":16749:17070   */\n    tag_183:\n      0x00\n        /* \"--CODEGEN--\":16892:16910   */\n      0xffffffffffffffff\n        /* \"--CODEGEN--\":16884:16890   */\n      dup3\n        /* \"--CODEGEN--\":16881:16911   */\n      gt\n        /* \"--CODEGEN--\":16878:16880   */\n      iszero\n      tag_354\n      jumpi\n        /* \"--CODEGEN--\":16924:16925   */\n      0x00\n        /* \"--CODEGEN--\":16921:16922   */\n      dup1\n        /* \"--CODEGEN--\":16914:16926   */\n      revert\n        /* \"--CODEGEN--\":16878:16880   */\n    tag_354:\n        /* \"--CODEGEN--\":16991:16995   */\n      0x1f\n        /* \"--CODEGEN--\":16987:16996   */\n      not\n        /* \"--CODEGEN--\":16980:16984   */\n      0x1f\n        /* \"--CODEGEN--\":16972:16978   */\n      dup4\n        /* \"--CODEGEN--\":16968:16985   */\n      add\n        /* \"--CODEGEN--\":16964:16997   */\n      and\n        /* \"--CODEGEN--\":16956:16997   */\n      swap1\n      pop\n        /* \"--CODEGEN--\":17055:17059   */\n      0x20\n        /* \"--CODEGEN--\":17049:17053   */\n      dup2\n        /* \"--CODEGEN--\":17045:17060   */\n      add\n        /* \"--CODEGEN--\":17037:17060   */\n      swap1\n      pop\n        /* \"--CODEGEN--\":16815:17070   */\n      swap2\n      swap1\n      pop\n      jump\n        /* \"--CODEGEN--\":17077:17194   */\n    tag_247:\n      0x00\n        /* \"--CODEGEN--\":17166:17171   */\n      dup2\n        /* \"--CODEGEN--\":17160:17172   */\n      mload\n        /* \"--CODEGEN--\":17150:17172   */\n      swap1\n      pop\n        /* \"--CODEGEN--\":17131:17194   */\n      swap2\n      swap1\n      pop\n      jump\n        /* \"--CODEGEN--\":17201:17322   */\n    tag_239:\n      0x00\n        /* \"--CODEGEN--\":17294:17299   */\n      dup2\n        /* \"--CODEGEN--\":17288:17300   */\n      mload\n        /* \"--CODEGEN--\":17278:17300   */\n      swap1\n      pop\n        /* \"--CODEGEN--\":17259:17322   */\n      swap2\n      swap1\n      pop\n      jump\n        /* \"--CODEGEN--\":17330:17482   */\n    tag_249:\n      0x00\n        /* \"--CODEGEN--\":17434:17440   */\n      dup3\n        /* \"--CODEGEN--\":17429:17432   */\n      dup3\n        /* \"--CODEGEN--\":17422:17441   */\n      mstore\n        /* \"--CODEGEN--\":17471:17475   */\n      0x20\n        /* \"--CODEGEN--\":17466:17469   */\n      dup3\n        /* \"--CODEGEN--\":17462:17476   */\n      add\n        /* \"--CODEGEN--\":17447:17476   */\n      swap1\n      pop\n        /* \"--CODEGEN--\":17415:17482   */\n      swap3\n      swap2\n      pop\n      pop\n      jump\n        /* \"--CODEGEN--\":17491:17653   */\n    tag_257:\n      0x00\n        /* \"--CODEGEN--\":17605:17611   */\n      dup3\n        /* \"--CODEGEN--\":17600:17603   */\n      dup3\n        /* \"--CODEGEN--\":17593:17612   */\n      mstore\n        /* \"--CODEGEN--\":17642:17646   */\n      0x20\n        /* \"--CODEGEN--\":17637:17640   */\n      dup3\n        /* \"--CODEGEN--\":17633:17647   */\n      add\n        /* \"--CODEGEN--\":17618:17647   */\n      swap1\n      pop\n        /* \"--CODEGEN--\":17586:17653   */\n      swap3\n      swap2\n      pop\n      pop\n      jump\n        /* \"--CODEGEN--\":17662:17806   */\n    tag_241:\n      0x00\n        /* \"--CODEGEN--\":17797:17800   */\n      dup2\n        /* \"--CODEGEN--\":17782:17800   */\n      swap1\n      pop\n        /* \"--CODEGEN--\":17775:17806   */\n      swap3\n      swap2\n      pop\n      pop\n      jump\n        /* \"--CODEGEN--\":17815:17978   */\n    tag_268:\n      0x00\n        /* \"--CODEGEN--\":17930:17936   */\n      dup3\n        /* \"--CODEGEN--\":17925:17928   */\n      dup3\n        /* \"--CODEGEN--\":17918:17937   */\n      mstore\n        /* \"--CODEGEN--\":17967:17971   */\n      0x20\n        /* \"--CODEGEN--\":17962:17965   */\n      dup3\n        /* \"--CODEGEN--\":17958:17972   */\n      add\n        /* \"--CODEGEN--\":17943:17972   */\n      swap1\n      pop\n        /* \"--CODEGEN--\":17911:17978   */\n      swap3\n      swap2\n      pop\n      pop\n      jump\n        /* \"--CODEGEN--\":17986:18077   */\n    tag_214:\n      0x00\n        /* \"--CODEGEN--\":18048:18072   */\n      tag_362\n        /* \"--CODEGEN--\":18066:18071   */\n      dup3\n        /* \"--CODEGEN--\":18048:18072   */\n      jump(tag_363)\n    tag_362:\n        /* \"--CODEGEN--\":18037:18072   */\n      swap1\n      pop\n        /* \"--CODEGEN--\":18031:18077   */\n      swap2\n      swap1\n      pop\n      jump\n        /* \"--CODEGEN--\":18084:18169   */\n    tag_223:\n      0x00\n        /* \"--CODEGEN--\":18157:18162   */\n      dup2\n        /* \"--CODEGEN--\":18150:18163   */\n      iszero\n        /* \"--CODEGEN--\":18143:18164   */\n      iszero\n        /* \"--CODEGEN--\":18132:18164   */\n      swap1\n      pop\n        /* \"--CODEGEN--\":18126:18169   */\n      swap2\n      swap1\n      pop\n      jump\n        /* \"--CODEGEN--\":18176:18248   */\n    tag_227:\n      0x00\n        /* \"--CODEGEN--\":18238:18243   */\n      dup2\n        /* \"--CODEGEN--\":18227:18243   */\n      swap1\n      pop\n        /* \"--CODEGEN--\":18221:18248   */\n      swap2\n      swap1\n      pop\n      jump\n        /* \"--CODEGEN--\":18255:18376   */\n    tag_363:\n      0x00\n        /* \"--CODEGEN--\":18328:18370   */\n      0xffffffffffffffffffffffffffffffffffffffff\n        /* \"--CODEGEN--\":18321:18326   */\n      dup3\n        /* \"--CODEGEN--\":18317:18371   */\n      and\n        /* \"--CODEGEN--\":18306:18371   */\n      swap1\n      pop\n        /* \"--CODEGEN--\":18300:18376   */\n      swap2\n      swap1\n      pop\n      jump\n        /* \"--CODEGEN--\":18383:18464   */\n    tag_299:\n      0x00\n        /* \"--CODEGEN--\":18454:18458   */\n      0xff\n        /* \"--CODEGEN--\":18447:18452   */\n      dup3\n        /* \"--CODEGEN--\":18443:18459   */\n      and\n        /* \"--CODEGEN--\":18432:18459   */\n      swap1\n      pop\n        /* \"--CODEGEN--\":18426:18464   */\n      swap2\n      swap1\n      pop\n      jump\n        /* \"--CODEGEN--\":18472:18617   */\n    tag_187:\n        /* \"--CODEGEN--\":18553:18559   */\n      dup3\n        /* \"--CODEGEN--\":18548:18551   */\n      dup2\n        /* \"--CODEGEN--\":18543:18546   */\n      dup4\n        /* \"--CODEGEN--\":18530:18560   */\n      calldatacopy\n        /* \"--CODEGEN--\":18609:18610   */\n      0x00\n        /* \"--CODEGEN--\":18600:18606   */\n      dup4\n        /* \"--CODEGEN--\":18595:18598   */\n      dup4\n        /* \"--CODEGEN--\":18591:18607   */\n      add\n        /* \"--CODEGEN--\":18584:18611   */\n      mstore\n        /* \"--CODEGEN--\":18523:18617   */\n      pop\n      pop\n      pop\n      jump\n        /* \"--CODEGEN--\":18626:18894   */\n    tag_243:\n        /* \"--CODEGEN--\":18691:18692   */\n      0x00\n        /* \"--CODEGEN--\":18698:18799   */\n    tag_370:\n        /* \"--CODEGEN--\":18712:18718   */\n      dup4\n        /* \"--CODEGEN--\":18709:18710   */\n      dup2\n        /* \"--CODEGEN--\":18706:18719   */\n      lt\n        /* \"--CODEGEN--\":18698:18799   */\n      iszero\n      tag_372\n      jumpi\n        /* \"--CODEGEN--\":18788:18789   */\n      dup1\n        /* \"--CODEGEN--\":18783:18786   */\n      dup3\n        /* \"--CODEGEN--\":18779:18790   */\n      add\n        /* \"--CODEGEN--\":18773:18791   */\n      mload\n        /* \"--CODEGEN--\":18769:18770   */\n      dup2\n        /* \"--CODEGEN--\":18764:18767   */\n      dup5\n        /* \"--CODEGEN--\":18760:18771   */\n      add\n        /* \"--CODEGEN--\":18753:18792   */\n      mstore\n        /* \"--CODEGEN--\":18734:18736   */\n      0x20\n        /* \"--CODEGEN--\":18731:18732   */\n      dup2\n        /* \"--CODEGEN--\":18727:18737   */\n      add\n        /* \"--CODEGEN--\":18722:18737   */\n      swap1\n      pop\n        /* \"--CODEGEN--\":18698:18799   */\n      jump(tag_370)\n    tag_372:\n        /* \"--CODEGEN--\":18814:18820   */\n      dup4\n        /* \"--CODEGEN--\":18811:18812   */\n      dup2\n        /* \"--CODEGEN--\":18808:18821   */\n      gt\n        /* \"--CODEGEN--\":18805:18807   */\n      iszero\n      tag_373\n      jumpi\n        /* \"--CODEGEN--\":18879:18880   */\n      0x00\n        /* \"--CODEGEN--\":18870:18876   */\n      dup5\n        /* \"--CODEGEN--\":18865:18868   */\n      dup5\n        /* \"--CODEGEN--\":18861:18877   */\n      add\n        /* \"--CODEGEN--\":18854:18881   */\n      mstore\n        /* \"--CODEGEN--\":18805:18807   */\n    tag_373:\n        /* \"--CODEGEN--\":18675:18894   */\n      pop\n      pop\n      pop\n      pop\n      jump\n        /* \"--CODEGEN--\":18902:18997   */\n    tag_219:\n      0x00\n        /* \"--CODEGEN--\":18966:18992   */\n      tag_375\n        /* \"--CODEGEN--\":18986:18991   */\n      dup3\n        /* \"--CODEGEN--\":18966:18992   */\n      jump(tag_376)\n    tag_375:\n        /* \"--CODEGEN--\":18955:18992   */\n      swap1\n      pop\n        /* \"--CODEGEN--\":18949:18997   */\n      swap2\n      swap1\n      pop\n      jump\n        /* \"--CODEGEN--\":19004:19078   */\n    tag_235:\n      0x00\n        /* \"--CODEGEN--\":19068:19073   */\n      dup2\n        /* \"--CODEGEN--\":19057:19073   */\n      swap1\n      pop\n        /* \"--CODEGEN--\":19051:19078   */\n      swap2\n      swap1\n      pop\n      jump\n        /* \"--CODEGEN--\":19085:19174   */\n    tag_376:\n      0x00\n        /* \"--CODEGEN--\":19149:19169   */\n      tag_379\n        /* \"--CODEGEN--\":19163:19168   */\n      dup3\n        /* \"--CODEGEN--\":19149:19169   */\n      jump(tag_380)\n    tag_379:\n        /* \"--CODEGEN--\":19138:19169   */\n      swap1\n      pop\n        /* \"--CODEGEN--\":19132:19174   */\n      swap2\n      swap1\n      pop\n      jump\n        /* \"--CODEGEN--\":19181:19278   */\n    tag_252:\n      0x00\n        /* \"--CODEGEN--\":19269:19271   */\n      0x1f\n        /* \"--CODEGEN--\":19265:19272   */\n      not\n        /* \"--CODEGEN--\":19260:19262   */\n      0x1f\n        /* \"--CODEGEN--\":19253:19258   */\n      dup4\n        /* \"--CODEGEN--\":19249:19263   */\n      add\n        /* \"--CODEGEN--\":19245:19273   */\n      and\n        /* \"--CODEGEN--\":19235:19273   */\n      swap1\n      pop\n        /* \"--CODEGEN--\":19229:19278   */\n      swap2\n      swap1\n      pop\n      jump\n        /* \"--CODEGEN--\":19286:19380   */\n    tag_380:\n      0x00\n        /* \"--CODEGEN--\":19364:19369   */\n      dup2\n        /* \"--CODEGEN--\":19360:19362   */\n      0x60\n        /* \"--CODEGEN--\":19356:19370   */\n      shl\n        /* \"--CODEGEN--\":19334:19370   */\n      swap1\n      pop\n        /* \"--CODEGEN--\":19328:19380   */\n      swap2\n      swap1\n      pop\n      jump\n        /* \"--CODEGEN--\":19388:19505   */\n    tag_169:\n        /* \"--CODEGEN--\":19457:19481   */\n      tag_384\n        /* \"--CODEGEN--\":19475:19480   */\n      dup2\n        /* \"--CODEGEN--\":19457:19481   */\n      jump(tag_214)\n    tag_384:\n        /* \"--CODEGEN--\":19450:19455   */\n      dup2\n        /* \"--CODEGEN--\":19447:19482   */\n      eq\n        /* \"--CODEGEN--\":19437:19439   */\n      tag_385\n      jumpi\n        /* \"--CODEGEN--\":19496:19497   */\n      0x00\n        /* \"--CODEGEN--\":19493:19494   */\n      dup1\n        /* \"--CODEGEN--\":19486:19498   */\n      revert\n        /* \"--CODEGEN--\":19437:19439   */\n    tag_385:\n        /* \"--CODEGEN--\":19431:19505   */\n      pop\n      jump\n        /* \"--CODEGEN--\":19512:19623   */\n    tag_173:\n        /* \"--CODEGEN--\":19578:19599   */\n      tag_387\n        /* \"--CODEGEN--\":19593:19598   */\n      dup2\n        /* \"--CODEGEN--\":19578:19599   */\n      jump(tag_223)\n    tag_387:\n        /* \"--CODEGEN--\":19571:19576   */\n      dup2\n        /* \"--CODEGEN--\":19568:19600   */\n      eq\n        /* \"--CODEGEN--\":19558:19560   */\n      tag_388\n      jumpi\n        /* \"--CODEGEN--\":19614:19615   */\n      0x00\n        /* \"--CODEGEN--\":19611:19612   */\n      dup1\n        /* \"--CODEGEN--\":19604:19616   */\n      revert\n        /* \"--CODEGEN--\":19558:19560   */\n    tag_388:\n        /* \"--CODEGEN--\":19552:19623   */\n      pop\n      jump\n        /* \"--CODEGEN--\":19630:19747   */\n    tag_177:\n        /* \"--CODEGEN--\":19699:19723   */\n      tag_390\n        /* \"--CODEGEN--\":19717:19722   */\n      dup2\n        /* \"--CODEGEN--\":19699:19723   */\n      jump(tag_227)\n    tag_390:\n        /* \"--CODEGEN--\":19692:19697   */\n      dup2\n        /* \"--CODEGEN--\":19689:19724   */\n      eq\n        /* \"--CODEGEN--\":19679:19681   */\n      tag_391\n      jumpi\n        /* \"--CODEGEN--\":19738:19739   */\n      0x00\n        /* \"--CODEGEN--\":19735:19736   */\n      dup1\n        /* \"--CODEGEN--\":19728:19740   */\n      revert\n        /* \"--CODEGEN--\":19679:19681   */\n    tag_391:\n        /* \"--CODEGEN--\":19673:19747   */\n      pop\n      jump\n\n    auxdata: 0xa26469706673582212200f09156cc816602bfa1755754ea840ecb036292d0991a5cba42f563e15bd39a564736f6c63430006010033\n}\n","bytecode":{"linkReferences":{},"object":"608060405234801561001057600080fd5b5033600260006101000a81548173ffffffffffffffffffffffffffffffffffffffff021916908373ffffffffffffffffffffffffffffffffffffffff160217905550611a94806100616000396000f3fe608060405234801561001057600080fd5b506004361061009e5760003560e01c8063841f8eed11610066578063841f8eed14610172578063906e94001461018e578063c189f3b3146101aa578063e02dab0d146101c8578063e987ef02146101f85761009e565b80630b9962b1146100a3578063481c6a75146100d45780636a40856a146100f2578063742f068814610123578063756ca62e14610156575b600080fd5b6100bd60048036036100b8919081019061118d565b610214565b6040516100cb929190611859565b60405180910390f35b6100dc6104cc565b6040516100e99190611603565b60405180910390f35b61010c60048036036101079190810190611082565b6104f2565b60405161011a92919061167d565b60405180910390f35b61013d60048036036101389190810190611123565b610523565b60405161014d94939291906116a6565b60405180910390f35b610170600480360361016b91908101906110e7565b6105eb565b005b61018c60048036036101879190810190611123565b610752565b005b6101a860048036036101a39190810190611082565b61082b565b005b6101b26108ff565b6040516101bf9190611737565b60405180910390f35b6101e260048036036101dd919081019061114c565b610938565b6040516101ef9190611639565b60405180910390f35b610212600480360361020d91908101906110ab565b610cd8565b005b61021c610e99565b600080600080606060208801805194506020810151935060408101519250506040518060400160405280601c81526020017f19457468657265756d205369676e6564204d6573736167653a0a39360000000081525084848460405160200161028794939291906115b9565b6040516020818303038152906040528051906020012094506000606090505b8851811015610499576000806000836020018c018051935060208101519250604081015160001a9150601b8210156102df57601b820191505b50601b8160ff1614806102f55750601c8160ff16145b610334576040517f08c379a000000000000000000000000000000000000000000000000000000000815260040161032b90611799565b60405180910390fd5b600060018a8386866040516000815260200160405260405161035994939291906116f2565b6020604051602081039080840390855afa15801561037b573d6000803e3d6000fd5b5050506020604051035190506103918187610dc6565b6103d0576040517f08c379a00000000000000000000000000000000000000000000000000000000081526004016103c790611819565b60405180910390fd5b8b1561046657600160008273ffffffffffffffffffffffffffffffffffffffff1673ffffffffffffffffffffffffffffffffffffffff16815260200190815260200160002060010160009054906101000a900460ff16610465576040517f08c379a000000000000000000000000000000000000000000000000000000000815260040161045c90611779565b60405180910390fd5b5b8581604051602001610479929190611591565b6040516020818303038152906040529550505050506041810190506102a6565b50838660000181815250508286602001818152505081866040018181525050808660600181905250505050509250929050565b600260009054906101000a900473ffffffffffffffffffffffffffffffffffffffff1681565b60016020528060005260406000206000915090508060000154908060010160009054906101000a900460ff16905082565b6000602052806000526040600020600091509050806000015490806001015490806002015490806003018054600181600116156101000203166002900480601f0160208091040260200160405190810160405280929190818152602001828054600181600116156101000203166002900480156105e15780601f106105b6576101008083540402835291602001916105e1565b820191906000526020600020905b8154815290600101906020018083116105c457829003601f168201915b5050505050905084565b600260009054906101000a900473ffffffffffffffffffffffffffffffffffffffff1673ffffffffffffffffffffffffffffffffffffffff163373ffffffffffffffffffffffffffffffffffffffff161461067b576040517f08c379a000000000000000000000000000000000000000000000000000000000815260040161067290611839565b60405180910390fd5b604051806040016040528082815260200160011515815250600160008473ffffffffffffffffffffffffffffffffffffffff1673ffffffffffffffffffffffffffffffffffffffff1681526020019081526020016000206000820151816000015560208201518160010160006101000a81548160ff0219169083151502179055509050508173ffffffffffffffffffffffffffffffffffffffff167f71b03471b324bbcc7546b2626d0407dbb70a61e5e77c56214352d9c12893933f6001604051610746919061161e565b60405180910390a25050565b600160003373ffffffffffffffffffffffffffffffffffffffff1673ffffffffffffffffffffffffffffffffffffffff16815260200190815260200160002060010160009054906101000a900460ff166107e1576040517f08c379a00000000000000000000000000000000000000000000000000000000081526004016107d8906117d9565b60405180910390fd5b80600160003373ffffffffffffffffffffffffffffffffffffffff1673ffffffffffffffffffffffffffffffffffffffff1681526020019081526020016000206000018190555050565b600260009054906101000a900473ffffffffffffffffffffffffffffffffffffffff1673ffffffffffffffffffffffffffffffffffffffff163373ffffffffffffffffffffffffffffffffffffffff16146108bb576040517f08c379a00000000000000000000000000000000000000000000000000000000081526004016108b290611839565b60405180910390fd5b80600260006101000a81548173ffffffffffffffffffffffffffffffffffffffff021916908373ffffffffffffffffffffffffffffffffffffffff16021790555050565b6040518060400160405280601c81526020017f19457468657265756d205369676e6564204d6573736167653a0a39360000000081525081565b60006060825111801561095957506000604160608451038161095657fe5b06145b610998576040517f08c379a000000000000000000000000000000000000000000000000000000000815260040161098f90611759565b60405180910390fd5b6109a0610e99565b60006109ad846001610214565b9150915060608260600151905060606000808481526020019081526020016000206003018054600181600116156101000203166002900480601f016020809104026020016040519081016040528092919081815260200182805460018160011615610100020316600290048015610a655780601f10610a3a57610100808354040283529160200191610a65565b820191906000526020600020905b815481529060010190602001808311610a4857829003601f168201915b5050505050905060008090505b8251811015610bac576000816014018401519050610b3d816000808881526020019081526020016000206003018054600181600116156101000203166002900480601f016020809104026020016040519081016040528092919081815260200182805460018160011615610100020316600290048015610b335780601f10610b0857610100808354040283529160200191610b33565b820191906000526020600020905b815481529060010190602001808311610b1657829003601f168201915b5050505050610dc6565b15610ba0578281604051602001610b55929190611591565b60405160208183030381529060405292507f4007dee9068a7e16aba143c1861d9cb75f2be4b83ef76ae2c602a2c301398cf78582604051610b97929190611654565b60405180910390a15b50601481019050610a72565b5060008060008581526020019081526020016000206003018054600181600116156101000203166002900490501115610c7a57600080848152602001908152602001600020600301805460018160011615610100020316600290049050815111610c4b576040517f08c379a0000000000000000000000000000000000000000000000000000000008152600401610c42906117b9565b60405180910390fd5b806000808581526020019081526020016000206003019080519060200190610c74929190610eca565b50610ccc565b836000808581526020019081526020016000206000820151816000015560208201518160010155604082015181600201556060820151816003019080519060200190610cc7929190610f4a565b509050505b82945050505050919050565b600260009054906101000a900473ffffffffffffffffffffffffffffffffffffffff1673ffffffffffffffffffffffffffffffffffffffff163373ffffffffffffffffffffffffffffffffffffffff1614610d68576040517f08c379a0000000000000000000000000000000000000000000000000000000008152600401610d5f90611839565b60405180910390fd5b80600160008473ffffffffffffffffffffffffffffffffffffffff1673ffffffffffffffffffffffffffffffffffffffff16815260200190815260200160002060010160006101000a81548160ff0219169083151502179055505050565b60008082511415610dda5760019050610e93565b60006014835181610de757fe5b0614610e28576040517f08c379a0000000000000000000000000000000000000000000000000000000008152600401610e1f906117f9565b60405180910390fd5b600080600090505b8351811015610e8c578060140184015191508473ffffffffffffffffffffffffffffffffffffffff168273ffffffffffffffffffffffffffffffffffffffff161415610e8157600092505050610e93565b601481019050610e30565b5060019150505b92915050565b6040518060800160405280600080191681526020016000801916815260200160008019168152602001606081525090565b828054600181600116156101000203166002900490600052602060002090601f016020900481019282601f10610f0b57805160ff1916838001178555610f39565b82800160010185558215610f39579182015b82811115610f38578251825591602001919060010190610f1d565b5b509050610f469190610fca565b5090565b828054600181600116156101000203166002900490600052602060002090601f016020900481019282601f10610f8b57805160ff1916838001178555610fb9565b82800160010185558215610fb9579182015b82811115610fb8578251825591602001919060010190610f9d565b5b509050610fc69190610fca565b5090565b610fec91905b80821115610fe8576000816000905550600101610fd0565b5090565b90565b600081359050610ffe81611a19565b92915050565b60008135905061101381611a30565b92915050565b60008135905061102881611a47565b92915050565b600082601f83011261103f57600080fd5b813561105261104d826118b6565b611889565b9150808252602083016020830185838301111561106e57600080fd5b61107983828461198b565b50505092915050565b60006020828403121561109457600080fd5b60006110a284828501610fef565b91505092915050565b600080604083850312156110be57600080fd5b60006110cc85828601610fef565b92505060206110dd85828601611004565b9150509250929050565b600080604083850312156110fa57600080fd5b600061110885828601610fef565b925050602061111985828601611019565b9150509250929050565b60006020828403121561113557600080fd5b600061114384828501611019565b91505092915050565b60006020828403121561115e57600080fd5b600082013567ffffffffffffffff81111561117857600080fd5b6111848482850161102e565b91505092915050565b600080604083850312156111a057600080fd5b600083013567ffffffffffffffff8111156111ba57600080fd5b6111c68582860161102e565b92505060206111d785828601611004565b9150509250929050565b6111ea81611936565b82525050565b6112016111fc82611936565b6119cd565b82525050565b61121081611948565b82525050565b61121f81611954565b82525050565b61122e81611954565b82525050565b61124561124082611954565b6119df565b82525050565b6000611256826118ed565b611260818561191a565b935061127081856020860161199a565b80840191505092915050565b6000611287826118e2565b61129181856118f8565b93506112a181856020860161199a565b6112aa816119fb565b840191505092915050565b60006112c0826118e2565b6112ca8185611909565b93506112da81856020860161199a565b6112e3816119fb565b840191505092915050565b60006112f9826118e2565b611303818561191a565b935061131381856020860161199a565b80840191505092915050565b600061132c601a83611925565b91507f696e76616c6964206365727469666963617465206c656e6774680000000000006000830152602082019050919050565b600061136c601883611925565b91507f636572746966696572206e6f7420617574686f726973656400000000000000006000830152602082019050919050565b60006113ac601683611925565b91507f696e76616c6964207265636f766572792076616c7565000000000000000000006000830152602082019050919050565b60006113ec601083611925565b91507f6e656564206e6577207369676e657273000000000000000000000000000000006000830152602082019050919050565b600061142c600e83611925565b91507f6e6f7420617574686f72697365640000000000000000000000000000000000006000830152602082019050919050565b600061146c601d83611925565b91507f696e76616c6964207061636b6564207369676e657273206c656e6774680000006000830152602082019050919050565b60006114ac601c83611925565b91507f65616368207369676e65722073686f756c6420626520756e69717565000000006000830152602082019050919050565b60006114ec601583611925565b91507f6f6e6c79206d616e616765722063616e2063616c6c00000000000000000000006000830152602082019050919050565b60006080830160008301516115376000860182611216565b50602083015161154a6020860182611216565b50604083015161155d6040860182611216565b5060608301518482036060860152611575828261127c565b9150508091505092915050565b61158b8161197e565b82525050565b600061159d828561124b565b91506115a982846111f0565b6014820191508190509392505050565b60006115c582876112ee565b91506115d18286611234565b6020820191506115e18285611234565b6020820191506115f18284611234565b60208201915081905095945050505050565b600060208201905061161860008301846111e1565b92915050565b60006020820190506116336000830184611207565b92915050565b600060208201905061164e6000830184611225565b92915050565b60006040820190506116696000830185611225565b61167660208301846111e1565b9392505050565b60006040820190506116926000830185611225565b61169f6020830184611207565b9392505050565b60006080820190506116bb6000830187611225565b6116c86020830186611225565b6116d56040830185611225565b81810360608301526116e781846112b5565b905095945050505050565b60006080820190506117076000830187611225565b6117146020830186611582565b6117216040830185611225565b61172e6060830184611225565b95945050505050565b6000602082019050818103600083015261175181846112b5565b905092915050565b600060208201905081810360008301526117728161131f565b9050919050565b600060208201905081810360008301526117928161135f565b9050919050565b600060208201905081810360008301526117b28161139f565b9050919050565b600060208201905081810360008301526117d2816113df565b9050919050565b600060208201905081810360008301526117f28161141f565b9050919050565b600060208201905081810360008301526118128161145f565b9050919050565b600060208201905081810360008301526118328161149f565b9050919050565b60006020820190508181036000830152611852816114df565b9050919050565b60006040820190508181036000830152611873818561151f565b90506118826020830184611225565b9392505050565b6000604051905081810181811067ffffffffffffffff821117156118ac57600080fd5b8060405250919050565b600067ffffffffffffffff8211156118cd57600080fd5b601f19601f8301169050602081019050919050565b600081519050919050565b600081519050919050565b600082825260208201905092915050565b600082825260208201905092915050565b600081905092915050565b600082825260208201905092915050565b60006119418261195e565b9050919050565b60008115159050919050565b6000819050919050565b600073ffffffffffffffffffffffffffffffffffffffff82169050919050565b600060ff82169050919050565b82818337600083830152505050565b60005b838110156119b857808201518184015260208101905061199d565b838111156119c7576000848401525b50505050565b60006119d8826119e9565b9050919050565b6000819050919050565b60006119f482611a0c565b9050919050565b6000601f19601f8301169050919050565b60008160601b9050919050565b611a2281611936565b8114611a2d57600080fd5b50565b611a3981611948565b8114611a4457600080fd5b50565b611a5081611954565b8114611a5b57600080fd5b5056fea26469706673582212200f09156cc816602bfa1755754ea840ecb036292d0991a5cba42f563e15bd39a564736f6c63430006010033","opcodes":"PUSH1 0x80 PUSH1 0x40 MSTORE CALLVALUE DUP1 ISZERO PUSH2 0x10 JUMPI PUSH1 0x0 DUP1 REVERT JUMPDEST POP CALLER PUSH1 0x2 PUSH1 0x0 PUSH2 0x100 EXP DUP2 SLOAD DUP2 PUSH20 0xFFFFFFFFFFFFFFFFFFFFFFFFFFFFFFFFFFFFFFFF MUL NOT AND SWAP1 DUP4 PUSH20 0xFFFFFFFFFFFFFFFFFFFFFFFFFFFFFFFFFFFFFFFF AND MUL OR SWAP1 SSTORE POP PUSH2 0x1A94 DUP1 PUSH2 0x61 PUSH1 0x0 CODECOPY PUSH1 0x0 RETURN INVALID PUSH1 0x80 PUSH1 0x40 MSTORE CALLVALUE DUP1 ISZERO PUSH2 0x10 JUMPI PUSH1 0x0 DUP1 REVERT JUMPDEST POP PUSH1 0x4 CALLDATASIZE LT PUSH2 0x9E JUMPI PUSH1 0x0 CALLDATALOAD PUSH1 0xE0 SHR DUP1 PUSH4 0x841F8EED GT PUSH2 0x66 JUMPI DUP1 PUSH4 0x841F8EED EQ PUSH2 0x172 JUMPI DUP1 PUSH4 0x906E9400 EQ PUSH2 0x18E JUMPI DUP1 PUSH4 0xC189F3B3 EQ PUSH2 0x1AA JUMPI DUP1 PUSH4 0xE02DAB0D EQ PUSH2 0x1C8 JUMPI DUP1 PUSH4 0xE987EF02 EQ PUSH2 0x1F8 JUMPI PUSH2 0x9E JUMP JUMPDEST DUP1 PUSH4 0xB9962B1 EQ PUSH2 0xA3 JUMPI DUP1 PUSH4 0x481C6A75 EQ PUSH2 0xD4 JUMPI DUP1 PUSH4 0x6A40856A EQ PUSH2 0xF2 JUMPI DUP1 PUSH4 0x742F0688 EQ PUSH2 0x123 JUMPI DUP1 PUSH4 0x756CA62E EQ PUSH2 0x156 JUMPI JUMPDEST PUSH1 0x0 DUP1 REVERT JUMPDEST PUSH2 0xBD PUSH1 0x4 DUP1 CALLDATASIZE SUB PUSH2 0xB8 SWAP2 SWAP1 DUP2 ADD SWAP1 PUSH2 0x118D JUMP JUMPDEST PUSH2 0x214 JUMP JUMPDEST PUSH1 0x40 MLOAD PUSH2 0xCB SWAP3 SWAP2 SWAP1 PUSH2 0x1859 JUMP JUMPDEST PUSH1 0x40 MLOAD DUP1 SWAP2 SUB SWAP1 RETURN JUMPDEST PUSH2 0xDC PUSH2 0x4CC JUMP JUMPDEST PUSH1 0x40 MLOAD PUSH2 0xE9 SWAP2 SWAP1 PUSH2 0x1603 JUMP JUMPDEST PUSH1 0x40 MLOAD DUP1 SWAP2 SUB SWAP1 RETURN JUMPDEST PUSH2 0x10C PUSH1 0x4 DUP1 CALLDATASIZE SUB PUSH2 0x107 SWAP2 SWAP1 DUP2 ADD SWAP1 PUSH2 0x1082 JUMP JUMPDEST PUSH2 0x4F2 JUMP JUMPDEST PUSH1 0x40 MLOAD PUSH2 0x11A SWAP3 SWAP2 SWAP1 PUSH2 0x167D JUMP JUMPDEST PUSH1 0x40 MLOAD DUP1 SWAP2 SUB SWAP1 RETURN JUMPDEST PUSH2 0x13D PUSH1 0x4 DUP1 CALLDATASIZE SUB PUSH2 0x138 SWAP2 SWAP1 DUP2 ADD SWAP1 PUSH2 0x1123 JUMP JUMPDEST PUSH2 0x523 JUMP JUMPDEST PUSH1 0x40 MLOAD PUSH2 0x14D SWAP5 SWAP4 SWAP3 SWAP2 SWAP1 PUSH2 0x16A6 JUMP JUMPDEST PUSH1 0x40 MLOAD DUP1 SWAP2 SUB SWAP1 RETURN JUMPDEST PUSH2 0x170 PUSH1 0x4 DUP1 CALLDATASIZE SUB PUSH2 0x16B SWAP2 SWAP1 DUP2 ADD SWAP1 PUSH2 0x10E7 JUMP JUMPDEST PUSH2 0x5EB JUMP JUMPDEST STOP JUMPDEST PUSH2 0x18C PUSH1 0x4 DUP1 CALLDATASIZE SUB PUSH2 0x187 SWAP2 SWAP1 DUP2 ADD SWAP1 PUSH2 0x1123 JUMP JUMPDEST PUSH2 0x752 JUMP JUMPDEST STOP JUMPDEST PUSH2 0x1A8 PUSH1 0x4 DUP1 CALLDATASIZE SUB PUSH2 0x1A3 SWAP2 SWAP1 DUP2 ADD SWAP1 PUSH2 0x1082 JUMP JUMPDEST PUSH2 0x82B JUMP JUMPDEST STOP JUMPDEST PUSH2 0x1B2 PUSH2 0x8FF JUMP JUMPDEST PUSH1 0x40 MLOAD PUSH2 0x1BF SWAP2 SWAP1 PUSH2 0x1737 JUMP JUMPDEST PUSH1 0x40 MLOAD DUP1 SWAP2 SUB SWAP1 RETURN JUMPDEST PUSH2 0x1E2 PUSH1 0x4 DUP1 CALLDATASIZE SUB PUSH2 0x1DD SWAP2 SWAP1 DUP2 ADD SWAP1 PUSH2 0x114C JUMP JUMPDEST PUSH2 0x938 JUMP JUMPDEST PUSH1 0x40 MLOAD PUSH2 0x1EF SWAP2 SWAP1 PUSH2 0x1639 JUMP JUMPDEST PUSH1 0x40 MLOAD DUP1 SWAP2 SUB SWAP1 RETURN JUMPDEST PUSH2 0x212 PUSH1 0x4 DUP1 CALLDATASIZE SUB PUSH2 0x20D SWAP2 SWAP1 DUP2 ADD SWAP1 PUSH2 0x10AB JUMP JUMPDEST PUSH2 0xCD8 JUMP JUMPDEST STOP JUMPDEST PUSH2 0x21C PUSH2 0xE99 JUMP JUMPDEST PUSH1 0x0 DUP1 PUSH1 0x0 DUP1 PUSH1 0x60 PUSH1 0x20 DUP9 ADD DUP1 MLOAD SWAP5 POP PUSH1 0x20 DUP2 ADD MLOAD SWAP4 POP PUSH1 0x40 DUP2 ADD MLOAD SWAP3 POP POP PUSH1 0x40 MLOAD DUP1 PUSH1 0x40 ADD PUSH1 0x40 MSTORE DUP1 PUSH1 0x1C DUP2 MSTORE PUSH1 0x20 ADD PUSH32 0x19457468657265756D205369676E6564204D6573736167653A0A393600000000 DUP2 MSTORE POP DUP5 DUP5 DUP5 PUSH1 0x40 MLOAD PUSH1 0x20 ADD PUSH2 0x287 SWAP5 SWAP4 SWAP3 SWAP2 SWAP1 PUSH2 0x15B9 JUMP JUMPDEST PUSH1 0x40 MLOAD PUSH1 0x20 DUP2 DUP4 SUB SUB DUP2 MSTORE SWAP1 PUSH1 0x40 MSTORE DUP1 MLOAD SWAP1 PUSH1 0x20 ADD KECCAK256 SWAP5 POP PUSH1 0x0 PUSH1 0x60 SWAP1 POP JUMPDEST DUP9 MLOAD DUP2 LT ISZERO PUSH2 0x499 JUMPI PUSH1 0x0 DUP1 PUSH1 0x0 DUP4 PUSH1 0x20 ADD DUP13 ADD DUP1 MLOAD SWAP4 POP PUSH1 0x20 DUP2 ADD MLOAD SWAP3 POP PUSH1 0x40 DUP2 ADD MLOAD PUSH1 0x0 BYTE SWAP2 POP PUSH1 0x1B DUP3 LT ISZERO PUSH2 0x2DF JUMPI PUSH1 0x1B DUP3 ADD SWAP2 POP JUMPDEST POP PUSH1 0x1B DUP2 PUSH1 0xFF AND EQ DUP1 PUSH2 0x2F5 JUMPI POP PUSH1 0x1C DUP2 PUSH1 0xFF AND EQ JUMPDEST PUSH2 0x334 JUMPI PUSH1 0x40 MLOAD PUSH32 0x8C379A000000000000000000000000000000000000000000000000000000000 DUP2 MSTORE PUSH1 0x4 ADD PUSH2 0x32B SWAP1 PUSH2 0x1799 JUMP JUMPDEST PUSH1 0x40 MLOAD DUP1 SWAP2 SUB SWAP1 REVERT JUMPDEST PUSH1 0x0 PUSH1 0x1 DUP11 DUP4 DUP7 DUP7 PUSH1 0x40 MLOAD PUSH1 0x0 DUP2 MSTORE PUSH1 0x20 ADD PUSH1 0x40 MSTORE PUSH1 0x40 MLOAD PUSH2 0x359 SWAP5 SWAP4 SWAP3 SWAP2 SWAP1 PUSH2 0x16F2 JUMP JUMPDEST PUSH1 0x20 PUSH1 0x40 MLOAD PUSH1 0x20 DUP2 SUB SWAP1 DUP1 DUP5 SUB SWAP1 DUP6 GAS STATICCALL ISZERO DUP1 ISZERO PUSH2 0x37B JUMPI RETURNDATASIZE PUSH1 0x0 DUP1 RETURNDATACOPY RETURNDATASIZE PUSH1 0x0 REVERT JUMPDEST POP POP POP PUSH1 0x20 PUSH1 0x40 MLOAD SUB MLOAD SWAP1 POP PUSH2 0x391 DUP2 DUP8 PUSH2 0xDC6 JUMP JUMPDEST PUSH2 0x3D0 JUMPI PUSH1 0x40 MLOAD PUSH32 0x8C379A000000000000000000000000000000000000000000000000000000000 DUP2 MSTORE PUSH1 0x4 ADD PUSH2 0x3C7 SWAP1 PUSH2 0x1819 JUMP JUMPDEST PUSH1 0x40 MLOAD DUP1 SWAP2 SUB SWAP1 REVERT JUMPDEST DUP12 ISZERO PUSH2 0x466 JUMPI PUSH1 0x1 PUSH1 0x0 DUP3 PUSH20 0xFFFFFFFFFFFFFFFFFFFFFFFFFFFFFFFFFFFFFFFF AND PUSH20 0xFFFFFFFFFFFFFFFFFFFFFFFFFFFFFFFFFFFFFFFF AND DUP2 MSTORE PUSH1 0x20 ADD SWAP1 DUP2 MSTORE PUSH1 0x20 ADD PUSH1 0x0 KECCAK256 PUSH1 0x1 ADD PUSH1 0x0 SWAP1 SLOAD SWAP1 PUSH2 0x100 EXP SWAP1 DIV PUSH1 0xFF AND PUSH2 0x465 JUMPI PUSH1 0x40 MLOAD PUSH32 0x8C379A000000000000000000000000000000000000000000000000000000000 DUP2 MSTORE PUSH1 0x4 ADD PUSH2 0x45C SWAP1 PUSH2 0x1779 JUMP JUMPDEST PUSH1 0x40 MLOAD DUP1 SWAP2 SUB SWAP1 REVERT JUMPDEST JUMPDEST DUP6 DUP2 PUSH1 0x40 MLOAD PUSH1 0x20 ADD PUSH2 0x479 SWAP3 SWAP2 SWAP1 PUSH2 0x1591 JUMP JUMPDEST PUSH1 0x40 MLOAD PUSH1 0x20 DUP2 DUP4 SUB SUB DUP2 MSTORE SWAP1 PUSH1 0x40 MSTORE SWAP6 POP POP POP POP POP PUSH1 0x41 DUP2 ADD SWAP1 POP PUSH2 0x2A6 JUMP JUMPDEST POP DUP4 DUP7 PUSH1 0x0 ADD DUP2 DUP2 MSTORE POP POP DUP3 DUP7 PUSH1 0x20 ADD DUP2 DUP2 MSTORE POP POP DUP2 DUP7 PUSH1 0x40 ADD DUP2 DUP2 MSTORE POP POP DUP1 DUP7 PUSH1 0x60 ADD DUP2 SWAP1 MSTORE POP POP POP POP POP SWAP3 POP SWAP3 SWAP1 POP JUMP JUMPDEST PUSH1 0x2 PUSH1 0x0 SWAP1 SLOAD SWAP1 PUSH2 0x100 EXP SWAP1 DIV PUSH20 0xFFFFFFFFFFFFFFFFFFFFFFFFFFFFFFFFFFFFFFFF AND DUP2 JUMP JUMPDEST PUSH1 0x1 PUSH1 0x20 MSTORE DUP1 PUSH1 0x0 MSTORE PUSH1 0x40 PUSH1 0x0 KECCAK256 PUSH1 0x0 SWAP2 POP SWAP1 POP DUP1 PUSH1 0x0 ADD SLOAD SWAP1 DUP1 PUSH1 0x1 ADD PUSH1 0x0 SWAP1 SLOAD SWAP1 PUSH2 0x100 EXP SWAP1 DIV PUSH1 0xFF AND SWAP1 POP DUP3 JUMP JUMPDEST PUSH1 0x0 PUSH1 0x20 MSTORE DUP1 PUSH1 0x0 MSTORE PUSH1 0x40 PUSH1 0x0 KECCAK256 PUSH1 0x0 SWAP2 POP SWAP1 POP DUP1 PUSH1 0x0 ADD SLOAD SWAP1 DUP1 PUSH1 0x1 ADD SLOAD SWAP1 DUP1 PUSH1 0x2 ADD SLOAD SWAP1 DUP1 PUSH1 0x3 ADD DUP1 SLOAD PUSH1 0x1 DUP2 PUSH1 0x1 AND ISZERO PUSH2 0x100 MUL SUB AND PUSH1 0x2 SWAP1 DIV DUP1 PUSH1 0x1F ADD PUSH1 0x20 DUP1 SWAP2 DIV MUL PUSH1 0x20 ADD PUSH1 0x40 MLOAD SWAP1 DUP2 ADD PUSH1 0x40 MSTORE DUP1 SWAP3 SWAP2 SWAP1 DUP2 DUP2 MSTORE PUSH1 0x20 ADD DUP3 DUP1 SLOAD PUSH1 0x1 DUP2 PUSH1 0x1 AND ISZERO PUSH2 0x100 MUL SUB AND PUSH1 0x2 SWAP1 DIV DUP1 ISZERO PUSH2 0x5E1 JUMPI DUP1 PUSH1 0x1F LT PUSH2 0x5B6 JUMPI PUSH2 0x100 DUP1 DUP4 SLOAD DIV MUL DUP4 MSTORE SWAP2 PUSH1 0x20 ADD SWAP2 PUSH2 0x5E1 JUMP JUMPDEST DUP3 ADD SWAP2 SWAP1 PUSH1 0x0 MSTORE PUSH1 0x20 PUSH1 0x0 KECCAK256 SWAP1 JUMPDEST DUP2 SLOAD DUP2 MSTORE SWAP1 PUSH1 0x1 ADD SWAP1 PUSH1 0x20 ADD DUP1 DUP4 GT PUSH2 0x5C4 JUMPI DUP3 SWAP1 SUB PUSH1 0x1F AND DUP3 ADD SWAP2 JUMPDEST POP POP POP POP POP SWAP1 POP DUP5 JUMP JUMPDEST PUSH1 0x2 PUSH1 0x0 SWAP1 SLOAD SWAP1 PUSH2 0x100 EXP SWAP1 DIV PUSH20 0xFFFFFFFFFFFFFFFFFFFFFFFFFFFFFFFFFFFFFFFF AND PUSH20 0xFFFFFFFFFFFFFFFFFFFFFFFFFFFFFFFFFFFFFFFF AND CALLER PUSH20 0xFFFFFFFFFFFFFFFFFFFFFFFFFFFFFFFFFFFFFFFF AND EQ PUSH2 0x67B JUMPI PUSH1 0x40 MLOAD PUSH32 0x8C379A000000000000000000000000000000000000000000000000000000000 DUP2 MSTORE PUSH1 0x4 ADD PUSH2 0x672 SWAP1 PUSH2 0x1839 JUMP JUMPDEST PUSH1 0x40 MLOAD DUP1 SWAP2 SUB SWAP1 REVERT JUMPDEST PUSH1 0x40 MLOAD DUP1 PUSH1 0x40 ADD PUSH1 0x40 MSTORE DUP1 DUP3 DUP2 MSTORE PUSH1 0x20 ADD PUSH1 0x1 ISZERO ISZERO DUP2 MSTORE POP PUSH1 0x1 PUSH1 0x0 DUP5 PUSH20 0xFFFFFFFFFFFFFFFFFFFFFFFFFFFFFFFFFFFFFFFF AND PUSH20 0xFFFFFFFFFFFFFFFFFFFFFFFFFFFFFFFFFFFFFFFF AND DUP2 MSTORE PUSH1 0x20 ADD SWAP1 DUP2 MSTORE PUSH1 0x20 ADD PUSH1 0x0 KECCAK256 PUSH1 0x0 DUP3 ADD MLOAD DUP2 PUSH1 0x0 ADD SSTORE PUSH1 0x20 DUP3 ADD MLOAD DUP2 PUSH1 0x1 ADD PUSH1 0x0 PUSH2 0x100 EXP DUP2 SLOAD DUP2 PUSH1 0xFF MUL NOT AND SWAP1 DUP4 ISZERO ISZERO MUL OR SWAP1 SSTORE POP SWAP1 POP POP DUP2 PUSH20 0xFFFFFFFFFFFFFFFFFFFFFFFFFFFFFFFFFFFFFFFF AND PUSH32 0x71B03471B324BBCC7546B2626D0407DBB70A61E5E77C56214352D9C12893933F PUSH1 0x1 PUSH1 0x40 MLOAD PUSH2 0x746 SWAP2 SWAP1 PUSH2 0x161E JUMP JUMPDEST PUSH1 0x40 MLOAD DUP1 SWAP2 SUB SWAP1 LOG2 POP POP JUMP JUMPDEST PUSH1 0x1 PUSH1 0x0 CALLER PUSH20 0xFFFFFFFFFFFFFFFFFFFFFFFFFFFFFFFFFFFFFFFF AND PUSH20 0xFFFFFFFFFFFFFFFFFFFFFFFFFFFFFFFFFFFFFFFF AND DUP2 MSTORE PUSH1 0x20 ADD SWAP1 DUP2 MSTORE PUSH1 0x20 ADD PUSH1 0x0 KECCAK256 PUSH1 0x1 ADD PUSH1 0x0 SWAP1 SLOAD SWAP1 PUSH2 0x100 EXP SWAP1 DIV PUSH1 0xFF AND PUSH2 0x7E1 JUMPI PUSH1 0x40 MLOAD PUSH32 0x8C379A000000000000000000000000000000000000000000000000000000000 DUP2 MSTORE PUSH1 0x4 ADD PUSH2 0x7D8 SWAP1 PUSH2 0x17D9 JUMP JUMPDEST PUSH1 0x40 MLOAD DUP1 SWAP2 SUB SWAP1 REVERT JUMPDEST DUP1 PUSH1 0x1 PUSH1 0x0 CALLER PUSH20 0xFFFFFFFFFFFFFFFFFFFFFFFFFFFFFFFFFFFFFFFF AND PUSH20 0xFFFFFFFFFFFFFFFFFFFFFFFFFFFFFFFFFFFFFFFF AND DUP2 MSTORE PUSH1 0x20 ADD SWAP1 DUP2 MSTORE PUSH1 0x20 ADD PUSH1 0x0 KECCAK256 PUSH1 0x0 ADD DUP2 SWAP1 SSTORE POP POP JUMP JUMPDEST PUSH1 0x2 PUSH1 0x0 SWAP1 SLOAD SWAP1 PUSH2 0x100 EXP SWAP1 DIV PUSH20 0xFFFFFFFFFFFFFFFFFFFFFFFFFFFFFFFFFFFFFFFF AND PUSH20 0xFFFFFFFFFFFFFFFFFFFFFFFFFFFFFFFFFFFFFFFF AND CALLER PUSH20 0xFFFFFFFFFFFFFFFFFFFFFFFFFFFFFFFFFFFFFFFF AND EQ PUSH2 0x8BB JUMPI PUSH1 0x40 MLOAD PUSH32 0x8C379A000000000000000000000000000000000000000000000000000000000 DUP2 MSTORE PUSH1 0x4 ADD PUSH2 0x8B2 SWAP1 PUSH2 0x1839 JUMP JUMPDEST PUSH1 0x40 MLOAD DUP1 SWAP2 SUB SWAP1 REVERT JUMPDEST DUP1 PUSH1 0x2 PUSH1 0x0 PUSH2 0x100 EXP DUP2 SLOAD DUP2 PUSH20 0xFFFFFFFFFFFFFFFFFFFFFFFFFFFFFFFFFFFFFFFF MUL NOT AND SWAP1 DUP4 PUSH20 0xFFFFFFFFFFFFFFFFFFFFFFFFFFFFFFFFFFFFFFFF AND MUL OR SWAP1 SSTORE POP POP JUMP JUMPDEST PUSH1 0x40 MLOAD DUP1 PUSH1 0x40 ADD PUSH1 0x40 MSTORE DUP1 PUSH1 0x1C DUP2 MSTORE PUSH1 0x20 ADD PUSH32 0x19457468657265756D205369676E6564204D6573736167653A0A393600000000 DUP2 MSTORE POP DUP2 JUMP JUMPDEST PUSH1 0x0 PUSH1 0x60 DUP3 MLOAD GT DUP1 ISZERO PUSH2 0x959 JUMPI POP PUSH1 0x0 PUSH1 0x41 PUSH1 0x60 DUP5 MLOAD SUB DUP2 PUSH2 0x956 JUMPI INVALID JUMPDEST MOD EQ JUMPDEST PUSH2 0x998 JUMPI PUSH1 0x40 MLOAD PUSH32 0x8C379A000000000000000000000000000000000000000000000000000000000 DUP2 MSTORE PUSH1 0x4 ADD PUSH2 0x98F SWAP1 PUSH2 0x1759 JUMP JUMPDEST PUSH1 0x40 MLOAD DUP1 SWAP2 SUB SWAP1 REVERT JUMPDEST PUSH2 0x9A0 PUSH2 0xE99 JUMP JUMPDEST PUSH1 0x0 PUSH2 0x9AD DUP5 PUSH1 0x1 PUSH2 0x214 JUMP JUMPDEST SWAP2 POP SWAP2 POP PUSH1 0x60 DUP3 PUSH1 0x60 ADD MLOAD SWAP1 POP PUSH1 0x60 PUSH1 0x0 DUP1 DUP5 DUP2 MSTORE PUSH1 0x20 ADD SWAP1 DUP2 MSTORE PUSH1 0x20 ADD PUSH1 0x0 KECCAK256 PUSH1 0x3 ADD DUP1 SLOAD PUSH1 0x1 DUP2 PUSH1 0x1 AND ISZERO PUSH2 0x100 MUL SUB AND PUSH1 0x2 SWAP1 DIV DUP1 PUSH1 0x1F ADD PUSH1 0x20 DUP1 SWAP2 DIV MUL PUSH1 0x20 ADD PUSH1 0x40 MLOAD SWAP1 DUP2 ADD PUSH1 0x40 MSTORE DUP1 SWAP3 SWAP2 SWAP1 DUP2 DUP2 MSTORE PUSH1 0x20 ADD DUP3 DUP1 SLOAD PUSH1 0x1 DUP2 PUSH1 0x1 AND ISZERO PUSH2 0x100 MUL SUB AND PUSH1 0x2 SWAP1 DIV DUP1 ISZERO PUSH2 0xA65 JUMPI DUP1 PUSH1 0x1F LT PUSH2 0xA3A JUMPI PUSH2 0x100 DUP1 DUP4 SLOAD DIV MUL DUP4 MSTORE SWAP2 PUSH1 0x20 ADD SWAP2 PUSH2 0xA65 JUMP JUMPDEST DUP3 ADD SWAP2 SWAP1 PUSH1 0x0 MSTORE PUSH1 0x20 PUSH1 0x0 KECCAK256 SWAP1 JUMPDEST DUP2 SLOAD DUP2 MSTORE SWAP1 PUSH1 0x1 ADD SWAP1 PUSH1 0x20 ADD DUP1 DUP4 GT PUSH2 0xA48 JUMPI DUP3 SWAP1 SUB PUSH1 0x1F AND DUP3 ADD SWAP2 JUMPDEST POP POP POP POP POP SWAP1 POP PUSH1 0x0 DUP1 SWAP1 POP JUMPDEST DUP3 MLOAD DUP2 LT ISZERO PUSH2 0xBAC JUMPI PUSH1 0x0 DUP2 PUSH1 0x14 ADD DUP5 ADD MLOAD SWAP1 POP PUSH2 0xB3D DUP2 PUSH1 0x0 DUP1 DUP9 DUP2 MSTORE PUSH1 0x20 ADD SWAP1 DUP2 MSTORE PUSH1 0x20 ADD PUSH1 0x0 KECCAK256 PUSH1 0x3 ADD DUP1 SLOAD PUSH1 0x1 DUP2 PUSH1 0x1 AND ISZERO PUSH2 0x100 MUL SUB AND PUSH1 0x2 SWAP1 DIV DUP1 PUSH1 0x1F ADD PUSH1 0x20 DUP1 SWAP2 DIV MUL PUSH1 0x20 ADD PUSH1 0x40 MLOAD SWAP1 DUP2 ADD PUSH1 0x40 MSTORE DUP1 SWAP3 SWAP2 SWAP1 DUP2 DUP2 MSTORE PUSH1 0x20 ADD DUP3 DUP1 SLOAD PUSH1 0x1 DUP2 PUSH1 0x1 AND ISZERO PUSH2 0x100 MUL SUB AND PUSH1 0x2 SWAP1 DIV DUP1 ISZERO PUSH2 0xB33 JUMPI DUP1 PUSH1 0x1F LT PUSH2 0xB08 JUMPI PUSH2 0x100 DUP1 DUP4 SLOAD DIV MUL DUP4 MSTORE SWAP2 PUSH1 0x20 ADD SWAP2 PUSH2 0xB33 JUMP JUMPDEST DUP3 ADD SWAP2 SWAP1 PUSH1 0x0 MSTORE PUSH1 0x20 PUSH1 0x0 KECCAK256 SWAP1 JUMPDEST DUP2 SLOAD DUP2 MSTORE SWAP1 PUSH1 0x1 ADD SWAP1 PUSH1 0x20 ADD DUP1 DUP4 GT PUSH2 0xB16 JUMPI DUP3 SWAP1 SUB PUSH1 0x1F AND DUP3 ADD SWAP2 JUMPDEST POP POP POP POP POP PUSH2 0xDC6 JUMP JUMPDEST ISZERO PUSH2 0xBA0 JUMPI DUP3 DUP2 PUSH1 0x40 MLOAD PUSH1 0x20 ADD PUSH2 0xB55 SWAP3 SWAP2 SWAP1 PUSH2 0x1591 JUMP JUMPDEST PUSH1 0x40 MLOAD PUSH1 0x20 DUP2 DUP4 SUB SUB DUP2 MSTORE SWAP1 PUSH1 0x40 MSTORE SWAP3 POP PUSH32 0x4007DEE9068A7E16ABA143C1861D9CB75F2BE4B83EF76AE2C602A2C301398CF7 DUP6 DUP3 PUSH1 0x40 MLOAD PUSH2 0xB97 SWAP3 SWAP2 SWAP1 PUSH2 0x1654 JUMP JUMPDEST PUSH1 0x40 MLOAD DUP1 SWAP2 SUB SWAP1 LOG1 JUMPDEST POP PUSH1 0x14 DUP2 ADD SWAP1 POP PUSH2 0xA72 JUMP JUMPDEST POP PUSH1 0x0 DUP1 PUSH1 0x0 DUP6 DUP2 MSTORE PUSH1 0x20 ADD SWAP1 DUP2 MSTORE PUSH1 0x20 ADD PUSH1 0x0 KECCAK256 PUSH1 0x3 ADD DUP1 SLOAD PUSH1 0x1 DUP2 PUSH1 0x1 AND ISZERO PUSH2 0x100 MUL SUB AND PUSH1 0x2 SWAP1 DIV SWAP1 POP GT ISZERO PUSH2 0xC7A JUMPI PUSH1 0x0 DUP1 DUP5 DUP2 MSTORE PUSH1 0x20 ADD SWAP1 DUP2 MSTORE PUSH1 0x20 ADD PUSH1 0x0 KECCAK256 PUSH1 0x3 ADD DUP1 SLOAD PUSH1 0x1 DUP2 PUSH1 0x1 AND ISZERO PUSH2 0x100 MUL SUB AND PUSH1 0x2 SWAP1 DIV SWAP1 POP DUP2 MLOAD GT PUSH2 0xC4B JUMPI PUSH1 0x40 MLOAD PUSH32 0x8C379A000000000000000000000000000000000000000000000000000000000 DUP2 MSTORE PUSH1 0x4 ADD PUSH2 0xC42 SWAP1 PUSH2 0x17B9 JUMP JUMPDEST PUSH1 0x40 MLOAD DUP1 SWAP2 SUB SWAP1 REVERT JUMPDEST DUP1 PUSH1 0x0 DUP1 DUP6 DUP2 MSTORE PUSH1 0x20 ADD SWAP1 DUP2 MSTORE PUSH1 0x20 ADD PUSH1 0x0 KECCAK256 PUSH1 0x3 ADD SWAP1 DUP1 MLOAD SWAP1 PUSH1 0x20 ADD SWAP1 PUSH2 0xC74 SWAP3 SWAP2 SWAP1 PUSH2 0xECA JUMP JUMPDEST POP PUSH2 0xCCC JUMP JUMPDEST DUP4 PUSH1 0x0 DUP1 DUP6 DUP2 MSTORE PUSH1 0x20 ADD SWAP1 DUP2 MSTORE PUSH1 0x20 ADD PUSH1 0x0 KECCAK256 PUSH1 0x0 DUP3 ADD MLOAD DUP2 PUSH1 0x0 ADD SSTORE PUSH1 0x20 DUP3 ADD MLOAD DUP2 PUSH1 0x1 ADD SSTORE PUSH1 0x40 DUP3 ADD MLOAD DUP2 PUSH1 0x2 ADD SSTORE PUSH1 0x60 DUP3 ADD MLOAD DUP2 PUSH1 0x3 ADD SWAP1 DUP1 MLOAD SWAP1 PUSH1 0x20 ADD SWAP1 PUSH2 0xCC7 SWAP3 SWAP2 SWAP1 PUSH2 0xF4A JUMP JUMPDEST POP SWAP1 POP POP JUMPDEST DUP3 SWAP5 POP POP POP POP POP SWAP2 SWAP1 POP JUMP JUMPDEST PUSH1 0x2 PUSH1 0x0 SWAP1 SLOAD SWAP1 PUSH2 0x100 EXP SWAP1 DIV PUSH20 0xFFFFFFFFFFFFFFFFFFFFFFFFFFFFFFFFFFFFFFFF AND PUSH20 0xFFFFFFFFFFFFFFFFFFFFFFFFFFFFFFFFFFFFFFFF AND CALLER PUSH20 0xFFFFFFFFFFFFFFFFFFFFFFFFFFFFFFFFFFFFFFFF AND EQ PUSH2 0xD68 JUMPI PUSH1 0x40 MLOAD PUSH32 0x8C379A000000000000000000000000000000000000000000000000000000000 DUP2 MSTORE PUSH1 0x4 ADD PUSH2 0xD5F SWAP1 PUSH2 0x1839 JUMP JUMPDEST PUSH1 0x40 MLOAD DUP1 SWAP2 SUB SWAP1 REVERT JUMPDEST DUP1 PUSH1 0x1 PUSH1 0x0 DUP5 PUSH20 0xFFFFFFFFFFFFFFFFFFFFFFFFFFFFFFFFFFFFFFFF AND PUSH20 0xFFFFFFFFFFFFFFFFFFFFFFFFFFFFFFFFFFFFFFFF AND DUP2 MSTORE PUSH1 0x20 ADD SWAP1 DUP2 MSTORE PUSH1 0x20 ADD PUSH1 0x0 KECCAK256 PUSH1 0x1 ADD PUSH1 0x0 PUSH2 0x100 EXP DUP2 SLOAD DUP2 PUSH1 0xFF MUL NOT AND SWAP1 DUP4 ISZERO ISZERO MUL OR SWAP1 SSTORE POP POP POP JUMP JUMPDEST PUSH1 0x0 DUP1 DUP3 MLOAD EQ ISZERO PUSH2 0xDDA JUMPI PUSH1 0x1 SWAP1 POP PUSH2 0xE93 JUMP JUMPDEST PUSH1 0x0 PUSH1 0x14 DUP4 MLOAD DUP2 PUSH2 0xDE7 JUMPI INVALID JUMPDEST MOD EQ PUSH2 0xE28 JUMPI PUSH1 0x40 MLOAD PUSH32 0x8C379A000000000000000000000000000000000000000000000000000000000 DUP2 MSTORE PUSH1 0x4 ADD PUSH2 0xE1F SWAP1 PUSH2 0x17F9 JUMP JUMPDEST PUSH1 0x40 MLOAD DUP1 SWAP2 SUB SWAP1 REVERT JUMPDEST PUSH1 0x0 DUP1 PUSH1 0x0 SWAP1 POP JUMPDEST DUP4 MLOAD DUP2 LT ISZERO PUSH2 0xE8C JUMPI DUP1 PUSH1 0x14 ADD DUP5 ADD MLOAD SWAP2 POP DUP5 PUSH20 0xFFFFFFFFFFFFFFFFFFFFFFFFFFFFFFFFFFFFFFFF AND DUP3 PUSH20 0xFFFFFFFFFFFFFFFFFFFFFFFFFFFFFFFFFFFFFFFF AND EQ ISZERO PUSH2 0xE81 JUMPI PUSH1 0x0 SWAP3 POP POP POP PUSH2 0xE93 JUMP JUMPDEST PUSH1 0x14 DUP2 ADD SWAP1 POP PUSH2 0xE30 JUMP JUMPDEST POP PUSH1 0x1 SWAP2 POP POP JUMPDEST SWAP3 SWAP2 POP POP JUMP JUMPDEST PUSH1 0x40 MLOAD DUP1 PUSH1 0x80 ADD PUSH1 0x40 MSTORE DUP1 PUSH1 0x0 DUP1 NOT AND DUP2 MSTORE PUSH1 0x20 ADD PUSH1 0x0 DUP1 NOT AND DUP2 MSTORE PUSH1 0x20 ADD PUSH1 0x0 DUP1 NOT AND DUP2 MSTORE PUSH1 0x20 ADD PUSH1 0x60 DUP2 MSTORE POP SWAP1 JUMP JUMPDEST DUP3 DUP1 SLOAD PUSH1 0x1 DUP2 PUSH1 0x1 AND ISZERO PUSH2 0x100 MUL SUB AND PUSH1 0x2 SWAP1 DIV SWAP1 PUSH1 0x0 MSTORE PUSH1 0x20 PUSH1 0x0 KECCAK256 SWAP1 PUSH1 0x1F ADD PUSH1 0x20 SWAP1 DIV DUP2 ADD SWAP3 DUP3 PUSH1 0x1F LT PUSH2 0xF0B JUMPI DUP1 MLOAD PUSH1 0xFF NOT AND DUP4 DUP1 ADD OR DUP6 SSTORE PUSH2 0xF39 JUMP JUMPDEST DUP3 DUP1 ADD PUSH1 0x1 ADD DUP6 SSTORE DUP3 ISZERO PUSH2 0xF39 JUMPI SWAP2 DUP3 ADD JUMPDEST DUP3 DUP2 GT ISZERO PUSH2 0xF38 JUMPI DUP3 MLOAD DUP3 SSTORE SWAP2 PUSH1 0x20 ADD SWAP2 SWAP1 PUSH1 0x1 ADD SWAP1 PUSH2 0xF1D JUMP JUMPDEST JUMPDEST POP SWAP1 POP PUSH2 0xF46 SWAP2 SWAP1 PUSH2 0xFCA JUMP JUMPDEST POP SWAP1 JUMP JUMPDEST DUP3 DUP1 SLOAD PUSH1 0x1 DUP2 PUSH1 0x1 AND ISZERO PUSH2 0x100 MUL SUB AND PUSH1 0x2 SWAP1 DIV SWAP1 PUSH1 0x0 MSTORE PUSH1 0x20 PUSH1 0x0 KECCAK256 SWAP1 PUSH1 0x1F ADD PUSH1 0x20 SWAP1 DIV DUP2 ADD SWAP3 DUP3 PUSH1 0x1F LT PUSH2 0xF8B JUMPI DUP1 MLOAD PUSH1 0xFF NOT AND DUP4 DUP1 ADD OR DUP6 SSTORE PUSH2 0xFB9 JUMP JUMPDEST DUP3 DUP1 ADD PUSH1 0x1 ADD DUP6 SSTORE DUP3 ISZERO PUSH2 0xFB9 JUMPI SWAP2 DUP3 ADD JUMPDEST DUP3 DUP2 GT ISZERO PUSH2 0xFB8 JUMPI DUP3 MLOAD DUP3 SSTORE SWAP2 PUSH1 0x20 ADD SWAP2 SWAP1 PUSH1 0x1 ADD SWAP1 PUSH2 0xF9D JUMP JUMPDEST JUMPDEST POP SWAP1 POP PUSH2 0xFC6 SWAP2 SWAP1 PUSH2 0xFCA JUMP JUMPDEST POP SWAP1 JUMP JUMPDEST PUSH2 0xFEC SWAP2 SWAP1 JUMPDEST DUP1 DUP3 GT ISZERO PUSH2 0xFE8 JUMPI PUSH1 0x0 DUP2 PUSH1 0x0 SWAP1 SSTORE POP PUSH1 0x1 ADD PUSH2 0xFD0 JUMP JUMPDEST POP SWAP1 JUMP JUMPDEST SWAP1 JUMP JUMPDEST PUSH1 0x0 DUP2 CALLDATALOAD SWAP1 POP PUSH2 0xFFE DUP2 PUSH2 0x1A19 JUMP JUMPDEST SWAP3 SWAP2 POP POP JUMP JUMPDEST PUSH1 0x0 DUP2 CALLDATALOAD SWAP1 POP PUSH2 0x1013 DUP2 PUSH2 0x1A30 JUMP JUMPDEST SWAP3 SWAP2 POP POP JUMP JUMPDEST PUSH1 0x0 DUP2 CALLDATALOAD SWAP1 POP PUSH2 0x1028 DUP2 PUSH2 0x1A47 JUMP JUMPDEST SWAP3 SWAP2 POP POP JUMP JUMPDEST PUSH1 0x0 DUP3 PUSH1 0x1F DUP4 ADD SLT PUSH2 0x103F JUMPI PUSH1 0x0 DUP1 REVERT JUMPDEST DUP2 CALLDATALOAD PUSH2 0x1052 PUSH2 0x104D DUP3 PUSH2 0x18B6 JUMP JUMPDEST PUSH2 0x1889 JUMP JUMPDEST SWAP2 POP DUP1 DUP3 MSTORE PUSH1 0x20 DUP4 ADD PUSH1 0x20 DUP4 ADD DUP6 DUP4 DUP4 ADD GT ISZERO PUSH2 0x106E JUMPI PUSH1 0x0 DUP1 REVERT JUMPDEST PUSH2 0x1079 DUP4 DUP3 DUP5 PUSH2 0x198B JUMP JUMPDEST POP POP POP SWAP3 SWAP2 POP POP JUMP JUMPDEST PUSH1 0x0 PUSH1 0x20 DUP3 DUP5 SUB SLT ISZERO PUSH2 0x1094 JUMPI PUSH1 0x0 DUP1 REVERT JUMPDEST PUSH1 0x0 PUSH2 0x10A2 DUP5 DUP3 DUP6 ADD PUSH2 0xFEF JUMP JUMPDEST SWAP2 POP POP SWAP3 SWAP2 POP POP JUMP JUMPDEST PUSH1 0x0 DUP1 PUSH1 0x40 DUP4 DUP6 SUB SLT ISZERO PUSH2 0x10BE JUMPI PUSH1 0x0 DUP1 REVERT JUMPDEST PUSH1 0x0 PUSH2 0x10CC DUP6 DUP3 DUP7 ADD PUSH2 0xFEF JUMP JUMPDEST SWAP3 POP POP PUSH1 0x20 PUSH2 0x10DD DUP6 DUP3 DUP7 ADD PUSH2 0x1004 JUMP JUMPDEST SWAP2 POP POP SWAP3 POP SWAP3 SWAP1 POP JUMP JUMPDEST PUSH1 0x0 DUP1 PUSH1 0x40 DUP4 DUP6 SUB SLT ISZERO PUSH2 0x10FA JUMPI PUSH1 0x0 DUP1 REVERT JUMPDEST PUSH1 0x0 PUSH2 0x1108 DUP6 DUP3 DUP7 ADD PUSH2 0xFEF JUMP JUMPDEST SWAP3 POP POP PUSH1 0x20 PUSH2 0x1119 DUP6 DUP3 DUP7 ADD PUSH2 0x1019 JUMP JUMPDEST SWAP2 POP POP SWAP3 POP SWAP3 SWAP1 POP JUMP JUMPDEST PUSH1 0x0 PUSH1 0x20 DUP3 DUP5 SUB SLT ISZERO PUSH2 0x1135 JUMPI PUSH1 0x0 DUP1 REVERT JUMPDEST PUSH1 0x0 PUSH2 0x1143 DUP5 DUP3 DUP6 ADD PUSH2 0x1019 JUMP JUMPDEST SWAP2 POP POP SWAP3 SWAP2 POP POP JUMP JUMPDEST PUSH1 0x0 PUSH1 0x20 DUP3 DUP5 SUB SLT ISZERO PUSH2 0x115E JUMPI PUSH1 0x0 DUP1 REVERT JUMPDEST PUSH1 0x0 DUP3 ADD CALLDATALOAD PUSH8 0xFFFFFFFFFFFFFFFF DUP2 GT ISZERO PUSH2 0x1178 JUMPI PUSH1 0x0 DUP1 REVERT JUMPDEST PUSH2 0x1184 DUP5 DUP3 DUP6 ADD PUSH2 0x102E JUMP JUMPDEST SWAP2 POP POP SWAP3 SWAP2 POP POP JUMP JUMPDEST PUSH1 0x0 DUP1 PUSH1 0x40 DUP4 DUP6 SUB SLT ISZERO PUSH2 0x11A0 JUMPI PUSH1 0x0 DUP1 REVERT JUMPDEST PUSH1 0x0 DUP4 ADD CALLDATALOAD PUSH8 0xFFFFFFFFFFFFFFFF DUP2 GT ISZERO PUSH2 0x11BA JUMPI PUSH1 0x0 DUP1 REVERT JUMPDEST PUSH2 0x11C6 DUP6 DUP3 DUP7 ADD PUSH2 0x102E JUMP JUMPDEST SWAP3 POP POP PUSH1 0x20 PUSH2 0x11D7 DUP6 DUP3 DUP7 ADD PUSH2 0x1004 JUMP JUMPDEST SWAP2 POP POP SWAP3 POP SWAP3 SWAP1 POP JUMP JUMPDEST PUSH2 0x11EA DUP2 PUSH2 0x1936 JUMP JUMPDEST DUP3 MSTORE POP POP JUMP JUMPDEST PUSH2 0x1201 PUSH2 0x11FC DUP3 PUSH2 0x1936 JUMP JUMPDEST PUSH2 0x19CD JUMP JUMPDEST DUP3 MSTORE POP POP JUMP JUMPDEST PUSH2 0x1210 DUP2 PUSH2 0x1948 JUMP JUMPDEST DUP3 MSTORE POP POP JUMP JUMPDEST PUSH2 0x121F DUP2 PUSH2 0x1954 JUMP JUMPDEST DUP3 MSTORE POP POP JUMP JUMPDEST PUSH2 0x122E DUP2 PUSH2 0x1954 JUMP JUMPDEST DUP3 MSTORE POP POP JUMP JUMPDEST PUSH2 0x1245 PUSH2 0x1240 DUP3 PUSH2 0x1954 JUMP JUMPDEST PUSH2 0x19DF JUMP JUMPDEST DUP3 MSTORE POP POP JUMP JUMPDEST PUSH1 0x0 PUSH2 0x1256 DUP3 PUSH2 0x18ED JUMP JUMPDEST PUSH2 0x1260 DUP2 DUP6 PUSH2 0x191A JUMP JUMPDEST SWAP4 POP PUSH2 0x1270 DUP2 DUP6 PUSH1 0x20 DUP7 ADD PUSH2 0x199A JUMP JUMPDEST DUP1 DUP5 ADD SWAP2 POP POP SWAP3 SWAP2 POP POP JUMP JUMPDEST PUSH1 0x0 PUSH2 0x1287 DUP3 PUSH2 0x18E2 JUMP JUMPDEST PUSH2 0x1291 DUP2 DUP6 PUSH2 0x18F8 JUMP JUMPDEST SWAP4 POP PUSH2 0x12A1 DUP2 DUP6 PUSH1 0x20 DUP7 ADD PUSH2 0x199A JUMP JUMPDEST PUSH2 0x12AA DUP2 PUSH2 0x19FB JUMP JUMPDEST DUP5 ADD SWAP2 POP POP SWAP3 SWAP2 POP POP JUMP JUMPDEST PUSH1 0x0 PUSH2 0x12C0 DUP3 PUSH2 0x18E2 JUMP JUMPDEST PUSH2 0x12CA DUP2 DUP6 PUSH2 0x1909 JUMP JUMPDEST SWAP4 POP PUSH2 0x12DA DUP2 DUP6 PUSH1 0x20 DUP7 ADD PUSH2 0x199A JUMP JUMPDEST PUSH2 0x12E3 DUP2 PUSH2 0x19FB JUMP JUMPDEST DUP5 ADD SWAP2 POP POP SWAP3 SWAP2 POP POP JUMP JUMPDEST PUSH1 0x0 PUSH2 0x12F9 DUP3 PUSH2 0x18E2 JUMP JUMPDEST PUSH2 0x1303 DUP2 DUP6 PUSH2 0x191A JUMP JUMPDEST SWAP4 POP PUSH2 0x1313 DUP2 DUP6 PUSH1 0x20 DUP7 ADD PUSH2 0x199A JUMP JUMPDEST DUP1 DUP5 ADD SWAP2 POP POP SWAP3 SWAP2 POP POP JUMP JUMPDEST PUSH1 0x0 PUSH2 0x132C PUSH1 0x1A DUP4 PUSH2 0x1925 JUMP JUMPDEST SWAP2 POP PUSH32 0x696E76616C6964206365727469666963617465206C656E677468000000000000 PUSH1 0x0 DUP4 ADD MSTORE PUSH1 0x20 DUP3 ADD SWAP1 POP SWAP2 SWAP1 POP JUMP JUMPDEST PUSH1 0x0 PUSH2 0x136C PUSH1 0x18 DUP4 PUSH2 0x1925 JUMP JUMPDEST SWAP2 POP PUSH32 0x636572746966696572206E6F7420617574686F72697365640000000000000000 PUSH1 0x0 DUP4 ADD MSTORE PUSH1 0x20 DUP3 ADD SWAP1 POP SWAP2 SWAP1 POP JUMP JUMPDEST PUSH1 0x0 PUSH2 0x13AC PUSH1 0x16 DUP4 PUSH2 0x1925 JUMP JUMPDEST SWAP2 POP PUSH32 0x696E76616C6964207265636F766572792076616C756500000000000000000000 PUSH1 0x0 DUP4 ADD MSTORE PUSH1 0x20 DUP3 ADD SWAP1 POP SWAP2 SWAP1 POP JUMP JUMPDEST PUSH1 0x0 PUSH2 0x13EC PUSH1 0x10 DUP4 PUSH2 0x1925 JUMP JUMPDEST SWAP2 POP PUSH32 0x6E656564206E6577207369676E65727300000000000000000000000000000000 PUSH1 0x0 DUP4 ADD MSTORE PUSH1 0x20 DUP3 ADD SWAP1 POP SWAP2 SWAP1 POP JUMP JUMPDEST PUSH1 0x0 PUSH2 0x142C PUSH1 0xE DUP4 PUSH2 0x1925 JUMP JUMPDEST SWAP2 POP PUSH32 0x6E6F7420617574686F7269736564000000000000000000000000000000000000 PUSH1 0x0 DUP4 ADD MSTORE PUSH1 0x20 DUP3 ADD SWAP1 POP SWAP2 SWAP1 POP JUMP JUMPDEST PUSH1 0x0 PUSH2 0x146C PUSH1 0x1D DUP4 PUSH2 0x1925 JUMP JUMPDEST SWAP2 POP PUSH32 0x696E76616C6964207061636B6564207369676E657273206C656E677468000000 PUSH1 0x0 DUP4 ADD MSTORE PUSH1 0x20 DUP3 ADD SWAP1 POP SWAP2 SWAP1 POP JUMP JUMPDEST PUSH1 0x0 PUSH2 0x14AC PUSH1 0x1C DUP4 PUSH2 0x1925 JUMP JUMPDEST SWAP2 POP PUSH32 0x65616368207369676E65722073686F756C6420626520756E6971756500000000 PUSH1 0x0 DUP4 ADD MSTORE PUSH1 0x20 DUP3 ADD SWAP1 POP SWAP2 SWAP1 POP JUMP JUMPDEST PUSH1 0x0 PUSH2 0x14EC PUSH1 0x15 DUP4 PUSH2 0x1925 JUMP JUMPDEST SWAP2 POP PUSH32 0x6F6E6C79206D616E616765722063616E2063616C6C0000000000000000000000 PUSH1 0x0 DUP4 ADD MSTORE PUSH1 0x20 DUP3 ADD SWAP1 POP SWAP2 SWAP1 POP JUMP JUMPDEST PUSH1 0x0 PUSH1 0x80 DUP4 ADD PUSH1 0x0 DUP4 ADD MLOAD PUSH2 0x1537 PUSH1 0x0 DUP7 ADD DUP3 PUSH2 0x1216 JUMP JUMPDEST POP PUSH1 0x20 DUP4 ADD MLOAD PUSH2 0x154A PUSH1 0x20 DUP7 ADD DUP3 PUSH2 0x1216 JUMP JUMPDEST POP PUSH1 0x40 DUP4 ADD MLOAD PUSH2 0x155D PUSH1 0x40 DUP7 ADD DUP3 PUSH2 0x1216 JUMP JUMPDEST POP PUSH1 0x60 DUP4 ADD MLOAD DUP5 DUP3 SUB PUSH1 0x60 DUP7 ADD MSTORE PUSH2 0x1575 DUP3 DUP3 PUSH2 0x127C JUMP JUMPDEST SWAP2 POP POP DUP1 SWAP2 POP POP SWAP3 SWAP2 POP POP JUMP JUMPDEST PUSH2 0x158B DUP2 PUSH2 0x197E JUMP JUMPDEST DUP3 MSTORE POP POP JUMP JUMPDEST PUSH1 0x0 PUSH2 0x159D DUP3 DUP6 PUSH2 0x124B JUMP JUMPDEST SWAP2 POP PUSH2 0x15A9 DUP3 DUP5 PUSH2 0x11F0 JUMP JUMPDEST PUSH1 0x14 DUP3 ADD SWAP2 POP DUP2 SWAP1 POP SWAP4 SWAP3 POP POP POP JUMP JUMPDEST PUSH1 0x0 PUSH2 0x15C5 DUP3 DUP8 PUSH2 0x12EE JUMP JUMPDEST SWAP2 POP PUSH2 0x15D1 DUP3 DUP7 PUSH2 0x1234 JUMP JUMPDEST PUSH1 0x20 DUP3 ADD SWAP2 POP PUSH2 0x15E1 DUP3 DUP6 PUSH2 0x1234 JUMP JUMPDEST PUSH1 0x20 DUP3 ADD SWAP2 POP PUSH2 0x15F1 DUP3 DUP5 PUSH2 0x1234 JUMP JUMPDEST PUSH1 0x20 DUP3 ADD SWAP2 POP DUP2 SWAP1 POP SWAP6 SWAP5 POP POP POP POP POP JUMP JUMPDEST PUSH1 0x0 PUSH1 0x20 DUP3 ADD SWAP1 POP PUSH2 0x1618 PUSH1 0x0 DUP4 ADD DUP5 PUSH2 0x11E1 JUMP JUMPDEST SWAP3 SWAP2 POP POP JUMP JUMPDEST PUSH1 0x0 PUSH1 0x20 DUP3 ADD SWAP1 POP PUSH2 0x1633 PUSH1 0x0 DUP4 ADD DUP5 PUSH2 0x1207 JUMP JUMPDEST SWAP3 SWAP2 POP POP JUMP JUMPDEST PUSH1 0x0 PUSH1 0x20 DUP3 ADD SWAP1 POP PUSH2 0x164E PUSH1 0x0 DUP4 ADD DUP5 PUSH2 0x1225 JUMP JUMPDEST SWAP3 SWAP2 POP POP JUMP JUMPDEST PUSH1 0x0 PUSH1 0x40 DUP3 ADD SWAP1 POP PUSH2 0x1669 PUSH1 0x0 DUP4 ADD DUP6 PUSH2 0x1225 JUMP JUMPDEST PUSH2 0x1676 PUSH1 0x20 DUP4 ADD DUP5 PUSH2 0x11E1 JUMP JUMPDEST SWAP4 SWAP3 POP POP POP JUMP JUMPDEST PUSH1 0x0 PUSH1 0x40 DUP3 ADD SWAP1 POP PUSH2 0x1692 PUSH1 0x0 DUP4 ADD DUP6 PUSH2 0x1225 JUMP JUMPDEST PUSH2 0x169F PUSH1 0x20 DUP4 ADD DUP5 PUSH2 0x1207 JUMP JUMPDEST SWAP4 SWAP3 POP POP POP JUMP JUMPDEST PUSH1 0x0 PUSH1 0x80 DUP3 ADD SWAP1 POP PUSH2 0x16BB PUSH1 0x0 DUP4 ADD DUP8 PUSH2 0x1225 JUMP JUMPDEST PUSH2 0x16C8 PUSH1 0x20 DUP4 ADD DUP7 PUSH2 0x1225 JUMP JUMPDEST PUSH2 0x16D5 PUSH1 0x40 DUP4 ADD DUP6 PUSH2 0x1225 JUMP JUMPDEST DUP2 DUP2 SUB PUSH1 0x60 DUP4 ADD MSTORE PUSH2 0x16E7 DUP2 DUP5 PUSH2 0x12B5 JUMP JUMPDEST SWAP1 POP SWAP6 SWAP5 POP POP POP POP POP JUMP JUMPDEST PUSH1 0x0 PUSH1 0x80 DUP3 ADD SWAP1 POP PUSH2 0x1707 PUSH1 0x0 DUP4 ADD DUP8 PUSH2 0x1225 JUMP JUMPDEST PUSH2 0x1714 PUSH1 0x20 DUP4 ADD DUP7 PUSH2 0x1582 JUMP JUMPDEST PUSH2 0x1721 PUSH1 0x40 DUP4 ADD DUP6 PUSH2 0x1225 JUMP JUMPDEST PUSH2 0x172E PUSH1 0x60 DUP4 ADD DUP5 PUSH2 0x1225 JUMP JUMPDEST SWAP6 SWAP5 POP POP POP POP POP JUMP JUMPDEST PUSH1 0x0 PUSH1 0x20 DUP3 ADD SWAP1 POP DUP2 DUP2 SUB PUSH1 0x0 DUP4 ADD MSTORE PUSH2 0x1751 DUP2 DUP5 PUSH2 0x12B5 JUMP JUMPDEST SWAP1 POP SWAP3 SWAP2 POP POP JUMP JUMPDEST PUSH1 0x0 PUSH1 0x20 DUP3 ADD SWAP1 POP DUP2 DUP2 SUB PUSH1 0x0 DUP4 ADD MSTORE PUSH2 0x1772 DUP2 PUSH2 0x131F JUMP JUMPDEST SWAP1 POP SWAP2 SWAP1 POP JUMP JUMPDEST PUSH1 0x0 PUSH1 0x20 DUP3 ADD SWAP1 POP DUP2 DUP2 SUB PUSH1 0x0 DUP4 ADD MSTORE PUSH2 0x1792 DUP2 PUSH2 0x135F JUMP JUMPDEST SWAP1 POP SWAP2 SWAP1 POP JUMP JUMPDEST PUSH1 0x0 PUSH1 0x20 DUP3 ADD SWAP1 POP DUP2 DUP2 SUB PUSH1 0x0 DUP4 ADD MSTORE PUSH2 0x17B2 DUP2 PUSH2 0x139F JUMP JUMPDEST SWAP1 POP SWAP2 SWAP1 POP JUMP JUMPDEST PUSH1 0x0 PUSH1 0x20 DUP3 ADD SWAP1 POP DUP2 DUP2 SUB PUSH1 0x0 DUP4 ADD MSTORE PUSH2 0x17D2 DUP2 PUSH2 0x13DF JUMP JUMPDEST SWAP1 POP SWAP2 SWAP1 POP JUMP JUMPDEST PUSH1 0x0 PUSH1 0x20 DUP3 ADD SWAP1 POP DUP2 DUP2 SUB PUSH1 0x0 DUP4 ADD MSTORE PUSH2 0x17F2 DUP2 PUSH2 0x141F JUMP JUMPDEST SWAP1 POP SWAP2 SWAP1 POP JUMP JUMPDEST PUSH1 0x0 PUSH1 0x20 DUP3 ADD SWAP1 POP DUP2 DUP2 SUB PUSH1 0x0 DUP4 ADD MSTORE PUSH2 0x1812 DUP2 PUSH2 0x145F JUMP JUMPDEST SWAP1 POP SWAP2 SWAP1 POP JUMP JUMPDEST PUSH1 0x0 PUSH1 0x20 DUP3 ADD SWAP1 POP DUP2 DUP2 SUB PUSH1 0x0 DUP4 ADD MSTORE PUSH2 0x1832 DUP2 PUSH2 0x149F JUMP JUMPDEST SWAP1 POP SWAP2 SWAP1 POP JUMP JUMPDEST PUSH1 0x0 PUSH1 0x20 DUP3 ADD SWAP1 POP DUP2 DUP2 SUB PUSH1 0x0 DUP4 ADD MSTORE PUSH2 0x1852 DUP2 PUSH2 0x14DF JUMP JUMPDEST SWAP1 POP SWAP2 SWAP1 POP JUMP JUMPDEST PUSH1 0x0 PUSH1 0x40 DUP3 ADD SWAP1 POP DUP2 DUP2 SUB PUSH1 0x0 DUP4 ADD MSTORE PUSH2 0x1873 DUP2 DUP6 PUSH2 0x151F JUMP JUMPDEST SWAP1 POP PUSH2 0x1882 PUSH1 0x20 DUP4 ADD DUP5 PUSH2 0x1225 JUMP JUMPDEST SWAP4 SWAP3 POP POP POP JUMP JUMPDEST PUSH1 0x0 PUSH1 0x40 MLOAD SWAP1 POP DUP2 DUP2 ADD DUP2 DUP2 LT PUSH8 0xFFFFFFFFFFFFFFFF DUP3 GT OR ISZERO PUSH2 0x18AC JUMPI PUSH1 0x0 DUP1 REVERT JUMPDEST DUP1 PUSH1 0x40 MSTORE POP SWAP2 SWAP1 POP JUMP JUMPDEST PUSH1 0x0 PUSH8 0xFFFFFFFFFFFFFFFF DUP3 GT ISZERO PUSH2 0x18CD JUMPI PUSH1 0x0 DUP1 REVERT JUMPDEST PUSH1 0x1F NOT PUSH1 0x1F DUP4 ADD AND SWAP1 POP PUSH1 0x20 DUP2 ADD SWAP1 POP SWAP2 SWAP1 POP JUMP JUMPDEST PUSH1 0x0 DUP2 MLOAD SWAP1 POP SWAP2 SWAP1 POP JUMP JUMPDEST PUSH1 0x0 DUP2 MLOAD SWAP1 POP SWAP2 SWAP1 POP JUMP JUMPDEST PUSH1 0x0 DUP3 DUP3 MSTORE PUSH1 0x20 DUP3 ADD SWAP1 POP SWAP3 SWAP2 POP POP JUMP JUMPDEST PUSH1 0x0 DUP3 DUP3 MSTORE PUSH1 0x20 DUP3 ADD SWAP1 POP SWAP3 SWAP2 POP POP JUMP JUMPDEST PUSH1 0x0 DUP2 SWAP1 POP SWAP3 SWAP2 POP POP JUMP JUMPDEST PUSH1 0x0 DUP3 DUP3 MSTORE PUSH1 0x20 DUP3 ADD SWAP1 POP SWAP3 SWAP2 POP POP JUMP JUMPDEST PUSH1 0x0 PUSH2 0x1941 DUP3 PUSH2 0x195E JUMP JUMPDEST SWAP1 POP SWAP2 SWAP1 POP JUMP JUMPDEST PUSH1 0x0 DUP2 ISZERO ISZERO SWAP1 POP SWAP2 SWAP1 POP JUMP JUMPDEST PUSH1 0x0 DUP2 SWAP1 POP SWAP2 SWAP1 POP JUMP JUMPDEST PUSH1 0x0 PUSH20 0xFFFFFFFFFFFFFFFFFFFFFFFFFFFFFFFFFFFFFFFF DUP3 AND SWAP1 POP SWAP2 SWAP1 POP JUMP JUMPDEST PUSH1 0x0 PUSH1 0xFF DUP3 AND SWAP1 POP SWAP2 SWAP1 POP JUMP JUMPDEST DUP3 DUP2 DUP4 CALLDATACOPY PUSH1 0x0 DUP4 DUP4 ADD MSTORE POP POP POP JUMP JUMPDEST PUSH1 0x0 JUMPDEST DUP4 DUP2 LT ISZERO PUSH2 0x19B8 JUMPI DUP1 DUP3 ADD MLOAD DUP2 DUP5 ADD MSTORE PUSH1 0x20 DUP2 ADD SWAP1 POP PUSH2 0x199D JUMP JUMPDEST DUP4 DUP2 GT ISZERO PUSH2 0x19C7 JUMPI PUSH1 0x0 DUP5 DUP5 ADD MSTORE JUMPDEST POP POP POP POP JUMP JUMPDEST PUSH1 0x0 PUSH2 0x19D8 DUP3 PUSH2 0x19E9 JUMP JUMPDEST SWAP1 POP SWAP2 SWAP1 POP JUMP JUMPDEST PUSH1 0x0 DUP2 SWAP1 POP SWAP2 SWAP1 POP JUMP JUMPDEST PUSH1 0x0 PUSH2 0x19F4 DUP3 PUSH2 0x1A0C JUMP JUMPDEST SWAP1 POP SWAP2 SWAP1 POP JUMP JUMPDEST PUSH1 0x0 PUSH1 0x1F NOT PUSH1 0x1F DUP4 ADD AND SWAP1 POP SWAP2 SWAP1 POP JUMP JUMPDEST PUSH1 0x0 DUP2 PUSH1 0x60 SHL SWAP1 POP SWAP2 SWAP1 POP JUMP JUMPDEST PUSH2 0x1A22 DUP2 PUSH2 0x1936 JUMP JUMPDEST DUP2 EQ PUSH2 0x1A2D JUMPI PUSH1 0x0 DUP1 REVERT JUMPDEST POP JUMP JUMPDEST PUSH2 0x1A39 DUP2 PUSH2 0x1948 JUMP JUMPDEST DUP2 EQ PUSH2 0x1A44 JUMPI PUSH1 0x0 DUP1 REVERT JUMPDEST POP JUMP JUMPDEST PUSH2 0x1A50 DUP2 PUSH2 0x1954 JUMP JUMPDEST DUP2 EQ PUSH2 0x1A5B JUMPI PUSH1 0x0 DUP1 REVERT JUMPDEST POP JUMP INVALID LOG2 PUSH5 0x6970667358 0x22 SLT KECCAK256 0xF MULMOD ISZERO PUSH13 0xC816602BFA1755754EA840ECB0 CALLDATASIZE 0x29 0x2D MULMOD SWAP2 0xA5 0xCB LOG4 0x2F JUMP RETURNDATACOPY ISZERO 0xBD CODECOPY 0xA5 PUSH5 0x736F6C6343 STOP MOD ADD STOP CALLER "},"gasEstimates":{"creation":{"codeDepositCost":"1360800","executionCost":"22283","totalCost":"1383083"},"external":{"PERSONAL_PREFIX()":"infinite","addCertifyingAuthority(address,bytes32)":"44233","certificates(bytes32)":"infinite","certifyingAuthorities(address)":"2527","manager()":"1237","newManager(address)":"22214","parseSignedCertificate(bytes,bool)":"infinite","registerCertificate(bytes)":"infinite","updateCertifyingAuthority(bytes32)":"21463","updateCertifyingAuthorityAuthorization(address,bool)":"22555"},"internal":{"checkUniqueSigner(address,bytes memory)":"infinite"}},"methodIdentifiers":{"PERSONAL_PREFIX()":"c189f3b3","addCertifyingAuthority(address,bytes32)":"756ca62e","certificates(bytes32)":"742f0688","certifyingAuthorities(address)":"6a40856a","manager()":"481c6a75","newManager(address)":"906e9400","parseSignedCertificate(bytes,bool)":"0b9962b1","registerCertificate(bytes)":"e02dab0d","updateCertifyingAuthority(bytes32)":"841f8eed","updateCertifyingAuthorityAuthorization(address,bool)":"e987ef02"}},"storageLayout":{"storage":[{"astId":20,"contract":"CertificateStorage.sol:CertificateStorage","label":"certificates","offset":0,"slot":"0","type":"t_mapping(t_bytes32,t_struct(Certificate)11_storage)"},{"astId":24,"contract":"CertificateStorage.sol:CertificateStorage","label":"certifyingAuthorities","offset":0,"slot":"1","type":"t_mapping(t_address,t_struct(CertifyingAuthority)16_storage)"},{"astId":26,"contract":"CertificateStorage.sol:CertificateStorage","label":"manager","offset":0,"slot":"2","type":"t_address"}],"types":{"t_address":{"encoding":"inplace","label":"address","numberOfBytes":"20"},"t_bool":{"encoding":"inplace","label":"bool","numberOfBytes":"1"},"t_bytes32":{"encoding":"inplace","label":"bytes32","numberOfBytes":"32"},"t_bytes_storage":{"encoding":"bytes","label":"bytes","numberOfBytes":"32"},"t_mapping(t_address,t_struct(CertifyingAuthority)16_storage)":{"encoding":"mapping","key":"t_address","label":"mapping(address => struct CertificateStorage.CertifyingAuthority)","numberOfBytes":"32","value":"t_struct(CertifyingAuthority)16_storage"},"t_mapping(t_bytes32,t_struct(Certificate)11_storage)":{"encoding":"mapping","key":"t_bytes32","label":"mapping(bytes32 => struct CertificateStorage.Certificate)","numberOfBytes":"32","value":"t_struct(Certificate)11_storage"},"t_struct(Certificate)11_storage":{"encoding":"inplace","label":"struct CertificateStorage.Certificate","members":[{"astId":4,"contract":"CertificateStorage.sol:CertificateStorage","label":"name","offset":0,"slot":"0","type":"t_bytes32"},{"astId":6,"contract":"CertificateStorage.sol:CertificateStorage","label":"qualification","offset":0,"slot":"1","type":"t_bytes32"},{"astId":8,"contract":"CertificateStorage.sol:CertificateStorage","label":"extraData","offset":0,"slot":"2","type":"t_bytes32"},{"astId":10,"contract":"CertificateStorage.sol:CertificateStorage","label":"signers","offset":0,"slot":"3","type":"t_bytes_storage"}],"numberOfBytes":"128"},"t_struct(CertifyingAuthority)16_storage":{"encoding":"inplace","label":"struct CertificateStorage.CertifyingAuthority","members":[{"astId":13,"contract":"CertificateStorage.sol:CertificateStorage","label":"name","offset":0,"slot":"0","type":"t_bytes32"},{"astId":15,"contract":"CertificateStorage.sol:CertificateStorage","label":"isAuthorised","offset":0,"slot":"1","type":"t_bool"}],"numberOfBytes":"64"}}},"userdoc":{"methods":{}}}