{"abi":[{"inputs":[],"stateMutability":"nonpayable","type":"constructor"},{"anonymous":false,"inputs":[{"indexed":true,"internalType":"address","name":"_certifyingAuthority","type":"address"},{"indexed":false,"internalType":"bool","name":"_newStatus","type":"bool"}],"name":"Authorization","type":"event"},{"anonymous":false,"inputs":[{"indexed":true,"internalType":"bytes32","name":"_certificateHash","type":"bytes32"},{"indexed":true,"internalType":"address","name":"_certifyingAuthority","type":"address"}],"name":"Certified","type":"event"},{"inputs":[],"name":"PERSONAL_PREFIX","outputs":[{"internalType":"bytes","name":"","type":"bytes"}],"stateMutability":"view","type":"function"},{"inputs":[{"internalType":"address","name":"_authorityAddress","type":"address"},{"internalType":"bytes","name":"_name","type":"bytes"}],"name":"addCertifyingAuthority","outputs":[],"stateMutability":"nonpayable","type":"function"},{"inputs":[{"internalType":"bytes32","name":"","type":"bytes32"}],"name":"certificates","outputs":[{"internalType":"bytes","name":"data","type":"bytes"},{"internalType":"bytes","name":"signers","type":"bytes"}],"stateMutability":"view","type":"function"},{"inputs":[{"internalType":"address","name":"","type":"address"}],"name":"certifyingAuthorities","outputs":[{"internalType":"bytes","name":"data","type":"bytes"},{"internalType":"bool","name":"isAuthorised","type":"bool"},{"internalType":"bool","name":"isMigrated","type":"bool"}],"stateMutability":"view","type":"function"},{"inputs":[],"name":"manager","outputs":[{"internalType":"address","name":"","type":"address"}],"stateMutability":"view","type":"function"},{"inputs":[{"internalType":"address","name":"_newManagerAddress","type":"address"}],"name":"newManager","outputs":[],"stateMutability":"nonpayable","type":"function"},{"inputs":[{"internalType":"bytes","name":"_signedCertificate","type":"bytes"},{"internalType":"bool","name":"_allowedSignersOnly","type":"bool"}],"name":"parseSignedCertificate","outputs":[{"components":[{"internalType":"bytes","name":"data","type":"bytes"},{"internalType":"bytes","name":"signers","type":"bytes"}],"internalType":"struct StorageStructure.Certificate","name":"_certificateObj","type":"tuple"},{"internalType":"bytes32","name":"_certificateHash","type":"bytes32"}],"stateMutability":"view","type":"function"},{"inputs":[{"internalType":"bytes","name":"_signedCertificate","type":"bytes"}],"name":"registerCertificate","outputs":[{"internalType":"bytes32","name":"","type":"bytes32"}],"stateMutability":"nonpayable","type":"function"},{"inputs":[{"internalType":"address","name":"_authorityAddress","type":"address"},{"internalType":"bool","name":"_newStatus","type":"bool"}],"name":"updateCertifyingAuthorityAuthorization","outputs":[],"stateMutability":"nonpayable","type":"function"}],"devdoc":{"methods":{}},"evm":{"assembly":"    /* \"CertificateStorage.sol\":384:5306  contract CertificateStorage is StorageStructure {... */\n  mstore(0x40, 0x80)\n    /* \"CertificateStorage.sol\":489:541  constructor() public {... */\n  callvalue\n    /* \"--CODEGEN--\":8:17   */\n  dup1\n    /* \"--CODEGEN--\":5:7   */\n  iszero\n  tag_1\n  jumpi\n    /* \"--CODEGEN--\":30:31   */\n  0x00\n    /* \"--CODEGEN--\":27:28   */\n  dup1\n    /* \"--CODEGEN--\":20:32   */\n  revert\n    /* \"--CODEGEN--\":5:7   */\ntag_1:\n    /* \"CertificateStorage.sol\":489:541  constructor() public {... */\n  pop\n    /* \"CertificateStorage.sol\":526:536  msg.sender */\n  caller\n    /* \"CertificateStorage.sol\":516:523  manager */\n  0x02\n  0x00\n    /* \"CertificateStorage.sol\":516:536  manager = msg.sender */\n  0x0100\n  exp\n  dup2\n  sload\n  dup2\n  0xffffffffffffffffffffffffffffffffffffffff\n  mul\n  not\n  and\n  swap1\n  dup4\n  0xffffffffffffffffffffffffffffffffffffffff\n  and\n  mul\n  or\n  swap1\n  sstore\n  pop\n    /* \"CertificateStorage.sol\":384:5306  contract CertificateStorage is StorageStructure {... */\n  dataSize(sub_0)\n  dup1\n  dataOffset(sub_0)\n  0x00\n  codecopy\n  0x00\n  return\nstop\n\nsub_0: assembly {\n        /* \"CertificateStorage.sol\":384:5306  contract CertificateStorage is StorageStructure {... */\n      mstore(0x40, 0x80)\n      callvalue\n        /* \"--CODEGEN--\":8:17   */\n      dup1\n        /* \"--CODEGEN--\":5:7   */\n      iszero\n      tag_1\n      jumpi\n        /* \"--CODEGEN--\":30:31   */\n      0x00\n        /* \"--CODEGEN--\":27:28   */\n      dup1\n        /* \"--CODEGEN--\":20:32   */\n      revert\n        /* \"--CODEGEN--\":5:7   */\n    tag_1:\n        /* \"CertificateStorage.sol\":384:5306  contract CertificateStorage is StorageStructure {... */\n      pop\n      jumpi(tag_2, lt(calldatasize, 0x04))\n      shr(0xe0, calldataload(0x00))\n      dup1\n      0x906e9400\n      gt\n      tag_12\n      jumpi\n      dup1\n      0x906e9400\n      eq\n      tag_7\n      jumpi\n      dup1\n      0xc189f3b3\n      eq\n      tag_8\n      jumpi\n      dup1\n      0xe02dab0d\n      eq\n      tag_9\n      jumpi\n      dup1\n      0xe2c5cd78\n      eq\n      tag_10\n      jumpi\n      dup1\n      0xe987ef02\n      eq\n      tag_11\n      jumpi\n      jump(tag_2)\n    tag_12:\n      dup1\n      0x0b9962b1\n      eq\n      tag_3\n      jumpi\n      dup1\n      0x481c6a75\n      eq\n      tag_4\n      jumpi\n      dup1\n      0x6a40856a\n      eq\n      tag_5\n      jumpi\n      dup1\n      0x742f0688\n      eq\n      tag_6\n      jumpi\n    tag_2:\n      0x00\n      dup1\n      revert\n        /* \"CertificateStorage.sol\":3080:4453  function parseSignedCertificate(... */\n    tag_3:\n      tag_13\n      0x04\n      dup1\n      calldatasize\n      sub\n      tag_14\n      swap2\n      swap1\n      dup2\n      add\n      swap1\n      jump(tag_15)\n    tag_14:\n      tag_16\n      jump\t// in\n    tag_13:\n      mload(0x40)\n      tag_17\n      swap3\n      swap2\n      swap1\n      jump(tag_18)\n    tag_17:\n      mload(0x40)\n      dup1\n      swap2\n      sub\n      swap1\n      return\n        /* \"StorageStructure.sol\":341:363  address public manager */\n    tag_4:\n      tag_19\n      tag_20\n      jump\t// in\n    tag_19:\n      mload(0x40)\n      tag_21\n      swap2\n      swap1\n      jump(tag_22)\n    tag_21:\n      mload(0x40)\n      dup1\n      swap2\n      sub\n      swap1\n      return\n        /* \"StorageStructure.sol\":268:336  mapping(address => CertifyingAuthority) public certifyingAuthorities */\n    tag_5:\n      tag_23\n      0x04\n      dup1\n      calldatasize\n      sub\n      tag_24\n      swap2\n      swap1\n      dup2\n      add\n      swap1\n      jump(tag_25)\n    tag_24:\n      tag_26\n      jump\t// in\n    tag_23:\n      mload(0x40)\n      tag_27\n      swap4\n      swap3\n      swap2\n      swap1\n      jump(tag_28)\n    tag_27:\n      mload(0x40)\n      dup1\n      swap2\n      sub\n      swap1\n      return\n        /* \"StorageStructure.sol\":213:264  mapping(bytes32 => Certificate) public certificates */\n    tag_6:\n      tag_29\n      0x04\n      dup1\n      calldatasize\n      sub\n      tag_30\n      swap2\n      swap1\n      dup2\n      add\n      swap1\n      jump(tag_31)\n    tag_30:\n      tag_32\n      jump\t// in\n    tag_29:\n      mload(0x40)\n      tag_33\n      swap3\n      swap2\n      swap1\n      jump(tag_34)\n    tag_33:\n      mload(0x40)\n      dup1\n      swap2\n      sub\n      swap1\n      return\n        /* \"CertificateStorage.sol\":935:1041  function newManager(address _newManagerAddress) public onlyManager {... */\n    tag_7:\n      tag_35\n      0x04\n      dup1\n      calldatasize\n      sub\n      tag_36\n      swap2\n      swap1\n      dup2\n      add\n      swap1\n      jump(tag_25)\n    tag_36:\n      tag_37\n      jump\t// in\n    tag_35:\n      stop\n        /* \"StorageStructure.sol\":370:442  bytes constant public PERSONAL_PREFIX = \"\\x19Ethereum Signed Message:\\n\" */\n    tag_8:\n      tag_38\n      tag_39\n      jump\t// in\n    tag_38:\n      mload(0x40)\n      tag_40\n      swap2\n      swap1\n      jump(tag_41)\n    tag_40:\n      mload(0x40)\n      dup1\n      swap2\n      sub\n      swap1\n      return\n        /* \"CertificateStorage.sol\":1500:3076  function registerCertificate(... */\n    tag_9:\n      tag_42\n      0x04\n      dup1\n      calldatasize\n      sub\n      tag_43\n      swap2\n      swap1\n      dup2\n      add\n      swap1\n      jump(tag_44)\n    tag_43:\n      tag_45\n      jump\t// in\n    tag_42:\n      mload(0x40)\n      tag_46\n      swap2\n      swap1\n      jump(tag_47)\n    tag_46:\n      mload(0x40)\n      dup1\n      swap2\n      sub\n      swap1\n      return\n        /* \"CertificateStorage.sol\":633:931  function addCertifyingAuthority(address _authorityAddress, bytes memory _name) public onlyManager {... */\n    tag_10:\n      tag_48\n      0x04\n      dup1\n      calldatasize\n      sub\n      tag_49\n      swap2\n      swap1\n      dup2\n      add\n      swap1\n      jump(tag_50)\n    tag_49:\n      tag_51\n      jump\t// in\n    tag_48:\n      stop\n        /* \"CertificateStorage.sol\":1045:1245  function updateCertifyingAuthorityAuthorization(... */\n    tag_11:\n      tag_52\n      0x04\n      dup1\n      calldatasize\n      sub\n      tag_53\n      swap2\n      swap1\n      dup2\n      add\n      swap1\n      jump(tag_54)\n    tag_53:\n      tag_55\n      jump\t// in\n    tag_52:\n      stop\n        /* \"CertificateStorage.sol\":3080:4453  function parseSignedCertificate(... */\n    tag_16:\n        /* \"CertificateStorage.sol\":3209:3243  Certificate memory _certificateObj */\n      tag_56\n      tag_57\n      jump\t// in\n    tag_56:\n        /* \"CertificateStorage.sol\":3249:3273  bytes32 _certificateHash */\n      0x00\n        /* \"CertificateStorage.sol\":3284:3320  RLP.RLPItem[] memory _certificateRLP */\n      0x60\n        /* \"CertificateStorage.sol\":3323:3362  _signedCertificate.toRlpItem().toList() */\n      tag_59\n        /* \"CertificateStorage.sol\":3323:3353  _signedCertificate.toRlpItem() */\n      tag_60\n        /* \"CertificateStorage.sol\":3323:3341  _signedCertificate */\n      dup7\n        /* \"CertificateStorage.sol\":3323:3351  _signedCertificate.toRlpItem */\n      tag_61\n        /* \"CertificateStorage.sol\":3323:3353  _signedCertificate.toRlpItem() */\n      jump\t// in\n    tag_60:\n        /* \"CertificateStorage.sol\":3323:3360  _signedCertificate.toRlpItem().toList */\n      tag_62\n        /* \"CertificateStorage.sol\":3323:3362  _signedCertificate.toRlpItem().toList() */\n      jump\t// in\n    tag_59:\n        /* \"CertificateStorage.sol\":3284:3362  RLP.RLPItem[] memory _certificateRLP = _signedCertificate.toRlpItem().toList() */\n      swap1\n      pop\n        /* \"CertificateStorage.sol\":3392:3423  _certificateRLP[0].toRlpBytes() */\n      tag_63\n        /* \"CertificateStorage.sol\":3392:3407  _certificateRLP */\n      dup2\n        /* \"CertificateStorage.sol\":3408:3409  0 */\n      0x00\n        /* \"CertificateStorage.sol\":3392:3410  _certificateRLP[0] */\n      dup2\n      mload\n      dup2\n      lt\n      tag_64\n      jumpi\n      invalid\n    tag_64:\n      0x20\n      mul\n      0x20\n      add\n      add\n      mload\n        /* \"CertificateStorage.sol\":3392:3421  _certificateRLP[0].toRlpBytes */\n      tag_65\n        /* \"CertificateStorage.sol\":3392:3423  _certificateRLP[0].toRlpBytes() */\n      jump\t// in\n    tag_63:\n        /* \"CertificateStorage.sol\":3369:3384  _certificateObj */\n      dup4\n        /* \"CertificateStorage.sol\":3369:3389  _certificateObj.data */\n      0x00\n      add\n        /* \"CertificateStorage.sol\":3369:3423  _certificateObj.data = _certificateRLP[0].toRlpBytes() */\n      dup2\n      swap1\n      mstore\n      pop\n        /* \"CertificateStorage.sol\":3483:3498  PERSONAL_PREFIX */\n      mload(0x40)\n      dup1\n      0x40\n      add\n      0x40\n      mstore\n      dup1\n      0x1a\n      dup2\n      mstore\n      0x20\n      add\n      0x19457468657265756d205369676e6564204d6573736167653a0a000000000000\n      dup2\n      mstore\n      pop\n        /* \"CertificateStorage.sol\":3506:3546  getBytesStr(_certificateObj.data.length) */\n      tag_66\n        /* \"CertificateStorage.sol\":3518:3533  _certificateObj */\n      dup5\n        /* \"CertificateStorage.sol\":3518:3538  _certificateObj.data */\n      0x00\n      add\n      mload\n        /* \"CertificateStorage.sol\":3518:3545  _certificateObj.data.length */\n      mload\n        /* \"CertificateStorage.sol\":3506:3517  getBytesStr */\n      tag_67\n        /* \"CertificateStorage.sol\":3506:3546  getBytesStr(_certificateObj.data.length) */\n      jump\t// in\n    tag_66:\n        /* \"CertificateStorage.sol\":3554:3569  _certificateObj */\n      dup5\n        /* \"CertificateStorage.sol\":3554:3574  _certificateObj.data */\n      0x00\n      add\n      mload\n        /* \"CertificateStorage.sol\":3459:3580  abi.encodePacked(... */\n      add(0x20, mload(0x40))\n      tag_68\n      swap4\n      swap3\n      swap2\n      swap1\n      jump(tag_69)\n    tag_68:\n      mload(0x40)\n        /* \"--CODEGEN--\":49:53   */\n      0x20\n        /* \"--CODEGEN--\":39:46   */\n      dup2\n        /* \"--CODEGEN--\":30:37   */\n      dup4\n        /* \"--CODEGEN--\":26:47   */\n      sub\n        /* \"--CODEGEN--\":22:54   */\n      sub\n        /* \"--CODEGEN--\":13:20   */\n      dup2\n        /* \"--CODEGEN--\":6:55   */\n      mstore\n        /* \"CertificateStorage.sol\":3459:3580  abi.encodePacked(... */\n      swap1\n      0x40\n      mstore\n        /* \"CertificateStorage.sol\":3449:3581  keccak256(abi.encodePacked(... */\n      dup1\n      mload\n      swap1\n      0x20\n      add\n      keccak256\n        /* \"CertificateStorage.sol\":3430:3581  _certificateHash = keccak256(abi.encodePacked(... */\n      swap2\n      pop\n        /* \"CertificateStorage.sol\":3592:3601  uint256 i */\n      0x00\n        /* \"CertificateStorage.sol\":3604:3605  1 */\n      0x01\n        /* \"CertificateStorage.sol\":3592:3605  uint256 i = 1 */\n      swap1\n      pop\n        /* \"CertificateStorage.sol\":3588:4449  for(uint256 i = 1; i < _certificateRLP.length; i += 1) {... */\n    tag_70:\n        /* \"CertificateStorage.sol\":3611:3626  _certificateRLP */\n      dup2\n        /* \"CertificateStorage.sol\":3611:3633  _certificateRLP.length */\n      mload\n        /* \"CertificateStorage.sol\":3607:3608  i */\n      dup2\n        /* \"CertificateStorage.sol\":3607:3633  i < _certificateRLP.length */\n      lt\n        /* \"CertificateStorage.sol\":3588:4449  for(uint256 i = 1; i < _certificateRLP.length; i += 1) {... */\n      iszero\n      tag_71\n      jumpi\n        /* \"CertificateStorage.sol\":3651:3674  bytes memory _signature */\n      0x60\n        /* \"CertificateStorage.sol\":3677:3705  _certificateRLP[i].toBytes() */\n      tag_73\n        /* \"CertificateStorage.sol\":3677:3692  _certificateRLP */\n      dup4\n        /* \"CertificateStorage.sol\":3693:3694  i */\n      dup4\n        /* \"CertificateStorage.sol\":3677:3695  _certificateRLP[i] */\n      dup2\n      mload\n      dup2\n      lt\n      tag_74\n      jumpi\n      invalid\n    tag_74:\n      0x20\n      mul\n      0x20\n      add\n      add\n      mload\n        /* \"CertificateStorage.sol\":3677:3703  _certificateRLP[i].toBytes */\n      tag_75\n        /* \"CertificateStorage.sol\":3677:3705  _certificateRLP[i].toBytes() */\n      jump\t// in\n    tag_73:\n        /* \"CertificateStorage.sol\":3651:3705  bytes memory _signature = _certificateRLP[i].toBytes() */\n      swap1\n      pop\n        /* \"CertificateStorage.sol\":3714:3724  bytes32 _r */\n      0x00\n        /* \"CertificateStorage.sol\":3732:3742  bytes32 _s */\n      dup1\n        /* \"CertificateStorage.sol\":3750:3758  uint8 _v */\n      0x00\n        /* \"CertificateStorage.sol\":3818:3822  0x20 */\n      0x20\n        /* \"CertificateStorage.sol\":3806:3816  _signature */\n      dup5\n        /* \"CertificateStorage.sol\":3802:3823  add(_signature, 0x20) */\n      add\n        /* \"CertificateStorage.sol\":3844:3852  _pointer */\n      dup1\n        /* \"CertificateStorage.sol\":3838:3853  mload(_pointer) */\n      mload\n        /* \"CertificateStorage.sol\":3832:3853  _r := mload(_pointer) */\n      swap4\n      pop\n        /* \"CertificateStorage.sol\":3888:3892  0x20 */\n      0x20\n        /* \"CertificateStorage.sol\":3878:3886  _pointer */\n      dup2\n        /* \"CertificateStorage.sol\":3874:3893  add(_pointer, 0x20) */\n      add\n        /* \"CertificateStorage.sol\":3868:3894  mload(add(_pointer, 0x20)) */\n      mload\n        /* \"CertificateStorage.sol\":3862:3894  _s := mload(add(_pointer, 0x20)) */\n      swap3\n      pop\n        /* \"CertificateStorage.sol\":3937:3941  0x40 */\n      0x40\n        /* \"CertificateStorage.sol\":3927:3935  _pointer */\n      dup2\n        /* \"CertificateStorage.sol\":3923:3942  add(_pointer, 0x40) */\n      add\n        /* \"CertificateStorage.sol\":3917:3943  mload(add(_pointer, 0x40)) */\n      mload\n        /* \"CertificateStorage.sol\":3914:3915  0 */\n      0x00\n        /* \"CertificateStorage.sol\":3909:3944  byte(0, mload(add(_pointer, 0x40))) */\n      byte\n        /* \"CertificateStorage.sol\":3903:3944  _v := byte(0, mload(add(_pointer, 0x40))) */\n      swap2\n      pop\n        /* \"CertificateStorage.sol\":3963:3965  27 */\n      0x1b\n        /* \"CertificateStorage.sol\":3959:3961  _v */\n      dup3\n        /* \"CertificateStorage.sol\":3956:3966  lt(_v, 27) */\n      lt\n        /* \"CertificateStorage.sol\":3953:3955  if */\n      iszero\n      tag_76\n      jumpi\n        /* \"CertificateStorage.sol\":3983:3985  27 */\n      0x1b\n        /* \"CertificateStorage.sol\":3979:3981  _v */\n      dup3\n        /* \"CertificateStorage.sol\":3975:3986  add(_v, 27) */\n      add\n        /* \"CertificateStorage.sol\":3969:3986  _v := add(_v, 27) */\n      swap2\n      pop\n        /* \"CertificateStorage.sol\":3953:3955  if */\n    tag_76:\n        /* \"CertificateStorage.sol\":3776:3996  {... */\n      pop\n        /* \"CertificateStorage.sol\":4018:4020  27 */\n      0x1b\n        /* \"CertificateStorage.sol\":4012:4014  _v */\n      dup2\n        /* \"CertificateStorage.sol\":4012:4020  _v == 27 */\n      0xff\n      and\n      eq\n        /* \"CertificateStorage.sol\":4012:4032  _v == 27 || _v == 28 */\n      dup1\n      tag_77\n      jumpi\n      pop\n        /* \"CertificateStorage.sol\":4030:4032  28 */\n      0x1c\n        /* \"CertificateStorage.sol\":4024:4026  _v */\n      dup2\n        /* \"CertificateStorage.sol\":4024:4032  _v == 28 */\n      0xff\n      and\n      eq\n        /* \"CertificateStorage.sol\":4012:4032  _v == 27 || _v == 28 */\n    tag_77:\n        /* \"CertificateStorage.sol\":4004:4059  require(_v == 27 || _v == 28, 'invalid recovery value') */\n      tag_78\n      jumpi\n      mload(0x40)\n      0x08c379a000000000000000000000000000000000000000000000000000000000\n      dup2\n      mstore\n      0x04\n      add\n      tag_79\n      swap1\n      jump(tag_80)\n    tag_79:\n      mload(0x40)\n      dup1\n      swap2\n      sub\n      swap1\n      revert\n    tag_78:\n        /* \"CertificateStorage.sol\":4068:4083  address _signer */\n      0x00\n        /* \"CertificateStorage.sol\":4086:4125  ecrecover(_certificateHash, _v, _r, _s) */\n      0x01\n        /* \"CertificateStorage.sol\":4096:4112  _certificateHash */\n      dup9\n        /* \"CertificateStorage.sol\":4114:4116  _v */\n      dup4\n        /* \"CertificateStorage.sol\":4118:4120  _r */\n      dup7\n        /* \"CertificateStorage.sol\":4122:4124  _s */\n      dup7\n        /* \"CertificateStorage.sol\":4086:4125  ecrecover(_certificateHash, _v, _r, _s) */\n      mload(0x40)\n      0x00\n      dup2\n      mstore\n      0x20\n      add\n      0x40\n      mstore\n      mload(0x40)\n      tag_81\n      swap5\n      swap4\n      swap3\n      swap2\n      swap1\n      jump(tag_82)\n    tag_81:\n      0x20\n      mload(0x40)\n      0x20\n      dup2\n      sub\n      swap1\n      dup1\n      dup5\n      sub\n      swap1\n      dup6\n      gas\n      staticcall\n      iszero\n        /* \"--CODEGEN--\":8:17   */\n      dup1\n        /* \"--CODEGEN--\":5:7   */\n      iszero\n      tag_84\n      jumpi\n        /* \"--CODEGEN--\":45:61   */\n      returndatasize\n        /* \"--CODEGEN--\":42:43   */\n      0x00\n        /* \"--CODEGEN--\":39:40   */\n      dup1\n        /* \"--CODEGEN--\":24:62   */\n      returndatacopy\n        /* \"--CODEGEN--\":77:93   */\n      returndatasize\n        /* \"--CODEGEN--\":74:75   */\n      0x00\n        /* \"--CODEGEN--\":67:94   */\n      revert\n        /* \"--CODEGEN--\":5:7   */\n    tag_84:\n        /* \"CertificateStorage.sol\":4086:4125  ecrecover(_certificateHash, _v, _r, _s) */\n      pop\n      pop\n      pop\n      mload(sub(mload(0x40), 0x20))\n        /* \"CertificateStorage.sol\":4068:4125  address _signer = ecrecover(_certificateHash, _v, _r, _s) */\n      swap1\n      pop\n        /* \"CertificateStorage.sol\":4142:4193  checkUniqueSigner(_signer, _certificateObj.signers) */\n      tag_85\n        /* \"CertificateStorage.sol\":4160:4167  _signer */\n      dup2\n        /* \"CertificateStorage.sol\":4169:4184  _certificateObj */\n      dup11\n        /* \"CertificateStorage.sol\":4169:4192  _certificateObj.signers */\n      0x20\n      add\n      mload\n        /* \"CertificateStorage.sol\":4142:4159  checkUniqueSigner */\n      tag_86\n        /* \"CertificateStorage.sol\":4142:4193  checkUniqueSigner(_signer, _certificateObj.signers) */\n      jump\t// in\n    tag_85:\n        /* \"CertificateStorage.sol\":4134:4226  require(checkUniqueSigner(_signer, _certificateObj.signers), 'each signer should be unique') */\n      tag_87\n      jumpi\n      mload(0x40)\n      0x08c379a000000000000000000000000000000000000000000000000000000000\n      dup2\n      mstore\n      0x04\n      add\n      tag_88\n      swap1\n      jump(tag_89)\n    tag_88:\n      mload(0x40)\n      dup1\n      swap2\n      sub\n      swap1\n      revert\n    tag_87:\n        /* \"CertificateStorage.sol\":4238:4257  _allowedSignersOnly */\n      dup10\n        /* \"CertificateStorage.sol\":4235:4358  if(_allowedSignersOnly) {... */\n      iszero\n      tag_90\n      jumpi\n        /* \"CertificateStorage.sol\":4277:4298  certifyingAuthorities */\n      0x01\n        /* \"CertificateStorage.sol\":4277:4307  certifyingAuthorities[_signer] */\n      0x00\n        /* \"CertificateStorage.sol\":4299:4306  _signer */\n      dup3\n        /* \"CertificateStorage.sol\":4277:4307  certifyingAuthorities[_signer] */\n      0xffffffffffffffffffffffffffffffffffffffff\n      and\n      0xffffffffffffffffffffffffffffffffffffffff\n      and\n      dup2\n      mstore\n      0x20\n      add\n      swap1\n      dup2\n      mstore\n      0x20\n      add\n      0x00\n      keccak256\n        /* \"CertificateStorage.sol\":4277:4320  certifyingAuthorities[_signer].isAuthorised */\n      0x01\n      add\n      0x00\n      swap1\n      sload\n      swap1\n      0x0100\n      exp\n      swap1\n      div\n      0xff\n      and\n        /* \"CertificateStorage.sol\":4269:4349  require(certifyingAuthorities[_signer].isAuthorised, 'certifier not authorised') */\n      tag_91\n      jumpi\n      mload(0x40)\n      0x08c379a000000000000000000000000000000000000000000000000000000000\n      dup2\n      mstore\n      0x04\n      add\n      tag_92\n      swap1\n      jump(tag_93)\n    tag_92:\n      mload(0x40)\n      dup1\n      swap2\n      sub\n      swap1\n      revert\n    tag_91:\n        /* \"CertificateStorage.sol\":4235:4358  if(_allowedSignersOnly) {... */\n    tag_90:\n        /* \"CertificateStorage.sol\":4409:4424  _certificateObj */\n      dup9\n        /* \"CertificateStorage.sol\":4409:4432  _certificateObj.signers */\n      0x20\n      add\n      mload\n        /* \"CertificateStorage.sol\":4434:4441  _signer */\n      dup2\n        /* \"CertificateStorage.sol\":4392:4442  abi.encodePacked(_certificateObj.signers, _signer) */\n      add(0x20, mload(0x40))\n      tag_94\n      swap3\n      swap2\n      swap1\n      jump(tag_95)\n    tag_94:\n      mload(0x40)\n        /* \"--CODEGEN--\":49:53   */\n      0x20\n        /* \"--CODEGEN--\":39:46   */\n      dup2\n        /* \"--CODEGEN--\":30:37   */\n      dup4\n        /* \"--CODEGEN--\":26:47   */\n      sub\n        /* \"--CODEGEN--\":22:54   */\n      sub\n        /* \"--CODEGEN--\":13:20   */\n      dup2\n        /* \"--CODEGEN--\":6:55   */\n      mstore\n        /* \"CertificateStorage.sol\":4392:4442  abi.encodePacked(_certificateObj.signers, _signer) */\n      swap1\n      0x40\n      mstore\n        /* \"CertificateStorage.sol\":4366:4381  _certificateObj */\n      dup10\n        /* \"CertificateStorage.sol\":4366:4389  _certificateObj.signers */\n      0x20\n      add\n        /* \"CertificateStorage.sol\":4366:4442  _certificateObj.signers = abi.encodePacked(_certificateObj.signers, _signer) */\n      dup2\n      swap1\n      mstore\n      pop\n        /* \"CertificateStorage.sol\":3588:4449  for(uint256 i = 1; i < _certificateRLP.length; i += 1) {... */\n      pop\n      pop\n      pop\n      pop\n      pop\n        /* \"CertificateStorage.sol\":3640:3641  1 */\n      0x01\n        /* \"CertificateStorage.sol\":3635:3641  i += 1 */\n      dup2\n      add\n      swap1\n      pop\n        /* \"CertificateStorage.sol\":3588:4449  for(uint256 i = 1; i < _certificateRLP.length; i += 1) {... */\n      jump(tag_70)\n    tag_71:\n      pop\n        /* \"CertificateStorage.sol\":3080:4453  function parseSignedCertificate(... */\n      pop\n      swap3\n      pop\n      swap3\n      swap1\n      pop\n      jump\t// out\n        /* \"StorageStructure.sol\":341:363  address public manager */\n    tag_20:\n      0x02\n      0x00\n      swap1\n      sload\n      swap1\n      0x0100\n      exp\n      swap1\n      div\n      0xffffffffffffffffffffffffffffffffffffffff\n      and\n      dup2\n      jump\t// out\n        /* \"StorageStructure.sol\":268:336  mapping(address => CertifyingAuthority) public certifyingAuthorities */\n    tag_26:\n      mstore(0x20, 0x01)\n      dup1\n      0x00\n      mstore\n      keccak256(0x00, 0x40)\n      0x00\n      swap2\n      pop\n      swap1\n      pop\n      dup1\n      0x00\n      add\n      dup1\n      sload\n      0x01\n      dup2\n      0x01\n      and\n      iszero\n      0x0100\n      mul\n      sub\n      and\n      0x02\n      swap1\n      div\n      dup1\n      0x1f\n      add\n      0x20\n      dup1\n      swap2\n      div\n      mul\n      0x20\n      add\n      mload(0x40)\n      swap1\n      dup2\n      add\n      0x40\n      mstore\n      dup1\n      swap3\n      swap2\n      swap1\n      dup2\n      dup2\n      mstore\n      0x20\n      add\n      dup3\n      dup1\n      sload\n      0x01\n      dup2\n      0x01\n      and\n      iszero\n      0x0100\n      mul\n      sub\n      and\n      0x02\n      swap1\n      div\n      dup1\n      iszero\n      tag_96\n      jumpi\n      dup1\n      0x1f\n      lt\n      tag_97\n      jumpi\n      0x0100\n      dup1\n      dup4\n      sload\n      div\n      mul\n      dup4\n      mstore\n      swap2\n      0x20\n      add\n      swap2\n      jump(tag_96)\n    tag_97:\n      dup3\n      add\n      swap2\n      swap1\n      0x00\n      mstore\n      keccak256(0x00, 0x20)\n      swap1\n    tag_98:\n      dup2\n      sload\n      dup2\n      mstore\n      swap1\n      0x01\n      add\n      swap1\n      0x20\n      add\n      dup1\n      dup4\n      gt\n      tag_98\n      jumpi\n      dup3\n      swap1\n      sub\n      0x1f\n      and\n      dup3\n      add\n      swap2\n    tag_96:\n      pop\n      pop\n      pop\n      pop\n      pop\n      swap1\n      dup1\n      0x01\n      add\n      0x00\n      swap1\n      sload\n      swap1\n      0x0100\n      exp\n      swap1\n      div\n      0xff\n      and\n      swap1\n      dup1\n      0x01\n      add\n      0x01\n      swap1\n      sload\n      swap1\n      0x0100\n      exp\n      swap1\n      div\n      0xff\n      and\n      swap1\n      pop\n      dup4\n      jump\t// out\n        /* \"StorageStructure.sol\":213:264  mapping(bytes32 => Certificate) public certificates */\n    tag_32:\n      mstore(0x20, 0x00)\n      dup1\n      0x00\n      mstore\n      keccak256(0x00, 0x40)\n      0x00\n      swap2\n      pop\n      swap1\n      pop\n      dup1\n      0x00\n      add\n      dup1\n      sload\n      0x01\n      dup2\n      0x01\n      and\n      iszero\n      0x0100\n      mul\n      sub\n      and\n      0x02\n      swap1\n      div\n      dup1\n      0x1f\n      add\n      0x20\n      dup1\n      swap2\n      div\n      mul\n      0x20\n      add\n      mload(0x40)\n      swap1\n      dup2\n      add\n      0x40\n      mstore\n      dup1\n      swap3\n      swap2\n      swap1\n      dup2\n      dup2\n      mstore\n      0x20\n      add\n      dup3\n      dup1\n      sload\n      0x01\n      dup2\n      0x01\n      and\n      iszero\n      0x0100\n      mul\n      sub\n      and\n      0x02\n      swap1\n      div\n      dup1\n      iszero\n      tag_99\n      jumpi\n      dup1\n      0x1f\n      lt\n      tag_100\n      jumpi\n      0x0100\n      dup1\n      dup4\n      sload\n      div\n      mul\n      dup4\n      mstore\n      swap2\n      0x20\n      add\n      swap2\n      jump(tag_99)\n    tag_100:\n      dup3\n      add\n      swap2\n      swap1\n      0x00\n      mstore\n      keccak256(0x00, 0x20)\n      swap1\n    tag_101:\n      dup2\n      sload\n      dup2\n      mstore\n      swap1\n      0x01\n      add\n      swap1\n      0x20\n      add\n      dup1\n      dup4\n      gt\n      tag_101\n      jumpi\n      dup3\n      swap1\n      sub\n      0x1f\n      and\n      dup3\n      add\n      swap2\n    tag_99:\n      pop\n      pop\n      pop\n      pop\n      pop\n      swap1\n      dup1\n      0x01\n      add\n      dup1\n      sload\n      0x01\n      dup2\n      0x01\n      and\n      iszero\n      0x0100\n      mul\n      sub\n      and\n      0x02\n      swap1\n      div\n      dup1\n      0x1f\n      add\n      0x20\n      dup1\n      swap2\n      div\n      mul\n      0x20\n      add\n      mload(0x40)\n      swap1\n      dup2\n      add\n      0x40\n      mstore\n      dup1\n      swap3\n      swap2\n      swap1\n      dup2\n      dup2\n      mstore\n      0x20\n      add\n      dup3\n      dup1\n      sload\n      0x01\n      dup2\n      0x01\n      and\n      iszero\n      0x0100\n      mul\n      sub\n      and\n      0x02\n      swap1\n      div\n      dup1\n      iszero\n      tag_102\n      jumpi\n      dup1\n      0x1f\n      lt\n      tag_103\n      jumpi\n      0x0100\n      dup1\n      dup4\n      sload\n      div\n      mul\n      dup4\n      mstore\n      swap2\n      0x20\n      add\n      swap2\n      jump(tag_102)\n    tag_103:\n      dup3\n      add\n      swap2\n      swap1\n      0x00\n      mstore\n      keccak256(0x00, 0x20)\n      swap1\n    tag_104:\n      dup2\n      sload\n      dup2\n      mstore\n      swap1\n      0x01\n      add\n      swap1\n      0x20\n      add\n      dup1\n      dup4\n      gt\n      tag_104\n      jumpi\n      dup3\n      swap1\n      sub\n      0x1f\n      and\n      dup3\n      add\n      swap2\n    tag_102:\n      pop\n      pop\n      pop\n      pop\n      pop\n      swap1\n      pop\n      dup3\n      jump\t// out\n        /* \"CertificateStorage.sol\":935:1041  function newManager(address _newManagerAddress) public onlyManager {... */\n    tag_37:\n        /* \"StorageStructure.sol\":793:800  manager */\n      0x02\n      0x00\n      swap1\n      sload\n      swap1\n      0x0100\n      exp\n      swap1\n      div\n      0xffffffffffffffffffffffffffffffffffffffff\n      and\n        /* \"StorageStructure.sol\":779:800  msg.sender == manager */\n      0xffffffffffffffffffffffffffffffffffffffff\n      and\n        /* \"StorageStructure.sol\":779:789  msg.sender */\n      caller\n        /* \"StorageStructure.sol\":779:800  msg.sender == manager */\n      0xffffffffffffffffffffffffffffffffffffffff\n      and\n      eq\n        /* \"StorageStructure.sol\":771:826  require(msg.sender == manager, 'only manager can call') */\n      tag_106\n      jumpi\n      mload(0x40)\n      0x08c379a000000000000000000000000000000000000000000000000000000000\n      dup2\n      mstore\n      0x04\n      add\n      tag_107\n      swap1\n      jump(tag_108)\n    tag_107:\n      mload(0x40)\n      dup1\n      swap2\n      sub\n      swap1\n      revert\n    tag_106:\n        /* \"CertificateStorage.sol\":1018:1036  _newManagerAddress */\n      dup1\n        /* \"CertificateStorage.sol\":1008:1015  manager */\n      0x02\n      0x00\n        /* \"CertificateStorage.sol\":1008:1036  manager = _newManagerAddress */\n      0x0100\n      exp\n      dup2\n      sload\n      dup2\n      0xffffffffffffffffffffffffffffffffffffffff\n      mul\n      not\n      and\n      swap1\n      dup4\n      0xffffffffffffffffffffffffffffffffffffffff\n      and\n      mul\n      or\n      swap1\n      sstore\n      pop\n        /* \"CertificateStorage.sol\":935:1041  function newManager(address _newManagerAddress) public onlyManager {... */\n      pop\n      jump\t// out\n        /* \"StorageStructure.sol\":370:442  bytes constant public PERSONAL_PREFIX = \"\\x19Ethereum Signed Message:\\n\" */\n    tag_39:\n      mload(0x40)\n      dup1\n      0x40\n      add\n      0x40\n      mstore\n      dup1\n      0x1a\n      dup2\n      mstore\n      0x20\n      add\n      0x19457468657265756d205369676e6564204d6573736167653a0a000000000000\n      dup2\n      mstore\n      pop\n      dup2\n      jump\t// out\n        /* \"CertificateStorage.sol\":1500:3076  function registerCertificate(... */\n    tag_45:\n        /* \"CertificateStorage.sol\":1591:1598  bytes32 */\n      0x00\n        /* \"CertificateStorage.sol\":1834:1868  Certificate memory _certificateObj */\n      tag_111\n      tag_57\n      jump\t// in\n    tag_111:\n        /* \"CertificateStorage.sol\":1870:1894  bytes32 _certificateHash */\n      0x00\n        /* \"CertificateStorage.sol\":1898:1946  parseSignedCertificate(_signedCertificate, true) */\n      tag_112\n        /* \"CertificateStorage.sol\":1921:1939  _signedCertificate */\n      dup5\n        /* \"CertificateStorage.sol\":1941:1945  true */\n      0x01\n        /* \"CertificateStorage.sol\":1898:1920  parseSignedCertificate */\n      tag_16\n        /* \"CertificateStorage.sol\":1898:1946  parseSignedCertificate(_signedCertificate, true) */\n      jump\t// in\n    tag_112:\n        /* \"CertificateStorage.sol\":1833:1946  (Certificate memory _certificateObj, bytes32 _certificateHash) = parseSignedCertificate(_signedCertificate, true) */\n      swap2\n      pop\n      swap2\n      pop\n        /* \"CertificateStorage.sol\":2125:2149  bytes memory _newSigners */\n      0x60\n        /* \"CertificateStorage.sol\":2152:2167  _certificateObj */\n      dup3\n        /* \"CertificateStorage.sol\":2152:2175  _certificateObj.signers */\n      0x20\n      add\n      mload\n        /* \"CertificateStorage.sol\":2125:2175  bytes memory _newSigners = _certificateObj.signers */\n      swap1\n      pop\n        /* \"CertificateStorage.sol\":2257:2285  bytes memory _updatedSigners */\n      0x60\n        /* \"CertificateStorage.sol\":2288:2300  certificates */\n      0x00\n        /* \"CertificateStorage.sol\":2288:2318  certificates[_certificateHash] */\n      dup1\n        /* \"CertificateStorage.sol\":2301:2317  _certificateHash */\n      dup5\n        /* \"CertificateStorage.sol\":2288:2318  certificates[_certificateHash] */\n      dup2\n      mstore\n      0x20\n      add\n      swap1\n      dup2\n      mstore\n      0x20\n      add\n      0x00\n      keccak256\n        /* \"CertificateStorage.sol\":2288:2326  certificates[_certificateHash].signers */\n      0x01\n      add\n        /* \"CertificateStorage.sol\":2257:2326  bytes memory _updatedSigners = certificates[_certificateHash].signers */\n      dup1\n      sload\n      0x01\n      dup2\n      0x01\n      and\n      iszero\n      0x0100\n      mul\n      sub\n      and\n      0x02\n      swap1\n      div\n      dup1\n      0x1f\n      add\n      0x20\n      dup1\n      swap2\n      div\n      mul\n      0x20\n      add\n      mload(0x40)\n      swap1\n      dup2\n      add\n      0x40\n      mstore\n      dup1\n      swap3\n      swap2\n      swap1\n      dup2\n      dup2\n      mstore\n      0x20\n      add\n      dup3\n      dup1\n      sload\n      0x01\n      dup2\n      0x01\n      and\n      iszero\n      0x0100\n      mul\n      sub\n      and\n      0x02\n      swap1\n      div\n      dup1\n      iszero\n      tag_113\n      jumpi\n      dup1\n      0x1f\n      lt\n      tag_114\n      jumpi\n      0x0100\n      dup1\n      dup4\n      sload\n      div\n      mul\n      dup4\n      mstore\n      swap2\n      0x20\n      add\n      swap2\n      jump(tag_113)\n    tag_114:\n      dup3\n      add\n      swap2\n      swap1\n      0x00\n      mstore\n      keccak256(0x00, 0x20)\n      swap1\n    tag_115:\n      dup2\n      sload\n      dup2\n      mstore\n      swap1\n      0x01\n      add\n      swap1\n      0x20\n      add\n      dup1\n      dup4\n      gt\n      tag_115\n      jumpi\n      dup3\n      swap1\n      sub\n      0x1f\n      and\n      dup3\n      add\n      swap2\n    tag_113:\n      pop\n      pop\n      pop\n      pop\n      pop\n      swap1\n      pop\n        /* \"CertificateStorage.sol\":2337:2346  uint256 i */\n      0x00\n        /* \"CertificateStorage.sol\":2349:2350  0 */\n      dup1\n        /* \"CertificateStorage.sol\":2337:2350  uint256 i = 0 */\n      swap1\n      pop\n        /* \"CertificateStorage.sol\":2333:2735  for(uint256 i = 0; i < _newSigners.length; i += 20) {... */\n    tag_116:\n        /* \"CertificateStorage.sol\":2356:2367  _newSigners */\n      dup3\n        /* \"CertificateStorage.sol\":2356:2374  _newSigners.length */\n      mload\n        /* \"CertificateStorage.sol\":2352:2353  i */\n      dup2\n        /* \"CertificateStorage.sol\":2352:2374  i < _newSigners.length */\n      lt\n        /* \"CertificateStorage.sol\":2333:2735  for(uint256 i = 0; i < _newSigners.length; i += 20) {... */\n      iszero\n      tag_117\n      jumpi\n        /* \"CertificateStorage.sol\":2393:2408  address _signer */\n      0x00\n        /* \"CertificateStorage.sol\":2479:2480  i */\n      dup2\n        /* \"CertificateStorage.sol\":2473:2477  0x14 */\n      0x14\n        /* \"CertificateStorage.sol\":2469:2481  add(0x14, i) */\n      add\n        /* \"CertificateStorage.sol\":2456:2467  _newSigners */\n      dup5\n        /* \"CertificateStorage.sol\":2452:2482  add(_newSigners, add(0x14, i)) */\n      add\n        /* \"CertificateStorage.sol\":2446:2483  mload(add(_newSigners, add(0x14, i))) */\n      mload\n        /* \"CertificateStorage.sol\":2435:2483  _signer := mload(add(_newSigners, add(0x14, i))) */\n      swap1\n      pop\n        /* \"CertificateStorage.sol\":2501:2567  checkUniqueSigner(_signer, certificates[_certificateHash].signers) */\n      tag_119\n        /* \"CertificateStorage.sol\":2519:2526  _signer */\n      dup2\n        /* \"CertificateStorage.sol\":2528:2540  certificates */\n      0x00\n        /* \"CertificateStorage.sol\":2528:2558  certificates[_certificateHash] */\n      dup1\n        /* \"CertificateStorage.sol\":2541:2557  _certificateHash */\n      dup9\n        /* \"CertificateStorage.sol\":2528:2558  certificates[_certificateHash] */\n      dup2\n      mstore\n      0x20\n      add\n      swap1\n      dup2\n      mstore\n      0x20\n      add\n      0x00\n      keccak256\n        /* \"CertificateStorage.sol\":2528:2566  certificates[_certificateHash].signers */\n      0x01\n      add\n        /* \"CertificateStorage.sol\":2501:2567  checkUniqueSigner(_signer, certificates[_certificateHash].signers) */\n      dup1\n      sload\n      0x01\n      dup2\n      0x01\n      and\n      iszero\n      0x0100\n      mul\n      sub\n      and\n      0x02\n      swap1\n      div\n      dup1\n      0x1f\n      add\n      0x20\n      dup1\n      swap2\n      div\n      mul\n      0x20\n      add\n      mload(0x40)\n      swap1\n      dup2\n      add\n      0x40\n      mstore\n      dup1\n      swap3\n      swap2\n      swap1\n      dup2\n      dup2\n      mstore\n      0x20\n      add\n      dup3\n      dup1\n      sload\n      0x01\n      dup2\n      0x01\n      and\n      iszero\n      0x0100\n      mul\n      sub\n      and\n      0x02\n      swap1\n      div\n      dup1\n      iszero\n      tag_120\n      jumpi\n      dup1\n      0x1f\n      lt\n      tag_121\n      jumpi\n      0x0100\n      dup1\n      dup4\n      sload\n      div\n      mul\n      dup4\n      mstore\n      swap2\n      0x20\n      add\n      swap2\n      jump(tag_120)\n    tag_121:\n      dup3\n      add\n      swap2\n      swap1\n      0x00\n      mstore\n      keccak256(0x00, 0x20)\n      swap1\n    tag_122:\n      dup2\n      sload\n      dup2\n      mstore\n      swap1\n      0x01\n      add\n      swap1\n      0x20\n      add\n      dup1\n      dup4\n      gt\n      tag_122\n      jumpi\n      dup3\n      swap1\n      sub\n      0x1f\n      and\n      dup3\n      add\n      swap2\n    tag_120:\n      pop\n      pop\n      pop\n      pop\n      pop\n        /* \"CertificateStorage.sol\":2501:2518  checkUniqueSigner */\n      tag_86\n        /* \"CertificateStorage.sol\":2501:2567  checkUniqueSigner(_signer, certificates[_certificateHash].signers) */\n      jump\t// in\n    tag_119:\n        /* \"CertificateStorage.sol\":2498:2729  if(checkUniqueSigner(_signer, certificates[_certificateHash].signers)) {... */\n      iszero\n      tag_123\n      jumpi\n        /* \"CertificateStorage.sol\":2614:2629  _updatedSigners */\n      dup3\n        /* \"CertificateStorage.sol\":2631:2638  _signer */\n      dup2\n        /* \"CertificateStorage.sol\":2597:2639  abi.encodePacked(_updatedSigners, _signer) */\n      add(0x20, mload(0x40))\n      tag_124\n      swap3\n      swap2\n      swap1\n      jump(tag_125)\n    tag_124:\n      mload(0x40)\n        /* \"--CODEGEN--\":49:53   */\n      0x20\n        /* \"--CODEGEN--\":39:46   */\n      dup2\n        /* \"--CODEGEN--\":30:37   */\n      dup4\n        /* \"--CODEGEN--\":26:47   */\n      sub\n        /* \"--CODEGEN--\":22:54   */\n      sub\n        /* \"--CODEGEN--\":13:20   */\n      dup2\n        /* \"--CODEGEN--\":6:55   */\n      mstore\n        /* \"CertificateStorage.sol\":2597:2639  abi.encodePacked(_updatedSigners, _signer) */\n      swap1\n      0x40\n      mstore\n        /* \"CertificateStorage.sol\":2579:2639  _updatedSigners = abi.encodePacked(_updatedSigners, _signer) */\n      swap3\n      pop\n        /* \"CertificateStorage.sol\":2703:2710  _signer */\n      dup1\n        /* \"CertificateStorage.sol\":2654:2720  Certified(... */\n      0xffffffffffffffffffffffffffffffffffffffff\n      and\n        /* \"CertificateStorage.sol\":2675:2691  _certificateHash */\n      dup6\n        /* \"CertificateStorage.sol\":2654:2720  Certified(... */\n      0x4007dee9068a7e16aba143c1861d9cb75f2be4b83ef76ae2c602a2c301398cf7\n      mload(0x40)\n      mload(0x40)\n      dup1\n      swap2\n      sub\n      swap1\n      log3\n        /* \"CertificateStorage.sol\":2498:2729  if(checkUniqueSigner(_signer, certificates[_certificateHash].signers)) {... */\n    tag_123:\n        /* \"CertificateStorage.sol\":2333:2735  for(uint256 i = 0; i < _newSigners.length; i += 20) {... */\n      pop\n        /* \"CertificateStorage.sol\":2381:2383  20 */\n      0x14\n        /* \"CertificateStorage.sol\":2376:2383  i += 20 */\n      dup2\n      add\n      swap1\n      pop\n        /* \"CertificateStorage.sol\":2333:2735  for(uint256 i = 0; i < _newSigners.length; i += 20) {... */\n      jump(tag_116)\n    tag_117:\n      pop\n        /* \"CertificateStorage.sol\":2792:2793  0 */\n      0x00\n        /* \"CertificateStorage.sol\":2744:2756  certificates */\n      dup1\n        /* \"CertificateStorage.sol\":2744:2774  certificates[_certificateHash] */\n      0x00\n        /* \"CertificateStorage.sol\":2757:2773  _certificateHash */\n      dup6\n        /* \"CertificateStorage.sol\":2744:2774  certificates[_certificateHash] */\n      dup2\n      mstore\n      0x20\n      add\n      swap1\n      dup2\n      mstore\n      0x20\n      add\n      0x00\n      keccak256\n        /* \"CertificateStorage.sol\":2744:2782  certificates[_certificateHash].signers */\n      0x01\n      add\n        /* \"CertificateStorage.sol\":2744:2789  certificates[_certificateHash].signers.length */\n      dup1\n      sload\n      0x01\n      dup2\n      0x01\n      and\n      iszero\n      0x0100\n      mul\n      sub\n      and\n      0x02\n      swap1\n      div\n      swap1\n      pop\n        /* \"CertificateStorage.sol\":2744:2793  certificates[_certificateHash].signers.length > 0 */\n      gt\n        /* \"CertificateStorage.sol\":2741:3042  if(certificates[_certificateHash].signers.length > 0) {... */\n      iszero\n      tag_126\n      jumpi\n        /* \"CertificateStorage.sol\":2836:2848  certificates */\n      0x00\n        /* \"CertificateStorage.sol\":2836:2866  certificates[_certificateHash] */\n      dup1\n        /* \"CertificateStorage.sol\":2849:2865  _certificateHash */\n      dup5\n        /* \"CertificateStorage.sol\":2836:2866  certificates[_certificateHash] */\n      dup2\n      mstore\n      0x20\n      add\n      swap1\n      dup2\n      mstore\n      0x20\n      add\n      0x00\n      keccak256\n        /* \"CertificateStorage.sol\":2836:2874  certificates[_certificateHash].signers */\n      0x01\n      add\n        /* \"CertificateStorage.sol\":2836:2881  certificates[_certificateHash].signers.length */\n      dup1\n      sload\n      0x01\n      dup2\n      0x01\n      and\n      iszero\n      0x0100\n      mul\n      sub\n      and\n      0x02\n      swap1\n      div\n      swap1\n      pop\n        /* \"CertificateStorage.sol\":2811:2826  _updatedSigners */\n      dup2\n        /* \"CertificateStorage.sol\":2811:2833  _updatedSigners.length */\n      mload\n        /* \"CertificateStorage.sol\":2811:2881  _updatedSigners.length > certificates[_certificateHash].signers.length */\n      gt\n        /* \"CertificateStorage.sol\":2803:2902  require(_updatedSigners.length > certificates[_certificateHash].signers.length, 'need new signers') */\n      tag_127\n      jumpi\n      mload(0x40)\n      0x08c379a000000000000000000000000000000000000000000000000000000000\n      dup2\n      mstore\n      0x04\n      add\n      tag_128\n      swap1\n      jump(tag_129)\n    tag_128:\n      mload(0x40)\n      dup1\n      swap2\n      sub\n      swap1\n      revert\n    tag_127:\n        /* \"CertificateStorage.sol\":2951:2966  _updatedSigners */\n      dup1\n        /* \"CertificateStorage.sol\":2910:2922  certificates */\n      0x00\n        /* \"CertificateStorage.sol\":2910:2940  certificates[_certificateHash] */\n      dup1\n        /* \"CertificateStorage.sol\":2923:2939  _certificateHash */\n      dup6\n        /* \"CertificateStorage.sol\":2910:2940  certificates[_certificateHash] */\n      dup2\n      mstore\n      0x20\n      add\n      swap1\n      dup2\n      mstore\n      0x20\n      add\n      0x00\n      keccak256\n        /* \"CertificateStorage.sol\":2910:2948  certificates[_certificateHash].signers */\n      0x01\n      add\n        /* \"CertificateStorage.sol\":2910:2966  certificates[_certificateHash].signers = _updatedSigners */\n      swap1\n      dup1\n      mload\n      swap1\n      0x20\n      add\n      swap1\n      tag_130\n      swap3\n      swap2\n      swap1\n      tag_131\n      jump\t// in\n    tag_130:\n      pop\n        /* \"CertificateStorage.sol\":2741:3042  if(certificates[_certificateHash].signers.length > 0) {... */\n      jump(tag_132)\n    tag_126:\n        /* \"CertificateStorage.sol\":3020:3035  _certificateObj */\n      dup4\n        /* \"CertificateStorage.sol\":2987:2999  certificates */\n      0x00\n        /* \"CertificateStorage.sol\":2987:3017  certificates[_certificateHash] */\n      dup1\n        /* \"CertificateStorage.sol\":3000:3016  _certificateHash */\n      dup6\n        /* \"CertificateStorage.sol\":2987:3017  certificates[_certificateHash] */\n      dup2\n      mstore\n      0x20\n      add\n      swap1\n      dup2\n      mstore\n      0x20\n      add\n      0x00\n      keccak256\n        /* \"CertificateStorage.sol\":2987:3035  certificates[_certificateHash] = _certificateObj */\n      0x00\n      dup3\n      add\n      mload\n      dup2\n      0x00\n      add\n      swap1\n      dup1\n      mload\n      swap1\n      0x20\n      add\n      swap1\n      tag_133\n      swap3\n      swap2\n      swap1\n      tag_134\n      jump\t// in\n    tag_133:\n      pop\n      0x20\n      dup3\n      add\n      mload\n      dup2\n      0x01\n      add\n      swap1\n      dup1\n      mload\n      swap1\n      0x20\n      add\n      swap1\n      tag_135\n      swap3\n      swap2\n      swap1\n      tag_134\n      jump\t// in\n    tag_135:\n      pop\n      swap1\n      pop\n      pop\n        /* \"CertificateStorage.sol\":2741:3042  if(certificates[_certificateHash].signers.length > 0) {... */\n    tag_132:\n        /* \"CertificateStorage.sol\":3055:3071  _certificateHash */\n      dup3\n        /* \"CertificateStorage.sol\":3048:3071  return _certificateHash */\n      swap5\n      pop\n      pop\n      pop\n      pop\n      pop\n        /* \"CertificateStorage.sol\":1500:3076  function registerCertificate(... */\n      swap2\n      swap1\n      pop\n      jump\t// out\n        /* \"CertificateStorage.sol\":633:931  function addCertifyingAuthority(address _authorityAddress, bytes memory _name) public onlyManager {... */\n    tag_51:\n        /* \"StorageStructure.sol\":793:800  manager */\n      0x02\n      0x00\n      swap1\n      sload\n      swap1\n      0x0100\n      exp\n      swap1\n      div\n      0xffffffffffffffffffffffffffffffffffffffff\n      and\n        /* \"StorageStructure.sol\":779:800  msg.sender == manager */\n      0xffffffffffffffffffffffffffffffffffffffff\n      and\n        /* \"StorageStructure.sol\":779:789  msg.sender */\n      caller\n        /* \"StorageStructure.sol\":779:800  msg.sender == manager */\n      0xffffffffffffffffffffffffffffffffffffffff\n      and\n      eq\n        /* \"StorageStructure.sol\":771:826  require(msg.sender == manager, 'only manager can call') */\n      tag_137\n      jumpi\n      mload(0x40)\n      0x08c379a000000000000000000000000000000000000000000000000000000000\n      dup2\n      mstore\n      0x04\n      add\n      tag_138\n      swap1\n      jump(tag_108)\n    tag_138:\n      mload(0x40)\n      dup1\n      swap2\n      sub\n      swap1\n      revert\n    tag_137:\n        /* \"CertificateStorage.sol\":780:877  CertifyingAuthority({... */\n      mload(0x40)\n      dup1\n      0x60\n      add\n      0x40\n      mstore\n      dup1\n        /* \"CertificateStorage.sol\":814:819  _name */\n      dup3\n        /* \"CertificateStorage.sol\":780:877  CertifyingAuthority({... */\n      dup2\n      mstore\n      0x20\n      add\n        /* \"CertificateStorage.sol\":841:845  true */\n      0x01\n        /* \"CertificateStorage.sol\":780:877  CertifyingAuthority({... */\n      iszero\n      iszero\n      dup2\n      mstore\n      0x20\n      add\n        /* \"CertificateStorage.sol\":865:870  false */\n      0x00\n        /* \"CertificateStorage.sol\":780:877  CertifyingAuthority({... */\n      iszero\n      iszero\n      dup2\n      mstore\n      pop\n        /* \"CertificateStorage.sol\":737:758  certifyingAuthorities */\n      0x01\n        /* \"CertificateStorage.sol\":737:777  certifyingAuthorities[_authorityAddress] */\n      0x00\n        /* \"CertificateStorage.sol\":759:776  _authorityAddress */\n      dup5\n        /* \"CertificateStorage.sol\":737:777  certifyingAuthorities[_authorityAddress] */\n      0xffffffffffffffffffffffffffffffffffffffff\n      and\n      0xffffffffffffffffffffffffffffffffffffffff\n      and\n      dup2\n      mstore\n      0x20\n      add\n      swap1\n      dup2\n      mstore\n      0x20\n      add\n      0x00\n      keccak256\n        /* \"CertificateStorage.sol\":737:877  certifyingAuthorities[_authorityAddress] = CertifyingAuthority({... */\n      0x00\n      dup3\n      add\n      mload\n      dup2\n      0x00\n      add\n      swap1\n      dup1\n      mload\n      swap1\n      0x20\n      add\n      swap1\n      tag_140\n      swap3\n      swap2\n      swap1\n      tag_134\n      jump\t// in\n    tag_140:\n      pop\n      0x20\n      dup3\n      add\n      mload\n      dup2\n      0x01\n      add\n      exp(0x0100, 0x00)\n      dup2\n      sload\n      dup2\n      0xff\n      mul\n      not\n      and\n      swap1\n      dup4\n      iszero\n      iszero\n      mul\n      or\n      swap1\n      sstore\n      pop\n      0x40\n      dup3\n      add\n      mload\n      dup2\n      0x01\n      add\n      exp(0x0100, 0x01)\n      dup2\n      sload\n      dup2\n      0xff\n      mul\n      not\n      and\n      swap1\n      dup4\n      iszero\n      iszero\n      mul\n      or\n      swap1\n      sstore\n      pop\n      swap1\n      pop\n      pop\n        /* \"CertificateStorage.sol\":902:919  _authorityAddress */\n      dup2\n        /* \"CertificateStorage.sol\":888:926  Authorization(_authorityAddress, true) */\n      0xffffffffffffffffffffffffffffffffffffffff\n      and\n      0x71b03471b324bbcc7546b2626d0407dbb70a61e5e77c56214352d9c12893933f\n        /* \"CertificateStorage.sol\":921:925  true */\n      0x01\n        /* \"CertificateStorage.sol\":888:926  Authorization(_authorityAddress, true) */\n      mload(0x40)\n      tag_141\n      swap2\n      swap1\n      jump(tag_142)\n    tag_141:\n      mload(0x40)\n      dup1\n      swap2\n      sub\n      swap1\n      log2\n        /* \"CertificateStorage.sol\":633:931  function addCertifyingAuthority(address _authorityAddress, bytes memory _name) public onlyManager {... */\n      pop\n      pop\n      jump\t// out\n        /* \"CertificateStorage.sol\":1045:1245  function updateCertifyingAuthorityAuthorization(... */\n    tag_55:\n        /* \"StorageStructure.sol\":793:800  manager */\n      0x02\n      0x00\n      swap1\n      sload\n      swap1\n      0x0100\n      exp\n      swap1\n      div\n      0xffffffffffffffffffffffffffffffffffffffff\n      and\n        /* \"StorageStructure.sol\":779:800  msg.sender == manager */\n      0xffffffffffffffffffffffffffffffffffffffff\n      and\n        /* \"StorageStructure.sol\":779:789  msg.sender */\n      caller\n        /* \"StorageStructure.sol\":779:800  msg.sender == manager */\n      0xffffffffffffffffffffffffffffffffffffffff\n      and\n      eq\n        /* \"StorageStructure.sol\":771:826  require(msg.sender == manager, 'only manager can call') */\n      tag_144\n      jumpi\n      mload(0x40)\n      0x08c379a000000000000000000000000000000000000000000000000000000000\n      dup2\n      mstore\n      0x04\n      add\n      tag_145\n      swap1\n      jump(tag_108)\n    tag_145:\n      mload(0x40)\n      dup1\n      swap2\n      sub\n      swap1\n      revert\n    tag_144:\n        /* \"CertificateStorage.sol\":1230:1240  _newStatus */\n      dup1\n        /* \"CertificateStorage.sol\":1174:1195  certifyingAuthorities */\n      0x01\n        /* \"CertificateStorage.sol\":1174:1214  certifyingAuthorities[_authorityAddress] */\n      0x00\n        /* \"CertificateStorage.sol\":1196:1213  _authorityAddress */\n      dup5\n        /* \"CertificateStorage.sol\":1174:1214  certifyingAuthorities[_authorityAddress] */\n      0xffffffffffffffffffffffffffffffffffffffff\n      and\n      0xffffffffffffffffffffffffffffffffffffffff\n      and\n      dup2\n      mstore\n      0x20\n      add\n      swap1\n      dup2\n      mstore\n      0x20\n      add\n      0x00\n      keccak256\n        /* \"CertificateStorage.sol\":1174:1227  certifyingAuthorities[_authorityAddress].isAuthorised */\n      0x01\n      add\n      0x00\n        /* \"CertificateStorage.sol\":1174:1240  certifyingAuthorities[_authorityAddress].isAuthorised = _newStatus */\n      0x0100\n      exp\n      dup2\n      sload\n      dup2\n      0xff\n      mul\n      not\n      and\n      swap1\n      dup4\n      iszero\n      iszero\n      mul\n      or\n      swap1\n      sstore\n      pop\n        /* \"CertificateStorage.sol\":1045:1245  function updateCertifyingAuthorityAuthorization(... */\n      pop\n      pop\n      jump\t// out\n        /* \"RLP.sol\":1339:1533  function toRlpItem(bytes memory item) internal pure returns (RLPItem memory) {... */\n    tag_61:\n        /* \"RLP.sol\":1400:1414  RLPItem memory */\n      tag_147\n      tag_148\n      jump\t// in\n    tag_147:\n        /* \"RLP.sol\":1422:1433  uint memPtr */\n      0x00\n        /* \"RLP.sol\":1476:1480  0x20 */\n      0x20\n        /* \"RLP.sol\":1470:1474  item */\n      dup4\n        /* \"RLP.sol\":1466:1481  add(item, 0x20) */\n      add\n        /* \"RLP.sol\":1456:1481  memPtr := add(item, 0x20) */\n      swap1\n      pop\n        /* \"RLP.sol\":1500:1528  RLPItem(item.length, memPtr) */\n      mload(0x40)\n      dup1\n      0x40\n      add\n      0x40\n      mstore\n      dup1\n        /* \"RLP.sol\":1508:1512  item */\n      dup5\n        /* \"RLP.sol\":1508:1519  item.length */\n      mload\n        /* \"RLP.sol\":1500:1528  RLPItem(item.length, memPtr) */\n      dup2\n      mstore\n      0x20\n      add\n        /* \"RLP.sol\":1521:1527  memPtr */\n      dup3\n        /* \"RLP.sol\":1500:1528  RLPItem(item.length, memPtr) */\n      dup2\n      mstore\n      pop\n        /* \"RLP.sol\":1493:1528  return RLPItem(item.length, memPtr) */\n      swap2\n      pop\n      pop\n        /* \"RLP.sol\":1339:1533  function toRlpItem(bytes memory item) internal pure returns (RLPItem memory) {... */\n      swap2\n      swap1\n      pop\n      jump\t// out\n        /* \"RLP.sol\":2250:2705  function toList(RLPItem memory item) internal pure returns (RLPItem[] memory) {... */\n    tag_62:\n        /* \"RLP.sol\":2310:2326  RLPItem[] memory */\n      0x60\n        /* \"RLP.sol\":2342:2354  isList(item) */\n      tag_151\n        /* \"RLP.sol\":2349:2353  item */\n      dup3\n        /* \"RLP.sol\":2342:2348  isList */\n      tag_152\n        /* \"RLP.sol\":2342:2354  isList(item) */\n      jump\t// in\n    tag_151:\n        /* \"RLP.sol\":2334:2355  require(isList(item)) */\n      tag_153\n      jumpi\n      0x00\n      dup1\n      revert\n    tag_153:\n        /* \"RLP.sol\":2362:2372  uint items */\n      0x00\n        /* \"RLP.sol\":2375:2389  numItems(item) */\n      tag_154\n        /* \"RLP.sol\":2384:2388  item */\n      dup4\n        /* \"RLP.sol\":2375:2383  numItems */\n      tag_155\n        /* \"RLP.sol\":2375:2389  numItems(item) */\n      jump\t// in\n    tag_154:\n        /* \"RLP.sol\":2362:2389  uint items = numItems(item) */\n      swap1\n      pop\n        /* \"RLP.sol\":2395:2418  RLPItem[] memory result */\n      0x60\n        /* \"RLP.sol\":2435:2440  items */\n      dup2\n        /* \"RLP.sol\":2421:2441  new RLPItem[](items) */\n      mload(0x40)\n      swap1\n      dup1\n      dup3\n      mstore\n      dup1\n      0x20\n      mul\n      0x20\n      add\n      dup3\n      add\n      0x40\n      mstore\n      dup1\n      iszero\n      tag_156\n      jumpi\n      dup2\n      0x20\n      add\n    tag_157:\n      tag_158\n      tag_159\n      jump\t// in\n    tag_158:\n      dup2\n      mstore\n      0x20\n      add\n      swap1\n      0x01\n      swap1\n      sub\n      swap1\n      dup2\n      tag_157\n      jumpi\n      swap1\n      pop\n    tag_156:\n      pop\n        /* \"RLP.sol\":2395:2441  RLPItem[] memory result = new RLPItem[](items) */\n      swap1\n      pop\n        /* \"RLP.sol\":2448:2459  uint memPtr */\n      0x00\n        /* \"RLP.sol\":2476:2503  _payloadOffset(item.memPtr) */\n      tag_160\n        /* \"RLP.sol\":2491:2495  item */\n      dup6\n        /* \"RLP.sol\":2491:2502  item.memPtr */\n      0x20\n      add\n      mload\n        /* \"RLP.sol\":2476:2490  _payloadOffset */\n      tag_161\n        /* \"RLP.sol\":2476:2503  _payloadOffset(item.memPtr) */\n      jump\t// in\n    tag_160:\n        /* \"RLP.sol\":2462:2466  item */\n      dup6\n        /* \"RLP.sol\":2462:2473  item.memPtr */\n      0x20\n      add\n      mload\n        /* \"RLP.sol\":2462:2503  item.memPtr + _payloadOffset(item.memPtr) */\n      add\n        /* \"RLP.sol\":2448:2503  uint memPtr = item.memPtr + _payloadOffset(item.memPtr) */\n      swap1\n      pop\n        /* \"RLP.sol\":2509:2521  uint dataLen */\n      0x00\n        /* \"RLP.sol\":2532:2538  uint i */\n      dup1\n        /* \"RLP.sol\":2541:2542  0 */\n      0x00\n        /* \"RLP.sol\":2532:2542  uint i = 0 */\n      swap1\n      pop\n        /* \"RLP.sol\":2527:2681  for (uint i = 0; i < items; i++) {... */\n    tag_162:\n        /* \"RLP.sol\":2548:2553  items */\n      dup5\n        /* \"RLP.sol\":2544:2545  i */\n      dup2\n        /* \"RLP.sol\":2544:2553  i < items */\n      lt\n        /* \"RLP.sol\":2527:2681  for (uint i = 0; i < items; i++) {... */\n      iszero\n      tag_163\n      jumpi\n        /* \"RLP.sol\":2578:2597  _itemLength(memPtr) */\n      tag_165\n        /* \"RLP.sol\":2590:2596  memPtr */\n      dup4\n        /* \"RLP.sol\":2578:2589  _itemLength */\n      tag_166\n        /* \"RLP.sol\":2578:2597  _itemLength(memPtr) */\n      jump\t// in\n    tag_165:\n        /* \"RLP.sol\":2568:2597  dataLen = _itemLength(memPtr) */\n      swap2\n      pop\n        /* \"RLP.sol\":2617:2641  RLPItem(dataLen, memPtr) */\n      mload(0x40)\n      dup1\n      0x40\n      add\n      0x40\n      mstore\n      dup1\n        /* \"RLP.sol\":2625:2632  dataLen */\n      dup4\n        /* \"RLP.sol\":2617:2641  RLPItem(dataLen, memPtr) */\n      dup2\n      mstore\n      0x20\n      add\n        /* \"RLP.sol\":2634:2640  memPtr */\n      dup5\n        /* \"RLP.sol\":2617:2641  RLPItem(dataLen, memPtr) */\n      dup2\n      mstore\n      pop\n        /* \"RLP.sol\":2605:2611  result */\n      dup5\n        /* \"RLP.sol\":2612:2613  i */\n      dup3\n        /* \"RLP.sol\":2605:2614  result[i] */\n      dup2\n      mload\n      dup2\n      lt\n      tag_167\n      jumpi\n      invalid\n    tag_167:\n      0x20\n      mul\n      0x20\n      add\n      add\n        /* \"RLP.sol\":2605:2641  result[i] = RLPItem(dataLen, memPtr) */\n      dup2\n      swap1\n      mstore\n      pop\n        /* \"RLP.sol\":2667:2674  dataLen */\n      dup2\n        /* \"RLP.sol\":2658:2664  memPtr */\n      dup4\n        /* \"RLP.sol\":2658:2674  memPtr + dataLen */\n      add\n        /* \"RLP.sol\":2649:2674  memPtr = memPtr + dataLen */\n      swap3\n      pop\n        /* \"RLP.sol\":2555:2558  i++ */\n      dup1\n      dup1\n      0x01\n      add\n      swap2\n      pop\n      pop\n        /* \"RLP.sol\":2527:2681  for (uint i = 0; i < items; i++) {... */\n      jump(tag_162)\n    tag_163:\n      pop\n        /* \"RLP.sol\":2694:2700  result */\n      dup3\n        /* \"RLP.sol\":2687:2700  return result */\n      swap5\n      pop\n      pop\n      pop\n      pop\n      pop\n        /* \"RLP.sol\":2250:2705  function toList(RLPItem memory item) internal pure returns (RLPItem[] memory) {... */\n      swap2\n      swap1\n      pop\n      jump\t// out\n        /* \"RLP.sol\":3177:3475  function toRlpBytes(RLPItem memory item) internal pure returns (bytes memory) {... */\n    tag_65:\n        /* \"RLP.sol\":3241:3253  bytes memory */\n      0x60\n        /* \"RLP.sol\":3261:3280  bytes memory result */\n      dup1\n        /* \"RLP.sol\":3293:3297  item */\n      dup3\n        /* \"RLP.sol\":3293:3301  item.len */\n      0x00\n      add\n      mload\n        /* \"RLP.sol\":3283:3302  new bytes(item.len) */\n      mload(0x40)\n      swap1\n      dup1\n      dup3\n      mstore\n      dup1\n      0x1f\n      add\n      not(0x1f)\n      and\n      0x20\n      add\n      dup3\n      add\n      0x40\n      mstore\n      dup1\n      iszero\n      tag_169\n      jumpi\n      dup2\n      0x20\n      add\n        /* \"--CODEGEN--\":29:30   */\n      0x01\n        /* \"--CODEGEN--\":21:27   */\n      dup3\n        /* \"--CODEGEN--\":17:31   */\n      mul\n        /* \"--CODEGEN--\":116:120   */\n      dup1\n        /* \"--CODEGEN--\":104:114   */\n      codesize\n        /* \"--CODEGEN--\":96:102   */\n      dup4\n        /* \"--CODEGEN--\":87:121   */\n      codecopy\n        /* \"--CODEGEN--\":147:151   */\n      dup1\n        /* \"--CODEGEN--\":139:145   */\n      dup3\n        /* \"--CODEGEN--\":135:152   */\n      add\n        /* \"--CODEGEN--\":125:152   */\n      swap2\n      pop\n        /* \"--CODEGEN--\":0:156   */\n      pop\n        /* \"RLP.sol\":3283:3302  new bytes(item.len) */\n      swap1\n      pop\n    tag_169:\n      pop\n        /* \"RLP.sol\":3261:3302  bytes memory result = new bytes(item.len) */\n      swap1\n      pop\n        /* \"RLP.sol\":3329:3330  0 */\n      0x00\n        /* \"RLP.sol\":3312:3318  result */\n      dup2\n        /* \"RLP.sol\":3312:3325  result.length */\n      mload\n        /* \"RLP.sol\":3312:3330  result.length == 0 */\n      eq\n        /* \"RLP.sol\":3308:3345  if (result.length == 0) return result */\n      iszero\n      tag_170\n      jumpi\n        /* \"RLP.sol\":3339:3345  result */\n      dup1\n        /* \"RLP.sol\":3332:3345  return result */\n      swap2\n      pop\n      pop\n      jump(tag_168)\n        /* \"RLP.sol\":3308:3345  if (result.length == 0) return result */\n    tag_170:\n        /* \"RLP.sol\":3352:3360  uint ptr */\n      0x00\n        /* \"RLP.sol\":3400:3406  result */\n      dup2\n        /* \"RLP.sol\":3394:3398  0x20 */\n      0x20\n        /* \"RLP.sol\":3390:3407  add(0x20, result) */\n      add\n        /* \"RLP.sol\":3383:3407  ptr := add(0x20, result) */\n      swap1\n      pop\n        /* \"RLP.sol\":3419:3451  copy(item.memPtr, ptr, item.len) */\n      tag_171\n        /* \"RLP.sol\":3424:3428  item */\n      dup5\n        /* \"RLP.sol\":3424:3435  item.memPtr */\n      0x20\n      add\n      mload\n        /* \"RLP.sol\":3437:3440  ptr */\n      dup3\n        /* \"RLP.sol\":3442:3446  item */\n      dup7\n        /* \"RLP.sol\":3442:3450  item.len */\n      0x00\n      add\n      mload\n        /* \"RLP.sol\":3419:3423  copy */\n      tag_172\n        /* \"RLP.sol\":3419:3451  copy(item.memPtr, ptr, item.len) */\n      jump\t// in\n    tag_171:\n        /* \"RLP.sol\":3464:3470  result */\n      dup2\n        /* \"RLP.sol\":3457:3470  return result */\n      swap3\n      pop\n      pop\n      pop\n        /* \"RLP.sol\":3177:3475  function toRlpBytes(RLPItem memory item) internal pure returns (bytes memory) {... */\n    tag_168:\n      swap2\n      swap1\n      pop\n      jump\t// out\n        /* \"CertificateStorage.sol\":4942:5304  function getBytesStr(uint i) private pure returns (bytes memory) {... */\n    tag_67:\n        /* \"CertificateStorage.sol\":4993:5005  bytes memory */\n      0x60\n        /* \"CertificateStorage.sol\":5022:5023  0 */\n      0x00\n        /* \"CertificateStorage.sol\":5017:5018  i */\n      dup3\n        /* \"CertificateStorage.sol\":5017:5023  i == 0 */\n      eq\n        /* \"CertificateStorage.sol\":5013:5050  if (i == 0) {... */\n      iszero\n      tag_174\n      jumpi\n        /* \"CertificateStorage.sol\":5033:5043  return \"0\" */\n      mload(0x40)\n      dup1\n      0x40\n      add\n      0x40\n      mstore\n      dup1\n      0x01\n      dup2\n      mstore\n      0x20\n      add\n      0x3000000000000000000000000000000000000000000000000000000000000000\n      dup2\n      mstore\n      pop\n      swap1\n      pop\n      jump(tag_173)\n        /* \"CertificateStorage.sol\":5013:5050  if (i == 0) {... */\n    tag_174:\n        /* \"CertificateStorage.sol\":5055:5061  uint j */\n      0x00\n        /* \"CertificateStorage.sol\":5064:5065  i */\n      dup3\n        /* \"CertificateStorage.sol\":5055:5065  uint j = i */\n      swap1\n      pop\n        /* \"CertificateStorage.sol\":5071:5079  uint len */\n      0x00\n        /* \"CertificateStorage.sol\":5085:5135  while (j != 0) {... */\n    tag_175:\n        /* \"CertificateStorage.sol\":5097:5098  0 */\n      0x00\n        /* \"CertificateStorage.sol\":5092:5093  j */\n      dup3\n        /* \"CertificateStorage.sol\":5092:5098  j != 0 */\n      eq\n        /* \"CertificateStorage.sol\":5085:5135  while (j != 0) {... */\n      tag_176\n      jumpi\n        /* \"CertificateStorage.sol\":5108:5113  len++ */\n      dup1\n      dup1\n      0x01\n      add\n      swap2\n      pop\n      pop\n        /* \"CertificateStorage.sol\":5126:5128  10 */\n      0x0a\n        /* \"CertificateStorage.sol\":5121:5128  j /= 10 */\n      dup3\n      dup2\n      tag_177\n      jumpi\n      invalid\n    tag_177:\n      div\n      swap2\n      pop\n        /* \"CertificateStorage.sol\":5085:5135  while (j != 0) {... */\n      jump(tag_175)\n    tag_176:\n        /* \"CertificateStorage.sol\":5140:5157  bytes memory bstr */\n      0x60\n        /* \"CertificateStorage.sol\":5170:5173  len */\n      dup2\n        /* \"CertificateStorage.sol\":5160:5174  new bytes(len) */\n      mload(0x40)\n      swap1\n      dup1\n      dup3\n      mstore\n      dup1\n      0x1f\n      add\n      not(0x1f)\n      and\n      0x20\n      add\n      dup3\n      add\n      0x40\n      mstore\n      dup1\n      iszero\n      tag_178\n      jumpi\n      dup2\n      0x20\n      add\n        /* \"--CODEGEN--\":29:30   */\n      0x01\n        /* \"--CODEGEN--\":21:27   */\n      dup3\n        /* \"--CODEGEN--\":17:31   */\n      mul\n        /* \"--CODEGEN--\":116:120   */\n      dup1\n        /* \"--CODEGEN--\":104:114   */\n      codesize\n        /* \"--CODEGEN--\":96:102   */\n      dup4\n        /* \"--CODEGEN--\":87:121   */\n      codecopy\n        /* \"--CODEGEN--\":147:151   */\n      dup1\n        /* \"--CODEGEN--\":139:145   */\n      dup3\n        /* \"--CODEGEN--\":135:152   */\n      add\n        /* \"--CODEGEN--\":125:152   */\n      swap2\n      pop\n        /* \"--CODEGEN--\":0:156   */\n      pop\n        /* \"CertificateStorage.sol\":5160:5174  new bytes(len) */\n      swap1\n      pop\n    tag_178:\n      pop\n        /* \"CertificateStorage.sol\":5140:5174  bytes memory bstr = new bytes(len) */\n      swap1\n      pop\n        /* \"CertificateStorage.sol\":5180:5186  uint k */\n      0x00\n        /* \"CertificateStorage.sol\":5195:5196  1 */\n      0x01\n        /* \"CertificateStorage.sol\":5189:5192  len */\n      dup4\n        /* \"CertificateStorage.sol\":5189:5196  len - 1 */\n      sub\n        /* \"CertificateStorage.sol\":5180:5196  uint k = len - 1 */\n      swap1\n      pop\n        /* \"CertificateStorage.sol\":5202:5283  while (i != 0) {... */\n    tag_179:\n        /* \"CertificateStorage.sol\":5214:5215  0 */\n      0x00\n        /* \"CertificateStorage.sol\":5209:5210  i */\n      dup7\n        /* \"CertificateStorage.sol\":5209:5215  i != 0 */\n      eq\n        /* \"CertificateStorage.sol\":5202:5283  while (i != 0) {... */\n      tag_180\n      jumpi\n        /* \"CertificateStorage.sol\":5257:5259  10 */\n      0x0a\n        /* \"CertificateStorage.sol\":5253:5254  i */\n      dup7\n        /* \"CertificateStorage.sol\":5253:5259  i % 10 */\n      dup2\n      tag_181\n      jumpi\n      invalid\n    tag_181:\n      mod\n        /* \"CertificateStorage.sol\":5248:5250  48 */\n      0x30\n        /* \"CertificateStorage.sol\":5248:5259  48 + i % 10 */\n      add\n        /* \"CertificateStorage.sol\":5237:5261  byte(uint8(48 + i % 10)) */\n      0xf8\n      shl\n        /* \"CertificateStorage.sol\":5225:5229  bstr */\n      dup3\n        /* \"CertificateStorage.sol\":5230:5233  k-- */\n      dup3\n      dup1\n      0x01\n      swap1\n      sub\n      swap4\n      pop\n        /* \"CertificateStorage.sol\":5225:5234  bstr[k--] */\n      dup2\n      mload\n      dup2\n      lt\n      tag_182\n      jumpi\n      invalid\n    tag_182:\n      0x20\n      add\n      add\n        /* \"CertificateStorage.sol\":5225:5261  bstr[k--] = byte(uint8(48 + i % 10)) */\n      swap1\n      not(0xffffffffffffffffffffffffffffffffffffffffffffffffffffffffffffff)\n      and\n      swap1\n      dup2\n      0x00\n      byte\n      swap1\n      mstore8\n      pop\n        /* \"CertificateStorage.sol\":5274:5276  10 */\n      0x0a\n        /* \"CertificateStorage.sol\":5269:5276  i /= 10 */\n      dup7\n      dup2\n      tag_183\n      jumpi\n      invalid\n    tag_183:\n      div\n      swap6\n      pop\n        /* \"CertificateStorage.sol\":5202:5283  while (i != 0) {... */\n      jump(tag_179)\n    tag_180:\n        /* \"CertificateStorage.sol\":5295:5299  bstr */\n      dup2\n        /* \"CertificateStorage.sol\":5288:5299  return bstr */\n      swap5\n      pop\n      pop\n      pop\n      pop\n      pop\n        /* \"CertificateStorage.sol\":4942:5304  function getBytesStr(uint i) private pure returns (bytes memory) {... */\n    tag_173:\n      swap2\n      swap1\n      pop\n      jump\t// out\n        /* \"RLP.sol\":4713:5100  function toBytes(RLPItem memory item) internal pure returns (bytes memory) {... */\n    tag_75:\n        /* \"RLP.sol\":4774:4786  bytes memory */\n      0x60\n        /* \"RLP.sol\":4813:4814  0 */\n      0x00\n        /* \"RLP.sol\":4802:4806  item */\n      dup3\n        /* \"RLP.sol\":4802:4810  item.len */\n      0x00\n      add\n      mload\n        /* \"RLP.sol\":4802:4814  item.len > 0 */\n      gt\n        /* \"RLP.sol\":4794:4815  require(item.len > 0) */\n      tag_185\n      jumpi\n      0x00\n      dup1\n      revert\n    tag_185:\n        /* \"RLP.sol\":4822:4833  uint offset */\n      0x00\n        /* \"RLP.sol\":4836:4863  _payloadOffset(item.memPtr) */\n      tag_186\n        /* \"RLP.sol\":4851:4855  item */\n      dup4\n        /* \"RLP.sol\":4851:4862  item.memPtr */\n      0x20\n      add\n      mload\n        /* \"RLP.sol\":4836:4850  _payloadOffset */\n      tag_161\n        /* \"RLP.sol\":4836:4863  _payloadOffset(item.memPtr) */\n      jump\t// in\n    tag_186:\n        /* \"RLP.sol\":4822:4863  uint offset = _payloadOffset(item.memPtr) */\n      swap1\n      pop\n        /* \"RLP.sol\":4869:4877  uint len */\n      0x00\n        /* \"RLP.sol\":4891:4897  offset */\n      dup2\n        /* \"RLP.sol\":4880:4884  item */\n      dup5\n        /* \"RLP.sol\":4880:4888  item.len */\n      0x00\n      add\n      mload\n        /* \"RLP.sol\":4880:4897  item.len - offset */\n      sub\n        /* \"RLP.sol\":4869:4897  uint len = item.len - offset */\n      swap1\n      pop\n        /* \"RLP.sol\":4918:4937  bytes memory result */\n      0x60\n        /* \"RLP.sol\":4950:4953  len */\n      dup2\n        /* \"RLP.sol\":4940:4954  new bytes(len) */\n      mload(0x40)\n      swap1\n      dup1\n      dup3\n      mstore\n      dup1\n      0x1f\n      add\n      not(0x1f)\n      and\n      0x20\n      add\n      dup3\n      add\n      0x40\n      mstore\n      dup1\n      iszero\n      tag_187\n      jumpi\n      dup2\n      0x20\n      add\n        /* \"--CODEGEN--\":29:30   */\n      0x01\n        /* \"--CODEGEN--\":21:27   */\n      dup3\n        /* \"--CODEGEN--\":17:31   */\n      mul\n        /* \"--CODEGEN--\":116:120   */\n      dup1\n        /* \"--CODEGEN--\":104:114   */\n      codesize\n        /* \"--CODEGEN--\":96:102   */\n      dup4\n        /* \"--CODEGEN--\":87:121   */\n      codecopy\n        /* \"--CODEGEN--\":147:151   */\n      dup1\n        /* \"--CODEGEN--\":139:145   */\n      dup3\n        /* \"--CODEGEN--\":135:152   */\n      add\n        /* \"--CODEGEN--\":125:152   */\n      swap2\n      pop\n        /* \"--CODEGEN--\":0:156   */\n      pop\n        /* \"RLP.sol\":4940:4954  new bytes(len) */\n      swap1\n      pop\n    tag_187:\n      pop\n        /* \"RLP.sol\":4918:4954  bytes memory result = new bytes(len) */\n      swap1\n      pop\n        /* \"RLP.sol\":4961:4973  uint destPtr */\n      0x00\n        /* \"RLP.sol\":5017:5023  result */\n      dup2\n        /* \"RLP.sol\":5011:5015  0x20 */\n      0x20\n        /* \"RLP.sol\":5007:5024  add(0x20, result) */\n      add\n        /* \"RLP.sol\":4996:5024  destPtr := add(0x20, result) */\n      swap1\n      pop\n        /* \"RLP.sol\":5036:5076  copy(item.memPtr + offset, destPtr, len) */\n      tag_188\n        /* \"RLP.sol\":5055:5061  offset */\n      dup5\n        /* \"RLP.sol\":5041:5045  item */\n      dup8\n        /* \"RLP.sol\":5041:5052  item.memPtr */\n      0x20\n      add\n      mload\n        /* \"RLP.sol\":5041:5061  item.memPtr + offset */\n      add\n        /* \"RLP.sol\":5063:5070  destPtr */\n      dup3\n        /* \"RLP.sol\":5072:5075  len */\n      dup6\n        /* \"RLP.sol\":5036:5040  copy */\n      tag_172\n        /* \"RLP.sol\":5036:5076  copy(item.memPtr + offset, destPtr, len) */\n      jump\t// in\n    tag_188:\n        /* \"RLP.sol\":5089:5095  result */\n      dup2\n        /* \"RLP.sol\":5082:5095  return result */\n      swap5\n      pop\n      pop\n      pop\n      pop\n      pop\n        /* \"RLP.sol\":4713:5100  function toBytes(RLPItem memory item) internal pure returns (bytes memory) {... */\n      swap2\n      swap1\n      pop\n      jump\t// out\n        /* \"CertificateStorage.sol\":4457:4937  function checkUniqueSigner(address _signer, bytes memory _packedSigners) private pure returns (bool){... */\n    tag_86:\n        /* \"CertificateStorage.sol\":4552:4556  bool */\n      0x00\n        /* \"CertificateStorage.sol\":4591:4592  0 */\n      dup1\n        /* \"CertificateStorage.sol\":4566:4580  _packedSigners */\n      dup3\n        /* \"CertificateStorage.sol\":4566:4587  _packedSigners.length */\n      mload\n        /* \"CertificateStorage.sol\":4566:4592  _packedSigners.length == 0 */\n      eq\n        /* \"CertificateStorage.sol\":4563:4605  if(_packedSigners.length == 0) return true */\n      iszero\n      tag_190\n      jumpi\n        /* \"CertificateStorage.sol\":4601:4605  true */\n      0x01\n        /* \"CertificateStorage.sol\":4594:4605  return true */\n      swap1\n      pop\n      jump(tag_189)\n        /* \"CertificateStorage.sol\":4563:4605  if(_packedSigners.length == 0) return true */\n    tag_190:\n        /* \"CertificateStorage.sol\":4650:4651  0 */\n      0x00\n        /* \"CertificateStorage.sol\":4644:4646  20 */\n      0x14\n        /* \"CertificateStorage.sol\":4620:4634  _packedSigners */\n      dup4\n        /* \"CertificateStorage.sol\":4620:4641  _packedSigners.length */\n      mload\n        /* \"CertificateStorage.sol\":4620:4646  _packedSigners.length % 20 */\n      dup2\n      tag_191\n      jumpi\n      invalid\n    tag_191:\n      mod\n        /* \"CertificateStorage.sol\":4620:4651  _packedSigners.length % 20 == 0 */\n      eq\n        /* \"CertificateStorage.sol\":4612:4685  require(_packedSigners.length % 20 == 0, 'invalid packed signers length') */\n      tag_192\n      jumpi\n      mload(0x40)\n      0x08c379a000000000000000000000000000000000000000000000000000000000\n      dup2\n      mstore\n      0x04\n      add\n      tag_193\n      swap1\n      jump(tag_194)\n    tag_193:\n      mload(0x40)\n      dup1\n      swap2\n      sub\n      swap1\n      revert\n    tag_192:\n        /* \"CertificateStorage.sol\":4692:4711  address _tempSigner */\n      0x00\n        /* \"CertificateStorage.sol\":4721:4730  uint256 i */\n      dup1\n        /* \"CertificateStorage.sol\":4733:4734  0 */\n      0x00\n        /* \"CertificateStorage.sol\":4721:4734  uint256 i = 0 */\n      swap1\n      pop\n        /* \"CertificateStorage.sol\":4717:4915  for(uint256 i = 0; i < _packedSigners.length; i += 20) {... */\n    tag_195:\n        /* \"CertificateStorage.sol\":4740:4754  _packedSigners */\n      dup4\n        /* \"CertificateStorage.sol\":4740:4761  _packedSigners.length */\n      mload\n        /* \"CertificateStorage.sol\":4736:4737  i */\n      dup2\n        /* \"CertificateStorage.sol\":4736:4761  i < _packedSigners.length */\n      lt\n        /* \"CertificateStorage.sol\":4717:4915  for(uint256 i = 0; i < _packedSigners.length; i += 20) {... */\n      iszero\n      tag_196\n      jumpi\n        /* \"CertificateStorage.sol\":4850:4851  i */\n      dup1\n        /* \"CertificateStorage.sol\":4844:4848  0x14 */\n      0x14\n        /* \"CertificateStorage.sol\":4840:4852  add(0x14, i) */\n      add\n        /* \"CertificateStorage.sol\":4824:4838  _packedSigners */\n      dup5\n        /* \"CertificateStorage.sol\":4820:4853  add(_packedSigners, add(0x14, i)) */\n      add\n        /* \"CertificateStorage.sol\":4814:4854  mload(add(_packedSigners, add(0x14, i))) */\n      mload\n        /* \"CertificateStorage.sol\":4799:4854  _tempSigner := mload(add(_packedSigners, add(0x14, i))) */\n      swap2\n      pop\n        /* \"CertificateStorage.sol\":4887:4894  _signer */\n      dup5\n        /* \"CertificateStorage.sol\":4872:4894  _tempSigner == _signer */\n      0xffffffffffffffffffffffffffffffffffffffff\n      and\n        /* \"CertificateStorage.sol\":4872:4883  _tempSigner */\n      dup3\n        /* \"CertificateStorage.sol\":4872:4894  _tempSigner == _signer */\n      0xffffffffffffffffffffffffffffffffffffffff\n      and\n      eq\n        /* \"CertificateStorage.sol\":4869:4908  if(_tempSigner == _signer) return false */\n      iszero\n      tag_198\n      jumpi\n        /* \"CertificateStorage.sol\":4903:4908  false */\n      0x00\n        /* \"CertificateStorage.sol\":4896:4908  return false */\n      swap3\n      pop\n      pop\n      pop\n      jump(tag_189)\n        /* \"CertificateStorage.sol\":4869:4908  if(_tempSigner == _signer) return false */\n    tag_198:\n        /* \"CertificateStorage.sol\":4768:4770  20 */\n      0x14\n        /* \"CertificateStorage.sol\":4763:4770  i += 20 */\n      dup2\n      add\n      swap1\n      pop\n        /* \"CertificateStorage.sol\":4717:4915  for(uint256 i = 0; i < _packedSigners.length; i += 20) {... */\n      jump(tag_195)\n    tag_196:\n      pop\n        /* \"CertificateStorage.sol\":4928:4932  true */\n      0x01\n        /* \"CertificateStorage.sol\":4921:4932  return true */\n      swap2\n      pop\n      pop\n        /* \"CertificateStorage.sol\":4457:4937  function checkUniqueSigner(address _signer, bytes memory _packedSigners) private pure returns (bool){... */\n    tag_189:\n      swap3\n      swap2\n      pop\n      pop\n      jump\t// out\n        /* \"RLP.sol\":2805:3086  function isList(RLPItem memory item) internal pure returns (bool) {... */\n    tag_152:\n        /* \"RLP.sol\":2865:2869  bool */\n      0x00\n        /* \"RLP.sol\":2892:2893  0 */\n      dup1\n        /* \"RLP.sol\":2880:2884  item */\n      dup3\n        /* \"RLP.sol\":2880:2888  item.len */\n      0x00\n      add\n      mload\n        /* \"RLP.sol\":2880:2893  item.len == 0 */\n      eq\n        /* \"RLP.sol\":2877:2907  if(item.len == 0) return false */\n      iszero\n      tag_200\n      jumpi\n        /* \"RLP.sol\":2902:2907  false */\n      0x00\n        /* \"RLP.sol\":2895:2907  return false */\n      swap1\n      pop\n      jump(tag_199)\n        /* \"RLP.sol\":2877:2907  if(item.len == 0) return false */\n    tag_200:\n        /* \"RLP.sol\":2914:2925  uint8 byte0 */\n      0x00\n        /* \"RLP.sol\":2931:2942  uint memPtr */\n      dup1\n        /* \"RLP.sol\":2945:2949  item */\n      dup4\n        /* \"RLP.sol\":2945:2956  item.memPtr */\n      0x20\n      add\n      mload\n        /* \"RLP.sol\":2931:2956  uint memPtr = item.memPtr */\n      swap1\n      pop\n        /* \"RLP.sol\":3002:3008  memPtr */\n      dup1\n        /* \"RLP.sol\":2996:3009  mload(memPtr) */\n      mload\n        /* \"RLP.sol\":2993:2994  0 */\n      0x00\n        /* \"RLP.sol\":2988:3010  byte(0, mload(memPtr)) */\n      byte\n        /* \"RLP.sol\":2979:3010  byte0 := byte(0, mload(memPtr)) */\n      swap2\n      pop\n        /* \"RLP.sol\":264:268  0xc0 */\n      0xc0\n        /* \"RLP.sol\":3025:3049  byte0 < LIST_SHORT_START */\n      0xff\n      and\n        /* \"RLP.sol\":3025:3030  byte0 */\n      dup3\n        /* \"RLP.sol\":3025:3049  byte0 < LIST_SHORT_START */\n      0xff\n      and\n      lt\n        /* \"RLP.sol\":3022:3063  if(byte0 < LIST_SHORT_START) return false */\n      iszero\n      tag_201\n      jumpi\n        /* \"RLP.sol\":3058:3063  false */\n      0x00\n        /* \"RLP.sol\":3051:3063  return false */\n      swap3\n      pop\n      pop\n      pop\n      jump(tag_199)\n        /* \"RLP.sol\":3022:3063  if(byte0 < LIST_SHORT_START) return false */\n    tag_201:\n        /* \"RLP.sol\":3077:3081  true */\n      0x01\n        /* \"RLP.sol\":3070:3081  return true */\n      swap3\n      pop\n      pop\n      pop\n        /* \"RLP.sol\":2805:3086  function isList(RLPItem memory item) internal pure returns (bool) {... */\n    tag_199:\n      swap2\n      swap1\n      pop\n      jump\t// out\n        /* \"RLP.sol\":5196:5566  function numItems(RLPItem memory item) private pure returns (uint) {... */\n    tag_155:\n        /* \"RLP.sol\":5257:5261  uint */\n      0x00\n        /* \"RLP.sol\":5285:5286  0 */\n      dup1\n        /* \"RLP.sol\":5273:5277  item */\n      dup3\n        /* \"RLP.sol\":5273:5281  item.len */\n      0x00\n      add\n      mload\n        /* \"RLP.sol\":5273:5286  item.len == 0 */\n      eq\n        /* \"RLP.sol\":5269:5296  if (item.len == 0) return 0 */\n      iszero\n      tag_203\n      jumpi\n        /* \"RLP.sol\":5295:5296  0 */\n      0x00\n        /* \"RLP.sol\":5288:5296  return 0 */\n      swap1\n      pop\n      jump(tag_202)\n        /* \"RLP.sol\":5269:5296  if (item.len == 0) return 0 */\n    tag_203:\n        /* \"RLP.sol\":5303:5313  uint count */\n      0x00\n        /* \"RLP.sol\":5316:5317  0 */\n      dup1\n        /* \"RLP.sol\":5303:5317  uint count = 0 */\n      swap1\n      pop\n        /* \"RLP.sol\":5323:5335  uint currPtr */\n      0x00\n        /* \"RLP.sol\":5352:5379  _payloadOffset(item.memPtr) */\n      tag_204\n        /* \"RLP.sol\":5367:5371  item */\n      dup5\n        /* \"RLP.sol\":5367:5378  item.memPtr */\n      0x20\n      add\n      mload\n        /* \"RLP.sol\":5352:5366  _payloadOffset */\n      tag_161\n        /* \"RLP.sol\":5352:5379  _payloadOffset(item.memPtr) */\n      jump\t// in\n    tag_204:\n        /* \"RLP.sol\":5338:5342  item */\n      dup5\n        /* \"RLP.sol\":5338:5349  item.memPtr */\n      0x20\n      add\n      mload\n        /* \"RLP.sol\":5338:5379  item.memPtr + _payloadOffset(item.memPtr) */\n      add\n        /* \"RLP.sol\":5323:5379  uint currPtr = item.memPtr + _payloadOffset(item.memPtr) */\n      swap1\n      pop\n        /* \"RLP.sol\":5385:5396  uint endPtr */\n      0x00\n        /* \"RLP.sol\":5413:5417  item */\n      dup5\n        /* \"RLP.sol\":5413:5421  item.len */\n      0x00\n      add\n      mload\n        /* \"RLP.sol\":5399:5403  item */\n      dup6\n        /* \"RLP.sol\":5399:5410  item.memPtr */\n      0x20\n      add\n      mload\n        /* \"RLP.sol\":5399:5421  item.memPtr + item.len */\n      add\n        /* \"RLP.sol\":5385:5421  uint endPtr = item.memPtr + item.len */\n      swap1\n      pop\n        /* \"RLP.sol\":5427:5543  while (currPtr < endPtr) {... */\n    tag_205:\n        /* \"RLP.sol\":5444:5450  endPtr */\n      dup1\n        /* \"RLP.sol\":5434:5441  currPtr */\n      dup3\n        /* \"RLP.sol\":5434:5450  currPtr < endPtr */\n      lt\n        /* \"RLP.sol\":5427:5543  while (currPtr < endPtr) {... */\n      iszero\n      tag_206\n      jumpi\n        /* \"RLP.sol\":5480:5500  _itemLength(currPtr) */\n      tag_207\n        /* \"RLP.sol\":5492:5499  currPtr */\n      dup3\n        /* \"RLP.sol\":5480:5491  _itemLength */\n      tag_166\n        /* \"RLP.sol\":5480:5500  _itemLength(currPtr) */\n      jump\t// in\n    tag_207:\n        /* \"RLP.sol\":5470:5477  currPtr */\n      dup3\n        /* \"RLP.sol\":5470:5500  currPtr + _itemLength(currPtr) */\n      add\n        /* \"RLP.sol\":5460:5500  currPtr = currPtr + _itemLength(currPtr) */\n      swap2\n      pop\n        /* \"RLP.sol\":5529:5536  count++ */\n      dup3\n      dup1\n      0x01\n      add\n      swap4\n      pop\n      pop\n        /* \"RLP.sol\":5427:5543  while (currPtr < endPtr) {... */\n      jump(tag_205)\n    tag_206:\n        /* \"RLP.sol\":5556:5561  count */\n      dup3\n        /* \"RLP.sol\":5549:5561  return count */\n      swap4\n      pop\n      pop\n      pop\n      pop\n        /* \"RLP.sol\":5196:5566  function numItems(RLPItem memory item) private pure returns (uint) {... */\n    tag_202:\n      swap2\n      swap1\n      pop\n      jump\t// out\n        /* \"RLP.sol\":6748:7225  function _payloadOffset(uint memPtr) private pure returns (uint) {... */\n    tag_161:\n        /* \"RLP.sol\":6807:6811  uint */\n      0x00\n        /* \"RLP.sol\":6819:6829  uint byte0 */\n      dup1\n        /* \"RLP.sol\":6875:6881  memPtr */\n      dup3\n        /* \"RLP.sol\":6869:6882  mload(memPtr) */\n      mload\n        /* \"RLP.sol\":6866:6867  0 */\n      0x00\n        /* \"RLP.sol\":6861:6883  byte(0, mload(memPtr)) */\n      byte\n        /* \"RLP.sol\":6852:6883  byte0 := byte(0, mload(memPtr)) */\n      swap1\n      pop\n        /* \"RLP.sol\":176:180  0x80 */\n      0x80\n        /* \"RLP.sol\":6899:6925  byte0 < STRING_SHORT_START */\n      0xff\n      and\n        /* \"RLP.sol\":6899:6904  byte0 */\n      dup2\n        /* \"RLP.sol\":6899:6925  byte0 < STRING_SHORT_START */\n      lt\n        /* \"RLP.sol\":6895:7220  if (byte0 < STRING_SHORT_START)... */\n      iszero\n      tag_209\n      jumpi\n        /* \"RLP.sol\":6940:6941  0 */\n      0x00\n        /* \"RLP.sol\":6933:6941  return 0 */\n      swap2\n      pop\n      pop\n      jump(tag_208)\n        /* \"RLP.sol\":6895:7220  if (byte0 < STRING_SHORT_START)... */\n    tag_209:\n        /* \"RLP.sol\":220:224  0xb8 */\n      0xb8\n        /* \"RLP.sol\":6956:6981  byte0 < STRING_LONG_START */\n      0xff\n      and\n        /* \"RLP.sol\":6956:6961  byte0 */\n      dup2\n        /* \"RLP.sol\":6956:6981  byte0 < STRING_LONG_START */\n      lt\n        /* \"RLP.sol\":6956:7039  byte0 < STRING_LONG_START || (byte0 >= LIST_SHORT_START && byte0 < LIST_LONG_START) */\n      dup1\n      tag_211\n      jumpi\n      pop\n        /* \"RLP.sol\":264:268  0xc0 */\n      0xc0\n        /* \"RLP.sol\":6986:7011  byte0 >= LIST_SHORT_START */\n      0xff\n      and\n        /* \"RLP.sol\":6986:6991  byte0 */\n      dup2\n        /* \"RLP.sol\":6986:7011  byte0 >= LIST_SHORT_START */\n      lt\n      iszero\n        /* \"RLP.sol\":6986:7038  byte0 >= LIST_SHORT_START && byte0 < LIST_LONG_START */\n      dup1\n      iszero\n      tag_212\n      jumpi\n      pop\n        /* \"RLP.sol\":308:312  0xf8 */\n      0xf8\n        /* \"RLP.sol\":7015:7038  byte0 < LIST_LONG_START */\n      0xff\n      and\n        /* \"RLP.sol\":7015:7020  byte0 */\n      dup2\n        /* \"RLP.sol\":7015:7038  byte0 < LIST_LONG_START */\n      lt\n        /* \"RLP.sol\":6986:7038  byte0 >= LIST_SHORT_START && byte0 < LIST_LONG_START */\n    tag_212:\n        /* \"RLP.sol\":6956:7039  byte0 < STRING_LONG_START || (byte0 >= LIST_SHORT_START && byte0 < LIST_LONG_START) */\n    tag_211:\n        /* \"RLP.sol\":6952:7220  if (byte0 < STRING_LONG_START || (byte0 >= LIST_SHORT_START && byte0 < LIST_LONG_START))... */\n      iszero\n      tag_213\n      jumpi\n        /* \"RLP.sol\":7054:7055  1 */\n      0x01\n        /* \"RLP.sol\":7047:7055  return 1 */\n      swap2\n      pop\n      pop\n      jump(tag_208)\n        /* \"RLP.sol\":6952:7220  if (byte0 < STRING_LONG_START || (byte0 >= LIST_SHORT_START && byte0 < LIST_LONG_START))... */\n    tag_213:\n        /* \"RLP.sol\":264:268  0xc0 */\n      0xc0\n        /* \"RLP.sol\":7070:7094  byte0 < LIST_SHORT_START */\n      0xff\n      and\n        /* \"RLP.sol\":7070:7075  byte0 */\n      dup2\n        /* \"RLP.sol\":7070:7094  byte0 < LIST_SHORT_START */\n      lt\n        /* \"RLP.sol\":7066:7220  if (byte0 < LIST_SHORT_START)  // being explicit... */\n      iszero\n      tag_215\n      jumpi\n        /* \"RLP.sol\":7162:7163  1 */\n      0x01\n        /* \"RLP.sol\":7157:7158  1 */\n      dup1\n        /* \"RLP.sol\":220:224  0xb8 */\n      0xb8\n        /* \"RLP.sol\":7137:7158  STRING_LONG_START - 1 */\n      sub\n        /* \"RLP.sol\":7128:7159  byte0 - (STRING_LONG_START - 1) */\n      0xff\n      and\n        /* \"RLP.sol\":7128:7133  byte0 */\n      dup3\n        /* \"RLP.sol\":7128:7159  byte0 - (STRING_LONG_START - 1) */\n      sub\n        /* \"RLP.sol\":7128:7163  byte0 - (STRING_LONG_START - 1) + 1 */\n      add\n        /* \"RLP.sol\":7121:7163  return byte0 - (STRING_LONG_START - 1) + 1 */\n      swap2\n      pop\n      pop\n      jump(tag_208)\n        /* \"RLP.sol\":7066:7220  if (byte0 < LIST_SHORT_START)  // being explicit... */\n    tag_215:\n        /* \"RLP.sol\":7219:7220  1 */\n      0x01\n        /* \"RLP.sol\":7214:7215  1 */\n      dup1\n        /* \"RLP.sol\":308:312  0xf8 */\n      0xf8\n        /* \"RLP.sol\":7196:7215  LIST_LONG_START - 1 */\n      sub\n        /* \"RLP.sol\":7187:7216  byte0 - (LIST_LONG_START - 1) */\n      0xff\n      and\n        /* \"RLP.sol\":7187:7192  byte0 */\n      dup3\n        /* \"RLP.sol\":7187:7216  byte0 - (LIST_LONG_START - 1) */\n      sub\n        /* \"RLP.sol\":7187:7220  byte0 - (LIST_LONG_START - 1) + 1 */\n      add\n        /* \"RLP.sol\":7180:7220  return byte0 - (LIST_LONG_START - 1) + 1 */\n      swap2\n      pop\n      pop\n        /* \"RLP.sol\":6748:7225  function _payloadOffset(uint memPtr) private pure returns (uint) {... */\n    tag_208:\n      swap2\n      swap1\n      pop\n      jump\t// out\n        /* \"RLP.sol\":5611:6700  function _itemLength(uint memPtr) private pure returns (uint) {... */\n    tag_166:\n        /* \"RLP.sol\":5667:5671  uint */\n      0x00\n        /* \"RLP.sol\":5679:5691  uint itemLen */\n      dup1\n        /* \"RLP.sol\":5697:5707  uint byte0 */\n      0x00\n        /* \"RLP.sol\":5753:5759  memPtr */\n      dup4\n        /* \"RLP.sol\":5747:5760  mload(memPtr) */\n      mload\n        /* \"RLP.sol\":5744:5745  0 */\n      0x00\n        /* \"RLP.sol\":5739:5761  byte(0, mload(memPtr)) */\n      byte\n        /* \"RLP.sol\":5730:5761  byte0 := byte(0, mload(memPtr)) */\n      swap1\n      pop\n        /* \"RLP.sol\":176:180  0x80 */\n      0x80\n        /* \"RLP.sol\":5777:5803  byte0 < STRING_SHORT_START */\n      0xff\n      and\n        /* \"RLP.sol\":5777:5782  byte0 */\n      dup2\n        /* \"RLP.sol\":5777:5803  byte0 < STRING_SHORT_START */\n      lt\n        /* \"RLP.sol\":5773:6675  if (byte0 < STRING_SHORT_START)... */\n      iszero\n      tag_218\n      jumpi\n        /* \"RLP.sol\":5821:5822  1 */\n      0x01\n        /* \"RLP.sol\":5811:5822  itemLen = 1 */\n      swap2\n      pop\n        /* \"RLP.sol\":5773:6675  if (byte0 < STRING_SHORT_START)... */\n      jump(tag_219)\n    tag_218:\n        /* \"RLP.sol\":220:224  0xb8 */\n      0xb8\n        /* \"RLP.sol\":5838:5863  byte0 < STRING_LONG_START */\n      0xff\n      and\n        /* \"RLP.sol\":5838:5843  byte0 */\n      dup2\n        /* \"RLP.sol\":5838:5863  byte0 < STRING_LONG_START */\n      lt\n        /* \"RLP.sol\":5834:6675  if (byte0 < STRING_LONG_START)... */\n      iszero\n      tag_220\n      jumpi\n        /* \"RLP.sol\":5910:5911  1 */\n      0x01\n        /* \"RLP.sol\":176:180  0x80 */\n      0x80\n        /* \"RLP.sol\":5881:5907  byte0 - STRING_SHORT_START */\n      0xff\n      and\n        /* \"RLP.sol\":5881:5886  byte0 */\n      dup3\n        /* \"RLP.sol\":5881:5907  byte0 - STRING_SHORT_START */\n      sub\n        /* \"RLP.sol\":5881:5911  byte0 - STRING_SHORT_START + 1 */\n      add\n        /* \"RLP.sol\":5871:5911  itemLen = byte0 - STRING_SHORT_START + 1 */\n      swap2\n      pop\n        /* \"RLP.sol\":5834:6675  if (byte0 < STRING_LONG_START)... */\n      jump(tag_221)\n    tag_220:\n        /* \"RLP.sol\":264:268  0xc0 */\n      0xc0\n        /* \"RLP.sol\":5927:5951  byte0 < LIST_SHORT_START */\n      0xff\n      and\n        /* \"RLP.sol\":5927:5932  byte0 */\n      dup2\n        /* \"RLP.sol\":5927:5951  byte0 < LIST_SHORT_START */\n      lt\n        /* \"RLP.sol\":5923:6675  if (byte0 < LIST_SHORT_START) {... */\n      iszero\n      tag_222\n      jumpi\n        /* \"RLP.sol\":6006:6010  0xb7 */\n      0xb7\n        /* \"RLP.sol\":5999:6004  byte0 */\n      dup2\n        /* \"RLP.sol\":5995:6011  sub(byte0, 0xb7) */\n      sub\n        /* \"RLP.sol\":6077:6078  1 */\n      0x01\n        /* \"RLP.sol\":6069:6075  memPtr */\n      dup6\n        /* \"RLP.sol\":6065:6079  add(memPtr, 1) */\n      add\n        /* \"RLP.sol\":6055:6079  memPtr := add(memPtr, 1) */\n      swap5\n      pop\n        /* \"RLP.sol\":6200:6207  byteLen */\n      dup1\n        /* \"RLP.sol\":6196:6198  32 */\n      0x20\n        /* \"RLP.sol\":6192:6208  sub(32, byteLen) */\n      sub\n        /* \"RLP.sol\":6187:6190  256 */\n      0x0100\n        /* \"RLP.sol\":6183:6209  exp(256, sub(32, byteLen)) */\n      exp\n        /* \"RLP.sol\":6174:6180  memPtr */\n      dup6\n        /* \"RLP.sol\":6168:6181  mload(memPtr) */\n      mload\n        /* \"RLP.sol\":6164:6210  div(mload(memPtr), exp(256, sub(32, byteLen))) */\n      div\n        /* \"RLP.sol\":6289:6290  1 */\n      0x01\n        /* \"RLP.sol\":6280:6287  byteLen */\n      dup3\n        /* \"RLP.sol\":6276:6291  add(byteLen, 1) */\n      add\n        /* \"RLP.sol\":6267:6274  dataLen */\n      dup2\n        /* \"RLP.sol\":6263:6292  add(dataLen, add(byteLen, 1)) */\n      add\n        /* \"RLP.sol\":6252:6292  itemLen := add(dataLen, add(byteLen, 1)) */\n      swap4\n      pop\n        /* \"RLP.sol\":5970:6300  {... */\n      pop\n      pop\n      jump(tag_223)\n    tag_222:\n        /* \"RLP.sol\":308:312  0xf8 */\n      0xf8\n        /* \"RLP.sol\":6321:6344  byte0 < LIST_LONG_START */\n      0xff\n      and\n        /* \"RLP.sol\":6321:6326  byte0 */\n      dup2\n        /* \"RLP.sol\":6321:6344  byte0 < LIST_LONG_START */\n      lt\n        /* \"RLP.sol\":6317:6675  if (byte0 < LIST_LONG_START) {... */\n      iszero\n      tag_224\n      jumpi\n        /* \"RLP.sol\":6391:6392  1 */\n      0x01\n        /* \"RLP.sol\":264:268  0xc0 */\n      0xc0\n        /* \"RLP.sol\":6364:6388  byte0 - LIST_SHORT_START */\n      0xff\n      and\n        /* \"RLP.sol\":6364:6369  byte0 */\n      dup3\n        /* \"RLP.sol\":6364:6388  byte0 - LIST_SHORT_START */\n      sub\n        /* \"RLP.sol\":6364:6392  byte0 - LIST_SHORT_START + 1 */\n      add\n        /* \"RLP.sol\":6354:6392  itemLen = byte0 - LIST_SHORT_START + 1 */\n      swap2\n      pop\n        /* \"RLP.sol\":6317:6675  if (byte0 < LIST_LONG_START) {... */\n      jump(tag_225)\n    tag_224:\n        /* \"RLP.sol\":6463:6467  0xf7 */\n      0xf7\n        /* \"RLP.sol\":6456:6461  byte0 */\n      dup2\n        /* \"RLP.sol\":6452:6468  sub(byte0, 0xf7) */\n      sub\n        /* \"RLP.sol\":6499:6500  1 */\n      0x01\n        /* \"RLP.sol\":6491:6497  memPtr */\n      dup6\n        /* \"RLP.sol\":6487:6501  add(memPtr, 1) */\n      add\n        /* \"RLP.sol\":6477:6501  memPtr := add(memPtr, 1) */\n      swap5\n      pop\n        /* \"RLP.sol\":6562:6569  byteLen */\n      dup1\n        /* \"RLP.sol\":6558:6560  32 */\n      0x20\n        /* \"RLP.sol\":6554:6570  sub(32, byteLen) */\n      sub\n        /* \"RLP.sol\":6549:6552  256 */\n      0x0100\n        /* \"RLP.sol\":6545:6571  exp(256, sub(32, byteLen)) */\n      exp\n        /* \"RLP.sol\":6536:6542  memPtr */\n      dup6\n        /* \"RLP.sol\":6530:6543  mload(memPtr) */\n      mload\n        /* \"RLP.sol\":6526:6572  div(mload(memPtr), exp(256, sub(32, byteLen))) */\n      div\n        /* \"RLP.sol\":6658:6659  1 */\n      0x01\n        /* \"RLP.sol\":6649:6656  byteLen */\n      dup3\n        /* \"RLP.sol\":6645:6660  add(byteLen, 1) */\n      add\n        /* \"RLP.sol\":6636:6643  dataLen */\n      dup2\n        /* \"RLP.sol\":6632:6661  add(dataLen, add(byteLen, 1)) */\n      add\n        /* \"RLP.sol\":6621:6661  itemLen := add(dataLen, add(byteLen, 1)) */\n      swap4\n      pop\n        /* \"RLP.sol\":6427:6669  {... */\n      pop\n      pop\n    tag_225:\n        /* \"RLP.sol\":5923:6675  if (byte0 < LIST_SHORT_START) {... */\n    tag_223:\n        /* \"RLP.sol\":5834:6675  if (byte0 < STRING_LONG_START)... */\n    tag_221:\n        /* \"RLP.sol\":5773:6675  if (byte0 < STRING_SHORT_START)... */\n    tag_219:\n        /* \"RLP.sol\":6688:6695  itemLen */\n      dup2\n        /* \"RLP.sol\":6681:6695  return itemLen */\n      swap3\n      pop\n      pop\n      pop\n        /* \"RLP.sol\":5611:6700  function _itemLength(uint memPtr) private pure returns (uint) {... */\n      swap2\n      swap1\n      pop\n      jump\t// out\n        /* \"RLP.sol\":7367:7982  function copy(uint src, uint dest, uint len) private pure {... */\n    tag_172:\n        /* \"RLP.sol\":7442:7443  0 */\n      0x00\n        /* \"RLP.sol\":7435:7438  len */\n      dup2\n        /* \"RLP.sol\":7435:7443  len == 0 */\n      eq\n        /* \"RLP.sol\":7431:7452  if (len == 0) return; */\n      iszero\n      tag_227\n      jumpi\n        /* \"RLP.sol\":7445:7452  return; */\n      jump(tag_226)\n        /* \"RLP.sol\":7431:7452  if (len == 0) return; */\n    tag_227:\n        /* \"RLP.sol\":7501:7661  for (; len >= WORD_SIZE; len -= WORD_SIZE) {... */\n    tag_228:\n        /* \"RLP.sol\":343:345  32 */\n      0x20\n        /* \"RLP.sol\":7508:7524  len >= WORD_SIZE */\n      0xff\n      and\n        /* \"RLP.sol\":7508:7511  len */\n      dup2\n        /* \"RLP.sol\":7508:7524  len >= WORD_SIZE */\n      lt\n        /* \"RLP.sol\":7501:7661  for (; len >= WORD_SIZE; len -= WORD_SIZE) {... */\n      tag_229\n      jumpi\n        /* \"RLP.sol\":7592:7595  src */\n      dup3\n        /* \"RLP.sol\":7586:7596  mload(src) */\n      mload\n        /* \"RLP.sol\":7580:7584  dest */\n      dup3\n        /* \"RLP.sol\":7573:7597  mstore(dest, mload(src)) */\n      mstore\n        /* \"RLP.sol\":343:345  32 */\n      0x20\n        /* \"RLP.sol\":7613:7629  src += WORD_SIZE */\n      0xff\n      and\n      dup4\n      add\n      swap3\n      pop\n        /* \"RLP.sol\":343:345  32 */\n      0x20\n        /* \"RLP.sol\":7637:7654  dest += WORD_SIZE */\n      0xff\n      and\n      dup3\n      add\n      swap2\n      pop\n        /* \"RLP.sol\":343:345  32 */\n      0x20\n        /* \"RLP.sol\":7526:7542  len -= WORD_SIZE */\n      0xff\n      and\n      dup2\n      sub\n      swap1\n      pop\n        /* \"RLP.sol\":7501:7661  for (; len >= WORD_SIZE; len -= WORD_SIZE) {... */\n      jump(tag_228)\n    tag_229:\n        /* \"RLP.sol\":7743:7752  uint mask */\n      0x00\n        /* \"RLP.sol\":7782:7783  1 */\n      0x01\n        /* \"RLP.sol\":7775:7778  len */\n      dup3\n        /* \"RLP.sol\":343:345  32 */\n      0x20\n        /* \"RLP.sol\":7763:7778  WORD_SIZE - len */\n      0xff\n      and\n      sub\n        /* \"RLP.sol\":7755:7758  256 */\n      0x0100\n        /* \"RLP.sol\":7755:7779  256 ** (WORD_SIZE - len) */\n      exp\n        /* \"RLP.sol\":7755:7783  256 ** (WORD_SIZE - len) - 1 */\n      sub\n        /* \"RLP.sol\":7743:7783  uint mask = 256 ** (WORD_SIZE - len) - 1 */\n      swap1\n      pop\n        /* \"RLP.sol\":7841:7845  mask */\n      dup1\n        /* \"RLP.sol\":7837:7846  not(mask) */\n      not\n        /* \"RLP.sol\":7831:7834  src */\n      dup5\n        /* \"RLP.sol\":7825:7835  mload(src) */\n      mload\n        /* \"RLP.sol\":7821:7847  and(mload(src), not(mask)) */\n      and\n        /* \"RLP.sol\":7903:7907  mask */\n      dup2\n        /* \"RLP.sol\":7896:7900  dest */\n      dup5\n        /* \"RLP.sol\":7890:7901  mload(dest) */\n      mload\n        /* \"RLP.sol\":7886:7908  and(mload(dest), mask) */\n      and\n        /* \"RLP.sol\":7963:7970  srcpart */\n      dup2\n        /* \"RLP.sol\":7953:7961  destpart */\n      dup2\n        /* \"RLP.sol\":7950:7971  or(destpart, srcpart) */\n      or\n        /* \"RLP.sol\":7944:7948  dest */\n      dup6\n        /* \"RLP.sol\":7937:7972  mstore(dest, or(destpart, srcpart)) */\n      mstore\n        /* \"RLP.sol\":7798:7978  {... */\n      pop\n      pop\n      pop\n    tag_226:\n      pop\n      pop\n      pop\n      jump\t// out\n        /* \"CertificateStorage.sol\":384:5306  contract CertificateStorage is StorageStructure {... */\n    tag_57:\n      mload(0x40)\n      dup1\n      0x40\n      add\n      0x40\n      mstore\n      dup1\n      0x60\n      dup2\n      mstore\n      0x20\n      add\n      0x60\n      dup2\n      mstore\n      pop\n      swap1\n      jump\t// out\n    tag_131:\n      dup3\n      dup1\n      sload\n      0x01\n      dup2\n      0x01\n      and\n      iszero\n      0x0100\n      mul\n      sub\n      and\n      0x02\n      swap1\n      div\n      swap1\n      0x00\n      mstore\n      keccak256(0x00, 0x20)\n      swap1\n      0x1f\n      add\n      0x20\n      swap1\n      div\n      dup2\n      add\n      swap3\n      dup3\n      0x1f\n      lt\n      tag_232\n      jumpi\n      dup1\n      mload\n      not(0xff)\n      and\n      dup4\n      dup1\n      add\n      or\n      dup6\n      sstore\n      jump(tag_231)\n    tag_232:\n      dup3\n      dup1\n      add\n      0x01\n      add\n      dup6\n      sstore\n      dup3\n      iszero\n      tag_231\n      jumpi\n      swap2\n      dup3\n      add\n    tag_233:\n      dup3\n      dup2\n      gt\n      iszero\n      tag_234\n      jumpi\n      dup3\n      mload\n      dup3\n      sstore\n      swap2\n      0x20\n      add\n      swap2\n      swap1\n      0x01\n      add\n      swap1\n      jump(tag_233)\n    tag_234:\n    tag_231:\n      pop\n      swap1\n      pop\n      tag_235\n      swap2\n      swap1\n      tag_236\n      jump\t// in\n    tag_235:\n      pop\n      swap1\n      jump\t// out\n    tag_134:\n      dup3\n      dup1\n      sload\n      0x01\n      dup2\n      0x01\n      and\n      iszero\n      0x0100\n      mul\n      sub\n      and\n      0x02\n      swap1\n      div\n      swap1\n      0x00\n      mstore\n      keccak256(0x00, 0x20)\n      swap1\n      0x1f\n      add\n      0x20\n      swap1\n      div\n      dup2\n      add\n      swap3\n      dup3\n      0x1f\n      lt\n      tag_238\n      jumpi\n      dup1\n      mload\n      not(0xff)\n      and\n      dup4\n      dup1\n      add\n      or\n      dup6\n      sstore\n      jump(tag_237)\n    tag_238:\n      dup3\n      dup1\n      add\n      0x01\n      add\n      dup6\n      sstore\n      dup3\n      iszero\n      tag_237\n      jumpi\n      swap2\n      dup3\n      add\n    tag_239:\n      dup3\n      dup2\n      gt\n      iszero\n      tag_240\n      jumpi\n      dup3\n      mload\n      dup3\n      sstore\n      swap2\n      0x20\n      add\n      swap2\n      swap1\n      0x01\n      add\n      swap1\n      jump(tag_239)\n    tag_240:\n    tag_237:\n      pop\n      swap1\n      pop\n      tag_241\n      swap2\n      swap1\n      tag_236\n      jump\t// in\n    tag_241:\n      pop\n      swap1\n      jump\t// out\n    tag_148:\n      mload(0x40)\n      dup1\n      0x40\n      add\n      0x40\n      mstore\n      dup1\n      0x00\n      dup2\n      mstore\n      0x20\n      add\n      0x00\n      dup2\n      mstore\n      pop\n      swap1\n      jump\t// out\n    tag_159:\n      mload(0x40)\n      dup1\n      0x40\n      add\n      0x40\n      mstore\n      dup1\n      0x00\n      dup2\n      mstore\n      0x20\n      add\n      0x00\n      dup2\n      mstore\n      pop\n      swap1\n      jump\t// out\n    tag_236:\n      tag_242\n      swap2\n      swap1\n    tag_243:\n      dup1\n      dup3\n      gt\n      iszero\n      tag_244\n      jumpi\n      0x00\n      dup2\n      0x00\n      swap1\n      sstore\n      pop\n      0x01\n      add\n      jump(tag_243)\n    tag_244:\n      pop\n      swap1\n      jump\n    tag_242:\n      swap1\n      jump\t// out\n        /* \"--CODEGEN--\":5:135   */\n    tag_246:\n      0x00\n        /* \"--CODEGEN--\":85:91   */\n      dup2\n        /* \"--CODEGEN--\":72:92   */\n      calldataload\n        /* \"--CODEGEN--\":63:92   */\n      swap1\n      pop\n        /* \"--CODEGEN--\":97:130   */\n      tag_248\n        /* \"--CODEGEN--\":124:129   */\n      dup2\n        /* \"--CODEGEN--\":97:130   */\n      jump(tag_249)\n    tag_248:\n        /* \"--CODEGEN--\":57:135   */\n      swap3\n      swap2\n      pop\n      pop\n      jump\n        /* \"--CODEGEN--\":142:266   */\n    tag_250:\n      0x00\n        /* \"--CODEGEN--\":219:225   */\n      dup2\n        /* \"--CODEGEN--\":206:226   */\n      calldataload\n        /* \"--CODEGEN--\":197:226   */\n      swap1\n      pop\n        /* \"--CODEGEN--\":231:261   */\n      tag_252\n        /* \"--CODEGEN--\":255:260   */\n      dup2\n        /* \"--CODEGEN--\":231:261   */\n      jump(tag_253)\n    tag_252:\n        /* \"--CODEGEN--\":191:266   */\n      swap3\n      swap2\n      pop\n      pop\n      jump\n        /* \"--CODEGEN--\":273:403   */\n    tag_254:\n      0x00\n        /* \"--CODEGEN--\":353:359   */\n      dup2\n        /* \"--CODEGEN--\":340:360   */\n      calldataload\n        /* \"--CODEGEN--\":331:360   */\n      swap1\n      pop\n        /* \"--CODEGEN--\":365:398   */\n      tag_256\n        /* \"--CODEGEN--\":392:397   */\n      dup2\n        /* \"--CODEGEN--\":365:398   */\n      jump(tag_257)\n    tag_256:\n        /* \"--CODEGEN--\":325:403   */\n      swap3\n      swap2\n      pop\n      pop\n      jump\n        /* \"--CODEGEN--\":411:851   */\n    tag_258:\n      0x00\n        /* \"--CODEGEN--\":512:515   */\n      dup3\n        /* \"--CODEGEN--\":505:509   */\n      0x1f\n        /* \"--CODEGEN--\":497:503   */\n      dup4\n        /* \"--CODEGEN--\":493:510   */\n      add\n        /* \"--CODEGEN--\":489:516   */\n      slt\n        /* \"--CODEGEN--\":479:481   */\n      tag_260\n      jumpi\n        /* \"--CODEGEN--\":530:531   */\n      0x00\n        /* \"--CODEGEN--\":527:528   */\n      dup1\n        /* \"--CODEGEN--\":520:532   */\n      revert\n        /* \"--CODEGEN--\":479:481   */\n    tag_260:\n        /* \"--CODEGEN--\":567:573   */\n      dup2\n        /* \"--CODEGEN--\":554:574   */\n      calldataload\n        /* \"--CODEGEN--\":589:653   */\n      tag_261\n        /* \"--CODEGEN--\":604:652   */\n      tag_262\n        /* \"--CODEGEN--\":645:651   */\n      dup3\n        /* \"--CODEGEN--\":604:652   */\n      jump(tag_263)\n    tag_262:\n        /* \"--CODEGEN--\":589:653   */\n      jump(tag_264)\n    tag_261:\n        /* \"--CODEGEN--\":580:653   */\n      swap2\n      pop\n        /* \"--CODEGEN--\":673:679   */\n      dup1\n        /* \"--CODEGEN--\":666:671   */\n      dup3\n        /* \"--CODEGEN--\":659:680   */\n      mstore\n        /* \"--CODEGEN--\":709:713   */\n      0x20\n        /* \"--CODEGEN--\":701:707   */\n      dup4\n        /* \"--CODEGEN--\":697:714   */\n      add\n        /* \"--CODEGEN--\":742:746   */\n      0x20\n        /* \"--CODEGEN--\":735:740   */\n      dup4\n        /* \"--CODEGEN--\":731:747   */\n      add\n        /* \"--CODEGEN--\":777:780   */\n      dup6\n        /* \"--CODEGEN--\":768:774   */\n      dup4\n        /* \"--CODEGEN--\":763:766   */\n      dup4\n        /* \"--CODEGEN--\":759:775   */\n      add\n        /* \"--CODEGEN--\":756:781   */\n      gt\n        /* \"--CODEGEN--\":753:755   */\n      iszero\n      tag_265\n      jumpi\n        /* \"--CODEGEN--\":794:795   */\n      0x00\n        /* \"--CODEGEN--\":791:792   */\n      dup1\n        /* \"--CODEGEN--\":784:796   */\n      revert\n        /* \"--CODEGEN--\":753:755   */\n    tag_265:\n        /* \"--CODEGEN--\":804:845   */\n      tag_266\n        /* \"--CODEGEN--\":838:844   */\n      dup4\n        /* \"--CODEGEN--\":833:836   */\n      dup3\n        /* \"--CODEGEN--\":828:831   */\n      dup5\n        /* \"--CODEGEN--\":804:845   */\n      jump(tag_267)\n    tag_266:\n        /* \"--CODEGEN--\":472:851   */\n      pop\n      pop\n      pop\n      swap3\n      swap2\n      pop\n      pop\n      jump\n        /* \"--CODEGEN--\":859:1100   */\n    tag_25:\n      0x00\n        /* \"--CODEGEN--\":963:965   */\n      0x20\n        /* \"--CODEGEN--\":951:960   */\n      dup3\n        /* \"--CODEGEN--\":942:949   */\n      dup5\n        /* \"--CODEGEN--\":938:961   */\n      sub\n        /* \"--CODEGEN--\":934:966   */\n      slt\n        /* \"--CODEGEN--\":931:933   */\n      iszero\n      tag_269\n      jumpi\n        /* \"--CODEGEN--\":979:980   */\n      0x00\n        /* \"--CODEGEN--\":976:977   */\n      dup1\n        /* \"--CODEGEN--\":969:981   */\n      revert\n        /* \"--CODEGEN--\":931:933   */\n    tag_269:\n        /* \"--CODEGEN--\":1014:1015   */\n      0x00\n        /* \"--CODEGEN--\":1031:1084   */\n      tag_270\n        /* \"--CODEGEN--\":1076:1083   */\n      dup5\n        /* \"--CODEGEN--\":1067:1073   */\n      dup3\n        /* \"--CODEGEN--\":1056:1065   */\n      dup6\n        /* \"--CODEGEN--\":1052:1074   */\n      add\n        /* \"--CODEGEN--\":1031:1084   */\n      jump(tag_246)\n    tag_270:\n        /* \"--CODEGEN--\":1021:1084   */\n      swap2\n      pop\n        /* \"--CODEGEN--\":993:1090   */\n      pop\n        /* \"--CODEGEN--\":925:1100   */\n      swap3\n      swap2\n      pop\n      pop\n      jump\n        /* \"--CODEGEN--\":1107:1467   */\n    tag_54:\n      0x00\n      dup1\n        /* \"--CODEGEN--\":1225:1227   */\n      0x40\n        /* \"--CODEGEN--\":1213:1222   */\n      dup4\n        /* \"--CODEGEN--\":1204:1211   */\n      dup6\n        /* \"--CODEGEN--\":1200:1223   */\n      sub\n        /* \"--CODEGEN--\":1196:1228   */\n      slt\n        /* \"--CODEGEN--\":1193:1195   */\n      iszero\n      tag_272\n      jumpi\n        /* \"--CODEGEN--\":1241:1242   */\n      0x00\n        /* \"--CODEGEN--\":1238:1239   */\n      dup1\n        /* \"--CODEGEN--\":1231:1243   */\n      revert\n        /* \"--CODEGEN--\":1193:1195   */\n    tag_272:\n        /* \"--CODEGEN--\":1276:1277   */\n      0x00\n        /* \"--CODEGEN--\":1293:1346   */\n      tag_273\n        /* \"--CODEGEN--\":1338:1345   */\n      dup6\n        /* \"--CODEGEN--\":1329:1335   */\n      dup3\n        /* \"--CODEGEN--\":1318:1327   */\n      dup7\n        /* \"--CODEGEN--\":1314:1336   */\n      add\n        /* \"--CODEGEN--\":1293:1346   */\n      jump(tag_246)\n    tag_273:\n        /* \"--CODEGEN--\":1283:1346   */\n      swap3\n      pop\n        /* \"--CODEGEN--\":1255:1352   */\n      pop\n        /* \"--CODEGEN--\":1383:1385   */\n      0x20\n        /* \"--CODEGEN--\":1401:1451   */\n      tag_274\n        /* \"--CODEGEN--\":1443:1450   */\n      dup6\n        /* \"--CODEGEN--\":1434:1440   */\n      dup3\n        /* \"--CODEGEN--\":1423:1432   */\n      dup7\n        /* \"--CODEGEN--\":1419:1441   */\n      add\n        /* \"--CODEGEN--\":1401:1451   */\n      jump(tag_250)\n    tag_274:\n        /* \"--CODEGEN--\":1391:1451   */\n      swap2\n      pop\n        /* \"--CODEGEN--\":1362:1457   */\n      pop\n        /* \"--CODEGEN--\":1187:1467   */\n      swap3\n      pop\n      swap3\n      swap1\n      pop\n      jump\n        /* \"--CODEGEN--\":1474:1944   */\n    tag_50:\n      0x00\n      dup1\n        /* \"--CODEGEN--\":1604:1606   */\n      0x40\n        /* \"--CODEGEN--\":1592:1601   */\n      dup4\n        /* \"--CODEGEN--\":1583:1590   */\n      dup6\n        /* \"--CODEGEN--\":1579:1602   */\n      sub\n        /* \"--CODEGEN--\":1575:1607   */\n      slt\n        /* \"--CODEGEN--\":1572:1574   */\n      iszero\n      tag_276\n      jumpi\n        /* \"--CODEGEN--\":1620:1621   */\n      0x00\n        /* \"--CODEGEN--\":1617:1618   */\n      dup1\n        /* \"--CODEGEN--\":1610:1622   */\n      revert\n        /* \"--CODEGEN--\":1572:1574   */\n    tag_276:\n        /* \"--CODEGEN--\":1655:1656   */\n      0x00\n        /* \"--CODEGEN--\":1672:1725   */\n      tag_277\n        /* \"--CODEGEN--\":1717:1724   */\n      dup6\n        /* \"--CODEGEN--\":1708:1714   */\n      dup3\n        /* \"--CODEGEN--\":1697:1706   */\n      dup7\n        /* \"--CODEGEN--\":1693:1715   */\n      add\n        /* \"--CODEGEN--\":1672:1725   */\n      jump(tag_246)\n    tag_277:\n        /* \"--CODEGEN--\":1662:1725   */\n      swap3\n      pop\n        /* \"--CODEGEN--\":1634:1731   */\n      pop\n        /* \"--CODEGEN--\":1790:1792   */\n      0x20\n        /* \"--CODEGEN--\":1779:1788   */\n      dup4\n        /* \"--CODEGEN--\":1775:1793   */\n      add\n        /* \"--CODEGEN--\":1762:1794   */\n      calldataload\n        /* \"--CODEGEN--\":1814:1832   */\n      0xffffffffffffffff\n        /* \"--CODEGEN--\":1806:1812   */\n      dup2\n        /* \"--CODEGEN--\":1803:1833   */\n      gt\n        /* \"--CODEGEN--\":1800:1802   */\n      iszero\n      tag_278\n      jumpi\n        /* \"--CODEGEN--\":1846:1847   */\n      0x00\n        /* \"--CODEGEN--\":1843:1844   */\n      dup1\n        /* \"--CODEGEN--\":1836:1848   */\n      revert\n        /* \"--CODEGEN--\":1800:1802   */\n    tag_278:\n        /* \"--CODEGEN--\":1866:1928   */\n      tag_279\n        /* \"--CODEGEN--\":1920:1927   */\n      dup6\n        /* \"--CODEGEN--\":1911:1917   */\n      dup3\n        /* \"--CODEGEN--\":1900:1909   */\n      dup7\n        /* \"--CODEGEN--\":1896:1918   */\n      add\n        /* \"--CODEGEN--\":1866:1928   */\n      jump(tag_258)\n    tag_279:\n        /* \"--CODEGEN--\":1856:1928   */\n      swap2\n      pop\n        /* \"--CODEGEN--\":1741:1934   */\n      pop\n        /* \"--CODEGEN--\":1566:1944   */\n      swap3\n      pop\n      swap3\n      swap1\n      pop\n      jump\n        /* \"--CODEGEN--\":1951:2192   */\n    tag_31:\n      0x00\n        /* \"--CODEGEN--\":2055:2057   */\n      0x20\n        /* \"--CODEGEN--\":2043:2052   */\n      dup3\n        /* \"--CODEGEN--\":2034:2041   */\n      dup5\n        /* \"--CODEGEN--\":2030:2053   */\n      sub\n        /* \"--CODEGEN--\":2026:2058   */\n      slt\n        /* \"--CODEGEN--\":2023:2025   */\n      iszero\n      tag_281\n      jumpi\n        /* \"--CODEGEN--\":2071:2072   */\n      0x00\n        /* \"--CODEGEN--\":2068:2069   */\n      dup1\n        /* \"--CODEGEN--\":2061:2073   */\n      revert\n        /* \"--CODEGEN--\":2023:2025   */\n    tag_281:\n        /* \"--CODEGEN--\":2106:2107   */\n      0x00\n        /* \"--CODEGEN--\":2123:2176   */\n      tag_282\n        /* \"--CODEGEN--\":2168:2175   */\n      dup5\n        /* \"--CODEGEN--\":2159:2165   */\n      dup3\n        /* \"--CODEGEN--\":2148:2157   */\n      dup6\n        /* \"--CODEGEN--\":2144:2166   */\n      add\n        /* \"--CODEGEN--\":2123:2176   */\n      jump(tag_254)\n    tag_282:\n        /* \"--CODEGEN--\":2113:2176   */\n      swap2\n      pop\n        /* \"--CODEGEN--\":2085:2182   */\n      pop\n        /* \"--CODEGEN--\":2017:2192   */\n      swap3\n      swap2\n      pop\n      pop\n      jump\n        /* \"--CODEGEN--\":2199:2544   */\n    tag_44:\n      0x00\n        /* \"--CODEGEN--\":2312:2314   */\n      0x20\n        /* \"--CODEGEN--\":2300:2309   */\n      dup3\n        /* \"--CODEGEN--\":2291:2298   */\n      dup5\n        /* \"--CODEGEN--\":2287:2310   */\n      sub\n        /* \"--CODEGEN--\":2283:2315   */\n      slt\n        /* \"--CODEGEN--\":2280:2282   */\n      iszero\n      tag_284\n      jumpi\n        /* \"--CODEGEN--\":2328:2329   */\n      0x00\n        /* \"--CODEGEN--\":2325:2326   */\n      dup1\n        /* \"--CODEGEN--\":2318:2330   */\n      revert\n        /* \"--CODEGEN--\":2280:2282   */\n    tag_284:\n        /* \"--CODEGEN--\":2391:2392   */\n      0x00\n        /* \"--CODEGEN--\":2380:2389   */\n      dup3\n        /* \"--CODEGEN--\":2376:2393   */\n      add\n        /* \"--CODEGEN--\":2363:2394   */\n      calldataload\n        /* \"--CODEGEN--\":2414:2432   */\n      0xffffffffffffffff\n        /* \"--CODEGEN--\":2406:2412   */\n      dup2\n        /* \"--CODEGEN--\":2403:2433   */\n      gt\n        /* \"--CODEGEN--\":2400:2402   */\n      iszero\n      tag_285\n      jumpi\n        /* \"--CODEGEN--\":2446:2447   */\n      0x00\n        /* \"--CODEGEN--\":2443:2444   */\n      dup1\n        /* \"--CODEGEN--\":2436:2448   */\n      revert\n        /* \"--CODEGEN--\":2400:2402   */\n    tag_285:\n        /* \"--CODEGEN--\":2466:2528   */\n      tag_286\n        /* \"--CODEGEN--\":2520:2527   */\n      dup5\n        /* \"--CODEGEN--\":2511:2517   */\n      dup3\n        /* \"--CODEGEN--\":2500:2509   */\n      dup6\n        /* \"--CODEGEN--\":2496:2518   */\n      add\n        /* \"--CODEGEN--\":2466:2528   */\n      jump(tag_258)\n    tag_286:\n        /* \"--CODEGEN--\":2456:2528   */\n      swap2\n      pop\n        /* \"--CODEGEN--\":2342:2534   */\n      pop\n        /* \"--CODEGEN--\":2274:2544   */\n      swap3\n      swap2\n      pop\n      pop\n      jump\n        /* \"--CODEGEN--\":2551:3015   */\n    tag_15:\n      0x00\n      dup1\n        /* \"--CODEGEN--\":2678:2680   */\n      0x40\n        /* \"--CODEGEN--\":2666:2675   */\n      dup4\n        /* \"--CODEGEN--\":2657:2664   */\n      dup6\n        /* \"--CODEGEN--\":2653:2676   */\n      sub\n        /* \"--CODEGEN--\":2649:2681   */\n      slt\n        /* \"--CODEGEN--\":2646:2648   */\n      iszero\n      tag_288\n      jumpi\n        /* \"--CODEGEN--\":2694:2695   */\n      0x00\n        /* \"--CODEGEN--\":2691:2692   */\n      dup1\n        /* \"--CODEGEN--\":2684:2696   */\n      revert\n        /* \"--CODEGEN--\":2646:2648   */\n    tag_288:\n        /* \"--CODEGEN--\":2757:2758   */\n      0x00\n        /* \"--CODEGEN--\":2746:2755   */\n      dup4\n        /* \"--CODEGEN--\":2742:2759   */\n      add\n        /* \"--CODEGEN--\":2729:2760   */\n      calldataload\n        /* \"--CODEGEN--\":2780:2798   */\n      0xffffffffffffffff\n        /* \"--CODEGEN--\":2772:2778   */\n      dup2\n        /* \"--CODEGEN--\":2769:2799   */\n      gt\n        /* \"--CODEGEN--\":2766:2768   */\n      iszero\n      tag_289\n      jumpi\n        /* \"--CODEGEN--\":2812:2813   */\n      0x00\n        /* \"--CODEGEN--\":2809:2810   */\n      dup1\n        /* \"--CODEGEN--\":2802:2814   */\n      revert\n        /* \"--CODEGEN--\":2766:2768   */\n    tag_289:\n        /* \"--CODEGEN--\":2832:2894   */\n      tag_290\n        /* \"--CODEGEN--\":2886:2893   */\n      dup6\n        /* \"--CODEGEN--\":2877:2883   */\n      dup3\n        /* \"--CODEGEN--\":2866:2875   */\n      dup7\n        /* \"--CODEGEN--\":2862:2884   */\n      add\n        /* \"--CODEGEN--\":2832:2894   */\n      jump(tag_258)\n    tag_290:\n        /* \"--CODEGEN--\":2822:2894   */\n      swap3\n      pop\n        /* \"--CODEGEN--\":2708:2900   */\n      pop\n        /* \"--CODEGEN--\":2931:2933   */\n      0x20\n        /* \"--CODEGEN--\":2949:2999   */\n      tag_291\n        /* \"--CODEGEN--\":2991:2998   */\n      dup6\n        /* \"--CODEGEN--\":2982:2988   */\n      dup3\n        /* \"--CODEGEN--\":2971:2980   */\n      dup7\n        /* \"--CODEGEN--\":2967:2989   */\n      add\n        /* \"--CODEGEN--\":2949:2999   */\n      jump(tag_250)\n    tag_291:\n        /* \"--CODEGEN--\":2939:2999   */\n      swap2\n      pop\n        /* \"--CODEGEN--\":2910:3005   */\n      pop\n        /* \"--CODEGEN--\":2640:3015   */\n      swap3\n      pop\n      swap3\n      swap1\n      pop\n      jump\n        /* \"--CODEGEN--\":3022:3135   */\n    tag_292:\n        /* \"--CODEGEN--\":3105:3129   */\n      tag_294\n        /* \"--CODEGEN--\":3123:3128   */\n      dup2\n        /* \"--CODEGEN--\":3105:3129   */\n      jump(tag_295)\n    tag_294:\n        /* \"--CODEGEN--\":3100:3103   */\n      dup3\n        /* \"--CODEGEN--\":3093:3130   */\n      mstore\n        /* \"--CODEGEN--\":3087:3135   */\n      pop\n      pop\n      jump\n        /* \"--CODEGEN--\":3142:3294   */\n    tag_296:\n        /* \"--CODEGEN--\":3243:3288   */\n      tag_298\n        /* \"--CODEGEN--\":3263:3287   */\n      tag_299\n        /* \"--CODEGEN--\":3281:3286   */\n      dup3\n        /* \"--CODEGEN--\":3263:3287   */\n      jump(tag_295)\n    tag_299:\n        /* \"--CODEGEN--\":3243:3288   */\n      jump(tag_300)\n    tag_298:\n        /* \"--CODEGEN--\":3238:3241   */\n      dup3\n        /* \"--CODEGEN--\":3231:3289   */\n      mstore\n        /* \"--CODEGEN--\":3225:3294   */\n      pop\n      pop\n      jump\n        /* \"--CODEGEN--\":3301:3405   */\n    tag_301:\n        /* \"--CODEGEN--\":3378:3399   */\n      tag_303\n        /* \"--CODEGEN--\":3393:3398   */\n      dup2\n        /* \"--CODEGEN--\":3378:3399   */\n      jump(tag_304)\n    tag_303:\n        /* \"--CODEGEN--\":3373:3376   */\n      dup3\n        /* \"--CODEGEN--\":3366:3400   */\n      mstore\n        /* \"--CODEGEN--\":3360:3405   */\n      pop\n      pop\n      jump\n        /* \"--CODEGEN--\":3412:3525   */\n    tag_305:\n        /* \"--CODEGEN--\":3495:3519   */\n      tag_307\n        /* \"--CODEGEN--\":3513:3518   */\n      dup2\n        /* \"--CODEGEN--\":3495:3519   */\n      jump(tag_308)\n    tag_307:\n        /* \"--CODEGEN--\":3490:3493   */\n      dup3\n        /* \"--CODEGEN--\":3483:3520   */\n      mstore\n        /* \"--CODEGEN--\":3477:3525   */\n      pop\n      pop\n      jump\n        /* \"--CODEGEN--\":3532:3888   */\n    tag_309:\n      0x00\n        /* \"--CODEGEN--\":3660:3698   */\n      tag_311\n        /* \"--CODEGEN--\":3692:3697   */\n      dup3\n        /* \"--CODEGEN--\":3660:3698   */\n      jump(tag_312)\n    tag_311:\n        /* \"--CODEGEN--\":3710:3798   */\n      tag_313\n        /* \"--CODEGEN--\":3791:3797   */\n      dup2\n        /* \"--CODEGEN--\":3786:3789   */\n      dup6\n        /* \"--CODEGEN--\":3710:3798   */\n      jump(tag_314)\n    tag_313:\n        /* \"--CODEGEN--\":3703:3798   */\n      swap4\n      pop\n        /* \"--CODEGEN--\":3803:3855   */\n      tag_315\n        /* \"--CODEGEN--\":3848:3854   */\n      dup2\n        /* \"--CODEGEN--\":3843:3846   */\n      dup6\n        /* \"--CODEGEN--\":3836:3840   */\n      0x20\n        /* \"--CODEGEN--\":3829:3834   */\n      dup7\n        /* \"--CODEGEN--\":3825:3841   */\n      add\n        /* \"--CODEGEN--\":3803:3855   */\n      jump(tag_316)\n    tag_315:\n        /* \"--CODEGEN--\":3876:3882   */\n      dup1\n        /* \"--CODEGEN--\":3871:3874   */\n      dup5\n        /* \"--CODEGEN--\":3867:3883   */\n      add\n        /* \"--CODEGEN--\":3860:3883   */\n      swap2\n      pop\n        /* \"--CODEGEN--\":3640:3888   */\n      pop\n      swap3\n      swap2\n      pop\n      pop\n      jump\n        /* \"--CODEGEN--\":3895:4210   */\n    tag_317:\n      0x00\n        /* \"--CODEGEN--\":3991:4025   */\n      tag_319\n        /* \"--CODEGEN--\":4019:4024   */\n      dup3\n        /* \"--CODEGEN--\":3991:4025   */\n      jump(tag_320)\n    tag_319:\n        /* \"--CODEGEN--\":4037:4097   */\n      tag_321\n        /* \"--CODEGEN--\":4090:4096   */\n      dup2\n        /* \"--CODEGEN--\":4085:4088   */\n      dup6\n        /* \"--CODEGEN--\":4037:4097   */\n      jump(tag_322)\n    tag_321:\n        /* \"--CODEGEN--\":4030:4097   */\n      swap4\n      pop\n        /* \"--CODEGEN--\":4102:4154   */\n      tag_323\n        /* \"--CODEGEN--\":4147:4153   */\n      dup2\n        /* \"--CODEGEN--\":4142:4145   */\n      dup6\n        /* \"--CODEGEN--\":4135:4139   */\n      0x20\n        /* \"--CODEGEN--\":4128:4133   */\n      dup7\n        /* \"--CODEGEN--\":4124:4140   */\n      add\n        /* \"--CODEGEN--\":4102:4154   */\n      jump(tag_316)\n    tag_323:\n        /* \"--CODEGEN--\":4175:4204   */\n      tag_324\n        /* \"--CODEGEN--\":4197:4203   */\n      dup2\n        /* \"--CODEGEN--\":4175:4204   */\n      jump(tag_325)\n    tag_324:\n        /* \"--CODEGEN--\":4170:4173   */\n      dup5\n        /* \"--CODEGEN--\":4166:4205   */\n      add\n        /* \"--CODEGEN--\":4159:4205   */\n      swap2\n      pop\n        /* \"--CODEGEN--\":3971:4210   */\n      pop\n      swap3\n      swap2\n      pop\n      pop\n      jump\n        /* \"--CODEGEN--\":4217:4552   */\n    tag_326:\n      0x00\n        /* \"--CODEGEN--\":4323:4357   */\n      tag_328\n        /* \"--CODEGEN--\":4351:4356   */\n      dup3\n        /* \"--CODEGEN--\":4323:4357   */\n      jump(tag_320)\n    tag_328:\n        /* \"--CODEGEN--\":4369:4439   */\n      tag_329\n        /* \"--CODEGEN--\":4432:4438   */\n      dup2\n        /* \"--CODEGEN--\":4427:4430   */\n      dup6\n        /* \"--CODEGEN--\":4369:4439   */\n      jump(tag_330)\n    tag_329:\n        /* \"--CODEGEN--\":4362:4439   */\n      swap4\n      pop\n        /* \"--CODEGEN--\":4444:4496   */\n      tag_331\n        /* \"--CODEGEN--\":4489:4495   */\n      dup2\n        /* \"--CODEGEN--\":4484:4487   */\n      dup6\n        /* \"--CODEGEN--\":4477:4481   */\n      0x20\n        /* \"--CODEGEN--\":4470:4475   */\n      dup7\n        /* \"--CODEGEN--\":4466:4482   */\n      add\n        /* \"--CODEGEN--\":4444:4496   */\n      jump(tag_316)\n    tag_331:\n        /* \"--CODEGEN--\":4517:4546   */\n      tag_332\n        /* \"--CODEGEN--\":4539:4545   */\n      dup2\n        /* \"--CODEGEN--\":4517:4546   */\n      jump(tag_325)\n    tag_332:\n        /* \"--CODEGEN--\":4512:4515   */\n      dup5\n        /* \"--CODEGEN--\":4508:4547   */\n      add\n        /* \"--CODEGEN--\":4501:4547   */\n      swap2\n      pop\n        /* \"--CODEGEN--\":4303:4552   */\n      pop\n      swap3\n      swap2\n      pop\n      pop\n      jump\n        /* \"--CODEGEN--\":4559:4907   */\n    tag_333:\n      0x00\n        /* \"--CODEGEN--\":4683:4717   */\n      tag_335\n        /* \"--CODEGEN--\":4711:4716   */\n      dup3\n        /* \"--CODEGEN--\":4683:4717   */\n      jump(tag_320)\n    tag_335:\n        /* \"--CODEGEN--\":4729:4817   */\n      tag_336\n        /* \"--CODEGEN--\":4810:4816   */\n      dup2\n        /* \"--CODEGEN--\":4805:4808   */\n      dup6\n        /* \"--CODEGEN--\":4729:4817   */\n      jump(tag_314)\n    tag_336:\n        /* \"--CODEGEN--\":4722:4817   */\n      swap4\n      pop\n        /* \"--CODEGEN--\":4822:4874   */\n      tag_337\n        /* \"--CODEGEN--\":4867:4873   */\n      dup2\n        /* \"--CODEGEN--\":4862:4865   */\n      dup6\n        /* \"--CODEGEN--\":4855:4859   */\n      0x20\n        /* \"--CODEGEN--\":4848:4853   */\n      dup7\n        /* \"--CODEGEN--\":4844:4860   */\n      add\n        /* \"--CODEGEN--\":4822:4874   */\n      jump(tag_316)\n    tag_337:\n        /* \"--CODEGEN--\":4895:4901   */\n      dup1\n        /* \"--CODEGEN--\":4890:4893   */\n      dup5\n        /* \"--CODEGEN--\":4886:4902   */\n      add\n        /* \"--CODEGEN--\":4879:4902   */\n      swap2\n      pop\n        /* \"--CODEGEN--\":4663:4907   */\n      pop\n      swap3\n      swap2\n      pop\n      pop\n      jump\n        /* \"--CODEGEN--\":4915:5239   */\n    tag_338:\n      0x00\n        /* \"--CODEGEN--\":5075:5142   */\n      tag_340\n        /* \"--CODEGEN--\":5139:5141   */\n      0x18\n        /* \"--CODEGEN--\":5134:5137   */\n      dup4\n        /* \"--CODEGEN--\":5075:5142   */\n      jump(tag_341)\n    tag_340:\n        /* \"--CODEGEN--\":5068:5142   */\n      swap2\n      pop\n        /* \"--CODEGEN--\":5175:5201   */\n      0x636572746966696572206e6f7420617574686f72697365640000000000000000\n        /* \"--CODEGEN--\":5171:5172   */\n      0x00\n        /* \"--CODEGEN--\":5166:5169   */\n      dup4\n        /* \"--CODEGEN--\":5162:5173   */\n      add\n        /* \"--CODEGEN--\":5155:5202   */\n      mstore\n        /* \"--CODEGEN--\":5230:5232   */\n      0x20\n        /* \"--CODEGEN--\":5225:5228   */\n      dup3\n        /* \"--CODEGEN--\":5221:5233   */\n      add\n        /* \"--CODEGEN--\":5214:5233   */\n      swap1\n      pop\n        /* \"--CODEGEN--\":5061:5239   */\n      swap2\n      swap1\n      pop\n      jump\n        /* \"--CODEGEN--\":5248:5570   */\n    tag_342:\n      0x00\n        /* \"--CODEGEN--\":5408:5475   */\n      tag_344\n        /* \"--CODEGEN--\":5472:5474   */\n      0x16\n        /* \"--CODEGEN--\":5467:5470   */\n      dup4\n        /* \"--CODEGEN--\":5408:5475   */\n      jump(tag_341)\n    tag_344:\n        /* \"--CODEGEN--\":5401:5475   */\n      swap2\n      pop\n        /* \"--CODEGEN--\":5508:5532   */\n      0x696e76616c6964207265636f766572792076616c756500000000000000000000\n        /* \"--CODEGEN--\":5504:5505   */\n      0x00\n        /* \"--CODEGEN--\":5499:5502   */\n      dup4\n        /* \"--CODEGEN--\":5495:5506   */\n      add\n        /* \"--CODEGEN--\":5488:5533   */\n      mstore\n        /* \"--CODEGEN--\":5561:5563   */\n      0x20\n        /* \"--CODEGEN--\":5556:5559   */\n      dup3\n        /* \"--CODEGEN--\":5552:5564   */\n      add\n        /* \"--CODEGEN--\":5545:5564   */\n      swap1\n      pop\n        /* \"--CODEGEN--\":5394:5570   */\n      swap2\n      swap1\n      pop\n      jump\n        /* \"--CODEGEN--\":5579:5895   */\n    tag_345:\n      0x00\n        /* \"--CODEGEN--\":5739:5806   */\n      tag_347\n        /* \"--CODEGEN--\":5803:5805   */\n      0x10\n        /* \"--CODEGEN--\":5798:5801   */\n      dup4\n        /* \"--CODEGEN--\":5739:5806   */\n      jump(tag_341)\n    tag_347:\n        /* \"--CODEGEN--\":5732:5806   */\n      swap2\n      pop\n        /* \"--CODEGEN--\":5839:5857   */\n      0x6e656564206e6577207369676e65727300000000000000000000000000000000\n        /* \"--CODEGEN--\":5835:5836   */\n      0x00\n        /* \"--CODEGEN--\":5830:5833   */\n      dup4\n        /* \"--CODEGEN--\":5826:5837   */\n      add\n        /* \"--CODEGEN--\":5819:5858   */\n      mstore\n        /* \"--CODEGEN--\":5886:5888   */\n      0x20\n        /* \"--CODEGEN--\":5881:5884   */\n      dup3\n        /* \"--CODEGEN--\":5877:5889   */\n      add\n        /* \"--CODEGEN--\":5870:5889   */\n      swap1\n      pop\n        /* \"--CODEGEN--\":5725:5895   */\n      swap2\n      swap1\n      pop\n      jump\n        /* \"--CODEGEN--\":5904:6233   */\n    tag_348:\n      0x00\n        /* \"--CODEGEN--\":6064:6131   */\n      tag_350\n        /* \"--CODEGEN--\":6128:6130   */\n      0x1d\n        /* \"--CODEGEN--\":6123:6126   */\n      dup4\n        /* \"--CODEGEN--\":6064:6131   */\n      jump(tag_341)\n    tag_350:\n        /* \"--CODEGEN--\":6057:6131   */\n      swap2\n      pop\n        /* \"--CODEGEN--\":6164:6195   */\n      0x696e76616c6964207061636b6564207369676e657273206c656e677468000000\n        /* \"--CODEGEN--\":6160:6161   */\n      0x00\n        /* \"--CODEGEN--\":6155:6158   */\n      dup4\n        /* \"--CODEGEN--\":6151:6162   */\n      add\n        /* \"--CODEGEN--\":6144:6196   */\n      mstore\n        /* \"--CODEGEN--\":6224:6226   */\n      0x20\n        /* \"--CODEGEN--\":6219:6222   */\n      dup3\n        /* \"--CODEGEN--\":6215:6227   */\n      add\n        /* \"--CODEGEN--\":6208:6227   */\n      swap1\n      pop\n        /* \"--CODEGEN--\":6050:6233   */\n      swap2\n      swap1\n      pop\n      jump\n        /* \"--CODEGEN--\":6242:6570   */\n    tag_351:\n      0x00\n        /* \"--CODEGEN--\":6402:6469   */\n      tag_353\n        /* \"--CODEGEN--\":6466:6468   */\n      0x1c\n        /* \"--CODEGEN--\":6461:6464   */\n      dup4\n        /* \"--CODEGEN--\":6402:6469   */\n      jump(tag_341)\n    tag_353:\n        /* \"--CODEGEN--\":6395:6469   */\n      swap2\n      pop\n        /* \"--CODEGEN--\":6502:6532   */\n      0x65616368207369676e65722073686f756c6420626520756e6971756500000000\n        /* \"--CODEGEN--\":6498:6499   */\n      0x00\n        /* \"--CODEGEN--\":6493:6496   */\n      dup4\n        /* \"--CODEGEN--\":6489:6500   */\n      add\n        /* \"--CODEGEN--\":6482:6533   */\n      mstore\n        /* \"--CODEGEN--\":6561:6563   */\n      0x20\n        /* \"--CODEGEN--\":6556:6559   */\n      dup3\n        /* \"--CODEGEN--\":6552:6564   */\n      add\n        /* \"--CODEGEN--\":6545:6564   */\n      swap1\n      pop\n        /* \"--CODEGEN--\":6388:6570   */\n      swap2\n      swap1\n      pop\n      jump\n        /* \"--CODEGEN--\":6579:6900   */\n    tag_354:\n      0x00\n        /* \"--CODEGEN--\":6739:6806   */\n      tag_356\n        /* \"--CODEGEN--\":6803:6805   */\n      0x15\n        /* \"--CODEGEN--\":6798:6801   */\n      dup4\n        /* \"--CODEGEN--\":6739:6806   */\n      jump(tag_341)\n    tag_356:\n        /* \"--CODEGEN--\":6732:6806   */\n      swap2\n      pop\n        /* \"--CODEGEN--\":6839:6862   */\n      0x6f6e6c79206d616e616765722063616e2063616c6c0000000000000000000000\n        /* \"--CODEGEN--\":6835:6836   */\n      0x00\n        /* \"--CODEGEN--\":6830:6833   */\n      dup4\n        /* \"--CODEGEN--\":6826:6837   */\n      add\n        /* \"--CODEGEN--\":6819:6863   */\n      mstore\n        /* \"--CODEGEN--\":6891:6893   */\n      0x20\n        /* \"--CODEGEN--\":6886:6889   */\n      dup3\n        /* \"--CODEGEN--\":6882:6894   */\n      add\n        /* \"--CODEGEN--\":6875:6894   */\n      swap1\n      pop\n        /* \"--CODEGEN--\":6725:6900   */\n      swap2\n      swap1\n      pop\n      jump\n        /* \"--CODEGEN--\":6989:7635   */\n    tag_357:\n      0x00\n        /* \"--CODEGEN--\":7148:7152   */\n      0x40\n        /* \"--CODEGEN--\":7143:7146   */\n      dup4\n        /* \"--CODEGEN--\":7139:7153   */\n      add\n        /* \"--CODEGEN--\":7231:7235   */\n      0x00\n        /* \"--CODEGEN--\":7224:7229   */\n      dup4\n        /* \"--CODEGEN--\":7220:7236   */\n      add\n        /* \"--CODEGEN--\":7214:7237   */\n      mload\n        /* \"--CODEGEN--\":7283:7286   */\n      dup5\n        /* \"--CODEGEN--\":7277:7281   */\n      dup3\n        /* \"--CODEGEN--\":7273:7287   */\n      sub\n        /* \"--CODEGEN--\":7266:7270   */\n      0x00\n        /* \"--CODEGEN--\":7261:7264   */\n      dup7\n        /* \"--CODEGEN--\":7257:7271   */\n      add\n        /* \"--CODEGEN--\":7250:7288   */\n      mstore\n        /* \"--CODEGEN--\":7303:7370   */\n      tag_359\n        /* \"--CODEGEN--\":7365:7369   */\n      dup3\n        /* \"--CODEGEN--\":7351:7363   */\n      dup3\n        /* \"--CODEGEN--\":7303:7370   */\n      jump(tag_317)\n    tag_359:\n        /* \"--CODEGEN--\":7295:7370   */\n      swap2\n      pop\n        /* \"--CODEGEN--\":7168:7382   */\n      pop\n        /* \"--CODEGEN--\":7458:7462   */\n      0x20\n        /* \"--CODEGEN--\":7451:7456   */\n      dup4\n        /* \"--CODEGEN--\":7447:7463   */\n      add\n        /* \"--CODEGEN--\":7441:7464   */\n      mload\n        /* \"--CODEGEN--\":7510:7513   */\n      dup5\n        /* \"--CODEGEN--\":7504:7508   */\n      dup3\n        /* \"--CODEGEN--\":7500:7514   */\n      sub\n        /* \"--CODEGEN--\":7493:7497   */\n      0x20\n        /* \"--CODEGEN--\":7488:7491   */\n      dup7\n        /* \"--CODEGEN--\":7484:7498   */\n      add\n        /* \"--CODEGEN--\":7477:7515   */\n      mstore\n        /* \"--CODEGEN--\":7530:7597   */\n      tag_360\n        /* \"--CODEGEN--\":7592:7596   */\n      dup3\n        /* \"--CODEGEN--\":7578:7590   */\n      dup3\n        /* \"--CODEGEN--\":7530:7597   */\n      jump(tag_317)\n    tag_360:\n        /* \"--CODEGEN--\":7522:7597   */\n      swap2\n      pop\n        /* \"--CODEGEN--\":7392:7609   */\n      pop\n        /* \"--CODEGEN--\":7626:7630   */\n      dup1\n        /* \"--CODEGEN--\":7619:7630   */\n      swap2\n      pop\n        /* \"--CODEGEN--\":7121:7635   */\n      pop\n      swap3\n      swap2\n      pop\n      pop\n      jump\n        /* \"--CODEGEN--\":7642:7749   */\n    tag_361:\n        /* \"--CODEGEN--\":7721:7743   */\n      tag_363\n        /* \"--CODEGEN--\":7737:7742   */\n      dup2\n        /* \"--CODEGEN--\":7721:7743   */\n      jump(tag_364)\n    tag_363:\n        /* \"--CODEGEN--\":7716:7719   */\n      dup3\n        /* \"--CODEGEN--\":7709:7744   */\n      mstore\n        /* \"--CODEGEN--\":7703:7749   */\n      pop\n      pop\n      jump\n        /* \"--CODEGEN--\":7756:8157   */\n    tag_125:\n      0x00\n        /* \"--CODEGEN--\":7928:8021   */\n      tag_366\n        /* \"--CODEGEN--\":8017:8020   */\n      dup3\n        /* \"--CODEGEN--\":8008:8014   */\n      dup6\n        /* \"--CODEGEN--\":7928:8021   */\n      jump(tag_309)\n    tag_366:\n        /* \"--CODEGEN--\":7921:8021   */\n      swap2\n      pop\n        /* \"--CODEGEN--\":8032:8107   */\n      tag_367\n        /* \"--CODEGEN--\":8103:8106   */\n      dup3\n        /* \"--CODEGEN--\":8094:8100   */\n      dup5\n        /* \"--CODEGEN--\":8032:8107   */\n      jump(tag_296)\n    tag_367:\n        /* \"--CODEGEN--\":8129:8131   */\n      0x14\n        /* \"--CODEGEN--\":8124:8127   */\n      dup3\n        /* \"--CODEGEN--\":8120:8132   */\n      add\n        /* \"--CODEGEN--\":8113:8132   */\n      swap2\n      pop\n        /* \"--CODEGEN--\":8149:8152   */\n      dup2\n        /* \"--CODEGEN--\":8142:8152   */\n      swap1\n      pop\n        /* \"--CODEGEN--\":7909:8157   */\n      swap4\n      swap3\n      pop\n      pop\n      pop\n      jump\n        /* \"--CODEGEN--\":8164:8557   */\n    tag_95:\n      0x00\n        /* \"--CODEGEN--\":8332:8421   */\n      tag_369\n        /* \"--CODEGEN--\":8417:8420   */\n      dup3\n        /* \"--CODEGEN--\":8408:8414   */\n      dup6\n        /* \"--CODEGEN--\":8332:8421   */\n      jump(tag_333)\n    tag_369:\n        /* \"--CODEGEN--\":8325:8421   */\n      swap2\n      pop\n        /* \"--CODEGEN--\":8432:8507   */\n      tag_370\n        /* \"--CODEGEN--\":8503:8506   */\n      dup3\n        /* \"--CODEGEN--\":8494:8500   */\n      dup5\n        /* \"--CODEGEN--\":8432:8507   */\n      jump(tag_296)\n    tag_370:\n        /* \"--CODEGEN--\":8529:8531   */\n      0x14\n        /* \"--CODEGEN--\":8524:8527   */\n      dup3\n        /* \"--CODEGEN--\":8520:8532   */\n      add\n        /* \"--CODEGEN--\":8513:8532   */\n      swap2\n      pop\n        /* \"--CODEGEN--\":8549:8552   */\n      dup2\n        /* \"--CODEGEN--\":8542:8552   */\n      swap1\n      pop\n        /* \"--CODEGEN--\":8313:8557   */\n      swap4\n      swap3\n      pop\n      pop\n      pop\n      jump\n        /* \"--CODEGEN--\":8564:9124   */\n    tag_69:\n      0x00\n        /* \"--CODEGEN--\":8792:8881   */\n      tag_372\n        /* \"--CODEGEN--\":8877:8880   */\n      dup3\n        /* \"--CODEGEN--\":8868:8874   */\n      dup7\n        /* \"--CODEGEN--\":8792:8881   */\n      jump(tag_333)\n    tag_372:\n        /* \"--CODEGEN--\":8785:8881   */\n      swap2\n      pop\n        /* \"--CODEGEN--\":8899:8992   */\n      tag_373\n        /* \"--CODEGEN--\":8988:8991   */\n      dup3\n        /* \"--CODEGEN--\":8979:8985   */\n      dup6\n        /* \"--CODEGEN--\":8899:8992   */\n      jump(tag_309)\n    tag_373:\n        /* \"--CODEGEN--\":8892:8992   */\n      swap2\n      pop\n        /* \"--CODEGEN--\":9010:9099   */\n      tag_374\n        /* \"--CODEGEN--\":9095:9098   */\n      dup3\n        /* \"--CODEGEN--\":9086:9092   */\n      dup5\n        /* \"--CODEGEN--\":9010:9099   */\n      jump(tag_333)\n    tag_374:\n        /* \"--CODEGEN--\":9003:9099   */\n      swap2\n      pop\n        /* \"--CODEGEN--\":9116:9119   */\n      dup2\n        /* \"--CODEGEN--\":9109:9119   */\n      swap1\n      pop\n        /* \"--CODEGEN--\":8773:9124   */\n      swap5\n      swap4\n      pop\n      pop\n      pop\n      pop\n      jump\n        /* \"--CODEGEN--\":9131:9344   */\n    tag_22:\n      0x00\n        /* \"--CODEGEN--\":9249:9251   */\n      0x20\n        /* \"--CODEGEN--\":9238:9247   */\n      dup3\n        /* \"--CODEGEN--\":9234:9252   */\n      add\n        /* \"--CODEGEN--\":9226:9252   */\n      swap1\n      pop\n        /* \"--CODEGEN--\":9263:9334   */\n      tag_376\n        /* \"--CODEGEN--\":9331:9332   */\n      0x00\n        /* \"--CODEGEN--\":9320:9329   */\n      dup4\n        /* \"--CODEGEN--\":9316:9333   */\n      add\n        /* \"--CODEGEN--\":9307:9313   */\n      dup5\n        /* \"--CODEGEN--\":9263:9334   */\n      jump(tag_292)\n    tag_376:\n        /* \"--CODEGEN--\":9220:9344   */\n      swap3\n      swap2\n      pop\n      pop\n      jump\n        /* \"--CODEGEN--\":9351:9552   */\n    tag_142:\n      0x00\n        /* \"--CODEGEN--\":9463:9465   */\n      0x20\n        /* \"--CODEGEN--\":9452:9461   */\n      dup3\n        /* \"--CODEGEN--\":9448:9466   */\n      add\n        /* \"--CODEGEN--\":9440:9466   */\n      swap1\n      pop\n        /* \"--CODEGEN--\":9477:9542   */\n      tag_378\n        /* \"--CODEGEN--\":9539:9540   */\n      0x00\n        /* \"--CODEGEN--\":9528:9537   */\n      dup4\n        /* \"--CODEGEN--\":9524:9541   */\n      add\n        /* \"--CODEGEN--\":9515:9521   */\n      dup5\n        /* \"--CODEGEN--\":9477:9542   */\n      jump(tag_301)\n    tag_378:\n        /* \"--CODEGEN--\":9434:9552   */\n      swap3\n      swap2\n      pop\n      pop\n      jump\n        /* \"--CODEGEN--\":9559:9772   */\n    tag_47:\n      0x00\n        /* \"--CODEGEN--\":9677:9679   */\n      0x20\n        /* \"--CODEGEN--\":9666:9675   */\n      dup3\n        /* \"--CODEGEN--\":9662:9680   */\n      add\n        /* \"--CODEGEN--\":9654:9680   */\n      swap1\n      pop\n        /* \"--CODEGEN--\":9691:9762   */\n      tag_380\n        /* \"--CODEGEN--\":9759:9760   */\n      0x00\n        /* \"--CODEGEN--\":9748:9757   */\n      dup4\n        /* \"--CODEGEN--\":9744:9761   */\n      add\n        /* \"--CODEGEN--\":9735:9741   */\n      dup5\n        /* \"--CODEGEN--\":9691:9762   */\n      jump(tag_305)\n    tag_380:\n        /* \"--CODEGEN--\":9648:9772   */\n      swap3\n      swap2\n      pop\n      pop\n      jump\n        /* \"--CODEGEN--\":9779:10318   */\n    tag_82:\n      0x00\n        /* \"--CODEGEN--\":9977:9980   */\n      0x80\n        /* \"--CODEGEN--\":9966:9975   */\n      dup3\n        /* \"--CODEGEN--\":9962:9981   */\n      add\n        /* \"--CODEGEN--\":9954:9981   */\n      swap1\n      pop\n        /* \"--CODEGEN--\":9992:10063   */\n      tag_382\n        /* \"--CODEGEN--\":10060:10061   */\n      0x00\n        /* \"--CODEGEN--\":10049:10058   */\n      dup4\n        /* \"--CODEGEN--\":10045:10062   */\n      add\n        /* \"--CODEGEN--\":10036:10042   */\n      dup8\n        /* \"--CODEGEN--\":9992:10063   */\n      jump(tag_305)\n    tag_382:\n        /* \"--CODEGEN--\":10074:10142   */\n      tag_383\n        /* \"--CODEGEN--\":10138:10140   */\n      0x20\n        /* \"--CODEGEN--\":10127:10136   */\n      dup4\n        /* \"--CODEGEN--\":10123:10141   */\n      add\n        /* \"--CODEGEN--\":10114:10120   */\n      dup7\n        /* \"--CODEGEN--\":10074:10142   */\n      jump(tag_361)\n    tag_383:\n        /* \"--CODEGEN--\":10153:10225   */\n      tag_384\n        /* \"--CODEGEN--\":10221:10223   */\n      0x40\n        /* \"--CODEGEN--\":10210:10219   */\n      dup4\n        /* \"--CODEGEN--\":10206:10224   */\n      add\n        /* \"--CODEGEN--\":10197:10203   */\n      dup6\n        /* \"--CODEGEN--\":10153:10225   */\n      jump(tag_305)\n    tag_384:\n        /* \"--CODEGEN--\":10236:10308   */\n      tag_385\n        /* \"--CODEGEN--\":10304:10306   */\n      0x60\n        /* \"--CODEGEN--\":10293:10302   */\n      dup4\n        /* \"--CODEGEN--\":10289:10307   */\n      add\n        /* \"--CODEGEN--\":10280:10286   */\n      dup5\n        /* \"--CODEGEN--\":10236:10308   */\n      jump(tag_305)\n    tag_385:\n        /* \"--CODEGEN--\":9948:10318   */\n      swap6\n      swap5\n      pop\n      pop\n      pop\n      pop\n      pop\n      jump\n        /* \"--CODEGEN--\":10325:10614   */\n    tag_41:\n      0x00\n        /* \"--CODEGEN--\":10457:10459   */\n      0x20\n        /* \"--CODEGEN--\":10446:10455   */\n      dup3\n        /* \"--CODEGEN--\":10442:10460   */\n      add\n        /* \"--CODEGEN--\":10434:10460   */\n      swap1\n      pop\n        /* \"--CODEGEN--\":10507:10516   */\n      dup2\n        /* \"--CODEGEN--\":10501:10505   */\n      dup2\n        /* \"--CODEGEN--\":10497:10517   */\n      sub\n        /* \"--CODEGEN--\":10493:10494   */\n      0x00\n        /* \"--CODEGEN--\":10482:10491   */\n      dup4\n        /* \"--CODEGEN--\":10478:10495   */\n      add\n        /* \"--CODEGEN--\":10471:10518   */\n      mstore\n        /* \"--CODEGEN--\":10532:10604   */\n      tag_387\n        /* \"--CODEGEN--\":10599:10603   */\n      dup2\n        /* \"--CODEGEN--\":10590:10596   */\n      dup5\n        /* \"--CODEGEN--\":10532:10604   */\n      jump(tag_326)\n    tag_387:\n        /* \"--CODEGEN--\":10524:10604   */\n      swap1\n      pop\n        /* \"--CODEGEN--\":10428:10614   */\n      swap3\n      swap2\n      pop\n      pop\n      jump\n        /* \"--CODEGEN--\":10621:11108   */\n    tag_28:\n      0x00\n        /* \"--CODEGEN--\":10797:10799   */\n      0x60\n        /* \"--CODEGEN--\":10786:10795   */\n      dup3\n        /* \"--CODEGEN--\":10782:10800   */\n      add\n        /* \"--CODEGEN--\":10774:10800   */\n      swap1\n      pop\n        /* \"--CODEGEN--\":10847:10856   */\n      dup2\n        /* \"--CODEGEN--\":10841:10845   */\n      dup2\n        /* \"--CODEGEN--\":10837:10857   */\n      sub\n        /* \"--CODEGEN--\":10833:10834   */\n      0x00\n        /* \"--CODEGEN--\":10822:10831   */\n      dup4\n        /* \"--CODEGEN--\":10818:10835   */\n      add\n        /* \"--CODEGEN--\":10811:10858   */\n      mstore\n        /* \"--CODEGEN--\":10872:10944   */\n      tag_389\n        /* \"--CODEGEN--\":10939:10943   */\n      dup2\n        /* \"--CODEGEN--\":10930:10936   */\n      dup7\n        /* \"--CODEGEN--\":10872:10944   */\n      jump(tag_326)\n    tag_389:\n        /* \"--CODEGEN--\":10864:10944   */\n      swap1\n      pop\n        /* \"--CODEGEN--\":10955:11021   */\n      tag_390\n        /* \"--CODEGEN--\":11017:11019   */\n      0x20\n        /* \"--CODEGEN--\":11006:11015   */\n      dup4\n        /* \"--CODEGEN--\":11002:11020   */\n      add\n        /* \"--CODEGEN--\":10993:10999   */\n      dup6\n        /* \"--CODEGEN--\":10955:11021   */\n      jump(tag_301)\n    tag_390:\n        /* \"--CODEGEN--\":11032:11098   */\n      tag_391\n        /* \"--CODEGEN--\":11094:11096   */\n      0x40\n        /* \"--CODEGEN--\":11083:11092   */\n      dup4\n        /* \"--CODEGEN--\":11079:11097   */\n      add\n        /* \"--CODEGEN--\":11070:11076   */\n      dup5\n        /* \"--CODEGEN--\":11032:11098   */\n      jump(tag_301)\n    tag_391:\n        /* \"--CODEGEN--\":10768:11108   */\n      swap5\n      swap4\n      pop\n      pop\n      pop\n      pop\n      jump\n        /* \"--CODEGEN--\":11115:11591   */\n    tag_34:\n      0x00\n        /* \"--CODEGEN--\":11289:11291   */\n      0x40\n        /* \"--CODEGEN--\":11278:11287   */\n      dup3\n        /* \"--CODEGEN--\":11274:11292   */\n      add\n        /* \"--CODEGEN--\":11266:11292   */\n      swap1\n      pop\n        /* \"--CODEGEN--\":11339:11348   */\n      dup2\n        /* \"--CODEGEN--\":11333:11337   */\n      dup2\n        /* \"--CODEGEN--\":11329:11349   */\n      sub\n        /* \"--CODEGEN--\":11325:11326   */\n      0x00\n        /* \"--CODEGEN--\":11314:11323   */\n      dup4\n        /* \"--CODEGEN--\":11310:11327   */\n      add\n        /* \"--CODEGEN--\":11303:11350   */\n      mstore\n        /* \"--CODEGEN--\":11364:11436   */\n      tag_393\n        /* \"--CODEGEN--\":11431:11435   */\n      dup2\n        /* \"--CODEGEN--\":11422:11428   */\n      dup6\n        /* \"--CODEGEN--\":11364:11436   */\n      jump(tag_326)\n    tag_393:\n        /* \"--CODEGEN--\":11356:11436   */\n      swap1\n      pop\n        /* \"--CODEGEN--\":11484:11493   */\n      dup2\n        /* \"--CODEGEN--\":11478:11482   */\n      dup2\n        /* \"--CODEGEN--\":11474:11494   */\n      sub\n        /* \"--CODEGEN--\":11469:11471   */\n      0x20\n        /* \"--CODEGEN--\":11458:11467   */\n      dup4\n        /* \"--CODEGEN--\":11454:11472   */\n      add\n        /* \"--CODEGEN--\":11447:11495   */\n      mstore\n        /* \"--CODEGEN--\":11509:11581   */\n      tag_394\n        /* \"--CODEGEN--\":11576:11580   */\n      dup2\n        /* \"--CODEGEN--\":11567:11573   */\n      dup5\n        /* \"--CODEGEN--\":11509:11581   */\n      jump(tag_326)\n    tag_394:\n        /* \"--CODEGEN--\":11501:11581   */\n      swap1\n      pop\n        /* \"--CODEGEN--\":11260:11591   */\n      swap4\n      swap3\n      pop\n      pop\n      pop\n      jump\n        /* \"--CODEGEN--\":11598:12005   */\n    tag_93:\n      0x00\n        /* \"--CODEGEN--\":11789:11791   */\n      0x20\n        /* \"--CODEGEN--\":11778:11787   */\n      dup3\n        /* \"--CODEGEN--\":11774:11792   */\n      add\n        /* \"--CODEGEN--\":11766:11792   */\n      swap1\n      pop\n        /* \"--CODEGEN--\":11839:11848   */\n      dup2\n        /* \"--CODEGEN--\":11833:11837   */\n      dup2\n        /* \"--CODEGEN--\":11829:11849   */\n      sub\n        /* \"--CODEGEN--\":11825:11826   */\n      0x00\n        /* \"--CODEGEN--\":11814:11823   */\n      dup4\n        /* \"--CODEGEN--\":11810:11827   */\n      add\n        /* \"--CODEGEN--\":11803:11850   */\n      mstore\n        /* \"--CODEGEN--\":11864:11995   */\n      tag_396\n        /* \"--CODEGEN--\":11990:11994   */\n      dup2\n        /* \"--CODEGEN--\":11864:11995   */\n      jump(tag_338)\n    tag_396:\n        /* \"--CODEGEN--\":11856:11995   */\n      swap1\n      pop\n        /* \"--CODEGEN--\":11760:12005   */\n      swap2\n      swap1\n      pop\n      jump\n        /* \"--CODEGEN--\":12012:12419   */\n    tag_80:\n      0x00\n        /* \"--CODEGEN--\":12203:12205   */\n      0x20\n        /* \"--CODEGEN--\":12192:12201   */\n      dup3\n        /* \"--CODEGEN--\":12188:12206   */\n      add\n        /* \"--CODEGEN--\":12180:12206   */\n      swap1\n      pop\n        /* \"--CODEGEN--\":12253:12262   */\n      dup2\n        /* \"--CODEGEN--\":12247:12251   */\n      dup2\n        /* \"--CODEGEN--\":12243:12263   */\n      sub\n        /* \"--CODEGEN--\":12239:12240   */\n      0x00\n        /* \"--CODEGEN--\":12228:12237   */\n      dup4\n        /* \"--CODEGEN--\":12224:12241   */\n      add\n        /* \"--CODEGEN--\":12217:12264   */\n      mstore\n        /* \"--CODEGEN--\":12278:12409   */\n      tag_398\n        /* \"--CODEGEN--\":12404:12408   */\n      dup2\n        /* \"--CODEGEN--\":12278:12409   */\n      jump(tag_342)\n    tag_398:\n        /* \"--CODEGEN--\":12270:12409   */\n      swap1\n      pop\n        /* \"--CODEGEN--\":12174:12419   */\n      swap2\n      swap1\n      pop\n      jump\n        /* \"--CODEGEN--\":12426:12833   */\n    tag_129:\n      0x00\n        /* \"--CODEGEN--\":12617:12619   */\n      0x20\n        /* \"--CODEGEN--\":12606:12615   */\n      dup3\n        /* \"--CODEGEN--\":12602:12620   */\n      add\n        /* \"--CODEGEN--\":12594:12620   */\n      swap1\n      pop\n        /* \"--CODEGEN--\":12667:12676   */\n      dup2\n        /* \"--CODEGEN--\":12661:12665   */\n      dup2\n        /* \"--CODEGEN--\":12657:12677   */\n      sub\n        /* \"--CODEGEN--\":12653:12654   */\n      0x00\n        /* \"--CODEGEN--\":12642:12651   */\n      dup4\n        /* \"--CODEGEN--\":12638:12655   */\n      add\n        /* \"--CODEGEN--\":12631:12678   */\n      mstore\n        /* \"--CODEGEN--\":12692:12823   */\n      tag_400\n        /* \"--CODEGEN--\":12818:12822   */\n      dup2\n        /* \"--CODEGEN--\":12692:12823   */\n      jump(tag_345)\n    tag_400:\n        /* \"--CODEGEN--\":12684:12823   */\n      swap1\n      pop\n        /* \"--CODEGEN--\":12588:12833   */\n      swap2\n      swap1\n      pop\n      jump\n        /* \"--CODEGEN--\":12840:13247   */\n    tag_194:\n      0x00\n        /* \"--CODEGEN--\":13031:13033   */\n      0x20\n        /* \"--CODEGEN--\":13020:13029   */\n      dup3\n        /* \"--CODEGEN--\":13016:13034   */\n      add\n        /* \"--CODEGEN--\":13008:13034   */\n      swap1\n      pop\n        /* \"--CODEGEN--\":13081:13090   */\n      dup2\n        /* \"--CODEGEN--\":13075:13079   */\n      dup2\n        /* \"--CODEGEN--\":13071:13091   */\n      sub\n        /* \"--CODEGEN--\":13067:13068   */\n      0x00\n        /* \"--CODEGEN--\":13056:13065   */\n      dup4\n        /* \"--CODEGEN--\":13052:13069   */\n      add\n        /* \"--CODEGEN--\":13045:13092   */\n      mstore\n        /* \"--CODEGEN--\":13106:13237   */\n      tag_402\n        /* \"--CODEGEN--\":13232:13236   */\n      dup2\n        /* \"--CODEGEN--\":13106:13237   */\n      jump(tag_348)\n    tag_402:\n        /* \"--CODEGEN--\":13098:13237   */\n      swap1\n      pop\n        /* \"--CODEGEN--\":13002:13247   */\n      swap2\n      swap1\n      pop\n      jump\n        /* \"--CODEGEN--\":13254:13661   */\n    tag_89:\n      0x00\n        /* \"--CODEGEN--\":13445:13447   */\n      0x20\n        /* \"--CODEGEN--\":13434:13443   */\n      dup3\n        /* \"--CODEGEN--\":13430:13448   */\n      add\n        /* \"--CODEGEN--\":13422:13448   */\n      swap1\n      pop\n        /* \"--CODEGEN--\":13495:13504   */\n      dup2\n        /* \"--CODEGEN--\":13489:13493   */\n      dup2\n        /* \"--CODEGEN--\":13485:13505   */\n      sub\n        /* \"--CODEGEN--\":13481:13482   */\n      0x00\n        /* \"--CODEGEN--\":13470:13479   */\n      dup4\n        /* \"--CODEGEN--\":13466:13483   */\n      add\n        /* \"--CODEGEN--\":13459:13506   */\n      mstore\n        /* \"--CODEGEN--\":13520:13651   */\n      tag_404\n        /* \"--CODEGEN--\":13646:13650   */\n      dup2\n        /* \"--CODEGEN--\":13520:13651   */\n      jump(tag_351)\n    tag_404:\n        /* \"--CODEGEN--\":13512:13651   */\n      swap1\n      pop\n        /* \"--CODEGEN--\":13416:13661   */\n      swap2\n      swap1\n      pop\n      jump\n        /* \"--CODEGEN--\":13668:14075   */\n    tag_108:\n      0x00\n        /* \"--CODEGEN--\":13859:13861   */\n      0x20\n        /* \"--CODEGEN--\":13848:13857   */\n      dup3\n        /* \"--CODEGEN--\":13844:13862   */\n      add\n        /* \"--CODEGEN--\":13836:13862   */\n      swap1\n      pop\n        /* \"--CODEGEN--\":13909:13918   */\n      dup2\n        /* \"--CODEGEN--\":13903:13907   */\n      dup2\n        /* \"--CODEGEN--\":13899:13919   */\n      sub\n        /* \"--CODEGEN--\":13895:13896   */\n      0x00\n        /* \"--CODEGEN--\":13884:13893   */\n      dup4\n        /* \"--CODEGEN--\":13880:13897   */\n      add\n        /* \"--CODEGEN--\":13873:13920   */\n      mstore\n        /* \"--CODEGEN--\":13934:14065   */\n      tag_406\n        /* \"--CODEGEN--\":14060:14064   */\n      dup2\n        /* \"--CODEGEN--\":13934:14065   */\n      jump(tag_354)\n    tag_406:\n        /* \"--CODEGEN--\":13926:14065   */\n      swap1\n      pop\n        /* \"--CODEGEN--\":13830:14075   */\n      swap2\n      swap1\n      pop\n      jump\n        /* \"--CODEGEN--\":14082:14570   */\n    tag_18:\n      0x00\n        /* \"--CODEGEN--\":14286:14288   */\n      0x40\n        /* \"--CODEGEN--\":14275:14284   */\n      dup3\n        /* \"--CODEGEN--\":14271:14289   */\n      add\n        /* \"--CODEGEN--\":14263:14289   */\n      swap1\n      pop\n        /* \"--CODEGEN--\":14336:14345   */\n      dup2\n        /* \"--CODEGEN--\":14330:14334   */\n      dup2\n        /* \"--CODEGEN--\":14326:14346   */\n      sub\n        /* \"--CODEGEN--\":14322:14323   */\n      0x00\n        /* \"--CODEGEN--\":14311:14320   */\n      dup4\n        /* \"--CODEGEN--\":14307:14324   */\n      add\n        /* \"--CODEGEN--\":14300:14347   */\n      mstore\n        /* \"--CODEGEN--\":14361:14477   */\n      tag_408\n        /* \"--CODEGEN--\":14472:14476   */\n      dup2\n        /* \"--CODEGEN--\":14463:14469   */\n      dup6\n        /* \"--CODEGEN--\":14361:14477   */\n      jump(tag_357)\n    tag_408:\n        /* \"--CODEGEN--\":14353:14477   */\n      swap1\n      pop\n        /* \"--CODEGEN--\":14488:14560   */\n      tag_409\n        /* \"--CODEGEN--\":14556:14558   */\n      0x20\n        /* \"--CODEGEN--\":14545:14554   */\n      dup4\n        /* \"--CODEGEN--\":14541:14559   */\n      add\n        /* \"--CODEGEN--\":14532:14538   */\n      dup5\n        /* \"--CODEGEN--\":14488:14560   */\n      jump(tag_305)\n    tag_409:\n        /* \"--CODEGEN--\":14257:14570   */\n      swap4\n      swap3\n      pop\n      pop\n      pop\n      jump\n        /* \"--CODEGEN--\":14577:14833   */\n    tag_264:\n      0x00\n        /* \"--CODEGEN--\":14639:14641   */\n      0x40\n        /* \"--CODEGEN--\":14633:14642   */\n      mload\n        /* \"--CODEGEN--\":14623:14642   */\n      swap1\n      pop\n        /* \"--CODEGEN--\":14677:14681   */\n      dup2\n        /* \"--CODEGEN--\":14669:14675   */\n      dup2\n        /* \"--CODEGEN--\":14665:14682   */\n      add\n        /* \"--CODEGEN--\":14776:14782   */\n      dup2\n        /* \"--CODEGEN--\":14764:14774   */\n      dup2\n        /* \"--CODEGEN--\":14761:14783   */\n      lt\n        /* \"--CODEGEN--\":14740:14758   */\n      0xffffffffffffffff\n        /* \"--CODEGEN--\":14728:14738   */\n      dup3\n        /* \"--CODEGEN--\":14725:14759   */\n      gt\n        /* \"--CODEGEN--\":14722:14784   */\n      or\n        /* \"--CODEGEN--\":14719:14721   */\n      iszero\n      tag_411\n      jumpi\n        /* \"--CODEGEN--\":14797:14798   */\n      0x00\n        /* \"--CODEGEN--\":14794:14795   */\n      dup1\n        /* \"--CODEGEN--\":14787:14799   */\n      revert\n        /* \"--CODEGEN--\":14719:14721   */\n    tag_411:\n        /* \"--CODEGEN--\":14817:14827   */\n      dup1\n        /* \"--CODEGEN--\":14813:14815   */\n      0x40\n        /* \"--CODEGEN--\":14806:14828   */\n      mstore\n        /* \"--CODEGEN--\":14617:14833   */\n      pop\n      swap2\n      swap1\n      pop\n      jump\n        /* \"--CODEGEN--\":14840:15161   */\n    tag_263:\n      0x00\n        /* \"--CODEGEN--\":14983:15001   */\n      0xffffffffffffffff\n        /* \"--CODEGEN--\":14975:14981   */\n      dup3\n        /* \"--CODEGEN--\":14972:15002   */\n      gt\n        /* \"--CODEGEN--\":14969:14971   */\n      iszero\n      tag_413\n      jumpi\n        /* \"--CODEGEN--\":15015:15016   */\n      0x00\n        /* \"--CODEGEN--\":15012:15013   */\n      dup1\n        /* \"--CODEGEN--\":15005:15017   */\n      revert\n        /* \"--CODEGEN--\":14969:14971   */\n    tag_413:\n        /* \"--CODEGEN--\":15082:15086   */\n      0x1f\n        /* \"--CODEGEN--\":15078:15087   */\n      not\n        /* \"--CODEGEN--\":15071:15075   */\n      0x1f\n        /* \"--CODEGEN--\":15063:15069   */\n      dup4\n        /* \"--CODEGEN--\":15059:15076   */\n      add\n        /* \"--CODEGEN--\":15055:15088   */\n      and\n        /* \"--CODEGEN--\":15047:15088   */\n      swap1\n      pop\n        /* \"--CODEGEN--\":15146:15150   */\n      0x20\n        /* \"--CODEGEN--\":15140:15144   */\n      dup2\n        /* \"--CODEGEN--\":15136:15151   */\n      add\n        /* \"--CODEGEN--\":15128:15151   */\n      swap1\n      pop\n        /* \"--CODEGEN--\":14906:15161   */\n      swap2\n      swap1\n      pop\n      jump\n        /* \"--CODEGEN--\":15168:15285   */\n    tag_320:\n      0x00\n        /* \"--CODEGEN--\":15257:15262   */\n      dup2\n        /* \"--CODEGEN--\":15251:15263   */\n      mload\n        /* \"--CODEGEN--\":15241:15263   */\n      swap1\n      pop\n        /* \"--CODEGEN--\":15222:15285   */\n      swap2\n      swap1\n      pop\n      jump\n        /* \"--CODEGEN--\":15292:15413   */\n    tag_312:\n      0x00\n        /* \"--CODEGEN--\":15385:15390   */\n      dup2\n        /* \"--CODEGEN--\":15379:15391   */\n      mload\n        /* \"--CODEGEN--\":15369:15391   */\n      swap1\n      pop\n        /* \"--CODEGEN--\":15350:15413   */\n      swap2\n      swap1\n      pop\n      jump\n        /* \"--CODEGEN--\":15421:15573   */\n    tag_322:\n      0x00\n        /* \"--CODEGEN--\":15525:15531   */\n      dup3\n        /* \"--CODEGEN--\":15520:15523   */\n      dup3\n        /* \"--CODEGEN--\":15513:15532   */\n      mstore\n        /* \"--CODEGEN--\":15562:15566   */\n      0x20\n        /* \"--CODEGEN--\":15557:15560   */\n      dup3\n        /* \"--CODEGEN--\":15553:15567   */\n      add\n        /* \"--CODEGEN--\":15538:15567   */\n      swap1\n      pop\n        /* \"--CODEGEN--\":15506:15573   */\n      swap3\n      swap2\n      pop\n      pop\n      jump\n        /* \"--CODEGEN--\":15582:15744   */\n    tag_330:\n      0x00\n        /* \"--CODEGEN--\":15696:15702   */\n      dup3\n        /* \"--CODEGEN--\":15691:15694   */\n      dup3\n        /* \"--CODEGEN--\":15684:15703   */\n      mstore\n        /* \"--CODEGEN--\":15733:15737   */\n      0x20\n        /* \"--CODEGEN--\":15728:15731   */\n      dup3\n        /* \"--CODEGEN--\":15724:15738   */\n      add\n        /* \"--CODEGEN--\":15709:15738   */\n      swap1\n      pop\n        /* \"--CODEGEN--\":15677:15744   */\n      swap3\n      swap2\n      pop\n      pop\n      jump\n        /* \"--CODEGEN--\":15753:15897   */\n    tag_314:\n      0x00\n        /* \"--CODEGEN--\":15888:15891   */\n      dup2\n        /* \"--CODEGEN--\":15873:15891   */\n      swap1\n      pop\n        /* \"--CODEGEN--\":15866:15897   */\n      swap3\n      swap2\n      pop\n      pop\n      jump\n        /* \"--CODEGEN--\":15906:16069   */\n    tag_341:\n      0x00\n        /* \"--CODEGEN--\":16021:16027   */\n      dup3\n        /* \"--CODEGEN--\":16016:16019   */\n      dup3\n        /* \"--CODEGEN--\":16009:16028   */\n      mstore\n        /* \"--CODEGEN--\":16058:16062   */\n      0x20\n        /* \"--CODEGEN--\":16053:16056   */\n      dup3\n        /* \"--CODEGEN--\":16049:16063   */\n      add\n        /* \"--CODEGEN--\":16034:16063   */\n      swap1\n      pop\n        /* \"--CODEGEN--\":16002:16069   */\n      swap3\n      swap2\n      pop\n      pop\n      jump\n        /* \"--CODEGEN--\":16077:16168   */\n    tag_295:\n      0x00\n        /* \"--CODEGEN--\":16139:16163   */\n      tag_421\n        /* \"--CODEGEN--\":16157:16162   */\n      dup3\n        /* \"--CODEGEN--\":16139:16163   */\n      jump(tag_422)\n    tag_421:\n        /* \"--CODEGEN--\":16128:16163   */\n      swap1\n      pop\n        /* \"--CODEGEN--\":16122:16168   */\n      swap2\n      swap1\n      pop\n      jump\n        /* \"--CODEGEN--\":16175:16260   */\n    tag_304:\n      0x00\n        /* \"--CODEGEN--\":16248:16253   */\n      dup2\n        /* \"--CODEGEN--\":16241:16254   */\n      iszero\n        /* \"--CODEGEN--\":16234:16255   */\n      iszero\n        /* \"--CODEGEN--\":16223:16255   */\n      swap1\n      pop\n        /* \"--CODEGEN--\":16217:16260   */\n      swap2\n      swap1\n      pop\n      jump\n        /* \"--CODEGEN--\":16267:16339   */\n    tag_308:\n      0x00\n        /* \"--CODEGEN--\":16329:16334   */\n      dup2\n        /* \"--CODEGEN--\":16318:16334   */\n      swap1\n      pop\n        /* \"--CODEGEN--\":16312:16339   */\n      swap2\n      swap1\n      pop\n      jump\n        /* \"--CODEGEN--\":16346:16467   */\n    tag_422:\n      0x00\n        /* \"--CODEGEN--\":16419:16461   */\n      0xffffffffffffffffffffffffffffffffffffffff\n        /* \"--CODEGEN--\":16412:16417   */\n      dup3\n        /* \"--CODEGEN--\":16408:16462   */\n      and\n        /* \"--CODEGEN--\":16397:16462   */\n      swap1\n      pop\n        /* \"--CODEGEN--\":16391:16467   */\n      swap2\n      swap1\n      pop\n      jump\n        /* \"--CODEGEN--\":16474:16555   */\n    tag_364:\n      0x00\n        /* \"--CODEGEN--\":16545:16549   */\n      0xff\n        /* \"--CODEGEN--\":16538:16543   */\n      dup3\n        /* \"--CODEGEN--\":16534:16550   */\n      and\n        /* \"--CODEGEN--\":16523:16550   */\n      swap1\n      pop\n        /* \"--CODEGEN--\":16517:16555   */\n      swap2\n      swap1\n      pop\n      jump\n        /* \"--CODEGEN--\":16563:16708   */\n    tag_267:\n        /* \"--CODEGEN--\":16644:16650   */\n      dup3\n        /* \"--CODEGEN--\":16639:16642   */\n      dup2\n        /* \"--CODEGEN--\":16634:16637   */\n      dup4\n        /* \"--CODEGEN--\":16621:16651   */\n      calldatacopy\n        /* \"--CODEGEN--\":16700:16701   */\n      0x00\n        /* \"--CODEGEN--\":16691:16697   */\n      dup4\n        /* \"--CODEGEN--\":16686:16689   */\n      dup4\n        /* \"--CODEGEN--\":16682:16698   */\n      add\n        /* \"--CODEGEN--\":16675:16702   */\n      mstore\n        /* \"--CODEGEN--\":16614:16708   */\n      pop\n      pop\n      pop\n      jump\n        /* \"--CODEGEN--\":16717:16985   */\n    tag_316:\n        /* \"--CODEGEN--\":16782:16783   */\n      0x00\n        /* \"--CODEGEN--\":16789:16890   */\n    tag_429:\n        /* \"--CODEGEN--\":16803:16809   */\n      dup4\n        /* \"--CODEGEN--\":16800:16801   */\n      dup2\n        /* \"--CODEGEN--\":16797:16810   */\n      lt\n        /* \"--CODEGEN--\":16789:16890   */\n      iszero\n      tag_431\n      jumpi\n        /* \"--CODEGEN--\":16879:16880   */\n      dup1\n        /* \"--CODEGEN--\":16874:16877   */\n      dup3\n        /* \"--CODEGEN--\":16870:16881   */\n      add\n        /* \"--CODEGEN--\":16864:16882   */\n      mload\n        /* \"--CODEGEN--\":16860:16861   */\n      dup2\n        /* \"--CODEGEN--\":16855:16858   */\n      dup5\n        /* \"--CODEGEN--\":16851:16862   */\n      add\n        /* \"--CODEGEN--\":16844:16883   */\n      mstore\n        /* \"--CODEGEN--\":16825:16827   */\n      0x20\n        /* \"--CODEGEN--\":16822:16823   */\n      dup2\n        /* \"--CODEGEN--\":16818:16828   */\n      add\n        /* \"--CODEGEN--\":16813:16828   */\n      swap1\n      pop\n        /* \"--CODEGEN--\":16789:16890   */\n      jump(tag_429)\n    tag_431:\n        /* \"--CODEGEN--\":16905:16911   */\n      dup4\n        /* \"--CODEGEN--\":16902:16903   */\n      dup2\n        /* \"--CODEGEN--\":16899:16912   */\n      gt\n        /* \"--CODEGEN--\":16896:16898   */\n      iszero\n      tag_432\n      jumpi\n        /* \"--CODEGEN--\":16970:16971   */\n      0x00\n        /* \"--CODEGEN--\":16961:16967   */\n      dup5\n        /* \"--CODEGEN--\":16956:16959   */\n      dup5\n        /* \"--CODEGEN--\":16952:16968   */\n      add\n        /* \"--CODEGEN--\":16945:16972   */\n      mstore\n        /* \"--CODEGEN--\":16896:16898   */\n    tag_432:\n        /* \"--CODEGEN--\":16766:16985   */\n      pop\n      pop\n      pop\n      pop\n      jump\n        /* \"--CODEGEN--\":16993:17088   */\n    tag_300:\n      0x00\n        /* \"--CODEGEN--\":17057:17083   */\n      tag_434\n        /* \"--CODEGEN--\":17077:17082   */\n      dup3\n        /* \"--CODEGEN--\":17057:17083   */\n      jump(tag_435)\n    tag_434:\n        /* \"--CODEGEN--\":17046:17083   */\n      swap1\n      pop\n        /* \"--CODEGEN--\":17040:17088   */\n      swap2\n      swap1\n      pop\n      jump\n        /* \"--CODEGEN--\":17095:17184   */\n    tag_435:\n      0x00\n        /* \"--CODEGEN--\":17159:17179   */\n      tag_437\n        /* \"--CODEGEN--\":17173:17178   */\n      dup3\n        /* \"--CODEGEN--\":17159:17179   */\n      jump(tag_438)\n    tag_437:\n        /* \"--CODEGEN--\":17148:17179   */\n      swap1\n      pop\n        /* \"--CODEGEN--\":17142:17184   */\n      swap2\n      swap1\n      pop\n      jump\n        /* \"--CODEGEN--\":17191:17288   */\n    tag_325:\n      0x00\n        /* \"--CODEGEN--\":17279:17281   */\n      0x1f\n        /* \"--CODEGEN--\":17275:17282   */\n      not\n        /* \"--CODEGEN--\":17270:17272   */\n      0x1f\n        /* \"--CODEGEN--\":17263:17268   */\n      dup4\n        /* \"--CODEGEN--\":17259:17273   */\n      add\n        /* \"--CODEGEN--\":17255:17283   */\n      and\n        /* \"--CODEGEN--\":17245:17283   */\n      swap1\n      pop\n        /* \"--CODEGEN--\":17239:17288   */\n      swap2\n      swap1\n      pop\n      jump\n        /* \"--CODEGEN--\":17296:17390   */\n    tag_438:\n      0x00\n        /* \"--CODEGEN--\":17374:17379   */\n      dup2\n        /* \"--CODEGEN--\":17370:17372   */\n      0x60\n        /* \"--CODEGEN--\":17366:17380   */\n      shl\n        /* \"--CODEGEN--\":17344:17380   */\n      swap1\n      pop\n        /* \"--CODEGEN--\":17338:17390   */\n      swap2\n      swap1\n      pop\n      jump\n        /* \"--CODEGEN--\":17398:17515   */\n    tag_249:\n        /* \"--CODEGEN--\":17467:17491   */\n      tag_442\n        /* \"--CODEGEN--\":17485:17490   */\n      dup2\n        /* \"--CODEGEN--\":17467:17491   */\n      jump(tag_295)\n    tag_442:\n        /* \"--CODEGEN--\":17460:17465   */\n      dup2\n        /* \"--CODEGEN--\":17457:17492   */\n      eq\n        /* \"--CODEGEN--\":17447:17449   */\n      tag_443\n      jumpi\n        /* \"--CODEGEN--\":17506:17507   */\n      0x00\n        /* \"--CODEGEN--\":17503:17504   */\n      dup1\n        /* \"--CODEGEN--\":17496:17508   */\n      revert\n        /* \"--CODEGEN--\":17447:17449   */\n    tag_443:\n        /* \"--CODEGEN--\":17441:17515   */\n      pop\n      jump\n        /* \"--CODEGEN--\":17522:17633   */\n    tag_253:\n        /* \"--CODEGEN--\":17588:17609   */\n      tag_445\n        /* \"--CODEGEN--\":17603:17608   */\n      dup2\n        /* \"--CODEGEN--\":17588:17609   */\n      jump(tag_304)\n    tag_445:\n        /* \"--CODEGEN--\":17581:17586   */\n      dup2\n        /* \"--CODEGEN--\":17578:17610   */\n      eq\n        /* \"--CODEGEN--\":17568:17570   */\n      tag_446\n      jumpi\n        /* \"--CODEGEN--\":17624:17625   */\n      0x00\n        /* \"--CODEGEN--\":17621:17622   */\n      dup1\n        /* \"--CODEGEN--\":17614:17626   */\n      revert\n        /* \"--CODEGEN--\":17568:17570   */\n    tag_446:\n        /* \"--CODEGEN--\":17562:17633   */\n      pop\n      jump\n        /* \"--CODEGEN--\":17640:17757   */\n    tag_257:\n        /* \"--CODEGEN--\":17709:17733   */\n      tag_448\n        /* \"--CODEGEN--\":17727:17732   */\n      dup2\n        /* \"--CODEGEN--\":17709:17733   */\n      jump(tag_308)\n    tag_448:\n        /* \"--CODEGEN--\":17702:17707   */\n      dup2\n        /* \"--CODEGEN--\":17699:17734   */\n      eq\n        /* \"--CODEGEN--\":17689:17691   */\n      tag_449\n      jumpi\n        /* \"--CODEGEN--\":17748:17749   */\n      0x00\n        /* \"--CODEGEN--\":17745:17746   */\n      dup1\n        /* \"--CODEGEN--\":17738:17750   */\n      revert\n        /* \"--CODEGEN--\":17689:17691   */\n    tag_449:\n        /* \"--CODEGEN--\":17683:17757   */\n      pop\n      jump\n\n    auxdata: 0xa264697066735822122009192e72b1d1a41b6f263c13ed59571ec7a932560d0a77bd8c2b5f32437dabc264736f6c63430006010033\n}\n","bytecode":{"linkReferences":{},"object":"608060405234801561001057600080fd5b5033600260006101000a81548173ffffffffffffffffffffffffffffffffffffffff021916908373ffffffffffffffffffffffffffffffffffffffff160217905550611f8e806100616000396000f3fe608060405234801561001057600080fd5b50600436106100935760003560e01c8063906e940011610066578063906e94001461014a578063c189f3b314610166578063e02dab0d14610184578063e2c5cd78146101b4578063e987ef02146101d057610093565b80630b9962b114610098578063481c6a75146100c95780636a40856a146100e7578063742f068814610119575b600080fd5b6100b260048036036100ad91908101906117b0565b6101ec565b6040516100c0929190611d5d565b60405180910390f35b6100d16104d3565b6040516100de9190611b70565b60405180910390f35b61010160048036036100fc919081019061168d565b6104f9565b60405161011093929190611c28565b60405180910390f35b610133600480360361012e9190810190611746565b6105d5565b604051610141929190611c66565b60405180910390f35b610164600480360361015f919081019061168d565b610729565b005b61016e6107fd565b60405161017b9190611c06565b60405180910390f35b61019e6004803603610199919081019061176f565b610836565b6040516101ab9190611ba6565b60405180910390f35b6101ce60048036036101c991908101906116f2565b610b82565b005b6101ea60048036036101e591908101906116b6565b610d25565b005b6101f4611487565b6000606061020961020486610e13565b610e41565b90506102288160008151811061021b57fe5b6020026020010151610f1e565b83600001819052506040518060400160405280601a81526020017f19457468657265756d205369676e6564204d6573736167653a0a000000000000815250610274846000015151610f94565b846000015160405160200161028b93929190611b3f565b6040516020818303038152906040528051906020012091506000600190505b81518110156104ca5760606102d18383815181106102c457fe5b60200260200101516110c1565b90506000806000602084018051935060208101519250604081015160001a9150601b82101561030157601b820191505b50601b8160ff1614806103175750601c8160ff16145b610356576040517f08c379a000000000000000000000000000000000000000000000000000000000815260040161034d90611cbd565b60405180910390fd5b60006001888386866040516000815260200160405260405161037b9493929190611bc1565b6020604051602081039080840390855afa15801561039d573d6000803e3d6000fd5b5050506020604051035190506103b7818a6020015161114d565b6103f6576040517f08c379a00000000000000000000000000000000000000000000000000000000081526004016103ed90611d1d565b60405180910390fd5b891561048c57600160008273ffffffffffffffffffffffffffffffffffffffff1673ffffffffffffffffffffffffffffffffffffffff16815260200190815260200160002060010160009054906101000a900460ff1661048b576040517f08c379a000000000000000000000000000000000000000000000000000000000815260040161048290611c9d565b60405180910390fd5b5b8860200151816040516020016104a3929190611b17565b604051602081830303815290604052896020018190525050505050506001810190506102aa565b50509250929050565b600260009054906101000a900473ffffffffffffffffffffffffffffffffffffffff1681565b6001602052806000526040600020600091509050806000018054600181600116156101000203166002900480601f0160208091040260200160405190810160405280929190818152602001828054600181600116156101000203166002900480156105a55780601f1061057a576101008083540402835291602001916105a5565b820191906000526020600020905b81548152906001019060200180831161058857829003601f168201915b5050505050908060010160009054906101000a900460ff16908060010160019054906101000a900460ff16905083565b6000602052806000526040600020600091509050806000018054600181600116156101000203166002900480601f0160208091040260200160405190810160405280929190818152602001828054600181600116156101000203166002900480156106815780601f1061065657610100808354040283529160200191610681565b820191906000526020600020905b81548152906001019060200180831161066457829003601f168201915b505050505090806001018054600181600116156101000203166002900480601f01602080910402602001604051908101604052809291908181526020018280546001816001161561010002031660029004801561071f5780601f106106f45761010080835404028352916020019161071f565b820191906000526020600020905b81548152906001019060200180831161070257829003601f168201915b5050505050905082565b600260009054906101000a900473ffffffffffffffffffffffffffffffffffffffff1673ffffffffffffffffffffffffffffffffffffffff163373ffffffffffffffffffffffffffffffffffffffff16146107b9576040517f08c379a00000000000000000000000000000000000000000000000000000000081526004016107b090611d3d565b60405180910390fd5b80600260006101000a81548173ffffffffffffffffffffffffffffffffffffffff021916908373ffffffffffffffffffffffffffffffffffffffff16021790555050565b6040518060400160405280601a81526020017f19457468657265756d205369676e6564204d6573736167653a0a00000000000081525081565b6000610840611487565b600061084d8460016101ec565b9150915060608260200151905060606000808481526020019081526020016000206001018054600181600116156101000203166002900480601f0160208091040260200160405190810160405280929190818152602001828054600181600116156101000203166002900480156109055780601f106108da57610100808354040283529160200191610905565b820191906000526020600020905b8154815290600101906020018083116108e857829003601f168201915b5050505050905060008090505b8251811015610a575760008160140184015190506109dd816000808881526020019081526020016000206001018054600181600116156101000203166002900480601f0160208091040260200160405190810160405280929190818152602001828054600181600116156101000203166002900480156109d35780601f106109a8576101008083540402835291602001916109d3565b820191906000526020600020905b8154815290600101906020018083116109b657829003601f168201915b505050505061114d565b15610a4b5782816040516020016109f5929190611aef565b60405160208183030381529060405292508073ffffffffffffffffffffffffffffffffffffffff16857f4007dee9068a7e16aba143c1861d9cb75f2be4b83ef76ae2c602a2c301398cf760405160405180910390a35b50601481019050610912565b5060008060008581526020019081526020016000206001018054600181600116156101000203166002900490501115610b2557600080848152602001908152602001600020600101805460018160011615610100020316600290049050815111610af6576040517f08c379a0000000000000000000000000000000000000000000000000000000008152600401610aed90611cdd565b60405180910390fd5b806000808581526020019081526020016000206001019080519060200190610b1f9291906114a1565b50610b76565b836000808581526020019081526020016000206000820151816000019080519060200190610b54929190611521565b506020820151816001019080519060200190610b71929190611521565b509050505b82945050505050919050565b600260009054906101000a900473ffffffffffffffffffffffffffffffffffffffff1673ffffffffffffffffffffffffffffffffffffffff163373ffffffffffffffffffffffffffffffffffffffff1614610c12576040517f08c379a0000000000000000000000000000000000000000000000000000000008152600401610c0990611d3d565b60405180910390fd5b604051806060016040528082815260200160011515815260200160001515815250600160008473ffffffffffffffffffffffffffffffffffffffff1673ffffffffffffffffffffffffffffffffffffffff1681526020019081526020016000206000820151816000019080519060200190610c8e929190611521565b5060208201518160010160006101000a81548160ff02191690831515021790555060408201518160010160016101000a81548160ff0219169083151502179055509050508173ffffffffffffffffffffffffffffffffffffffff167f71b03471b324bbcc7546b2626d0407dbb70a61e5e77c56214352d9c12893933f6001604051610d199190611b8b565b60405180910390a25050565b600260009054906101000a900473ffffffffffffffffffffffffffffffffffffffff1673ffffffffffffffffffffffffffffffffffffffff163373ffffffffffffffffffffffffffffffffffffffff1614610db5576040517f08c379a0000000000000000000000000000000000000000000000000000000008152600401610dac90611d3d565b60405180910390fd5b80600160008473ffffffffffffffffffffffffffffffffffffffff1673ffffffffffffffffffffffffffffffffffffffff16815260200190815260200160002060010160006101000a81548160ff0219169083151502179055505050565b610e1b6115a1565b600060208301905060405180604001604052808451815260200182815250915050919050565b6060610e4c82611220565b610e5557600080fd5b6000610e608361126e565b9050606081604051908082528060200260200182016040528015610e9e57816020015b610e8b6115bb565b815260200190600190039081610e835790505b5090506000610eb085602001516112df565b8560200151019050600080600090505b84811015610f1157610ed183611368565b9150604051806040016040528083815260200184815250848281518110610ef457fe5b602002602001018190525081830192508080600101915050610ec0565b5082945050505050919050565b60608082600001516040519080825280601f01601f191660200182016040528015610f585781602001600182028038833980820191505090505b509050600081511415610f6e5780915050610f8f565b6000816020019050610f898460200151828660000151611420565b81925050505b919050565b60606000821415610fdc576040518060400160405280600181526020017f300000000000000000000000000000000000000000000000000000000000000081525090506110bc565b600082905060005b60008214611006578080600101915050600a8281610ffe57fe5b049150610fe4565b6060816040519080825280601f01601f19166020018201604052801561103b5781602001600182028038833980820191505090505b50905060006001830390505b600086146110b457600a868161105957fe5b0660300160f81b8282806001900393508151811061107357fe5b60200101907effffffffffffffffffffffffffffffffffffffffffffffffffffffffffffff1916908160001a905350600a86816110ac57fe5b049550611047565b819450505050505b919050565b606060008260000151116110d457600080fd5b60006110e383602001516112df565b905060008184600001510390506060816040519080825280601f01601f1916602001820160405280156111255781602001600182028038833980820191505090505b5090506000816020019050611141848760200151018285611420565b81945050505050919050565b60008082511415611161576001905061121a565b6000601483518161116e57fe5b06146111af576040517f08c379a00000000000000000000000000000000000000000000000000000000081526004016111a690611cfd565b60405180910390fd5b600080600090505b8351811015611213578060140184015191508473ffffffffffffffffffffffffffffffffffffffff168273ffffffffffffffffffffffffffffffffffffffff1614156112085760009250505061121a565b6014810190506111b7565b5060019150505b92915050565b600080826000015114156112375760009050611269565b60008083602001519050805160001a915060c060ff168260ff16101561126257600092505050611269565b6001925050505b919050565b6000808260000151141561128557600090506112da565b6000809050600061129984602001516112df565b84602001510190506000846000015185602001510190505b808210156112d3576112c282611368565b8201915082806001019350506112b1565b8293505050505b919050565b600080825160001a9050608060ff168110156112ff576000915050611363565b60b860ff16811080611324575060c060ff168110158015611323575060f860ff1681105b5b15611333576001915050611363565b60c060ff168110156113535760018060b80360ff16820301915050611363565b60018060f80360ff168203019150505b919050565b6000806000835160001a9050608060ff168110156113895760019150611416565b60b860ff168110156113a6576001608060ff168203019150611415565b60c060ff168110156113d65760b78103600185019450806020036101000a85510460018201810193505050611414565b60f860ff168110156113f357600160c060ff168203019150611413565b60f78103600185019450806020036101000a855104600182018101935050505b5b5b5b8192505050919050565b600081141561142e57611482565b5b602060ff16811061145e5782518252602060ff1683019250602060ff1682019150602060ff168103905061142f565b6000600182602060ff16036101000a03905080198451168184511681811785525050505b505050565b604051806040016040528060608152602001606081525090565b828054600181600116156101000203166002900490600052602060002090601f016020900481019282601f106114e257805160ff1916838001178555611510565b82800160010185558215611510579182015b8281111561150f5782518255916020019190600101906114f4565b5b50905061151d91906115d5565b5090565b828054600181600116156101000203166002900490600052602060002090601f016020900481019282601f1061156257805160ff1916838001178555611590565b82800160010185558215611590579182015b8281111561158f578251825591602001919060010190611574565b5b50905061159d91906115d5565b5090565b604051806040016040528060008152602001600081525090565b604051806040016040528060008152602001600081525090565b6115f791905b808211156115f35760008160009055506001016115db565b5090565b90565b60008135905061160981611f13565b92915050565b60008135905061161e81611f2a565b92915050565b60008135905061163381611f41565b92915050565b600082601f83011261164a57600080fd5b813561165d61165882611dba565b611d8d565b9150808252602083016020830185838301111561167957600080fd5b611684838284611e8f565b50505092915050565b60006020828403121561169f57600080fd5b60006116ad848285016115fa565b91505092915050565b600080604083850312156116c957600080fd5b60006116d7858286016115fa565b92505060206116e88582860161160f565b9150509250929050565b6000806040838503121561170557600080fd5b6000611713858286016115fa565b925050602083013567ffffffffffffffff81111561173057600080fd5b61173c85828601611639565b9150509250929050565b60006020828403121561175857600080fd5b600061176684828501611624565b91505092915050565b60006020828403121561178157600080fd5b600082013567ffffffffffffffff81111561179b57600080fd5b6117a784828501611639565b91505092915050565b600080604083850312156117c357600080fd5b600083013567ffffffffffffffff8111156117dd57600080fd5b6117e985828601611639565b92505060206117fa8582860161160f565b9150509250929050565b61180d81611e3a565b82525050565b61182461181f82611e3a565b611ed1565b82525050565b61183381611e4c565b82525050565b61184281611e58565b82525050565b600061185382611df1565b61185d8185611e1e565b935061186d818560208601611e9e565b80840191505092915050565b600061188482611de6565b61188e8185611dfc565b935061189e818560208601611e9e565b6118a781611ef5565b840191505092915050565b60006118bd82611de6565b6118c78185611e0d565b93506118d7818560208601611e9e565b6118e081611ef5565b840191505092915050565b60006118f682611de6565b6119008185611e1e565b9350611910818560208601611e9e565b80840191505092915050565b6000611929601883611e29565b91507f636572746966696572206e6f7420617574686f726973656400000000000000006000830152602082019050919050565b6000611969601683611e29565b91507f696e76616c6964207265636f766572792076616c7565000000000000000000006000830152602082019050919050565b60006119a9601083611e29565b91507f6e656564206e6577207369676e657273000000000000000000000000000000006000830152602082019050919050565b60006119e9601d83611e29565b91507f696e76616c6964207061636b6564207369676e657273206c656e6774680000006000830152602082019050919050565b6000611a29601c83611e29565b91507f65616368207369676e65722073686f756c6420626520756e69717565000000006000830152602082019050919050565b6000611a69601583611e29565b91507f6f6e6c79206d616e616765722063616e2063616c6c00000000000000000000006000830152602082019050919050565b60006040830160008301518482036000860152611ab98282611879565b91505060208301518482036020860152611ad38282611879565b9150508091505092915050565b611ae981611e82565b82525050565b6000611afb8285611848565b9150611b078284611813565b6014820191508190509392505050565b6000611b2382856118eb565b9150611b2f8284611813565b6014820191508190509392505050565b6000611b4b82866118eb565b9150611b578285611848565b9150611b6382846118eb565b9150819050949350505050565b6000602082019050611b856000830184611804565b92915050565b6000602082019050611ba0600083018461182a565b92915050565b6000602082019050611bbb6000830184611839565b92915050565b6000608082019050611bd66000830187611839565b611be36020830186611ae0565b611bf06040830185611839565b611bfd6060830184611839565b95945050505050565b60006020820190508181036000830152611c2081846118b2565b905092915050565b60006060820190508181036000830152611c4281866118b2565b9050611c51602083018561182a565b611c5e604083018461182a565b949350505050565b60006040820190508181036000830152611c8081856118b2565b90508181036020830152611c9481846118b2565b90509392505050565b60006020820190508181036000830152611cb68161191c565b9050919050565b60006020820190508181036000830152611cd68161195c565b9050919050565b60006020820190508181036000830152611cf68161199c565b9050919050565b60006020820190508181036000830152611d16816119dc565b9050919050565b60006020820190508181036000830152611d3681611a1c565b9050919050565b60006020820190508181036000830152611d5681611a5c565b9050919050565b60006040820190508181036000830152611d778185611a9c565b9050611d866020830184611839565b9392505050565b6000604051905081810181811067ffffffffffffffff82111715611db057600080fd5b8060405250919050565b600067ffffffffffffffff821115611dd157600080fd5b601f19601f8301169050602081019050919050565b600081519050919050565b600081519050919050565b600082825260208201905092915050565b600082825260208201905092915050565b600081905092915050565b600082825260208201905092915050565b6000611e4582611e62565b9050919050565b60008115159050919050565b6000819050919050565b600073ffffffffffffffffffffffffffffffffffffffff82169050919050565b600060ff82169050919050565b82818337600083830152505050565b60005b83811015611ebc578082015181840152602081019050611ea1565b83811115611ecb576000848401525b50505050565b6000611edc82611ee3565b9050919050565b6000611eee82611f06565b9050919050565b6000601f19601f8301169050919050565b60008160601b9050919050565b611f1c81611e3a565b8114611f2757600080fd5b50565b611f3381611e4c565b8114611f3e57600080fd5b50565b611f4a81611e58565b8114611f5557600080fd5b5056fea264697066735822122009192e72b1d1a41b6f263c13ed59571ec7a932560d0a77bd8c2b5f32437dabc264736f6c63430006010033","opcodes":"PUSH1 0x80 PUSH1 0x40 MSTORE CALLVALUE DUP1 ISZERO PUSH2 0x10 JUMPI PUSH1 0x0 DUP1 REVERT JUMPDEST POP CALLER PUSH1 0x2 PUSH1 0x0 PUSH2 0x100 EXP DUP2 SLOAD DUP2 PUSH20 0xFFFFFFFFFFFFFFFFFFFFFFFFFFFFFFFFFFFFFFFF MUL NOT AND SWAP1 DUP4 PUSH20 0xFFFFFFFFFFFFFFFFFFFFFFFFFFFFFFFFFFFFFFFF AND MUL OR SWAP1 SSTORE POP PUSH2 0x1F8E DUP1 PUSH2 0x61 PUSH1 0x0 CODECOPY PUSH1 0x0 RETURN INVALID PUSH1 0x80 PUSH1 0x40 MSTORE CALLVALUE DUP1 ISZERO PUSH2 0x10 JUMPI PUSH1 0x0 DUP1 REVERT JUMPDEST POP PUSH1 0x4 CALLDATASIZE LT PUSH2 0x93 JUMPI PUSH1 0x0 CALLDATALOAD PUSH1 0xE0 SHR DUP1 PUSH4 0x906E9400 GT PUSH2 0x66 JUMPI DUP1 PUSH4 0x906E9400 EQ PUSH2 0x14A JUMPI DUP1 PUSH4 0xC189F3B3 EQ PUSH2 0x166 JUMPI DUP1 PUSH4 0xE02DAB0D EQ PUSH2 0x184 JUMPI DUP1 PUSH4 0xE2C5CD78 EQ PUSH2 0x1B4 JUMPI DUP1 PUSH4 0xE987EF02 EQ PUSH2 0x1D0 JUMPI PUSH2 0x93 JUMP JUMPDEST DUP1 PUSH4 0xB9962B1 EQ PUSH2 0x98 JUMPI DUP1 PUSH4 0x481C6A75 EQ PUSH2 0xC9 JUMPI DUP1 PUSH4 0x6A40856A EQ PUSH2 0xE7 JUMPI DUP1 PUSH4 0x742F0688 EQ PUSH2 0x119 JUMPI JUMPDEST PUSH1 0x0 DUP1 REVERT JUMPDEST PUSH2 0xB2 PUSH1 0x4 DUP1 CALLDATASIZE SUB PUSH2 0xAD SWAP2 SWAP1 DUP2 ADD SWAP1 PUSH2 0x17B0 JUMP JUMPDEST PUSH2 0x1EC JUMP JUMPDEST PUSH1 0x40 MLOAD PUSH2 0xC0 SWAP3 SWAP2 SWAP1 PUSH2 0x1D5D JUMP JUMPDEST PUSH1 0x40 MLOAD DUP1 SWAP2 SUB SWAP1 RETURN JUMPDEST PUSH2 0xD1 PUSH2 0x4D3 JUMP JUMPDEST PUSH1 0x40 MLOAD PUSH2 0xDE SWAP2 SWAP1 PUSH2 0x1B70 JUMP JUMPDEST PUSH1 0x40 MLOAD DUP1 SWAP2 SUB SWAP1 RETURN JUMPDEST PUSH2 0x101 PUSH1 0x4 DUP1 CALLDATASIZE SUB PUSH2 0xFC SWAP2 SWAP1 DUP2 ADD SWAP1 PUSH2 0x168D JUMP JUMPDEST PUSH2 0x4F9 JUMP JUMPDEST PUSH1 0x40 MLOAD PUSH2 0x110 SWAP4 SWAP3 SWAP2 SWAP1 PUSH2 0x1C28 JUMP JUMPDEST PUSH1 0x40 MLOAD DUP1 SWAP2 SUB SWAP1 RETURN JUMPDEST PUSH2 0x133 PUSH1 0x4 DUP1 CALLDATASIZE SUB PUSH2 0x12E SWAP2 SWAP1 DUP2 ADD SWAP1 PUSH2 0x1746 JUMP JUMPDEST PUSH2 0x5D5 JUMP JUMPDEST PUSH1 0x40 MLOAD PUSH2 0x141 SWAP3 SWAP2 SWAP1 PUSH2 0x1C66 JUMP JUMPDEST PUSH1 0x40 MLOAD DUP1 SWAP2 SUB SWAP1 RETURN JUMPDEST PUSH2 0x164 PUSH1 0x4 DUP1 CALLDATASIZE SUB PUSH2 0x15F SWAP2 SWAP1 DUP2 ADD SWAP1 PUSH2 0x168D JUMP JUMPDEST PUSH2 0x729 JUMP JUMPDEST STOP JUMPDEST PUSH2 0x16E PUSH2 0x7FD JUMP JUMPDEST PUSH1 0x40 MLOAD PUSH2 0x17B SWAP2 SWAP1 PUSH2 0x1C06 JUMP JUMPDEST PUSH1 0x40 MLOAD DUP1 SWAP2 SUB SWAP1 RETURN JUMPDEST PUSH2 0x19E PUSH1 0x4 DUP1 CALLDATASIZE SUB PUSH2 0x199 SWAP2 SWAP1 DUP2 ADD SWAP1 PUSH2 0x176F JUMP JUMPDEST PUSH2 0x836 JUMP JUMPDEST PUSH1 0x40 MLOAD PUSH2 0x1AB SWAP2 SWAP1 PUSH2 0x1BA6 JUMP JUMPDEST PUSH1 0x40 MLOAD DUP1 SWAP2 SUB SWAP1 RETURN JUMPDEST PUSH2 0x1CE PUSH1 0x4 DUP1 CALLDATASIZE SUB PUSH2 0x1C9 SWAP2 SWAP1 DUP2 ADD SWAP1 PUSH2 0x16F2 JUMP JUMPDEST PUSH2 0xB82 JUMP JUMPDEST STOP JUMPDEST PUSH2 0x1EA PUSH1 0x4 DUP1 CALLDATASIZE SUB PUSH2 0x1E5 SWAP2 SWAP1 DUP2 ADD SWAP1 PUSH2 0x16B6 JUMP JUMPDEST PUSH2 0xD25 JUMP JUMPDEST STOP JUMPDEST PUSH2 0x1F4 PUSH2 0x1487 JUMP JUMPDEST PUSH1 0x0 PUSH1 0x60 PUSH2 0x209 PUSH2 0x204 DUP7 PUSH2 0xE13 JUMP JUMPDEST PUSH2 0xE41 JUMP JUMPDEST SWAP1 POP PUSH2 0x228 DUP2 PUSH1 0x0 DUP2 MLOAD DUP2 LT PUSH2 0x21B JUMPI INVALID JUMPDEST PUSH1 0x20 MUL PUSH1 0x20 ADD ADD MLOAD PUSH2 0xF1E JUMP JUMPDEST DUP4 PUSH1 0x0 ADD DUP2 SWAP1 MSTORE POP PUSH1 0x40 MLOAD DUP1 PUSH1 0x40 ADD PUSH1 0x40 MSTORE DUP1 PUSH1 0x1A DUP2 MSTORE PUSH1 0x20 ADD PUSH32 0x19457468657265756D205369676E6564204D6573736167653A0A000000000000 DUP2 MSTORE POP PUSH2 0x274 DUP5 PUSH1 0x0 ADD MLOAD MLOAD PUSH2 0xF94 JUMP JUMPDEST DUP5 PUSH1 0x0 ADD MLOAD PUSH1 0x40 MLOAD PUSH1 0x20 ADD PUSH2 0x28B SWAP4 SWAP3 SWAP2 SWAP1 PUSH2 0x1B3F JUMP JUMPDEST PUSH1 0x40 MLOAD PUSH1 0x20 DUP2 DUP4 SUB SUB DUP2 MSTORE SWAP1 PUSH1 0x40 MSTORE DUP1 MLOAD SWAP1 PUSH1 0x20 ADD KECCAK256 SWAP2 POP PUSH1 0x0 PUSH1 0x1 SWAP1 POP JUMPDEST DUP2 MLOAD DUP2 LT ISZERO PUSH2 0x4CA JUMPI PUSH1 0x60 PUSH2 0x2D1 DUP4 DUP4 DUP2 MLOAD DUP2 LT PUSH2 0x2C4 JUMPI INVALID JUMPDEST PUSH1 0x20 MUL PUSH1 0x20 ADD ADD MLOAD PUSH2 0x10C1 JUMP JUMPDEST SWAP1 POP PUSH1 0x0 DUP1 PUSH1 0x0 PUSH1 0x20 DUP5 ADD DUP1 MLOAD SWAP4 POP PUSH1 0x20 DUP2 ADD MLOAD SWAP3 POP PUSH1 0x40 DUP2 ADD MLOAD PUSH1 0x0 BYTE SWAP2 POP PUSH1 0x1B DUP3 LT ISZERO PUSH2 0x301 JUMPI PUSH1 0x1B DUP3 ADD SWAP2 POP JUMPDEST POP PUSH1 0x1B DUP2 PUSH1 0xFF AND EQ DUP1 PUSH2 0x317 JUMPI POP PUSH1 0x1C DUP2 PUSH1 0xFF AND EQ JUMPDEST PUSH2 0x356 JUMPI PUSH1 0x40 MLOAD PUSH32 0x8C379A000000000000000000000000000000000000000000000000000000000 DUP2 MSTORE PUSH1 0x4 ADD PUSH2 0x34D SWAP1 PUSH2 0x1CBD JUMP JUMPDEST PUSH1 0x40 MLOAD DUP1 SWAP2 SUB SWAP1 REVERT JUMPDEST PUSH1 0x0 PUSH1 0x1 DUP9 DUP4 DUP7 DUP7 PUSH1 0x40 MLOAD PUSH1 0x0 DUP2 MSTORE PUSH1 0x20 ADD PUSH1 0x40 MSTORE PUSH1 0x40 MLOAD PUSH2 0x37B SWAP5 SWAP4 SWAP3 SWAP2 SWAP1 PUSH2 0x1BC1 JUMP JUMPDEST PUSH1 0x20 PUSH1 0x40 MLOAD PUSH1 0x20 DUP2 SUB SWAP1 DUP1 DUP5 SUB SWAP1 DUP6 GAS STATICCALL ISZERO DUP1 ISZERO PUSH2 0x39D JUMPI RETURNDATASIZE PUSH1 0x0 DUP1 RETURNDATACOPY RETURNDATASIZE PUSH1 0x0 REVERT JUMPDEST POP POP POP PUSH1 0x20 PUSH1 0x40 MLOAD SUB MLOAD SWAP1 POP PUSH2 0x3B7 DUP2 DUP11 PUSH1 0x20 ADD MLOAD PUSH2 0x114D JUMP JUMPDEST PUSH2 0x3F6 JUMPI PUSH1 0x40 MLOAD PUSH32 0x8C379A000000000000000000000000000000000000000000000000000000000 DUP2 MSTORE PUSH1 0x4 ADD PUSH2 0x3ED SWAP1 PUSH2 0x1D1D JUMP JUMPDEST PUSH1 0x40 MLOAD DUP1 SWAP2 SUB SWAP1 REVERT JUMPDEST DUP10 ISZERO PUSH2 0x48C JUMPI PUSH1 0x1 PUSH1 0x0 DUP3 PUSH20 0xFFFFFFFFFFFFFFFFFFFFFFFFFFFFFFFFFFFFFFFF AND PUSH20 0xFFFFFFFFFFFFFFFFFFFFFFFFFFFFFFFFFFFFFFFF AND DUP2 MSTORE PUSH1 0x20 ADD SWAP1 DUP2 MSTORE PUSH1 0x20 ADD PUSH1 0x0 KECCAK256 PUSH1 0x1 ADD PUSH1 0x0 SWAP1 SLOAD SWAP1 PUSH2 0x100 EXP SWAP1 DIV PUSH1 0xFF AND PUSH2 0x48B JUMPI PUSH1 0x40 MLOAD PUSH32 0x8C379A000000000000000000000000000000000000000000000000000000000 DUP2 MSTORE PUSH1 0x4 ADD PUSH2 0x482 SWAP1 PUSH2 0x1C9D JUMP JUMPDEST PUSH1 0x40 MLOAD DUP1 SWAP2 SUB SWAP1 REVERT JUMPDEST JUMPDEST DUP9 PUSH1 0x20 ADD MLOAD DUP2 PUSH1 0x40 MLOAD PUSH1 0x20 ADD PUSH2 0x4A3 SWAP3 SWAP2 SWAP1 PUSH2 0x1B17 JUMP JUMPDEST PUSH1 0x40 MLOAD PUSH1 0x20 DUP2 DUP4 SUB SUB DUP2 MSTORE SWAP1 PUSH1 0x40 MSTORE DUP10 PUSH1 0x20 ADD DUP2 SWAP1 MSTORE POP POP POP POP POP POP PUSH1 0x1 DUP2 ADD SWAP1 POP PUSH2 0x2AA JUMP JUMPDEST POP POP SWAP3 POP SWAP3 SWAP1 POP JUMP JUMPDEST PUSH1 0x2 PUSH1 0x0 SWAP1 SLOAD SWAP1 PUSH2 0x100 EXP SWAP1 DIV PUSH20 0xFFFFFFFFFFFFFFFFFFFFFFFFFFFFFFFFFFFFFFFF AND DUP2 JUMP JUMPDEST PUSH1 0x1 PUSH1 0x20 MSTORE DUP1 PUSH1 0x0 MSTORE PUSH1 0x40 PUSH1 0x0 KECCAK256 PUSH1 0x0 SWAP2 POP SWAP1 POP DUP1 PUSH1 0x0 ADD DUP1 SLOAD PUSH1 0x1 DUP2 PUSH1 0x1 AND ISZERO PUSH2 0x100 MUL SUB AND PUSH1 0x2 SWAP1 DIV DUP1 PUSH1 0x1F ADD PUSH1 0x20 DUP1 SWAP2 DIV MUL PUSH1 0x20 ADD PUSH1 0x40 MLOAD SWAP1 DUP2 ADD PUSH1 0x40 MSTORE DUP1 SWAP3 SWAP2 SWAP1 DUP2 DUP2 MSTORE PUSH1 0x20 ADD DUP3 DUP1 SLOAD PUSH1 0x1 DUP2 PUSH1 0x1 AND ISZERO PUSH2 0x100 MUL SUB AND PUSH1 0x2 SWAP1 DIV DUP1 ISZERO PUSH2 0x5A5 JUMPI DUP1 PUSH1 0x1F LT PUSH2 0x57A JUMPI PUSH2 0x100 DUP1 DUP4 SLOAD DIV MUL DUP4 MSTORE SWAP2 PUSH1 0x20 ADD SWAP2 PUSH2 0x5A5 JUMP JUMPDEST DUP3 ADD SWAP2 SWAP1 PUSH1 0x0 MSTORE PUSH1 0x20 PUSH1 0x0 KECCAK256 SWAP1 JUMPDEST DUP2 SLOAD DUP2 MSTORE SWAP1 PUSH1 0x1 ADD SWAP1 PUSH1 0x20 ADD DUP1 DUP4 GT PUSH2 0x588 JUMPI DUP3 SWAP1 SUB PUSH1 0x1F AND DUP3 ADD SWAP2 JUMPDEST POP POP POP POP POP SWAP1 DUP1 PUSH1 0x1 ADD PUSH1 0x0 SWAP1 SLOAD SWAP1 PUSH2 0x100 EXP SWAP1 DIV PUSH1 0xFF AND SWAP1 DUP1 PUSH1 0x1 ADD PUSH1 0x1 SWAP1 SLOAD SWAP1 PUSH2 0x100 EXP SWAP1 DIV PUSH1 0xFF AND SWAP1 POP DUP4 JUMP JUMPDEST PUSH1 0x0 PUSH1 0x20 MSTORE DUP1 PUSH1 0x0 MSTORE PUSH1 0x40 PUSH1 0x0 KECCAK256 PUSH1 0x0 SWAP2 POP SWAP1 POP DUP1 PUSH1 0x0 ADD DUP1 SLOAD PUSH1 0x1 DUP2 PUSH1 0x1 AND ISZERO PUSH2 0x100 MUL SUB AND PUSH1 0x2 SWAP1 DIV DUP1 PUSH1 0x1F ADD PUSH1 0x20 DUP1 SWAP2 DIV MUL PUSH1 0x20 ADD PUSH1 0x40 MLOAD SWAP1 DUP2 ADD PUSH1 0x40 MSTORE DUP1 SWAP3 SWAP2 SWAP1 DUP2 DUP2 MSTORE PUSH1 0x20 ADD DUP3 DUP1 SLOAD PUSH1 0x1 DUP2 PUSH1 0x1 AND ISZERO PUSH2 0x100 MUL SUB AND PUSH1 0x2 SWAP1 DIV DUP1 ISZERO PUSH2 0x681 JUMPI DUP1 PUSH1 0x1F LT PUSH2 0x656 JUMPI PUSH2 0x100 DUP1 DUP4 SLOAD DIV MUL DUP4 MSTORE SWAP2 PUSH1 0x20 ADD SWAP2 PUSH2 0x681 JUMP JUMPDEST DUP3 ADD SWAP2 SWAP1 PUSH1 0x0 MSTORE PUSH1 0x20 PUSH1 0x0 KECCAK256 SWAP1 JUMPDEST DUP2 SLOAD DUP2 MSTORE SWAP1 PUSH1 0x1 ADD SWAP1 PUSH1 0x20 ADD DUP1 DUP4 GT PUSH2 0x664 JUMPI DUP3 SWAP1 SUB PUSH1 0x1F AND DUP3 ADD SWAP2 JUMPDEST POP POP POP POP POP SWAP1 DUP1 PUSH1 0x1 ADD DUP1 SLOAD PUSH1 0x1 DUP2 PUSH1 0x1 AND ISZERO PUSH2 0x100 MUL SUB AND PUSH1 0x2 SWAP1 DIV DUP1 PUSH1 0x1F ADD PUSH1 0x20 DUP1 SWAP2 DIV MUL PUSH1 0x20 ADD PUSH1 0x40 MLOAD SWAP1 DUP2 ADD PUSH1 0x40 MSTORE DUP1 SWAP3 SWAP2 SWAP1 DUP2 DUP2 MSTORE PUSH1 0x20 ADD DUP3 DUP1 SLOAD PUSH1 0x1 DUP2 PUSH1 0x1 AND ISZERO PUSH2 0x100 MUL SUB AND PUSH1 0x2 SWAP1 DIV DUP1 ISZERO PUSH2 0x71F JUMPI DUP1 PUSH1 0x1F LT PUSH2 0x6F4 JUMPI PUSH2 0x100 DUP1 DUP4 SLOAD DIV MUL DUP4 MSTORE SWAP2 PUSH1 0x20 ADD SWAP2 PUSH2 0x71F JUMP JUMPDEST DUP3 ADD SWAP2 SWAP1 PUSH1 0x0 MSTORE PUSH1 0x20 PUSH1 0x0 KECCAK256 SWAP1 JUMPDEST DUP2 SLOAD DUP2 MSTORE SWAP1 PUSH1 0x1 ADD SWAP1 PUSH1 0x20 ADD DUP1 DUP4 GT PUSH2 0x702 JUMPI DUP3 SWAP1 SUB PUSH1 0x1F AND DUP3 ADD SWAP2 JUMPDEST POP POP POP POP POP SWAP1 POP DUP3 JUMP JUMPDEST PUSH1 0x2 PUSH1 0x0 SWAP1 SLOAD SWAP1 PUSH2 0x100 EXP SWAP1 DIV PUSH20 0xFFFFFFFFFFFFFFFFFFFFFFFFFFFFFFFFFFFFFFFF AND PUSH20 0xFFFFFFFFFFFFFFFFFFFFFFFFFFFFFFFFFFFFFFFF AND CALLER PUSH20 0xFFFFFFFFFFFFFFFFFFFFFFFFFFFFFFFFFFFFFFFF AND EQ PUSH2 0x7B9 JUMPI PUSH1 0x40 MLOAD PUSH32 0x8C379A000000000000000000000000000000000000000000000000000000000 DUP2 MSTORE PUSH1 0x4 ADD PUSH2 0x7B0 SWAP1 PUSH2 0x1D3D JUMP JUMPDEST PUSH1 0x40 MLOAD DUP1 SWAP2 SUB SWAP1 REVERT JUMPDEST DUP1 PUSH1 0x2 PUSH1 0x0 PUSH2 0x100 EXP DUP2 SLOAD DUP2 PUSH20 0xFFFFFFFFFFFFFFFFFFFFFFFFFFFFFFFFFFFFFFFF MUL NOT AND SWAP1 DUP4 PUSH20 0xFFFFFFFFFFFFFFFFFFFFFFFFFFFFFFFFFFFFFFFF AND MUL OR SWAP1 SSTORE POP POP JUMP JUMPDEST PUSH1 0x40 MLOAD DUP1 PUSH1 0x40 ADD PUSH1 0x40 MSTORE DUP1 PUSH1 0x1A DUP2 MSTORE PUSH1 0x20 ADD PUSH32 0x19457468657265756D205369676E6564204D6573736167653A0A000000000000 DUP2 MSTORE POP DUP2 JUMP JUMPDEST PUSH1 0x0 PUSH2 0x840 PUSH2 0x1487 JUMP JUMPDEST PUSH1 0x0 PUSH2 0x84D DUP5 PUSH1 0x1 PUSH2 0x1EC JUMP JUMPDEST SWAP2 POP SWAP2 POP PUSH1 0x60 DUP3 PUSH1 0x20 ADD MLOAD SWAP1 POP PUSH1 0x60 PUSH1 0x0 DUP1 DUP5 DUP2 MSTORE PUSH1 0x20 ADD SWAP1 DUP2 MSTORE PUSH1 0x20 ADD PUSH1 0x0 KECCAK256 PUSH1 0x1 ADD DUP1 SLOAD PUSH1 0x1 DUP2 PUSH1 0x1 AND ISZERO PUSH2 0x100 MUL SUB AND PUSH1 0x2 SWAP1 DIV DUP1 PUSH1 0x1F ADD PUSH1 0x20 DUP1 SWAP2 DIV MUL PUSH1 0x20 ADD PUSH1 0x40 MLOAD SWAP1 DUP2 ADD PUSH1 0x40 MSTORE DUP1 SWAP3 SWAP2 SWAP1 DUP2 DUP2 MSTORE PUSH1 0x20 ADD DUP3 DUP1 SLOAD PUSH1 0x1 DUP2 PUSH1 0x1 AND ISZERO PUSH2 0x100 MUL SUB AND PUSH1 0x2 SWAP1 DIV DUP1 ISZERO PUSH2 0x905 JUMPI DUP1 PUSH1 0x1F LT PUSH2 0x8DA JUMPI PUSH2 0x100 DUP1 DUP4 SLOAD DIV MUL DUP4 MSTORE SWAP2 PUSH1 0x20 ADD SWAP2 PUSH2 0x905 JUMP JUMPDEST DUP3 ADD SWAP2 SWAP1 PUSH1 0x0 MSTORE PUSH1 0x20 PUSH1 0x0 KECCAK256 SWAP1 JUMPDEST DUP2 SLOAD DUP2 MSTORE SWAP1 PUSH1 0x1 ADD SWAP1 PUSH1 0x20 ADD DUP1 DUP4 GT PUSH2 0x8E8 JUMPI DUP3 SWAP1 SUB PUSH1 0x1F AND DUP3 ADD SWAP2 JUMPDEST POP POP POP POP POP SWAP1 POP PUSH1 0x0 DUP1 SWAP1 POP JUMPDEST DUP3 MLOAD DUP2 LT ISZERO PUSH2 0xA57 JUMPI PUSH1 0x0 DUP2 PUSH1 0x14 ADD DUP5 ADD MLOAD SWAP1 POP PUSH2 0x9DD DUP2 PUSH1 0x0 DUP1 DUP9 DUP2 MSTORE PUSH1 0x20 ADD SWAP1 DUP2 MSTORE PUSH1 0x20 ADD PUSH1 0x0 KECCAK256 PUSH1 0x1 ADD DUP1 SLOAD PUSH1 0x1 DUP2 PUSH1 0x1 AND ISZERO PUSH2 0x100 MUL SUB AND PUSH1 0x2 SWAP1 DIV DUP1 PUSH1 0x1F ADD PUSH1 0x20 DUP1 SWAP2 DIV MUL PUSH1 0x20 ADD PUSH1 0x40 MLOAD SWAP1 DUP2 ADD PUSH1 0x40 MSTORE DUP1 SWAP3 SWAP2 SWAP1 DUP2 DUP2 MSTORE PUSH1 0x20 ADD DUP3 DUP1 SLOAD PUSH1 0x1 DUP2 PUSH1 0x1 AND ISZERO PUSH2 0x100 MUL SUB AND PUSH1 0x2 SWAP1 DIV DUP1 ISZERO PUSH2 0x9D3 JUMPI DUP1 PUSH1 0x1F LT PUSH2 0x9A8 JUMPI PUSH2 0x100 DUP1 DUP4 SLOAD DIV MUL DUP4 MSTORE SWAP2 PUSH1 0x20 ADD SWAP2 PUSH2 0x9D3 JUMP JUMPDEST DUP3 ADD SWAP2 SWAP1 PUSH1 0x0 MSTORE PUSH1 0x20 PUSH1 0x0 KECCAK256 SWAP1 JUMPDEST DUP2 SLOAD DUP2 MSTORE SWAP1 PUSH1 0x1 ADD SWAP1 PUSH1 0x20 ADD DUP1 DUP4 GT PUSH2 0x9B6 JUMPI DUP3 SWAP1 SUB PUSH1 0x1F AND DUP3 ADD SWAP2 JUMPDEST POP POP POP POP POP PUSH2 0x114D JUMP JUMPDEST ISZERO PUSH2 0xA4B JUMPI DUP3 DUP2 PUSH1 0x40 MLOAD PUSH1 0x20 ADD PUSH2 0x9F5 SWAP3 SWAP2 SWAP1 PUSH2 0x1AEF JUMP JUMPDEST PUSH1 0x40 MLOAD PUSH1 0x20 DUP2 DUP4 SUB SUB DUP2 MSTORE SWAP1 PUSH1 0x40 MSTORE SWAP3 POP DUP1 PUSH20 0xFFFFFFFFFFFFFFFFFFFFFFFFFFFFFFFFFFFFFFFF AND DUP6 PUSH32 0x4007DEE9068A7E16ABA143C1861D9CB75F2BE4B83EF76AE2C602A2C301398CF7 PUSH1 0x40 MLOAD PUSH1 0x40 MLOAD DUP1 SWAP2 SUB SWAP1 LOG3 JUMPDEST POP PUSH1 0x14 DUP2 ADD SWAP1 POP PUSH2 0x912 JUMP JUMPDEST POP PUSH1 0x0 DUP1 PUSH1 0x0 DUP6 DUP2 MSTORE PUSH1 0x20 ADD SWAP1 DUP2 MSTORE PUSH1 0x20 ADD PUSH1 0x0 KECCAK256 PUSH1 0x1 ADD DUP1 SLOAD PUSH1 0x1 DUP2 PUSH1 0x1 AND ISZERO PUSH2 0x100 MUL SUB AND PUSH1 0x2 SWAP1 DIV SWAP1 POP GT ISZERO PUSH2 0xB25 JUMPI PUSH1 0x0 DUP1 DUP5 DUP2 MSTORE PUSH1 0x20 ADD SWAP1 DUP2 MSTORE PUSH1 0x20 ADD PUSH1 0x0 KECCAK256 PUSH1 0x1 ADD DUP1 SLOAD PUSH1 0x1 DUP2 PUSH1 0x1 AND ISZERO PUSH2 0x100 MUL SUB AND PUSH1 0x2 SWAP1 DIV SWAP1 POP DUP2 MLOAD GT PUSH2 0xAF6 JUMPI PUSH1 0x40 MLOAD PUSH32 0x8C379A000000000000000000000000000000000000000000000000000000000 DUP2 MSTORE PUSH1 0x4 ADD PUSH2 0xAED SWAP1 PUSH2 0x1CDD JUMP JUMPDEST PUSH1 0x40 MLOAD DUP1 SWAP2 SUB SWAP1 REVERT JUMPDEST DUP1 PUSH1 0x0 DUP1 DUP6 DUP2 MSTORE PUSH1 0x20 ADD SWAP1 DUP2 MSTORE PUSH1 0x20 ADD PUSH1 0x0 KECCAK256 PUSH1 0x1 ADD SWAP1 DUP1 MLOAD SWAP1 PUSH1 0x20 ADD SWAP1 PUSH2 0xB1F SWAP3 SWAP2 SWAP1 PUSH2 0x14A1 JUMP JUMPDEST POP PUSH2 0xB76 JUMP JUMPDEST DUP4 PUSH1 0x0 DUP1 DUP6 DUP2 MSTORE PUSH1 0x20 ADD SWAP1 DUP2 MSTORE PUSH1 0x20 ADD PUSH1 0x0 KECCAK256 PUSH1 0x0 DUP3 ADD MLOAD DUP2 PUSH1 0x0 ADD SWAP1 DUP1 MLOAD SWAP1 PUSH1 0x20 ADD SWAP1 PUSH2 0xB54 SWAP3 SWAP2 SWAP1 PUSH2 0x1521 JUMP JUMPDEST POP PUSH1 0x20 DUP3 ADD MLOAD DUP2 PUSH1 0x1 ADD SWAP1 DUP1 MLOAD SWAP1 PUSH1 0x20 ADD SWAP1 PUSH2 0xB71 SWAP3 SWAP2 SWAP1 PUSH2 0x1521 JUMP JUMPDEST POP SWAP1 POP POP JUMPDEST DUP3 SWAP5 POP POP POP POP POP SWAP2 SWAP1 POP JUMP JUMPDEST PUSH1 0x2 PUSH1 0x0 SWAP1 SLOAD SWAP1 PUSH2 0x100 EXP SWAP1 DIV PUSH20 0xFFFFFFFFFFFFFFFFFFFFFFFFFFFFFFFFFFFFFFFF AND PUSH20 0xFFFFFFFFFFFFFFFFFFFFFFFFFFFFFFFFFFFFFFFF AND CALLER PUSH20 0xFFFFFFFFFFFFFFFFFFFFFFFFFFFFFFFFFFFFFFFF AND EQ PUSH2 0xC12 JUMPI PUSH1 0x40 MLOAD PUSH32 0x8C379A000000000000000000000000000000000000000000000000000000000 DUP2 MSTORE PUSH1 0x4 ADD PUSH2 0xC09 SWAP1 PUSH2 0x1D3D JUMP JUMPDEST PUSH1 0x40 MLOAD DUP1 SWAP2 SUB SWAP1 REVERT JUMPDEST PUSH1 0x40 MLOAD DUP1 PUSH1 0x60 ADD PUSH1 0x40 MSTORE DUP1 DUP3 DUP2 MSTORE PUSH1 0x20 ADD PUSH1 0x1 ISZERO ISZERO DUP2 MSTORE PUSH1 0x20 ADD PUSH1 0x0 ISZERO ISZERO DUP2 MSTORE POP PUSH1 0x1 PUSH1 0x0 DUP5 PUSH20 0xFFFFFFFFFFFFFFFFFFFFFFFFFFFFFFFFFFFFFFFF AND PUSH20 0xFFFFFFFFFFFFFFFFFFFFFFFFFFFFFFFFFFFFFFFF AND DUP2 MSTORE PUSH1 0x20 ADD SWAP1 DUP2 MSTORE PUSH1 0x20 ADD PUSH1 0x0 KECCAK256 PUSH1 0x0 DUP3 ADD MLOAD DUP2 PUSH1 0x0 ADD SWAP1 DUP1 MLOAD SWAP1 PUSH1 0x20 ADD SWAP1 PUSH2 0xC8E SWAP3 SWAP2 SWAP1 PUSH2 0x1521 JUMP JUMPDEST POP PUSH1 0x20 DUP3 ADD MLOAD DUP2 PUSH1 0x1 ADD PUSH1 0x0 PUSH2 0x100 EXP DUP2 SLOAD DUP2 PUSH1 0xFF MUL NOT AND SWAP1 DUP4 ISZERO ISZERO MUL OR SWAP1 SSTORE POP PUSH1 0x40 DUP3 ADD MLOAD DUP2 PUSH1 0x1 ADD PUSH1 0x1 PUSH2 0x100 EXP DUP2 SLOAD DUP2 PUSH1 0xFF MUL NOT AND SWAP1 DUP4 ISZERO ISZERO MUL OR SWAP1 SSTORE POP SWAP1 POP POP DUP2 PUSH20 0xFFFFFFFFFFFFFFFFFFFFFFFFFFFFFFFFFFFFFFFF AND PUSH32 0x71B03471B324BBCC7546B2626D0407DBB70A61E5E77C56214352D9C12893933F PUSH1 0x1 PUSH1 0x40 MLOAD PUSH2 0xD19 SWAP2 SWAP1 PUSH2 0x1B8B JUMP JUMPDEST PUSH1 0x40 MLOAD DUP1 SWAP2 SUB SWAP1 LOG2 POP POP JUMP JUMPDEST PUSH1 0x2 PUSH1 0x0 SWAP1 SLOAD SWAP1 PUSH2 0x100 EXP SWAP1 DIV PUSH20 0xFFFFFFFFFFFFFFFFFFFFFFFFFFFFFFFFFFFFFFFF AND PUSH20 0xFFFFFFFFFFFFFFFFFFFFFFFFFFFFFFFFFFFFFFFF AND CALLER PUSH20 0xFFFFFFFFFFFFFFFFFFFFFFFFFFFFFFFFFFFFFFFF AND EQ PUSH2 0xDB5 JUMPI PUSH1 0x40 MLOAD PUSH32 0x8C379A000000000000000000000000000000000000000000000000000000000 DUP2 MSTORE PUSH1 0x4 ADD PUSH2 0xDAC SWAP1 PUSH2 0x1D3D JUMP JUMPDEST PUSH1 0x40 MLOAD DUP1 SWAP2 SUB SWAP1 REVERT JUMPDEST DUP1 PUSH1 0x1 PUSH1 0x0 DUP5 PUSH20 0xFFFFFFFFFFFFFFFFFFFFFFFFFFFFFFFFFFFFFFFF AND PUSH20 0xFFFFFFFFFFFFFFFFFFFFFFFFFFFFFFFFFFFFFFFF AND DUP2 MSTORE PUSH1 0x20 ADD SWAP1 DUP2 MSTORE PUSH1 0x20 ADD PUSH1 0x0 KECCAK256 PUSH1 0x1 ADD PUSH1 0x0 PUSH2 0x100 EXP DUP2 SLOAD DUP2 PUSH1 0xFF MUL NOT AND SWAP1 DUP4 ISZERO ISZERO MUL OR SWAP1 SSTORE POP POP POP JUMP JUMPDEST PUSH2 0xE1B PUSH2 0x15A1 JUMP JUMPDEST PUSH1 0x0 PUSH1 0x20 DUP4 ADD SWAP1 POP PUSH1 0x40 MLOAD DUP1 PUSH1 0x40 ADD PUSH1 0x40 MSTORE DUP1 DUP5 MLOAD DUP2 MSTORE PUSH1 0x20 ADD DUP3 DUP2 MSTORE POP SWAP2 POP POP SWAP2 SWAP1 POP JUMP JUMPDEST PUSH1 0x60 PUSH2 0xE4C DUP3 PUSH2 0x1220 JUMP JUMPDEST PUSH2 0xE55 JUMPI PUSH1 0x0 DUP1 REVERT JUMPDEST PUSH1 0x0 PUSH2 0xE60 DUP4 PUSH2 0x126E JUMP JUMPDEST SWAP1 POP PUSH1 0x60 DUP2 PUSH1 0x40 MLOAD SWAP1 DUP1 DUP3 MSTORE DUP1 PUSH1 0x20 MUL PUSH1 0x20 ADD DUP3 ADD PUSH1 0x40 MSTORE DUP1 ISZERO PUSH2 0xE9E JUMPI DUP2 PUSH1 0x20 ADD JUMPDEST PUSH2 0xE8B PUSH2 0x15BB JUMP JUMPDEST DUP2 MSTORE PUSH1 0x20 ADD SWAP1 PUSH1 0x1 SWAP1 SUB SWAP1 DUP2 PUSH2 0xE83 JUMPI SWAP1 POP JUMPDEST POP SWAP1 POP PUSH1 0x0 PUSH2 0xEB0 DUP6 PUSH1 0x20 ADD MLOAD PUSH2 0x12DF JUMP JUMPDEST DUP6 PUSH1 0x20 ADD MLOAD ADD SWAP1 POP PUSH1 0x0 DUP1 PUSH1 0x0 SWAP1 POP JUMPDEST DUP5 DUP2 LT ISZERO PUSH2 0xF11 JUMPI PUSH2 0xED1 DUP4 PUSH2 0x1368 JUMP JUMPDEST SWAP2 POP PUSH1 0x40 MLOAD DUP1 PUSH1 0x40 ADD PUSH1 0x40 MSTORE DUP1 DUP4 DUP2 MSTORE PUSH1 0x20 ADD DUP5 DUP2 MSTORE POP DUP5 DUP3 DUP2 MLOAD DUP2 LT PUSH2 0xEF4 JUMPI INVALID JUMPDEST PUSH1 0x20 MUL PUSH1 0x20 ADD ADD DUP2 SWAP1 MSTORE POP DUP2 DUP4 ADD SWAP3 POP DUP1 DUP1 PUSH1 0x1 ADD SWAP2 POP POP PUSH2 0xEC0 JUMP JUMPDEST POP DUP3 SWAP5 POP POP POP POP POP SWAP2 SWAP1 POP JUMP JUMPDEST PUSH1 0x60 DUP1 DUP3 PUSH1 0x0 ADD MLOAD PUSH1 0x40 MLOAD SWAP1 DUP1 DUP3 MSTORE DUP1 PUSH1 0x1F ADD PUSH1 0x1F NOT AND PUSH1 0x20 ADD DUP3 ADD PUSH1 0x40 MSTORE DUP1 ISZERO PUSH2 0xF58 JUMPI DUP2 PUSH1 0x20 ADD PUSH1 0x1 DUP3 MUL DUP1 CODESIZE DUP4 CODECOPY DUP1 DUP3 ADD SWAP2 POP POP SWAP1 POP JUMPDEST POP SWAP1 POP PUSH1 0x0 DUP2 MLOAD EQ ISZERO PUSH2 0xF6E JUMPI DUP1 SWAP2 POP POP PUSH2 0xF8F JUMP JUMPDEST PUSH1 0x0 DUP2 PUSH1 0x20 ADD SWAP1 POP PUSH2 0xF89 DUP5 PUSH1 0x20 ADD MLOAD DUP3 DUP7 PUSH1 0x0 ADD MLOAD PUSH2 0x1420 JUMP JUMPDEST DUP2 SWAP3 POP POP POP JUMPDEST SWAP2 SWAP1 POP JUMP JUMPDEST PUSH1 0x60 PUSH1 0x0 DUP3 EQ ISZERO PUSH2 0xFDC JUMPI PUSH1 0x40 MLOAD DUP1 PUSH1 0x40 ADD PUSH1 0x40 MSTORE DUP1 PUSH1 0x1 DUP2 MSTORE PUSH1 0x20 ADD PUSH32 0x3000000000000000000000000000000000000000000000000000000000000000 DUP2 MSTORE POP SWAP1 POP PUSH2 0x10BC JUMP JUMPDEST PUSH1 0x0 DUP3 SWAP1 POP PUSH1 0x0 JUMPDEST PUSH1 0x0 DUP3 EQ PUSH2 0x1006 JUMPI DUP1 DUP1 PUSH1 0x1 ADD SWAP2 POP POP PUSH1 0xA DUP3 DUP2 PUSH2 0xFFE JUMPI INVALID JUMPDEST DIV SWAP2 POP PUSH2 0xFE4 JUMP JUMPDEST PUSH1 0x60 DUP2 PUSH1 0x40 MLOAD SWAP1 DUP1 DUP3 MSTORE DUP1 PUSH1 0x1F ADD PUSH1 0x1F NOT AND PUSH1 0x20 ADD DUP3 ADD PUSH1 0x40 MSTORE DUP1 ISZERO PUSH2 0x103B JUMPI DUP2 PUSH1 0x20 ADD PUSH1 0x1 DUP3 MUL DUP1 CODESIZE DUP4 CODECOPY DUP1 DUP3 ADD SWAP2 POP POP SWAP1 POP JUMPDEST POP SWAP1 POP PUSH1 0x0 PUSH1 0x1 DUP4 SUB SWAP1 POP JUMPDEST PUSH1 0x0 DUP7 EQ PUSH2 0x10B4 JUMPI PUSH1 0xA DUP7 DUP2 PUSH2 0x1059 JUMPI INVALID JUMPDEST MOD PUSH1 0x30 ADD PUSH1 0xF8 SHL DUP3 DUP3 DUP1 PUSH1 0x1 SWAP1 SUB SWAP4 POP DUP2 MLOAD DUP2 LT PUSH2 0x1073 JUMPI INVALID JUMPDEST PUSH1 0x20 ADD ADD SWAP1 PUSH31 0xFFFFFFFFFFFFFFFFFFFFFFFFFFFFFFFFFFFFFFFFFFFFFFFFFFFFFFFFFFFFFF NOT AND SWAP1 DUP2 PUSH1 0x0 BYTE SWAP1 MSTORE8 POP PUSH1 0xA DUP7 DUP2 PUSH2 0x10AC JUMPI INVALID JUMPDEST DIV SWAP6 POP PUSH2 0x1047 JUMP JUMPDEST DUP2 SWAP5 POP POP POP POP POP JUMPDEST SWAP2 SWAP1 POP JUMP JUMPDEST PUSH1 0x60 PUSH1 0x0 DUP3 PUSH1 0x0 ADD MLOAD GT PUSH2 0x10D4 JUMPI PUSH1 0x0 DUP1 REVERT JUMPDEST PUSH1 0x0 PUSH2 0x10E3 DUP4 PUSH1 0x20 ADD MLOAD PUSH2 0x12DF JUMP JUMPDEST SWAP1 POP PUSH1 0x0 DUP2 DUP5 PUSH1 0x0 ADD MLOAD SUB SWAP1 POP PUSH1 0x60 DUP2 PUSH1 0x40 MLOAD SWAP1 DUP1 DUP3 MSTORE DUP1 PUSH1 0x1F ADD PUSH1 0x1F NOT AND PUSH1 0x20 ADD DUP3 ADD PUSH1 0x40 MSTORE DUP1 ISZERO PUSH2 0x1125 JUMPI DUP2 PUSH1 0x20 ADD PUSH1 0x1 DUP3 MUL DUP1 CODESIZE DUP4 CODECOPY DUP1 DUP3 ADD SWAP2 POP POP SWAP1 POP JUMPDEST POP SWAP1 POP PUSH1 0x0 DUP2 PUSH1 0x20 ADD SWAP1 POP PUSH2 0x1141 DUP5 DUP8 PUSH1 0x20 ADD MLOAD ADD DUP3 DUP6 PUSH2 0x1420 JUMP JUMPDEST DUP2 SWAP5 POP POP POP POP POP SWAP2 SWAP1 POP JUMP JUMPDEST PUSH1 0x0 DUP1 DUP3 MLOAD EQ ISZERO PUSH2 0x1161 JUMPI PUSH1 0x1 SWAP1 POP PUSH2 0x121A JUMP JUMPDEST PUSH1 0x0 PUSH1 0x14 DUP4 MLOAD DUP2 PUSH2 0x116E JUMPI INVALID JUMPDEST MOD EQ PUSH2 0x11AF JUMPI PUSH1 0x40 MLOAD PUSH32 0x8C379A000000000000000000000000000000000000000000000000000000000 DUP2 MSTORE PUSH1 0x4 ADD PUSH2 0x11A6 SWAP1 PUSH2 0x1CFD JUMP JUMPDEST PUSH1 0x40 MLOAD DUP1 SWAP2 SUB SWAP1 REVERT JUMPDEST PUSH1 0x0 DUP1 PUSH1 0x0 SWAP1 POP JUMPDEST DUP4 MLOAD DUP2 LT ISZERO PUSH2 0x1213 JUMPI DUP1 PUSH1 0x14 ADD DUP5 ADD MLOAD SWAP2 POP DUP5 PUSH20 0xFFFFFFFFFFFFFFFFFFFFFFFFFFFFFFFFFFFFFFFF AND DUP3 PUSH20 0xFFFFFFFFFFFFFFFFFFFFFFFFFFFFFFFFFFFFFFFF AND EQ ISZERO PUSH2 0x1208 JUMPI PUSH1 0x0 SWAP3 POP POP POP PUSH2 0x121A JUMP JUMPDEST PUSH1 0x14 DUP2 ADD SWAP1 POP PUSH2 0x11B7 JUMP JUMPDEST POP PUSH1 0x1 SWAP2 POP POP JUMPDEST SWAP3 SWAP2 POP POP JUMP JUMPDEST PUSH1 0x0 DUP1 DUP3 PUSH1 0x0 ADD MLOAD EQ ISZERO PUSH2 0x1237 JUMPI PUSH1 0x0 SWAP1 POP PUSH2 0x1269 JUMP JUMPDEST PUSH1 0x0 DUP1 DUP4 PUSH1 0x20 ADD MLOAD SWAP1 POP DUP1 MLOAD PUSH1 0x0 BYTE SWAP2 POP PUSH1 0xC0 PUSH1 0xFF AND DUP3 PUSH1 0xFF AND LT ISZERO PUSH2 0x1262 JUMPI PUSH1 0x0 SWAP3 POP POP POP PUSH2 0x1269 JUMP JUMPDEST PUSH1 0x1 SWAP3 POP POP POP JUMPDEST SWAP2 SWAP1 POP JUMP JUMPDEST PUSH1 0x0 DUP1 DUP3 PUSH1 0x0 ADD MLOAD EQ ISZERO PUSH2 0x1285 JUMPI PUSH1 0x0 SWAP1 POP PUSH2 0x12DA JUMP JUMPDEST PUSH1 0x0 DUP1 SWAP1 POP PUSH1 0x0 PUSH2 0x1299 DUP5 PUSH1 0x20 ADD MLOAD PUSH2 0x12DF JUMP JUMPDEST DUP5 PUSH1 0x20 ADD MLOAD ADD SWAP1 POP PUSH1 0x0 DUP5 PUSH1 0x0 ADD MLOAD DUP6 PUSH1 0x20 ADD MLOAD ADD SWAP1 POP JUMPDEST DUP1 DUP3 LT ISZERO PUSH2 0x12D3 JUMPI PUSH2 0x12C2 DUP3 PUSH2 0x1368 JUMP JUMPDEST DUP3 ADD SWAP2 POP DUP3 DUP1 PUSH1 0x1 ADD SWAP4 POP POP PUSH2 0x12B1 JUMP JUMPDEST DUP3 SWAP4 POP POP POP POP JUMPDEST SWAP2 SWAP1 POP JUMP JUMPDEST PUSH1 0x0 DUP1 DUP3 MLOAD PUSH1 0x0 BYTE SWAP1 POP PUSH1 0x80 PUSH1 0xFF AND DUP2 LT ISZERO PUSH2 0x12FF JUMPI PUSH1 0x0 SWAP2 POP POP PUSH2 0x1363 JUMP JUMPDEST PUSH1 0xB8 PUSH1 0xFF AND DUP2 LT DUP1 PUSH2 0x1324 JUMPI POP PUSH1 0xC0 PUSH1 0xFF AND DUP2 LT ISZERO DUP1 ISZERO PUSH2 0x1323 JUMPI POP PUSH1 0xF8 PUSH1 0xFF AND DUP2 LT JUMPDEST JUMPDEST ISZERO PUSH2 0x1333 JUMPI PUSH1 0x1 SWAP2 POP POP PUSH2 0x1363 JUMP JUMPDEST PUSH1 0xC0 PUSH1 0xFF AND DUP2 LT ISZERO PUSH2 0x1353 JUMPI PUSH1 0x1 DUP1 PUSH1 0xB8 SUB PUSH1 0xFF AND DUP3 SUB ADD SWAP2 POP POP PUSH2 0x1363 JUMP JUMPDEST PUSH1 0x1 DUP1 PUSH1 0xF8 SUB PUSH1 0xFF AND DUP3 SUB ADD SWAP2 POP POP JUMPDEST SWAP2 SWAP1 POP JUMP JUMPDEST PUSH1 0x0 DUP1 PUSH1 0x0 DUP4 MLOAD PUSH1 0x0 BYTE SWAP1 POP PUSH1 0x80 PUSH1 0xFF AND DUP2 LT ISZERO PUSH2 0x1389 JUMPI PUSH1 0x1 SWAP2 POP PUSH2 0x1416 JUMP JUMPDEST PUSH1 0xB8 PUSH1 0xFF AND DUP2 LT ISZERO PUSH2 0x13A6 JUMPI PUSH1 0x1 PUSH1 0x80 PUSH1 0xFF AND DUP3 SUB ADD SWAP2 POP PUSH2 0x1415 JUMP JUMPDEST PUSH1 0xC0 PUSH1 0xFF AND DUP2 LT ISZERO PUSH2 0x13D6 JUMPI PUSH1 0xB7 DUP2 SUB PUSH1 0x1 DUP6 ADD SWAP5 POP DUP1 PUSH1 0x20 SUB PUSH2 0x100 EXP DUP6 MLOAD DIV PUSH1 0x1 DUP3 ADD DUP2 ADD SWAP4 POP POP POP PUSH2 0x1414 JUMP JUMPDEST PUSH1 0xF8 PUSH1 0xFF AND DUP2 LT ISZERO PUSH2 0x13F3 JUMPI PUSH1 0x1 PUSH1 0xC0 PUSH1 0xFF AND DUP3 SUB ADD SWAP2 POP PUSH2 0x1413 JUMP JUMPDEST PUSH1 0xF7 DUP2 SUB PUSH1 0x1 DUP6 ADD SWAP5 POP DUP1 PUSH1 0x20 SUB PUSH2 0x100 EXP DUP6 MLOAD DIV PUSH1 0x1 DUP3 ADD DUP2 ADD SWAP4 POP POP POP JUMPDEST JUMPDEST JUMPDEST JUMPDEST DUP2 SWAP3 POP POP POP SWAP2 SWAP1 POP JUMP JUMPDEST PUSH1 0x0 DUP2 EQ ISZERO PUSH2 0x142E JUMPI PUSH2 0x1482 JUMP JUMPDEST JUMPDEST PUSH1 0x20 PUSH1 0xFF AND DUP2 LT PUSH2 0x145E JUMPI DUP3 MLOAD DUP3 MSTORE PUSH1 0x20 PUSH1 0xFF AND DUP4 ADD SWAP3 POP PUSH1 0x20 PUSH1 0xFF AND DUP3 ADD SWAP2 POP PUSH1 0x20 PUSH1 0xFF AND DUP2 SUB SWAP1 POP PUSH2 0x142F JUMP JUMPDEST PUSH1 0x0 PUSH1 0x1 DUP3 PUSH1 0x20 PUSH1 0xFF AND SUB PUSH2 0x100 EXP SUB SWAP1 POP DUP1 NOT DUP5 MLOAD AND DUP2 DUP5 MLOAD AND DUP2 DUP2 OR DUP6 MSTORE POP POP POP JUMPDEST POP POP POP JUMP JUMPDEST PUSH1 0x40 MLOAD DUP1 PUSH1 0x40 ADD PUSH1 0x40 MSTORE DUP1 PUSH1 0x60 DUP2 MSTORE PUSH1 0x20 ADD PUSH1 0x60 DUP2 MSTORE POP SWAP1 JUMP JUMPDEST DUP3 DUP1 SLOAD PUSH1 0x1 DUP2 PUSH1 0x1 AND ISZERO PUSH2 0x100 MUL SUB AND PUSH1 0x2 SWAP1 DIV SWAP1 PUSH1 0x0 MSTORE PUSH1 0x20 PUSH1 0x0 KECCAK256 SWAP1 PUSH1 0x1F ADD PUSH1 0x20 SWAP1 DIV DUP2 ADD SWAP3 DUP3 PUSH1 0x1F LT PUSH2 0x14E2 JUMPI DUP1 MLOAD PUSH1 0xFF NOT AND DUP4 DUP1 ADD OR DUP6 SSTORE PUSH2 0x1510 JUMP JUMPDEST DUP3 DUP1 ADD PUSH1 0x1 ADD DUP6 SSTORE DUP3 ISZERO PUSH2 0x1510 JUMPI SWAP2 DUP3 ADD JUMPDEST DUP3 DUP2 GT ISZERO PUSH2 0x150F JUMPI DUP3 MLOAD DUP3 SSTORE SWAP2 PUSH1 0x20 ADD SWAP2 SWAP1 PUSH1 0x1 ADD SWAP1 PUSH2 0x14F4 JUMP JUMPDEST JUMPDEST POP SWAP1 POP PUSH2 0x151D SWAP2 SWAP1 PUSH2 0x15D5 JUMP JUMPDEST POP SWAP1 JUMP JUMPDEST DUP3 DUP1 SLOAD PUSH1 0x1 DUP2 PUSH1 0x1 AND ISZERO PUSH2 0x100 MUL SUB AND PUSH1 0x2 SWAP1 DIV SWAP1 PUSH1 0x0 MSTORE PUSH1 0x20 PUSH1 0x0 KECCAK256 SWAP1 PUSH1 0x1F ADD PUSH1 0x20 SWAP1 DIV DUP2 ADD SWAP3 DUP3 PUSH1 0x1F LT PUSH2 0x1562 JUMPI DUP1 MLOAD PUSH1 0xFF NOT AND DUP4 DUP1 ADD OR DUP6 SSTORE PUSH2 0x1590 JUMP JUMPDEST DUP3 DUP1 ADD PUSH1 0x1 ADD DUP6 SSTORE DUP3 ISZERO PUSH2 0x1590 JUMPI SWAP2 DUP3 ADD JUMPDEST DUP3 DUP2 GT ISZERO PUSH2 0x158F JUMPI DUP3 MLOAD DUP3 SSTORE SWAP2 PUSH1 0x20 ADD SWAP2 SWAP1 PUSH1 0x1 ADD SWAP1 PUSH2 0x1574 JUMP JUMPDEST JUMPDEST POP SWAP1 POP PUSH2 0x159D SWAP2 SWAP1 PUSH2 0x15D5 JUMP JUMPDEST POP SWAP1 JUMP JUMPDEST PUSH1 0x40 MLOAD DUP1 PUSH1 0x40 ADD PUSH1 0x40 MSTORE DUP1 PUSH1 0x0 DUP2 MSTORE PUSH1 0x20 ADD PUSH1 0x0 DUP2 MSTORE POP SWAP1 JUMP JUMPDEST PUSH1 0x40 MLOAD DUP1 PUSH1 0x40 ADD PUSH1 0x40 MSTORE DUP1 PUSH1 0x0 DUP2 MSTORE PUSH1 0x20 ADD PUSH1 0x0 DUP2 MSTORE POP SWAP1 JUMP JUMPDEST PUSH2 0x15F7 SWAP2 SWAP1 JUMPDEST DUP1 DUP3 GT ISZERO PUSH2 0x15F3 JUMPI PUSH1 0x0 DUP2 PUSH1 0x0 SWAP1 SSTORE POP PUSH1 0x1 ADD PUSH2 0x15DB JUMP JUMPDEST POP SWAP1 JUMP JUMPDEST SWAP1 JUMP JUMPDEST PUSH1 0x0 DUP2 CALLDATALOAD SWAP1 POP PUSH2 0x1609 DUP2 PUSH2 0x1F13 JUMP JUMPDEST SWAP3 SWAP2 POP POP JUMP JUMPDEST PUSH1 0x0 DUP2 CALLDATALOAD SWAP1 POP PUSH2 0x161E DUP2 PUSH2 0x1F2A JUMP JUMPDEST SWAP3 SWAP2 POP POP JUMP JUMPDEST PUSH1 0x0 DUP2 CALLDATALOAD SWAP1 POP PUSH2 0x1633 DUP2 PUSH2 0x1F41 JUMP JUMPDEST SWAP3 SWAP2 POP POP JUMP JUMPDEST PUSH1 0x0 DUP3 PUSH1 0x1F DUP4 ADD SLT PUSH2 0x164A JUMPI PUSH1 0x0 DUP1 REVERT JUMPDEST DUP2 CALLDATALOAD PUSH2 0x165D PUSH2 0x1658 DUP3 PUSH2 0x1DBA JUMP JUMPDEST PUSH2 0x1D8D JUMP JUMPDEST SWAP2 POP DUP1 DUP3 MSTORE PUSH1 0x20 DUP4 ADD PUSH1 0x20 DUP4 ADD DUP6 DUP4 DUP4 ADD GT ISZERO PUSH2 0x1679 JUMPI PUSH1 0x0 DUP1 REVERT JUMPDEST PUSH2 0x1684 DUP4 DUP3 DUP5 PUSH2 0x1E8F JUMP JUMPDEST POP POP POP SWAP3 SWAP2 POP POP JUMP JUMPDEST PUSH1 0x0 PUSH1 0x20 DUP3 DUP5 SUB SLT ISZERO PUSH2 0x169F JUMPI PUSH1 0x0 DUP1 REVERT JUMPDEST PUSH1 0x0 PUSH2 0x16AD DUP5 DUP3 DUP6 ADD PUSH2 0x15FA JUMP JUMPDEST SWAP2 POP POP SWAP3 SWAP2 POP POP JUMP JUMPDEST PUSH1 0x0 DUP1 PUSH1 0x40 DUP4 DUP6 SUB SLT ISZERO PUSH2 0x16C9 JUMPI PUSH1 0x0 DUP1 REVERT JUMPDEST PUSH1 0x0 PUSH2 0x16D7 DUP6 DUP3 DUP7 ADD PUSH2 0x15FA JUMP JUMPDEST SWAP3 POP POP PUSH1 0x20 PUSH2 0x16E8 DUP6 DUP3 DUP7 ADD PUSH2 0x160F JUMP JUMPDEST SWAP2 POP POP SWAP3 POP SWAP3 SWAP1 POP JUMP JUMPDEST PUSH1 0x0 DUP1 PUSH1 0x40 DUP4 DUP6 SUB SLT ISZERO PUSH2 0x1705 JUMPI PUSH1 0x0 DUP1 REVERT JUMPDEST PUSH1 0x0 PUSH2 0x1713 DUP6 DUP3 DUP7 ADD PUSH2 0x15FA JUMP JUMPDEST SWAP3 POP POP PUSH1 0x20 DUP4 ADD CALLDATALOAD PUSH8 0xFFFFFFFFFFFFFFFF DUP2 GT ISZERO PUSH2 0x1730 JUMPI PUSH1 0x0 DUP1 REVERT JUMPDEST PUSH2 0x173C DUP6 DUP3 DUP7 ADD PUSH2 0x1639 JUMP JUMPDEST SWAP2 POP POP SWAP3 POP SWAP3 SWAP1 POP JUMP JUMPDEST PUSH1 0x0 PUSH1 0x20 DUP3 DUP5 SUB SLT ISZERO PUSH2 0x1758 JUMPI PUSH1 0x0 DUP1 REVERT JUMPDEST PUSH1 0x0 PUSH2 0x1766 DUP5 DUP3 DUP6 ADD PUSH2 0x1624 JUMP JUMPDEST SWAP2 POP POP SWAP3 SWAP2 POP POP JUMP JUMPDEST PUSH1 0x0 PUSH1 0x20 DUP3 DUP5 SUB SLT ISZERO PUSH2 0x1781 JUMPI PUSH1 0x0 DUP1 REVERT JUMPDEST PUSH1 0x0 DUP3 ADD CALLDATALOAD PUSH8 0xFFFFFFFFFFFFFFFF DUP2 GT ISZERO PUSH2 0x179B JUMPI PUSH1 0x0 DUP1 REVERT JUMPDEST PUSH2 0x17A7 DUP5 DUP3 DUP6 ADD PUSH2 0x1639 JUMP JUMPDEST SWAP2 POP POP SWAP3 SWAP2 POP POP JUMP JUMPDEST PUSH1 0x0 DUP1 PUSH1 0x40 DUP4 DUP6 SUB SLT ISZERO PUSH2 0x17C3 JUMPI PUSH1 0x0 DUP1 REVERT JUMPDEST PUSH1 0x0 DUP4 ADD CALLDATALOAD PUSH8 0xFFFFFFFFFFFFFFFF DUP2 GT ISZERO PUSH2 0x17DD JUMPI PUSH1 0x0 DUP1 REVERT JUMPDEST PUSH2 0x17E9 DUP6 DUP3 DUP7 ADD PUSH2 0x1639 JUMP JUMPDEST SWAP3 POP POP PUSH1 0x20 PUSH2 0x17FA DUP6 DUP3 DUP7 ADD PUSH2 0x160F JUMP JUMPDEST SWAP2 POP POP SWAP3 POP SWAP3 SWAP1 POP JUMP JUMPDEST PUSH2 0x180D DUP2 PUSH2 0x1E3A JUMP JUMPDEST DUP3 MSTORE POP POP JUMP JUMPDEST PUSH2 0x1824 PUSH2 0x181F DUP3 PUSH2 0x1E3A JUMP JUMPDEST PUSH2 0x1ED1 JUMP JUMPDEST DUP3 MSTORE POP POP JUMP JUMPDEST PUSH2 0x1833 DUP2 PUSH2 0x1E4C JUMP JUMPDEST DUP3 MSTORE POP POP JUMP JUMPDEST PUSH2 0x1842 DUP2 PUSH2 0x1E58 JUMP JUMPDEST DUP3 MSTORE POP POP JUMP JUMPDEST PUSH1 0x0 PUSH2 0x1853 DUP3 PUSH2 0x1DF1 JUMP JUMPDEST PUSH2 0x185D DUP2 DUP6 PUSH2 0x1E1E JUMP JUMPDEST SWAP4 POP PUSH2 0x186D DUP2 DUP6 PUSH1 0x20 DUP7 ADD PUSH2 0x1E9E JUMP JUMPDEST DUP1 DUP5 ADD SWAP2 POP POP SWAP3 SWAP2 POP POP JUMP JUMPDEST PUSH1 0x0 PUSH2 0x1884 DUP3 PUSH2 0x1DE6 JUMP JUMPDEST PUSH2 0x188E DUP2 DUP6 PUSH2 0x1DFC JUMP JUMPDEST SWAP4 POP PUSH2 0x189E DUP2 DUP6 PUSH1 0x20 DUP7 ADD PUSH2 0x1E9E JUMP JUMPDEST PUSH2 0x18A7 DUP2 PUSH2 0x1EF5 JUMP JUMPDEST DUP5 ADD SWAP2 POP POP SWAP3 SWAP2 POP POP JUMP JUMPDEST PUSH1 0x0 PUSH2 0x18BD DUP3 PUSH2 0x1DE6 JUMP JUMPDEST PUSH2 0x18C7 DUP2 DUP6 PUSH2 0x1E0D JUMP JUMPDEST SWAP4 POP PUSH2 0x18D7 DUP2 DUP6 PUSH1 0x20 DUP7 ADD PUSH2 0x1E9E JUMP JUMPDEST PUSH2 0x18E0 DUP2 PUSH2 0x1EF5 JUMP JUMPDEST DUP5 ADD SWAP2 POP POP SWAP3 SWAP2 POP POP JUMP JUMPDEST PUSH1 0x0 PUSH2 0x18F6 DUP3 PUSH2 0x1DE6 JUMP JUMPDEST PUSH2 0x1900 DUP2 DUP6 PUSH2 0x1E1E JUMP JUMPDEST SWAP4 POP PUSH2 0x1910 DUP2 DUP6 PUSH1 0x20 DUP7 ADD PUSH2 0x1E9E JUMP JUMPDEST DUP1 DUP5 ADD SWAP2 POP POP SWAP3 SWAP2 POP POP JUMP JUMPDEST PUSH1 0x0 PUSH2 0x1929 PUSH1 0x18 DUP4 PUSH2 0x1E29 JUMP JUMPDEST SWAP2 POP PUSH32 0x636572746966696572206E6F7420617574686F72697365640000000000000000 PUSH1 0x0 DUP4 ADD MSTORE PUSH1 0x20 DUP3 ADD SWAP1 POP SWAP2 SWAP1 POP JUMP JUMPDEST PUSH1 0x0 PUSH2 0x1969 PUSH1 0x16 DUP4 PUSH2 0x1E29 JUMP JUMPDEST SWAP2 POP PUSH32 0x696E76616C6964207265636F766572792076616C756500000000000000000000 PUSH1 0x0 DUP4 ADD MSTORE PUSH1 0x20 DUP3 ADD SWAP1 POP SWAP2 SWAP1 POP JUMP JUMPDEST PUSH1 0x0 PUSH2 0x19A9 PUSH1 0x10 DUP4 PUSH2 0x1E29 JUMP JUMPDEST SWAP2 POP PUSH32 0x6E656564206E6577207369676E65727300000000000000000000000000000000 PUSH1 0x0 DUP4 ADD MSTORE PUSH1 0x20 DUP3 ADD SWAP1 POP SWAP2 SWAP1 POP JUMP JUMPDEST PUSH1 0x0 PUSH2 0x19E9 PUSH1 0x1D DUP4 PUSH2 0x1E29 JUMP JUMPDEST SWAP2 POP PUSH32 0x696E76616C6964207061636B6564207369676E657273206C656E677468000000 PUSH1 0x0 DUP4 ADD MSTORE PUSH1 0x20 DUP3 ADD SWAP1 POP SWAP2 SWAP1 POP JUMP JUMPDEST PUSH1 0x0 PUSH2 0x1A29 PUSH1 0x1C DUP4 PUSH2 0x1E29 JUMP JUMPDEST SWAP2 POP PUSH32 0x65616368207369676E65722073686F756C6420626520756E6971756500000000 PUSH1 0x0 DUP4 ADD MSTORE PUSH1 0x20 DUP3 ADD SWAP1 POP SWAP2 SWAP1 POP JUMP JUMPDEST PUSH1 0x0 PUSH2 0x1A69 PUSH1 0x15 DUP4 PUSH2 0x1E29 JUMP JUMPDEST SWAP2 POP PUSH32 0x6F6E6C79206D616E616765722063616E2063616C6C0000000000000000000000 PUSH1 0x0 DUP4 ADD MSTORE PUSH1 0x20 DUP3 ADD SWAP1 POP SWAP2 SWAP1 POP JUMP JUMPDEST PUSH1 0x0 PUSH1 0x40 DUP4 ADD PUSH1 0x0 DUP4 ADD MLOAD DUP5 DUP3 SUB PUSH1 0x0 DUP7 ADD MSTORE PUSH2 0x1AB9 DUP3 DUP3 PUSH2 0x1879 JUMP JUMPDEST SWAP2 POP POP PUSH1 0x20 DUP4 ADD MLOAD DUP5 DUP3 SUB PUSH1 0x20 DUP7 ADD MSTORE PUSH2 0x1AD3 DUP3 DUP3 PUSH2 0x1879 JUMP JUMPDEST SWAP2 POP POP DUP1 SWAP2 POP POP SWAP3 SWAP2 POP POP JUMP JUMPDEST PUSH2 0x1AE9 DUP2 PUSH2 0x1E82 JUMP JUMPDEST DUP3 MSTORE POP POP JUMP JUMPDEST PUSH1 0x0 PUSH2 0x1AFB DUP3 DUP6 PUSH2 0x1848 JUMP JUMPDEST SWAP2 POP PUSH2 0x1B07 DUP3 DUP5 PUSH2 0x1813 JUMP JUMPDEST PUSH1 0x14 DUP3 ADD SWAP2 POP DUP2 SWAP1 POP SWAP4 SWAP3 POP POP POP JUMP JUMPDEST PUSH1 0x0 PUSH2 0x1B23 DUP3 DUP6 PUSH2 0x18EB JUMP JUMPDEST SWAP2 POP PUSH2 0x1B2F DUP3 DUP5 PUSH2 0x1813 JUMP JUMPDEST PUSH1 0x14 DUP3 ADD SWAP2 POP DUP2 SWAP1 POP SWAP4 SWAP3 POP POP POP JUMP JUMPDEST PUSH1 0x0 PUSH2 0x1B4B DUP3 DUP7 PUSH2 0x18EB JUMP JUMPDEST SWAP2 POP PUSH2 0x1B57 DUP3 DUP6 PUSH2 0x1848 JUMP JUMPDEST SWAP2 POP PUSH2 0x1B63 DUP3 DUP5 PUSH2 0x18EB JUMP JUMPDEST SWAP2 POP DUP2 SWAP1 POP SWAP5 SWAP4 POP POP POP POP JUMP JUMPDEST PUSH1 0x0 PUSH1 0x20 DUP3 ADD SWAP1 POP PUSH2 0x1B85 PUSH1 0x0 DUP4 ADD DUP5 PUSH2 0x1804 JUMP JUMPDEST SWAP3 SWAP2 POP POP JUMP JUMPDEST PUSH1 0x0 PUSH1 0x20 DUP3 ADD SWAP1 POP PUSH2 0x1BA0 PUSH1 0x0 DUP4 ADD DUP5 PUSH2 0x182A JUMP JUMPDEST SWAP3 SWAP2 POP POP JUMP JUMPDEST PUSH1 0x0 PUSH1 0x20 DUP3 ADD SWAP1 POP PUSH2 0x1BBB PUSH1 0x0 DUP4 ADD DUP5 PUSH2 0x1839 JUMP JUMPDEST SWAP3 SWAP2 POP POP JUMP JUMPDEST PUSH1 0x0 PUSH1 0x80 DUP3 ADD SWAP1 POP PUSH2 0x1BD6 PUSH1 0x0 DUP4 ADD DUP8 PUSH2 0x1839 JUMP JUMPDEST PUSH2 0x1BE3 PUSH1 0x20 DUP4 ADD DUP7 PUSH2 0x1AE0 JUMP JUMPDEST PUSH2 0x1BF0 PUSH1 0x40 DUP4 ADD DUP6 PUSH2 0x1839 JUMP JUMPDEST PUSH2 0x1BFD PUSH1 0x60 DUP4 ADD DUP5 PUSH2 0x1839 JUMP JUMPDEST SWAP6 SWAP5 POP POP POP POP POP JUMP JUMPDEST PUSH1 0x0 PUSH1 0x20 DUP3 ADD SWAP1 POP DUP2 DUP2 SUB PUSH1 0x0 DUP4 ADD MSTORE PUSH2 0x1C20 DUP2 DUP5 PUSH2 0x18B2 JUMP JUMPDEST SWAP1 POP SWAP3 SWAP2 POP POP JUMP JUMPDEST PUSH1 0x0 PUSH1 0x60 DUP3 ADD SWAP1 POP DUP2 DUP2 SUB PUSH1 0x0 DUP4 ADD MSTORE PUSH2 0x1C42 DUP2 DUP7 PUSH2 0x18B2 JUMP JUMPDEST SWAP1 POP PUSH2 0x1C51 PUSH1 0x20 DUP4 ADD DUP6 PUSH2 0x182A JUMP JUMPDEST PUSH2 0x1C5E PUSH1 0x40 DUP4 ADD DUP5 PUSH2 0x182A JUMP JUMPDEST SWAP5 SWAP4 POP POP POP POP JUMP JUMPDEST PUSH1 0x0 PUSH1 0x40 DUP3 ADD SWAP1 POP DUP2 DUP2 SUB PUSH1 0x0 DUP4 ADD MSTORE PUSH2 0x1C80 DUP2 DUP6 PUSH2 0x18B2 JUMP JUMPDEST SWAP1 POP DUP2 DUP2 SUB PUSH1 0x20 DUP4 ADD MSTORE PUSH2 0x1C94 DUP2 DUP5 PUSH2 0x18B2 JUMP JUMPDEST SWAP1 POP SWAP4 SWAP3 POP POP POP JUMP JUMPDEST PUSH1 0x0 PUSH1 0x20 DUP3 ADD SWAP1 POP DUP2 DUP2 SUB PUSH1 0x0 DUP4 ADD MSTORE PUSH2 0x1CB6 DUP2 PUSH2 0x191C JUMP JUMPDEST SWAP1 POP SWAP2 SWAP1 POP JUMP JUMPDEST PUSH1 0x0 PUSH1 0x20 DUP3 ADD SWAP1 POP DUP2 DUP2 SUB PUSH1 0x0 DUP4 ADD MSTORE PUSH2 0x1CD6 DUP2 PUSH2 0x195C JUMP JUMPDEST SWAP1 POP SWAP2 SWAP1 POP JUMP JUMPDEST PUSH1 0x0 PUSH1 0x20 DUP3 ADD SWAP1 POP DUP2 DUP2 SUB PUSH1 0x0 DUP4 ADD MSTORE PUSH2 0x1CF6 DUP2 PUSH2 0x199C JUMP JUMPDEST SWAP1 POP SWAP2 SWAP1 POP JUMP JUMPDEST PUSH1 0x0 PUSH1 0x20 DUP3 ADD SWAP1 POP DUP2 DUP2 SUB PUSH1 0x0 DUP4 ADD MSTORE PUSH2 0x1D16 DUP2 PUSH2 0x19DC JUMP JUMPDEST SWAP1 POP SWAP2 SWAP1 POP JUMP JUMPDEST PUSH1 0x0 PUSH1 0x20 DUP3 ADD SWAP1 POP DUP2 DUP2 SUB PUSH1 0x0 DUP4 ADD MSTORE PUSH2 0x1D36 DUP2 PUSH2 0x1A1C JUMP JUMPDEST SWAP1 POP SWAP2 SWAP1 POP JUMP JUMPDEST PUSH1 0x0 PUSH1 0x20 DUP3 ADD SWAP1 POP DUP2 DUP2 SUB PUSH1 0x0 DUP4 ADD MSTORE PUSH2 0x1D56 DUP2 PUSH2 0x1A5C JUMP JUMPDEST SWAP1 POP SWAP2 SWAP1 POP JUMP JUMPDEST PUSH1 0x0 PUSH1 0x40 DUP3 ADD SWAP1 POP DUP2 DUP2 SUB PUSH1 0x0 DUP4 ADD MSTORE PUSH2 0x1D77 DUP2 DUP6 PUSH2 0x1A9C JUMP JUMPDEST SWAP1 POP PUSH2 0x1D86 PUSH1 0x20 DUP4 ADD DUP5 PUSH2 0x1839 JUMP JUMPDEST SWAP4 SWAP3 POP POP POP JUMP JUMPDEST PUSH1 0x0 PUSH1 0x40 MLOAD SWAP1 POP DUP2 DUP2 ADD DUP2 DUP2 LT PUSH8 0xFFFFFFFFFFFFFFFF DUP3 GT OR ISZERO PUSH2 0x1DB0 JUMPI PUSH1 0x0 DUP1 REVERT JUMPDEST DUP1 PUSH1 0x40 MSTORE POP SWAP2 SWAP1 POP JUMP JUMPDEST PUSH1 0x0 PUSH8 0xFFFFFFFFFFFFFFFF DUP3 GT ISZERO PUSH2 0x1DD1 JUMPI PUSH1 0x0 DUP1 REVERT JUMPDEST PUSH1 0x1F NOT PUSH1 0x1F DUP4 ADD AND SWAP1 POP PUSH1 0x20 DUP2 ADD SWAP1 POP SWAP2 SWAP1 POP JUMP JUMPDEST PUSH1 0x0 DUP2 MLOAD SWAP1 POP SWAP2 SWAP1 POP JUMP JUMPDEST PUSH1 0x0 DUP2 MLOAD SWAP1 POP SWAP2 SWAP1 POP JUMP JUMPDEST PUSH1 0x0 DUP3 DUP3 MSTORE PUSH1 0x20 DUP3 ADD SWAP1 POP SWAP3 SWAP2 POP POP JUMP JUMPDEST PUSH1 0x0 DUP3 DUP3 MSTORE PUSH1 0x20 DUP3 ADD SWAP1 POP SWAP3 SWAP2 POP POP JUMP JUMPDEST PUSH1 0x0 DUP2 SWAP1 POP SWAP3 SWAP2 POP POP JUMP JUMPDEST PUSH1 0x0 DUP3 DUP3 MSTORE PUSH1 0x20 DUP3 ADD SWAP1 POP SWAP3 SWAP2 POP POP JUMP JUMPDEST PUSH1 0x0 PUSH2 0x1E45 DUP3 PUSH2 0x1E62 JUMP JUMPDEST SWAP1 POP SWAP2 SWAP1 POP JUMP JUMPDEST PUSH1 0x0 DUP2 ISZERO ISZERO SWAP1 POP SWAP2 SWAP1 POP JUMP JUMPDEST PUSH1 0x0 DUP2 SWAP1 POP SWAP2 SWAP1 POP JUMP JUMPDEST PUSH1 0x0 PUSH20 0xFFFFFFFFFFFFFFFFFFFFFFFFFFFFFFFFFFFFFFFF DUP3 AND SWAP1 POP SWAP2 SWAP1 POP JUMP JUMPDEST PUSH1 0x0 PUSH1 0xFF DUP3 AND SWAP1 POP SWAP2 SWAP1 POP JUMP JUMPDEST DUP3 DUP2 DUP4 CALLDATACOPY PUSH1 0x0 DUP4 DUP4 ADD MSTORE POP POP POP JUMP JUMPDEST PUSH1 0x0 JUMPDEST DUP4 DUP2 LT ISZERO PUSH2 0x1EBC JUMPI DUP1 DUP3 ADD MLOAD DUP2 DUP5 ADD MSTORE PUSH1 0x20 DUP2 ADD SWAP1 POP PUSH2 0x1EA1 JUMP JUMPDEST DUP4 DUP2 GT ISZERO PUSH2 0x1ECB JUMPI PUSH1 0x0 DUP5 DUP5 ADD MSTORE JUMPDEST POP POP POP POP JUMP JUMPDEST PUSH1 0x0 PUSH2 0x1EDC DUP3 PUSH2 0x1EE3 JUMP JUMPDEST SWAP1 POP SWAP2 SWAP1 POP JUMP JUMPDEST PUSH1 0x0 PUSH2 0x1EEE DUP3 PUSH2 0x1F06 JUMP JUMPDEST SWAP1 POP SWAP2 SWAP1 POP JUMP JUMPDEST PUSH1 0x0 PUSH1 0x1F NOT PUSH1 0x1F DUP4 ADD AND SWAP1 POP SWAP2 SWAP1 POP JUMP JUMPDEST PUSH1 0x0 DUP2 PUSH1 0x60 SHL SWAP1 POP SWAP2 SWAP1 POP JUMP JUMPDEST PUSH2 0x1F1C DUP2 PUSH2 0x1E3A JUMP JUMPDEST DUP2 EQ PUSH2 0x1F27 JUMPI PUSH1 0x0 DUP1 REVERT JUMPDEST POP JUMP JUMPDEST PUSH2 0x1F33 DUP2 PUSH2 0x1E4C JUMP JUMPDEST DUP2 EQ PUSH2 0x1F3E JUMPI PUSH1 0x0 DUP1 REVERT JUMPDEST POP JUMP JUMPDEST PUSH2 0x1F4A DUP2 PUSH2 0x1E58 JUMP JUMPDEST DUP2 EQ PUSH2 0x1F55 JUMPI PUSH1 0x0 DUP1 REVERT JUMPDEST POP JUMP INVALID LOG2 PUSH5 0x6970667358 0x22 SLT KECCAK256 MULMOD NOT 0x2E PUSH19 0xB1D1A41B6F263C13ED59571EC7A932560D0A77 0xBD DUP13 0x2B 0x5F ORIGIN NUMBER PUSH30 0xABC264736F6C634300060100330000000000000000000000000000000000 "},"gasEstimates":{"creation":{"codeDepositCost":"1615600","executionCost":"22560","totalCost":"1638160"},"external":{"PERSONAL_PREFIX()":"infinite","addCertifyingAuthority(address,bytes)":"infinite","certificates(bytes32)":"infinite","certifyingAuthorities(address)":"infinite","manager()":"1237","newManager(address)":"22192","parseSignedCertificate(bytes,bool)":"infinite","registerCertificate(bytes)":"infinite","updateCertifyingAuthorityAuthorization(address,bool)":"22555"},"internal":{"checkUniqueSigner(address,bytes memory)":"infinite","getBytesStr(uint256)":"infinite"}},"methodIdentifiers":{"PERSONAL_PREFIX()":"c189f3b3","addCertifyingAuthority(address,bytes)":"e2c5cd78","certificates(bytes32)":"742f0688","certifyingAuthorities(address)":"6a40856a","manager()":"481c6a75","newManager(address)":"906e9400","parseSignedCertificate(bytes,bool)":"0b9962b1","registerCertificate(bytes)":"e02dab0d","updateCertifyingAuthorityAuthorization(address,bool)":"e987ef02"}},"storageLayout":{"storage":[{"astId":1250,"contract":"CertificateStorage.sol:CertificateStorage","label":"certificates","offset":0,"slot":"0","type":"t_mapping(t_bytes32,t_struct(Certificate)1239_storage)"},{"astId":1254,"contract":"CertificateStorage.sol:CertificateStorage","label":"certifyingAuthorities","offset":0,"slot":"1","type":"t_mapping(t_address,t_struct(CertifyingAuthority)1246_storage)"},{"astId":1256,"contract":"CertificateStorage.sol:CertificateStorage","label":"manager","offset":0,"slot":"2","type":"t_address"}],"types":{"t_address":{"encoding":"inplace","label":"address","numberOfBytes":"20"},"t_bool":{"encoding":"inplace","label":"bool","numberOfBytes":"1"},"t_bytes32":{"encoding":"inplace","label":"bytes32","numberOfBytes":"32"},"t_bytes_storage":{"encoding":"bytes","label":"bytes","numberOfBytes":"32"},"t_mapping(t_address,t_struct(CertifyingAuthority)1246_storage)":{"encoding":"mapping","key":"t_address","label":"mapping(address => struct StorageStructure.CertifyingAuthority)","numberOfBytes":"32","value":"t_struct(CertifyingAuthority)1246_storage"},"t_mapping(t_bytes32,t_struct(Certificate)1239_storage)":{"encoding":"mapping","key":"t_bytes32","label":"mapping(bytes32 => struct StorageStructure.Certificate)","numberOfBytes":"32","value":"t_struct(Certificate)1239_storage"},"t_struct(Certificate)1239_storage":{"encoding":"inplace","label":"struct StorageStructure.Certificate","members":[{"astId":1236,"contract":"CertificateStorage.sol:CertificateStorage","label":"data","offset":0,"slot":"0","type":"t_bytes_storage"},{"astId":1238,"contract":"CertificateStorage.sol:CertificateStorage","label":"signers","offset":0,"slot":"1","type":"t_bytes_storage"}],"numberOfBytes":"64"},"t_struct(CertifyingAuthority)1246_storage":{"encoding":"inplace","label":"struct StorageStructure.CertifyingAuthority","members":[{"astId":1241,"contract":"CertificateStorage.sol:CertificateStorage","label":"data","offset":0,"slot":"0","type":"t_bytes_storage"},{"astId":1243,"contract":"CertificateStorage.sol:CertificateStorage","label":"isAuthorised","offset":0,"slot":"1","type":"t_bool"},{"astId":1245,"contract":"CertificateStorage.sol:CertificateStorage","label":"isMigrated","offset":1,"slot":"1","type":"t_bool"}],"numberOfBytes":"64"}}},"userdoc":{"methods":{}}}